:040000001BEF00F002
:100008004E820E0133A10BEF00F00DEF00F019EF57
:1000180000F07C8E000E0001A16F010EA06F9E4BB8
:100028009F2B4DEC18F00E0133914E921100D8EF32
:0200380017F0BF
:100E000000524742433A256920256920256920255B
:070E1000692025690A0000BA
:100E180020EE1CF02150D9262250DA22DECF09F02C
:100E2800DECF0AF0DECF0BF0DECF0CF0000E0D6E39
:100E3800000E0E6EC00E0F6E400E106E0CEC14F00D
:100E4800D8B029EF07F02BEF07F02EEF09F0000ECE
:100E5800096E000E0A6EC00E0B6E3F0E0C6E20EE71
:100E68001CF02150D9262250DA22DECF0DF0DECF39
:100E78000EF0DECF0FF0DECF10F00CEC14F0D8B08F
:100E880048EF07F04AEF07F02EEF09F0000E096E61
:100E9800000E0A6E000E0B6E410E0C6E20EE14F062
:100EA8002150D9262250DA22DECF0DF0DECF0EF007
:100EB800DECF0FF0DECF10F00CEC14F0D8B067EFF7
:100EC80007F069EF07F0AEEF07F023C01CF024C06D
:100ED8001DF025C01EF026C01FF08EEC14F0210E68
:100EE800286E780E276E980EE82EFED7272EFCD790
:100EF800282EFAD700D023C01CF024C01DF025C02E
:100F08001EF026C01FF034EC18F0070E286E7F0E76
:100F1800276E500EE82EFED7272EFCD7282EFAD79C
:100F280023C01CF024C01DF025C01EF026C01FF0F1
:100F38005CEC16F0120E286EDC0E276E600EE82EA2
:100F4800FED7272EFCD7282EFAD7010EA6EF0CF0D5
:100F5800A6EF0CF0000E096E000E0A6E900E0B6ED6
:100F6800400E0C6E20EE18F02150D9262250DA22BD
:100F7800DECF0DF0DECF0EF0DECF0FF0DECF10F0BB
:100F88000CEC14F0D8B0CBEF07F0CDEF07F030EF52
:100F980008F020EE18F02150D9262250DA22DECFB0
:100FA80009F0DECF0AF0DECF0BF0DECF0CF0000E3A
:100FB8000D6E000E0E6EB00E0F6E400E106E0CEC25
:100FC80014F0D8B0EAEF07F0ECEF07F030EF08F0D4
:100FD80023C01CF024C01DF025C01EF026C01FF041
:100FE8008EEC14F0210E286E780E276E980EE82EDF
:100FF800FED7272EFCD7282EFAD700D023C01CF006
:1010080024C01DF025C01EF026C01FF034EC18F0D7
:10101800070E286E7F0E276E500EE82EFED7272E5D
:10102800FCD7282EFAD723C01CF024C01DF025C0F9
:101038001EF026C01FF095EC16F0150E286E4B0E0C
:10104800276EBE0EE82EFED7272EFCD7282EFAD7FD
:1010580000D0020EA6EF0CF0330E096E330E0A6EA6
:10106800330E0B6E400E0C6E20EE18F02150D92670
:101078002250DA22DECF0DF0DECF0EF0DECF0FF0F9
:10108800DECF10F00CEC14F0D8B04DEF08F04FEFB5
:1010980008F0ACEF07F020EE18F02150D9262250C6
:1010A800DA22DECF09F0DECF0AF0DECF0BF0DECF9A
:1010B8000CF0CD0E0D6ECC0E0E6E4C0E0F6E400E5B
:1010C800106E0CEC14F0D8B06CEF08F06EEF08F06E
:1010D800ACEF07F0330E096E330E0A6E330E0B6E4B
:1010E800400E0C6E20EE10F02150D9262250DA2244
:1010F800DECF0DF0DECF0EF0DECF0FF0DECF10F03A
:101108000CEC14F0D8B08BEF08F08DEF08F0ACEFD2
:1011180007F020EE10F02150D9262250DA22DECF37
:1011280009F0DECF0AF0DECF0BF0DECF0CF0CD0EEB
:101138000D6ECC0E0E6E4C0E0F6E400E106E0CEC3B
:1011480014F0D8B0AAEF08F0ACEF08F0ACEF07F055
:10115800330E096E330E0A6E330E0B6E400E0C6E94
:1011680020EE14F02150D9262250DA22DECF0DF0DD
:10117800DECF0EF0DECF0FF0DECF10F00CEC14F067
:10118800D8B0C9EF08F0CBEF08F0ACEF07F020EECD
:1011980014F02150D9262250DA22DECF09F0DECF12
:1011A8000AF0DECF0BF0DECF0CF0CD0E0D6ECC0EBC
:1011B8000E6E4C0E0F6E400E106E0CEC14F0D8B084
:1011C800E8EF08F0EAEF08F0ACEF07F023C01CF0F6
:1011D80024C01DF025C01EF026C01FF08EEC14F0B0
:1011E800210E286E780E276E980EE82EFED7272E31
:1011F800FCD7282EFAD700D023C01CF024C01DF03D
:1012080025C01EF026C01FF034EC18F0070E286E1B
:101218007F0E276E500EE82EFED7272EFCD7282EDD
:10122800FAD723C01CF024C01DF025C01EF026C02C
:101238001FF095EC16F0220E286E480E276E620EEF
:10124800E82EFED7272EFCD7282EFAD700D0030E7B
:10125800A6EF0CF0EC0E096E510E0A6EC00E0B6E66
:10126800400E0C6E20EE1CF02150D9262250DA22B6
:10127800DECF0DF0DECF0EF0DECF0FF0DECF10F0B8
:101288000CEC14F0D8B04BEF09F04DEF09F024EF57
:101298000CF020EE1CF02150D9262250DA22DECFA5
:1012A80009F0DECF0AF0DECF0BF0DECF0CF0000E37
:1012B8000D6E000E0E6E100E0F6E410E106E0CECC1
:1012C80014F0D8B06AEF09F06CEF09F024EF0CF0D5
:1012D80020EE18F02150D9262250DA22DECF09F06C
:1012E800DECF0AF0DECF0BF0DECF0CF0000E0D6E75
:1012F800000E0E6EA00E0F6E400E106E0CEC14F069
:10130800D8B089EF09F08BEF09F05AEF0AF09A0E7E
:10131800096E990E0A6ED90E0B6E3F0E0C6E20EEFA
:1013280010F02150D9262250DA22DECF0DF0DECF80
:101338000EF0DECF0FF0DECF10F00CEC14F0D8B0CA
:10134800A8EF09F0AAEF09F05AEF0AF020EE10F022
:101358002150D9262250DA22DECF09F0DECF0AF05A
:10136800DECF0BF0DECF0CF0CD0E0D6ECC0E0E6E78
:101378000C0E0F6E400E106E0CEC14F0D8B0C7EFC8
:1013880009F0C9EF09F05AEF0AF0000E096E000ED5
:101398000A6E400E0B6E400E0C6E20EE14F02150BB
:1013A800D9262250DA22DECF0DF0DECF0EF0DECFC6
:1013B8000FF0DECF10F00CEC14F0D8B0E6EF09F027
:1013C800E8EF09F05AEF0AF020EE14F02150D92680
:1013D8002250DA22DECF09F0DECF0AF0DECF0BF0A2
:1013E800DECF0CF0000E0D6E000E0E6E600E0F6E4E
:1013F800400E106E0CEC14F0D8B005EF0AF007EFB1
:101408000AF05AEF0AF080A00CEF0AF010EF0AF089
:10141800276A272A11EF0AF0276A80502718FE0B3F
:101428002718806E23C01CF024C01DF025C01EF0B4
:1014380026C01FF08EEC14F0A30E286E570E276EF0
:10144800020EE82EFED7272EFCD7282EFAD700D07A
:1014580023C01CF024C01DF025C01EF026C01FF0BC
:1014680034EC18F0190E286E5A0E276EB20EE82EBC
:10147800FED7272EFCD7282EFAD723C01CF024C06D
:101488001DF025C01EF026C01FF095EC16F0150EB5
:10149800286E4B0E276EBE0EE82EFED7272EFCD7E1
:1014A800282EFAD700D0050EA6EF0CF0000E096E14
:1014B800000E0A6EB00E0B6E400E0C6E20EE18F089
:1014C8002150D9262250DA22DECF0DF0DECF0EF0E1
:1014D800DECF0FF0DECF10F00CEC14F0D8B077EFC1
:1014E8000AF079EF0AF02DEF0BF020EE18F02150FA
:1014F800D9262250DA22DECF09F0DECF0AF0DECF7D
:101508000BF0DECF0CF0000E0D6E000E0E6EC00E4E
:101518000F6E400E106E0CEC14F0D8B096EF0AF077
:1015280098EF0AF02DEF0BF0330E096E330E0A6EAA
:10153800B30E0B6E3F0E0C6E20EE10F02150D92624
:101548002250DA22DECF0DF0DECF0EF0DECF0FF024
:10155800DECF10F00CEC14F0D8B0B5EF0AF0B7EF0E
:101568000AF02DEF0BF020EE10F02150D926225072
:10157800DA22DECF09F0DECF0AF0DECF0BF0DECFC5
:101588000CF09A0E0D6E990E0E6ED90E0F6E3F0E60
:10159800106E0CEC14F0D8B0D4EF0AF0D6EF0AF0C5
:1015A8002DEF0BF0330E096E330E0A6E830E0B6EA1
:1015B800400E0C6E20EE14F02150D9262250DA226B
:1015C800DECF0DF0DECF0EF0DECF0FF0DECF10F065
:1015D8000CEC14F0D8B0F3EF0AF0F5EF0AF02DEFA9
:1015E8000BF020EE14F02150D9262250DA22DECF5B
:1015F80009F0DECF0AF0DECF0BF0DECF0CF0000EE4
:101608000D6E000E0E6E900E0F6E400E106E0CECEE
:1016180014F0D8B012EF0BF014EF0BF02DEF0BF025
:1016280023C01CF024C01DF025C01EF026C01FF0EA
:101638005CEC16F01D0E286E690E276EA50EE82EBE
:10164800FED7272EFCD7282EFAD700F0060EA6EFD5
:101658000CF0330E096E330E0A6E530E0B6E400EED
:101668000C6E20EE18F02150D9262250DA22DECF57
:101678000DF0DECF0EF0DECF0FF0DECF10F00CEC69
:1016880014F0D8B04AEF0BF04CEF0BF0ACEF07F0CA
:1016980020EE18F02150D9262250DA22DECF09F0A8
:1016A800DECF0AF0DECF0BF0DECF0CF09A0E0D6E17
:1016B800990E0E6E790E0F6E400E106E0CEC14F033
:1016C800D8B069EF0BF06BEF0BF0ACEF07F0CD0E75
:1016D800096ECC0E0A6E2C0E0B6E400E0C6E20EEB0
:1016E80010F02150D9262250DA22DECF0DF0DECFBD
:1016F8000EF0DECF0FF0DECF10F00CEC14F0D8B007
:1017080088EF0BF08AEF0BF0ACEF07F020EE10F04B
:101718002150D9262250DA22DECF09F0DECF0AF096
:10172800DECF0BF0DECF0CF0CD0E0D6ECC0E0E6EB4
:101738004C0E0F6E400E106E0CEC14F0D8B0A7EFE4
:101748000BF0A9EF0BF0ACEF07F0000E096E000EDE
:101758000A6E200E0B6E400E0C6E20EE14F0215017
:10176800D9262250DA22DECF0DF0DECF0EF0DECF02
:101778000FF0DECF10F00CEC14F0D8B0C6EF0BF081
:10178800C8EF0BF0ACEF07F020EE14F02150D9268B
:101798002250DA22DECF09F0DECF0AF0DECF0BF0DE
:1017A800DECF0CF09A0E0D6E990E0E6E390E0F6E7E
:1017B800400E106E0CEC14F0D8B0E5EF0BF0E7EF2C
:1017C8000BF0ACEF07F07EA0ECEF0BF0F0EF0BF0B6
:1017D800276A272AF1EF0BF0276A7E502718FE0B9D
:1017E80027187E6E23C01CF024C01DF025C01EF0F3
:1017F80026C01FF095EC16F0190E286E5A0E276EAB
:10180800B20EE82EFED7272EFCD7282EFAD723C0F3
:101818001CF024C01DF025C01EF026C01FF034ECBB
:1018280018F0A30E286E570E276E020EE82EFED76C
:10183800272EFCD7282EFAD700D0070EA6EF0CF0DB
:10184800F60E096E280E0A6E100E0B6E410E0C6E07
:1018580020EE1CF02150D9262250DA22DECF0DF0DE
:10186800DECF0EF0DECF0FF0DECF10F00CEC14F070
:10187800D8B041EF0CF043EF0CF0A6EF0CF0000EDF
:10188800096E000E0A6EA00E0B6E400E0C6E20EE56
:1018980018F02150D9262250DA22DECF0DF0DECF03
:1018A8000EF0DECF0FF0DECF10F00CEC14F0D8B055
:1018B80060EF0CF062EF0CF0A6EF0CF0010E0001E7
:1018C800A26F23C01CF024C01DF025C01EF026C046
:1018D8001FF08EEC14F0210E286E780E276E980EED
:1018E800E82EFED7272EFCD7282EFAD700D023C003
:1018F8001CF024C01DF025C01EF026C01FF034ECDB
:1019080018F0070E286E7F0E276E500EE82EFED7B1
:10191800272EFCD7282EFAD723C01CF024C01DF090
:1019280025C01EF026C01FF095EC16F0230E286E79
:10193800800E276E120EE82EFED7272EFCD7282EF3
:10194800FAD7080E120048502124276E4950222049
:10195800286EFE0E2724D96EFF0E2820DA6EDE04CC
:10196800D8A4B9EF0CF0BBEF0CF0FEEF0CF023C0DD
:101978001CF024C01DF025C01EF026C01FF08EEC00
:1019880014F0210E286E780E276E980EE82EFED7DA
:10199800272EFCD7282EFAD700D023C01CF024C04D
:1019A8001DF025C01EF026C01FF034EC18F0070EFD
:1019B800286E7F0E276E500EE82EFED7272EFCD7F6
:1019C800282EFAD723C01CF024C01DF025C01EF015
:1019D80026C01FF095EC16F0150E286E4B0E276EDC
:1019E800BE0EE82EFED7272EFCD7282EFAD700D019
:1019F800ACEF0EF048502124276E49502220286E63
:101A0800FE0E2724D96EFF0E2820DA6E020EDE188D
:101A1800D8A411EF0DF013EF0DF055EF0DF023C022
:101A28001CF024C01DF025C01EF026C01FF08EEC4F
:101A380014F0210E286E780E276E980EE82EFED729
:101A4800272EFCD7282EFAD700D023C01CF024C09C
:101A58001DF025C01EF026C01FF034EC18F0070E4C
:101A6800286E7F0E276E500EE82EFED7272EFCD745
:101A7800282EFAD723C01CF024C01DF025C01EF064
:101A880026C01FF05CEC16F0120E286EDC0E276ED6
:101A9800600EE82EFED7272EFCD7282EFAD7ACEFFB
:101AA8000EF048502124276E49502220286EFE0E41
:101AB8002724D96EFF0E2820DA6E030EDE18D8A46C
:101AC80068EF0DF06AEF0DF0ACEF0DF023C01CF0DD
:101AD80024C01DF025C01EF026C01FF08EEC14F0A7
:101AE800210E286E780E276E980EE82EFED7272E28
:101AF800FCD7282EFAD700D023C01CF024C01DF034
:101B080025C01EF026C01FF034EC18F0070E286E12
:101B18007F0E276E500EE82EFED7272EFCD7282ED4
:101B2800FAD723C01CF024C01DF025C01EF026C023
:101B38001FF05CEC16F0230E286EE70E276EF80EE9
:101B4800E82EFED7272EFCD7282EFAD7ACEF0EF0BA
:101B580048502124276E49502220286EFE0E272443
:101B6800D96EFF0E2820DA6E040EDE18D8A4BFEF57
:101B78000DF0C1EF0DF01BEF0EF023C01CF024C0D8
:101B88001DF025C01EF026C01FF034EC18F0090E19
:101B9800286E1E0E276EE40EE82EFED7272EFCD7E1
:101BA800282EFAD700D023C01CF024C01DF025C071
:101BB8001EF026C01FF05CEC16F0150E286E4B0EBA
:101BC800276EBE0EE82EFED7272EFCD7282EFAD772
:101BD80000D023C01CF024C01DF025C01EF026C074
:101BE8001FF034EC18F0090E286E1E0E276EE40E56
:101BF800E82EFED7272EFCD7282EFAD700D023C0F0
:101C08001CF024C01DF025C01EF026C01FF00AECF1
:101C180015F0A30E286E570E276E020EE82EFED77B
:101C2800272EFCD7282EFAD700D0ACEF0EF048505C
:101C38002124276E49502220286EFE0E2724D96EB3
:101C4800FF0E2820DA6E050EDE18D8A42EEF0EF04F
:101C580030EF0EF05EEF0EF023C01CF024C01DF034
:101C680025C01EF026C01FF034EC18F0090E286EAF
:101C78001E0E276EE40EE82EFED7272EFCD7282E40
:101C8800FAD700D023C01CF024C01DF025C01EF0D8
:101C980026C01FF095EC16F0150E286E4B0E276E19
:101CA800BE0EE82EFED7272EFCD7282EFAD700D056
:101CB800EDEF0DF048502124276E49502220286E60
:101CC800FE0E2724D96EFF0E2820DA6E060EDE18C7
:101CD800D8A471EF0EF073EF0EF08BEF0EF023C067
:101CE8001CF024C01DF025C01EF026C01FF095EC86
:101CF80016F01D0E286E690E276EA50EE82EFED76B
:101D0800272EFCD7282EFAD700F0ACEF0EF048505B
:101D18002124276E49502220286EFE0E2724D96ED2
:101D2800FF0E2820DA6E070EDE18D8A49EEF0EF0FC
:101D3800A0EF0EF0ACEF0EF023C01CF024C01DF095
:101D480025C01EF026C01FF05CEC16F07DEF0EF0EB
:101D580012000C50800B196E0C500C24206E0BAE28
:101D6800B8EF0EF0BAEF0EF0BBEF0EF02080205067
:101D7800D8B4C1EF0EF0C3EF0EF0D8EF0EF0202864
:101D8800D8A4C9EF0EF0CBEF0EF0D3EF0EF0000E93
:101D9800096E000E0A6E000E0B6E000E0C6E0B8E96
:101DA800000E0C6EE0EF0EF0000E096E000E0A6ECB
:101DB800000E0B6E000E0C6E1050800B191A10508E
:101DC8001024216E0FAEEBEF0EF0EDEF0EF0EEEFFC
:101DD8000EF021802150D8B4F4EF0EF0F6EF0EF09B
:101DE8000BEF0FF02128D8A4FCEF0EF0FEEF0EF059
:101DF80006EF0FF0000E0D6E000E0E6E000E0F6E49
:101E0800000E106E0F8E000E106E13EF0FF0000E06
:101E18000D6E000E0E6E000E0F6E000E106E0D5041
:101E28000E100F101010D8A41CEF0FF01EEF0FF0BB
:101E380036EF0FF0000E096E000E0A6E000E0B6EE4
:101E4800000E0C6E800E0B127F0E0C1219500C1225
:101E580009C009F00AC00AF00BC00BF00CC00CF066
:101E680079EF10F02050D8A43CEF0FF03EEF0FF0C0
:101E780048EF0FF0000E096E000E0A6E000E0B6E92
:101E8800000E0C6E79EF10F0215020C011F0126A8C
:101E9800115E000E125A7F0E11241A6E000E1220C7
:101EA8001B6E09C015F00AC016F00BC017F00CC065
:101EB80018F0000E096E000E0A6E000E0B6E000E72
:101EC8000C6E000E1C6E000E1D6E000E1E6E000EB7
:101ED8001F6E000E216EA9EF0FF02150D8B477EFD6
:101EE8000FF079EF0FF090EF0FF0D8901536163607
:101EF80017361836D89009360A360B360C361FAE08
:101F080088EF0FF08AEF0FF08BEF0FF00980D89071
:101F18001C361D361E361F360D50155C0E501658D1
:101F28000F50175810501858D8A09DEF0FF09FEF7A
:101F38000FF0A8EF0FF01F8C0D50155E0E50165ABB
:101F48000F50175A1050185A212A190E2164AFEF52
:101F58000FF0B1EF0FF071EF0FF0155016101710CA
:101F68001810D8B4BAEF0FF0BCEF0FF0D4EF0FF0A1
:101F78001C80D4EF0FF0D89009360A360B360C3691
:101F88001FAEC9EF0FF0CBEF0FF0CCEF0FF00980C9
:101F9800D8901C361D361E361F361A06D8A01B06CA
:101FA8000BAED9EF0FF0DBEF0FF0BFEF0FF0000E25
:101FB800216E1FAEE2EF0FF0E4EF0FF008EF10F024
:101FC800FF0E1C14116EFF0E1D14126EFF0E1E1450
:101FD800136E7F0E1F14146E11501210131014106C
:101FE800D8B4F9EF0FF0FBEF0FF0FFEF0FF0010E91
:101FF800216E08EF10F009A004EF10F006EF10F0C2
:1020080008EF10F0FBEF0FF02150D8B40EEF10F0EE
:1020180010EF10F034EF10F0010E0926000E0A221E
:102028000B220C220CA01BEF10F01DEF10F034EF68
:1020380010F009C011F00AC012F00BC013F00CC068
:1020480014F01434143213321232113211C009F060
:1020580012C00AF013C00BF014C00CF01A4A1B2A65
:102068001BBE3FEF10F01B5008E11A28D8A03FEF25
:1020780010F041EF10F04CEF10F0000E1B6E1A68D4
:10208800000E096E000E0A6E000E0B6E000E0C6E2E
:102098001BBE59EF10F01B5006E11A04D8B057EFD9
:1020A80010F059EF10F067EF10F0000E1B6E000EE5
:1020B8001A6E000E096E000E0A6E000E0B6E000EF0
:1020C8000C6E000E196E1AC020F020A06EEF10F0F2
:1020D80070EF10F073EF10F00B8E74EF10F00B9E92
:1020E800D89020300C6E2AEF0FF012001AEC19F07D
:1020F8001AEC18F0000E496E000E486E000E000132
:102108009F6F000E9E6F000EB36F000EB26FA30E8E
:10211800B225D96E000EB321DA6E000EDF6EB24B17
:10212800B32BB3BFA1EF10F0B35109E10F0EB25DAD
:10213800D8A0A1EF10F0A3EF10F08BEF10F025EC72
:1021480019F000EC19F0E6C00DF0E7C00EF09CC0E5
:102158000FF09DC010F07BEC18F030EC19F0000E79
:102168000A6EC80E096EE2EC15F0D40E096E000E68
:102178000A6E03EC17F0DD0E096E000E0A6ECEEC47
:1021880016F085948598839E879C849E7C9E88966D
:1021980080968890809086907E90000E0001A26FB5
:1021A800D40E1C6E000E1D6EDD0E1E6E000E1F6E10
:1021B8000AEC15F00001A005A111D8A4E6EF10F073
:1021C800E8EF10F0D4EF10F09FBFF4EF10F09F513C
:1021D80009E1020E9E5DD8A0F4EF10F0F6EF10F0C2
:1021E800D4EF10F0D40E1C6E000E1D6EDD0E1E6EA8
:1021F800000E1F6E34EC18F0520E2B6E2B0E2A6E4A
:10220800000EE82EFED72A2EFCD72B2EFAD700D0A8
:102218007C9E0001A251D8A414EF11F016EF11F022
:102228004FEF11F0B40E226E000E236E7FEC15F006
:10223800B40E226E000E236E63EC13F080A627EF17
:1022480011F02BEF11F02A6A2A2A2CEF11F02A6AD2
:102258002A462A462A4680502A18F70B2A18806EE2
:10226800B40E216E000E226ED40E236E000E246E64
:10227800DD0E256E000E266E0CEC07F02A6EA30EFE
:102288004824D96E000E4920DA6E2AC0DFFF484A7A
:10229800492AC9EF11F0A30E216E000E226ED40E4A
:1022A800236E000E246EDD0E256E000E266EA7EC42
:1022B8000CF04806D8A04906FF0E48242A6EFF0EE7
:1022C80049202B6E2A502B10D8A46DEF11F06FEF18
:1022D80011F0C9EF11F0D40E1C6E000E1D6EDD0E4C
:1022E8001E6E000E1F6E0AEC15F0520E2B6E2B0E92
:1022F8002A6E000EE82EFED72A2EFCD72B2EFAD7F0
:1023080000D0D40E1C6E000E1D6EDD0E1E6E000E6B
:102318001F6E34EC18F0290E2B6E960E2A6E7F0E67
:10232800E82EFED72A2EFCD72B2EFAD700F0D40E93
:102338001C6E000E1D6EDD0E1E6E000E1F6E95ECDF
:1023480016F0230E2B6E800E2A6E120EE82EFED784
:102358002A2EFCD72B2EFAD7000E0001A26FD40E1E
:102368001C6E000E1D6EDD0E1E6E000E1F6E34EC10
:1023780018F0A30E2B6E570E2A6E020EE82EFED70B
:102388002A2EFCD72B2EFAD700D08096000E0001FB
:10239800A16F000EA06FD4EF10F01BEF00F01C6EC1
:1023A8001C50D8B4DAEF11F0DCEF11F0FEEF11F0A9
:1023B80017BEE3EF11F0E1EF11F0FEEF11F014C0DA
:1023C80018F015C019F016C01AF017C01BF0181E27
:1023D800191E1A1E1B1E182A000E19221A221B2249
:1023E80018C01EF019C01FF01AC020F01BC021F041
:1023F80006EF12F014C01EF015C01FF016C020F032
:1024080017C021F01450151016101710D8A40FEF8C
:1024180012F011EF12F01BEF12F0000E146E000E06
:10242800156E000E166E000E176EACEF12F0960EBB
:102438001D6E25EF12F01D2AD890213220321F324E
:102448001E32000E1E14186E000E1F14196E000E98
:1024580020141A6EFE0E21141B6E185019101A1033
:102468001B10D8A43AEF12F03CEF12F01FEF12F055
:102478004AEF12F01D2A010E1E26000E1F222022EE
:102488002122D890213220321F321E32000E1E1413
:10249800186E000E1F14196E000E20141A6EFF0E0F
:1024A80021141B6E185019101A101B10D8A45FEFB6
:1024B80012F061EF12F03EEF12F069EF12F01D0614
:1024C800D8901E361F362036213620BE6EEF12F009
:1024D80070EF12F078EF12F0020E1D6076EF12F036
:1024E80078EF12F063EF12F01DB07DEF12F07FEF7E
:1024F80012F080EF12F0209ED8901D321DC018F007
:10250800196A1A6A1B6A18C01BF01A6A196A186ACB
:1025180018501E1219501F121A5020121B50211247
:102528001C50D8B49AEF12F09CEF12F0A4EF12F0FE
:1025380017BEA3EF12F0A1EF12F0A4EF12F0218E54
:102548001EC014F01FC015F020C016F021C017F0EF
:10255800120020EE02F01650D9261750DA22DF506A
:10256800D8B4B9EF12F0BBEF12F0EFEF12F016C0CB
:10257800D9FF17C0DAFFDF50186E1850096E0A6AC3
:1025880020EE03F01650D9261750DA22DECF0BF0D2
:10259800DDCF0CF0CDEC18F009C00FF00AC010F038
:1025A800000E126E640E116E22EC16F020EE03F08F
:1025B8001650D9261750DA22DF50196E0F50195CC1
:1025C8001A6E20EE03F01650D9261750DA22DF5083
:1025D8001B6E12EF13F016C0D9FF17C0DAFFDF50D9
:1025E800186E1850096E0A6A20EE03F01650D926A4
:1025F8001750DA22DECF0BF0DDCF0CF0CDEC18F05F
:1026080009C00FF00AC010F0000E126E640E116EB1
:1026180022EC16F00F501A6E000E1B6E20EE01F021
:102628001650D9261750DA22DF50D8B41EEF13F00F
:1026380020EF13F042EF13F020EE05F01650D926E4
:102648001750DA22DECF18F0DDCF19F018C0D9FF05
:1026580019C0DAFF1AC0DFFF20EE07F01650D9269E
:102668001750DA22DECF18F0DDCF19F018C0D9FFE5
:1026780019C0DAFF1BC0DFFF62EF13F020EE05F090
:102688001650D9261750DA22DECF18F0DDCF19F010
:1026980018C0D9FF19C0DAFF1BC0DFFF20EE07F012
:1026A8001650D9261750DA22DECF18F0DDCF19F0F0
:1026B80018C0D9FF19C0DAFF1AC0DFFF120020EED8
:1026C8000CF02250D9262350DA22DECF09F0DECFD3
:1026D8000AF0DECF0BF0DECF0CF022C0D9FF23C00A
:1026E800DAFFDECF0DF0DECF0EF0DECF0FF0DECF5B
:1026F80010F0ADEC0EF020EE10F02250D926235049
:10270800DA2209C0DEFF0AC0DEFF0BC0DEFF0CC004
:10271800DEFF20EE0CF02250D9262350DA22DECF3D
:1027280009F0DECF0AF0DECF0BF0DECF0CF020EEA2
:1027380004F02250D9262350DA22DECF0DF0DECF66
:102748000EF0DECF0FF0DECF10F0ADEC0EF020EE85
:1027580014F02250D9262350DA2209C0DEFF0AC01D
:10276800DEFF0BC0DEFF0CC0DEFF20EE0CF02250B7
:10277800D9262350DA22DECF09F0DECF0AF0DECFE9
:102788000BF0DECF0CF020EE08F02250D9262350B3
:10279800DA22DECF0DF0DECF0EF0DECF0FF0DECF87
:1027A80010F0ADEC0EF020EE18F02250D926235090
:1027B800DA2209C0DEFF0AC0DEFF0BC0DEFF0CC054
:1027C800DEFF20EE0CF02250D9262350DA22DECF8D
:1027D80009F0DECF0AF0DECF0BF0DECF0CF0000EF2
:1027E8000D6EA00E0E6E250E0F6E450E106EADEC22
:1027F8000EF020EE1CF02250D9262350DA2209C010
:10280800DEFF0AC0DEFF0BC0DEFF0CC0DEFF1200D9
:10281800000E0914116E000E0A14126E800E0B14AD
:10282800136E7F0E0C14146E115012101310141026
:10283800D8A421EF14F023EF14F02BEF14F0000EBE
:10284800096E000E0A6E000E0B6E000E0C6E000E66
:102858000D14116E000E0E14126E800E0F14136EEE
:102868007F0E1014146E1150121013101410D8A4E7
:1028780040EF14F042EF14F04AEF14F0000E0D6E22
:10288800000E0E6E000E0F6E000E106E0CAE4FEFA7
:1028980014F051EF14F05AEF14F0096C0A1ED8B076
:1028A8000A2A0B1ED8B00B2A800E0C5610AE5FEF0A
:1028B80014F061EF14F06AEF14F00D6C0E1ED8B02E
:1028C8000E2A0F1ED8B00F2A800E1056000E091AB5
:1028D800000E0A1A000E0B1A800E0C1A000E0D1AA2
:1028E800000E0E1A000E0F1A800E101A0D50095CF9
:1028F8000E500A580F500B5810500C58D8B087EF8C
:1029080014F089EF14F08CEF14F0D8908DEF14F0D8
:10291800D88012001CC0D9FF1DC0DAFF050EDF6E7B
:102928001EC0D9FF1FC0DAFF050EDF6E20EE01F0D2
:102938001E50D9261F50DA22000EDF6E20EE01F05D
:102948001C50D9261D50DA22000EDF6E20EE02F050
:102958001C50D9261D50DA22010EDF6E20EE02F03F
:102968001E50D9261F50DA22010EDF6ED9EF14F05F
:102978001CC0D9FF1DC0DAFFDF2A1EC0D9FF1FC047
:10298800DAFFDF2AD00E206ECA0EE82EFED7202EE0
:10299800FCD71CC016F01DC017F0ADEC12F01EC01D
:1029A80016F01FC017F0ADEC12F01CC0D9FF1DC007
:1029B800DAFF150EDF60E3EF14F0E5EF14F0F1EF46
:1029C80014F01EC0D9FF1FC0DAFF140EDF64EFEF4A
:1029D80014F0F1EF14F0BCEF14F01CC0D9FF1DC0C7
:1029E800DAFF140EDF6E1EC0D9FF1FC0DAFF140E07
:1029F800DF6E1CC016F01DC017F0ADEC12F01EC043
:102A080016F01FC017F0ADEC12F012001CC0D9FF71
:102A18001DC0DAFF050EDF6E1EC0D9FF1FC0DAFF2A
:102A2800050EDF6E20EE01F01E50D9261F50DA2267
:102A3800010EDF6E20EE01F01C50D9261D50DA225F
:102A4800010EDF6E20EE02F01C50D9261D50DA224E
:102A5800010EDF6E20EE02F01E50D9261F50DA223A
:102A6800010EDF6E4EEF15F01CC0D9FF1DC0DAFF56
:102A7800DF2A1EC0D9FF1FC0DAFFDF2A1CC016F0EC
:102A88001DC017F0ADEC12F01EC016F01FC017F0F5
:102A9800ADEC12F01CC0D9FF1DC0DAFF2E0EDF60AE
:102AA80058EF15F05AEF15F066EF15F01EC0D9FF74
:102AB8001FC0DAFF2D0EDF6464EF15F066EF15F026
:102AC80038EF15F01CC0D9FF1DC0DAFF2D0EDF6EE0
:102AD8001EC0D9FF1FC0DAFF2D0EDF6E1CC016F016
:102AE8001DC017F0ADEC12F01EC016F01FC017F095
:102AF800ADEC12F0120038EC17F00DC014F00EC057
:102B080015F0166A176A000ED3EC11F022C0D9FF2F
:102B180023C0DAFF14C0DEFF15C0DEFF16C0DEFFDB
:102B280017C0DEFFB0EC17F00DC014F00EC015F0A2
:102B3800166A176A000ED3EC11F020EE08F0225046
:102B4800D9262350DA2214C0DEFF15C0DEFF16C0D6
:102B5800DEFF17C0DEFF60EC17F00DC014F00EC0EA
:102B680015F0166A176A000ED3EC11F020EE04F087
:102B78002250D9262350DA2214C0DEFF15C0DEFF0A
:102B880016C0DEFF17C0DEFF88EC17F00DC014F08A
:102B98000EC015F0166A176A000ED3EC11F020EE7D
:102BA8000CF02250D9262350DA2214C0DEFF15C0BB
:102BB800DEFF16C0DEFF17C0DEFF1200050E0E0195
:102BC800746F060E766F070E696F080E886FBD501A
:102BD8008F0B3009BD6EE00EBE16BF50F00B010919
:102BE800BF6EC80EBC6EBD8E000EAA6E000EA66E1D
:102BF800000E0F01256F000E216FFC0EAD16F30EAF
:102C0800AD16CF0EAD163F0EAD16AB88AB50F00B20
:102C18000C09AB6EAB8EA788A750F00B0C09A76EFA
:102C2800A78E26892651F00B0C09266F268F22893C
:102C38002251F00B0C09226F228F1200000E146E25
:102C4800000E136E11501210D8B42DEF16F02FEF9E
:102C580016F057EF16F0010E156E37EF16F0D890F4
:102C680011361236152A12AE3CEF16F03EEF16F06A
:102C780033EF16F0D8901336143611500F5C1250FB
:102C88001058D8A04AEF16F04CEF16F051EF16F096
:102C980011500F5E1250105A1380D8901232113210
:102CA800152E3EEF16F013C00FF014C010F01200EE
:102CB8001CC0D9FF1DC0DAFF3C0EDF6E1EC0D9FF55
:102CC8001FC0DAFF3C0EDF6E20EE02F01C50D92642
:102CD8001D50DA22010EDF6E20EE02F01E50D926BA
:102CE8001F50DA22010EDF6E20EE01F01E50D926A9
:102CF8001F50DA22000EDF6E20EE01F01C50D9269C
:102D08001D50DA22010EDF6E1CC016F01DC017F030
:102D1800ADEC12F01EC016F01FC017F0ADEC12F0AB
:102D280012001CC0D9FF1DC0DAFF3C0EDF6E1EC0AA
:102D3800D9FF1FC0DAFF3C0EDF6E20EE02F01C50F8
:102D4800D9261D50DA22010EDF6E20EE02F01E5049
:102D5800D9261F50DA22010EDF6E20EE01F01C503A
:102D6800D9261D50DA22000EDF6E20EE01F01E502B
:102D7800D9261F50DA22010EDF6E1CC016F01DC0C6
:102D880017F0ADEC12F01EC016F01FC017F0ADEC36
:102D980012F0120009C0D9FF0AC0DAFF320EDF6E46
:102DA80020EE01F00950D9260A50DA22010EDF6E12
:102DB80020EE02F00950D9260A50DA22010EDF6E01
:102DC80020EE05F00950D9260A50DA22250EDE6ECB
:102DD8000F0EDD6E20EE07F00950D9260A50DA22D0
:102DE800210EDE6E0F0EDD6E20EE03F00950D9269F
:102DF8000A50DA22C80EDE6E000EDD6E120009C01F
:102E0800D9FF0AC0DAFF320EDF6E20EE01F009505A
:102E1800D9260A50DA22010EDF6E20EE02F00950A0
:102E2800D9260A50DA22010EDF6E20EE05F009508D
:102E3800D9260A50DA22AA0EDE6E0F0EDD6E20EEBB
:102E480007F00950D9260A50DA22A60EDE6E0F0EB8
:102E5800DD6E20EE03F00950D9260A50DA22C80E9A
:102E6800DE6E000EDD6E120052EC19F0520E36ECDA
:102E780019F0B60E36EC19F048EC19F0530E36EC92
:102E880019F0010EF9EC17F00F6E0F50126E136A5D
:102E9800000EF9EC17F00F6E0F50116E106A1250F9
:102EA8001010126E13501110136E4DEC19F012C061
:102EB8000DF013C00EF0120052EC19F0520E36EC61
:102EC80019F0B80E36EC19F048EC19F0530E36EC40
:102ED80019F0010EF9EC17F00F6E0F50126E136A0D
:102EE800000EF9EC17F00F6E0F50116E106A1250A9
:102EF8001010126E13501110136E4DEC19F012C011
:102F08000DF013C00EF0120052EC19F0520E36EC10
:102F180019F0B40E36EC19F048EC19F0530E36ECF3
:102F280019F0010EF9EC17F00F6E0F50126E136ABC
:102F3800000EF9EC17F00F6E0F50116E106A125058
:102F48001010126E13501110136E4DEC19F012C0C0
:102F58000DF013C00EF0120052EC19F0520E36ECC0
:102F680019F0BA0E36EC19F048EC19F0530E36EC9D
:102F780019F0010EF9EC17F00F6E0F50126E136A6C
:102F8800000EF9EC17F00F6E0F50116E106A125008
:102F98001010126E13501110136E4DEC19F012C070
:102FA8000DF013C00EF01200C20EF66E320EF76E60
:102FB800000EF86E0900F5CFE6F00900F5CFE7F04E
:102FC80000EE60F0520EEE6AE806FDE100EE2CF02D
:102FD800220EEE6AE806FDE14E904E92000EF86E63
:102FE8000E0EF76E00017AEF10F00B6EA5EC18F0DC
:102FF8000E01DA87A5EC18F0D5CE0CF0A5EC18F088
:103008000B50D8B40AEF18F00EEF18F00A6A0A2A23
:103018000FEF18F00A6A0A3A0A460E01DA510A183E
:10302800DF0B0A18DA6FDA890C50120066EC18F018
:10303800010E0B6E000EE0EC18F03F0E0D6E550EF3
:10304800E82EFED70D2EFCD700F0030E0B6E000EF7
:10305800E0EC18F0D50E0B6E010EE0EC18F0120043
:103068001CC0D9FF1DC0DAFF000EDF6E1EC0D9FFDD
:103078001FC0DAFF000EDF6E1CC016F01DC017F06F
:10308800ADEC12F01EC016F01FC017F0ADEC12F038
:1030980012005CEC19F0520E42EC19F0E60E42EC0C
:1030A80019F057EC19F00DEC19F03CEC19F0E6C0EA
:1030B80005F0E7C006F09CC007F09DC008F090EC52
:1030C80018F012000E01D951F00B0809D96FD98BED
:1030D8009F0ED66F848A848CA79BA79D1D0E1D6F9B
:1030E8001E0E1C6F1C0E6F6F1B0E706F12000FC030
:1030F8000BF0040EE0EC18F010500B6E050EE0EC2F
:1031080018F00DC00BF0060EE0EC18F00E500B6E28
:10311800070EE0EC18F0120007C003F0040EF0EC04
:1031280018F00850036E050EF0EC18F005C003F017
:10313800060EF0EC18F00650036E070EF0EC18F0CF
:1031480012000E01D8B5ABEF18F0ADEF18F0A5EFEF
:1031580018F0DACE09F01F0E0916D8A4B6EF18F049
:10316800B8EF18F0A5EF18F012000E01D8B5BFEFB0
:1031780018F0C1EF18F0B9EF18F0DACE01F01F0E11
:103188000116D8A4CAEF18F0CCEF18F0B9EF18F070
:10319800120009500B02F3CF0DF0F4CF0EF00950D6
:1031A8000C02F3500E260A500B02F3500E260DC0E7
:1031B80009F00EC00AF012000C6E52EC19F0520E13
:1031C80036EC19F00C50800936EC19F00B5036EC3F
:1031D80019F04DEC19F01200046E5CEC19F0520E67
:1031E80042EC19F00450800942EC19F0035042EC0B
:1031F80019F057EC19F01200130E0B6E000EE0ECEC
:1032080018F0D00E0D6ECA0EE82EFED70D2EFCD784
:103218001200130E036E000EF0EC18F0D00E056EBF
:10322800CA0EE82EFED7052EFCD7120087907F80A5
:1032380081987988869E7E8E81967986859E7D8EF8
:10324800120082800E019A91339129811F81F29098
:10325800F28AF28CF28E1200020E0B6E0C0EE0EC6B
:1032680018F012000A6EA5EC18F00AC0D5FE12007C
:10327800020E036E0C0EF0EC18F01200026EB9ECA0
:1032880018F002C0D5FE1200A5EC18F00E01DA8382
:103298001200A5EC18F00E01DA851200A5EC18F062
:1032A8000E01DA811200B9EC18F00E01DA8512006D
:0C32B800B9EC18F00E01DA811200C40914
:020000040020DA
:10000000FF0FFF0FFF0FFF0FFF0FFF0FFF0FFF0F80
:020000040030CA
:0C000000AAFFFFFF9FFFFFFFFFFFFFFFB5
:00000001FF
