:0400000016EF00F007
:100008005F820E0133B30BEF00F00DEF00F014EF39
:1000180000F0000E0101736F000E726F0E01338342
:080028005F921100F7EF0EF0EA
:100E000000524742433A256920256920256920255B
:100E1000690A00001EC034F01FC035F020C036F053
:100E200021C037F022C038F023C039F024C03AF096
:100E300025C03BF03BBE1FEF07F022EF07F0010E8D
:100E400023EF07F0000E3E6E3E50D8B42AEF07F0B5
:100E50002CEF07F03CEF07F03B1E3A1E391E381E00
:100E6000371E361E351E346C000E352236223722D0
:100E7000382239223A223B220001FABF4AEF07F01A
:100E8000FA5106E1F905D8B048EF07F04AEF07F04C
:100E900050EF07F0000E316E010E306E54EF07F088
:100EA000F9C030F0FAC031F050C132F051C133F026
:100EB0003E50D8B45EEF07F060EF07F077EF07F031
:100EC0003206D8A033063E50D8A469EF07F06BEF86
:100ED00007F071EF07F0000E2F6E2B0E2E6E75EFE0
:100EE00007F0000E2F6E2D0E2E6E2EC03EF0000E5F
:100EF0003D6E1F0E3C6E000E0101716FFCEF07F09E
:100F00003C06D8A03D06520E3C24D96E010E3D2071
:100F1000DA6E34C001F035C002F036C003F037C0DD
:100F200004F038C005F039C006F03AC007F03BC005
:100F300008F00A0E096E000E0A6E000E0B6E000E0F
:100F40000C6E000E0D6E000E0E6E000E0F6E000E7B
:100F5000106EC3EC09F001C026F002C027F003C0F8
:100F600028F004C029F005C02AF006C02BF007C005
:100F70002CF008C02DF026C013F027C014F039EC77
:100F80000FF01350300FDF6E3006D8A03106320656
:100F9000D8A0330634C001F035C002F036C003F0EB
:100FA00037C004F038C005F039C006F03AC007F089
:100FB0003BC008F00A0E096E000E0A6E000E0B6EA2
:100FC000000E0C6E000E0D6E000E0E6E000E0F6EFB
:100FD000000E106E49EC08F001C034F002C035F08C
:100FE00003C036F004C037F005C038F006C039F051
:100FF00007C03AF008C03BF03DBE07EF08F03D5097
:1010000008E13C04D8A007EF08F009EF08F025EF4D
:1010100008F03450351036103710381039103A10A7
:101020003B10D8A416EF08F018EF08F080EF07F097
:1010300031BE25EF08F0315006E13004D8B023EF7F
:1010400008F025EF08F080EF07F03E50D8B42BEF02
:1010500008F02DEF08F038EF08F03C06D8A03D0668
:10106000520E3C24D96E010E3D20DA6E3EC0DFFFE9
:101070001CC011F01DC012F0520E3C24136E010E64
:101080003D20146E32C015F033C016F064EC0CF045
:101090001200000E126E10BE52EF08F050EF08F072
:1010A00064EF08F0101E0F1E0E1E0D1E0C1E0B1EF0
:1010B0000A1E096C000E0A220B220C220D220E229F
:1010C0000F221022010E126E08BE6BEF08F069EFBE
:1010D00008F07DEF08F0081E071E061E051E041E00
:1010E000031E021E016C000E0222032204220522AE
:1010F000062207220822010E121A20EE13F0070E14
:10110000DE6AE806FDE209500A100B100C100D1003
:101110000E100F101010D8B490EF08F092EF08F0F6
:10112000E4EF08F0010E116EA0EF08F0D890093638
:101130000A360B360C360D360E360F361036112A9F
:1011400010AEA5EF08F0A7EF08F096EF08F0D890E2
:1011500013361436153616361736183619361A362B
:101160000950015C0A5002580B5003580C500458A7
:101170000D5005580E5006580F500758105008587B
:10118000D8A0C5EF08F0C7EF08F0D8EF08F0095075
:10119000015E0A50025A0B50035A0C50045A0D506B
:1011A000055A0E50065A0F50075A1050085A13800D
:1011B000D89010320F320E320D320C320B320A320E
:1011C0000932112EA7EF08F01250D8B4EAEF08F058
:1011D000ECEF08F0FCEF08F01A1E191E181E171E7F
:1011E000161E151E141E136C000E14221522162234
:1011F0001722182219221A2213C001F014C002F07B
:1012000015C003F016C004F017C005F018C006F0B2
:1012100019C007F01AC008F0120020EE02F00E50BC
:10122000D9260F50DA22DF50D8B419EF09F01BEF9E
:1012300009F04FEF09F00EC0D9FF0FC0DAFFDF5001
:10124000106E1050016E026A20EE03F00E50D92687
:101250000F50DA22DECF03F0DDCF04F0EAEC0FF01E
:1012600001C007F002C008F0000E0A6E640E096E9D
:10127000A1EC0CF020EE03F00E50D9260F50DA222C
:10128000DF50116E0750115C126E20EE03F00E500D
:10129000D9260F50DA22DF50136E72EF09F00EC01C
:1012A000D9FF0FC0DAFFDF50106E1050016E026AD6
:1012B00020EE03F00E50D9260F50DA22DECF03F0D5
:1012C000DDCF04F0EAEC0FF001C007F002C008F037
:1012D000000E0A6E640E096EA1EC0CF00750126E3F
:1012E000000E136E20EE01F00E50D9260F50DA22B8
:1012F000DF50D8B47EEF09F080EF09F0A2EF09F0DB
:1013000020EE05F00E50D9260F50DA22DECF10F075
:10131000DDCF11F010C0D9FF11C0DAFF12C0DFFF1E
:1013200020EE07F00E50D9260F50DA22DECF10F053
:10133000DDCF11F010C0D9FF11C0DAFF13C0DFFFFD
:10134000C2EF09F020EE05F00E50D9260F50DA2238
:10135000DECF10F0DDCF11F010C0D9FF11C0DAFFE1
:1013600013C0DFFF20EE07F00E50D9260F50DA220F
:10137000DECF10F0DDCF11F010C0D9FF11C0DAFFC1
:1013800012C0DFFF1200000E126E08BECCEF09F093
:10139000CAEF09F0DEEF09F0081E071E061E051E43
:1013A000041E031E021E016C000E022203220422F0
:1013B0000522062207220822010E126E10BEE5EF5A
:1013C00009F0E3EF09F0F5EF09F0101E0F1E0E1EF5
:1013D0000D1E0C1E0B1E0A1E096C000E0A220B228B
:1013E0000C220D220E220F22102209500A100B107F
:1013F0000C100D100E100F101010D8B402EF0AF0E0
:1014000004EF0AF04CEF0AF0010E116E12EF0AF031
:10141000D89009360A360B360C360D360E360F3696
:101420001036112A10AE17EF0AF019EF0AF008EF84
:101430000AF00950015C0A5002580B5003580C5036
:1014400004580D5005580E5006580F5007581050AC
:101450000858D8A02EEF0AF030EF0AF040EF0AF05B
:101460000950015E0A50025A0B50035A0C50045A9C
:101470000D50055A0E50065A0F50075A1050085A70
:10148000D89010320F320E320D320C320B320A323B
:101490000932112E19EF0AF01250D8B452EF0AF0A7
:1014A00054EF0AF064EF0AF0081E071E061E051E20
:1014B000041E031E021E016C000E022203220422DF
:1014C000052206220722082201C001F002C002F014
:1014D00003C003F004C004F005C005F006C006F028
:1014E00007C007F008C008F0120041C0D9FF42C091
:1014F000DAFFDECFF6FFDDCFF7FF0800F550250A53
:10150000D8A485EF0AF087EF0AF008EF0BF041C08E
:10151000D9FF42C0DAFFDE2A000EDD22000E0101F3
:10152000516F000E506F50C1FBF00001F969FA696C
:1015300041C0D9FF42C0DAFFDECF4FF0DDCF50F01F
:101540004FC0F6FF50C0F7FF0800F550640AD8B44A
:10155000ACEF0AF0AEEF0AF0BCEF0AF04FC0F6FFB6
:1015600050C0F7FF0800F550690AD8A4BAEF0AF096
:10157000BCEF0AF0FFEF0AF043C0D9FF44C0DAFF26
:10158000DFCF45F0020EDE26DFCF46F0000EDD2273
:1015900045C0D9FF46C0DAFFDECF47F0DDCF48F0C7
:1015A000000E48BEFF0E496E4A6E4B6E4C6E4D6E7D
:1015B0004E6E010E4F24456E000E5020466E41C007
:1015C000D9FF42C0DAFF45C0DEFF46C0DDFF3FC0A5
:1015D0001CF040C01DF047C01EF048C01FF049C0BD
:1015E00020F04AC021F04BC022F04CC023F04DC087
:1015F00024F04EC025F00AEC07F01CEF0BF041C0C0
:10160000D9FF42C0DAFFDE2A000EDD221CEF0BF00C
:1016100041C0D9FF42C0DAFFDECFF6FFDDCFF7FFD2
:101620000800F550016E026A3FC003F040C004F0AC
:10163000BFEC0BF0FFEF0AF01200000E0001DE6FAE
:10164000000EDD6F79EC0FF039EC10F0090E066E2C
:10165000C40E056E000E086E000E076EC1EC0FF092
:101660005DEC10F0FDEC0FF0000E026EC80E016E86
:1016700024EC0CF0E70E016E000E026E81EC0DF012
:10168000F00E016E000E026E4CEC0DF08594859804
:10169000839E879C52EC10F0DF0E0C6E000E0D6ED8
:1016A000B6EC0DF0790E596E000E5A6EDF0E5B6EC1
:1016B000000E5C6E14EC0DF0A30E5E6E570E5D6EA8
:1016C000020EE82EFED75D2EFCD75E2EFAD700D094
:1016D000010172517311D8A470EF0BF072EF0BF08F
:1016E000A5EF0BF0E70E146E000E156EF00E166EE1
:1016F000000E176E93EC0FF0A30E5E6E570E5D6E2C
:10170000020EE82EFED75D2EFCD75E2EFAD700D053
:10171000000E0101736F010E726FE70E146E000E62
:10172000156EF00E166E000E176EDBEC0CF0290E27
:101730005E6E960E5D6E7F0EE82EFED75D2EFCD798
:101740005E2EFAD700F02CEC10F0E70E146E000EAF
:10175000156EF00E166E000E176E93EC0FF0290E3C
:101760005E6E960E5D6E7F0EE82EFED75D2EFCD768
:101770005E2EFAD700F04CEF0BF016EF00F003509E
:101780000410D8B4C6EF0BF0C8EF0BF0D1EF0BF09C
:1017900003500410D8A4CFEF0BF0D1EF0BF0D6EF2D
:1017A0000BF0015079EC10F023EF0CF020EE09F073
:1017B0000350D9260450DA22DE50DE10D8B4E3EF0D
:1017C0000BF0E5EF0BF000EF0CF020EE09F003500A
:1017D000D9260450DA2210EE03F00350E12604501B
:1017E000E222DE50E65CE650800A096EDE50800A96
:1017F0000958D8B0FEEF0BF000EF0CF023EF0CF01F
:1018000020EE03F00350D9260450DA22DECF05F093
:10181000DDCF06F003C0D9FF04C0DAFFDECF07F04A
:10182000DDCF08F005500724D96E06500820DA6E87
:1018300001C0DFFF20EE03F00350D9260450DA2266
:10184000DE2A000EDD221200050E0E01746F060E58
:10185000766F070E696F080E886FBD508F0B3009C9
:10186000BD6EE00EBE16BF50F00B0109BF6EC80E74
:10187000BC6EBD8E000EAA6E000EA66E000E0F018D
:10188000256F000E216FFC0EAD16F30EAD16CF0EB8
:10189000AD163F0EAD16AB88AB50F00B0C09AB6E1E
:1018A000AB8EA788A750F00B0C09A76EA78E2689D0
:1018B0002651F00B0C09266F268F22892251F00B3E
:1018C0000C09226F228F120016BE69EF0CF06BEF2D
:1018D0000CF071EF0CF015C01AF016C01BF075EF8C
:1018E0000CF0000E1B6E000E1A6E000E196E000E2C
:1018F000186E87EF0CF0000E026E200E016E11C004
:1019000003F012C004F0BFEC0BF0184A192A1A5069
:10191000185C1950800A176E1B50800A1758D8A0FF
:1019200094EF0CF096EF0CF07BEF0CF013C00AF084
:1019300014C00BF011C00CF012C00DF0D5EC0EF07D
:101940001200000E0C6E000E0B6E09500A10D8B477
:10195000ACEF0CF0AEEF0CF0D6EF0CF0010E0D6E0C
:10196000B6EF0CF0D89009360A360D2A0AAEBBEF56
:101970000CF0BDEF0CF0B2EF0CF0D8900B360C363B
:101980000950075C0A500858D8A0C9EF0CF0CBEFFB
:101990000CF0D0EF0CF00950075E0A50085A0B808B
:1019A000D8900A3209320D2EBDEF0CF00BC007F0B3
:1019B0000CC008F0120014C0D9FF15C0DAFF320EB7
:1019C000DF6E16C0D9FF17C0DAFF320EDF6E20EED1
:1019D00002F01450D9261550DA22010EDF6E20EEE7
:1019E00002F01650D9261750DA22010EDF6E20EED3
:1019F00001F01650D9261750DA22000EDF6E20EEC5
:101A000001F01450D9261550DA22010EDF6E14C0F1
:101A10000EF015C00FF00DEC09F016C00EF017C057
:101A20000FF00DEC09F0120059C060F05AC061F0DF
:101A3000010E0001626F0E0E636F5BC0D9FF5CC0C8
:101A4000DAFFDECF64F0DDCF65F020EE02F05B5010
:101A5000D9265C50DA22DECF66F0DDCF67F020EECB
:101A600004F05B50D9265C50DA22DECF68F0DDCF7F
:101A700069F020EE06F05B50D9265C50DA22DECF0A
:101A80006AF0DDCF6BF0E5EC0DF059C006F05AC0FE
:101A900007F01EEC10F0120001C0D9FF02C0DAFFFF
:101AA000320EDF6E20EE01F00150D9260250DA220C
:101AB000010EDF6E20EE02F00150D9260250DA222C
:101AC000010EDF6E20EE05F00150D9260250DA2219
:101AD000250EDE6E0F0EDD6E20EE07F00150D926CA
:101AE0000250DA22210EDE6E0F0EDD6E20EE03F0C4
:101AF0000150D9260250DA22C80EDE6E000EDD6ECD
:101B0000120001C0D9FF02C0DAFF320EDF6E20EEF4
:101B100001F00150D9260250DA22010EDF6E20EECC
:101B200002F00150D9260250DA22010EDF6E20EEBB
:101B300005F00150D9260250DA22AA0EDE6E0F0EF1
:101B4000DD6E20EE07F00150D9260250DA22A60EF3
:101B5000DE6E0F0EDD6E20EE03F00150D92602502E
:101B6000DA22C80EDE6E000EDD6E12000EEC0EF0F4
:101B70000CC0D9FF0DC0DAFF05C0DEFF06C0DDFFD7
:101B800086EC0EF020EE04F00C50D9260D50DA222F
:101B900005C0DEFF06C0DDFF36EC0EF020EE02F0E1
:101BA0000C50D9260D50DA2205C0DEFF06C0DDFF3D
:101BB0005EEC0EF020EE06F00C50D9260D50DA2225
:101BC00005C0DEFF06C0DDFF1200640E00016C6F71
:101BD000000E6D6F60C06EF061C06FF0000E726F2E
:101BE000000E716F000E786F000E776F6E0E516EE3
:101BF000000E526E62C053F063C054F06C0E556E0E
:101C0000000E566EAEEC0EF0000171516025D96EDB
:101C100072516121DA6E000EDF6E120073EC10F06B
:101C2000520E63EC10F0B60E63EC10F069EC10F09D
:101C3000530E63EC10F0010E18EC0FF0076E075016
:101C40000A6E0B6A000E18EC0FF0076E0750096E53
:101C5000086A0A5008100A6E0B5009100B6E6EECE1
:101C600010F00AC005F00BC006F0120073EC10F083
:101C7000520E63EC10F0B80E63EC10F069EC10F04B
:101C8000530E63EC10F0010E18EC0FF0076E0750C6
:101C90000A6E0B6A000E18EC0FF0076E0750096E03
:101CA000086A0A5008100A6E0B5009100B6E6EEC91
:101CB00010F00AC005F00BC006F0120073EC10F033
:101CC000520E63EC10F0B40E63EC10F069EC10F0FF
:101CD000530E63EC10F0010E18EC0FF0076E075076
:101CE0000A6E0B6A000E18EC0FF0076E0750096EB3
:101CF000086A0A5008100A6E0B5009100B6E6EEC41
:101D000010F00AC005F00BC006F0120073EC10F0E2
:101D1000520E63EC10F0BA0E63EC10F069EC10F0A8
:101D2000530E63EC10F0010E18EC0FF0076E075025
:101D30000A6E0B6A000E18EC0FF0076E0750096E62
:101D4000086A0A5008100A6E0B5009100B6E6EECF0
:101D500010F00AC005F00BC006F0120053C057F097
:101D600054C058F0C2EF0EF051C03FF052C040F0E6
:101D7000570E416E000E426E55C043F056C044F0FF
:101D800075EC0AF057C0F6FF58C0F7FF0800F55091
:101D90000009D8A4CEEF0EF0D0EF0EF0B4EF0EF0A5
:101DA000000E526E000E516E1200000E106E000EEC
:101DB0000F6EE6EF0EF00EC001F0026A0CC003F0E9
:101DC0000DC004F0BFEC0BF00F4A102A0F500A248C
:101DD000D96E10500B20DA6EDF500E6E0E50D8A464
:101DE000F4EF0EF0F6EF0EF0DBEF0EF01200F00E57
:101DF000F66E200EF76E000EF86E0900F5CF72F148
:101E00000900F5CF73F101EE00F0720EEE6AE806FC
:101E1000FDE100EEF9F0070EEE6AE806FDE15F90E5
:101E20005F92000EF86E0E0EF76E00011DEF0BF0C4
:101E3000036ED6EC0FF00E01DA87D6EC0FF0D5CE9C
:101E400004F0D6EC0FF00350D8B429EF0FF02DEFCB
:101E50000FF0026A022A2EEF0FF0026A023A0246DF
:101E60000E01DA510218DF0B0218DA6FDA8904501A
:101E7000120014BE46EF0FF0145006E11304D8B060
:101E800044EF0FF046EF0FF054EF0FF013C015F0D2
:101E900014C016F0151E161E154A162A15C013F08A
:101EA00016C014F058EF0FF013C013F014C014F064
:101EB0001200000E056E000E046E6AEF0FF0045063
:101EC0000224D96E05500320DA6EDF5046EC10F084
:101ED000044A052A04500224D96E05500320DA6E04
:101EE000DF50D8A476EF0FF078EF0FF05FEF0FF030
:101EF0001200ACEC0FF0010E036E000E0EEC10F0B1
:101F00003F0E056E550EE82EFED7052EFCD700F0CD
:101F1000030E036E000E0EEC10F0D50E036E010ED4
:101F20000EEC10F0120014C0D9FF15C0DAFF000E3D
:101F3000DF6E16C0D9FF17C0DAFF000EDF6E14C0C7
:101F40000EF015C00FF00DEC09F016C00EF017C022
:101F50000FF00DEC09F012000E01D951F00B080939
:101F6000D96FD98B9F0ED66F848A848CA79BA79D2F
:101F70001D0E1D6F1E0E1C6F1C0E6F6F1B0E706FE3
:101F8000120007C003F0040E0EEC10F00850036EB0
:101F9000050E0EEC10F005C003F0060E0EEC10F06E
:101FA0000650036E070E0EEC10F012000E01D8B5AD
:101FB000DCEF0FF0DEEF0FF0D6EF0FF0DACE01F02E
:101FC0001F0E0116D8A4E7EF0FF0E9EF0FF0D6EFE0
:101FD0000FF0120001500302F3CF05F0F4CF06F02A
:101FE00001500402F350062602500302F350062665
:101FF00005C001F006C002F01200120E0E01626F61
:10200000110E156FE997E895670EE56F000EE66F04
:10201000E789E88BE78F2D872D851200046E73EC1E
:1020200010F0520E63EC10F00450800963EC10F0D5
:10203000035063EC10F06EEC10F01200D00E086E3E
:10204000CA0EE82EFED7082EFCD706C002F007C045
:1020500003F059EC0FF0120073EC10F0520E63EC29
:1020600010F0E60E63EC10F06EEC10F039EC10F0AE
:102070001200130E036E000E0EEC10F0D00E056E63
:10208000CA0EE82EFED7052EFCD71200016E0E01F7
:1020900037A54DEF10F04FEF10F047EF10F001C0F3
:1020A000E4FE120087907F8081987988869E7E8EDC
:1020B00081967986859E7D8E1200050E036E0C0E2C
:1020C0000EEC10F01200026ED6EC0FF002C0D5FE3E
:1020D0001200D6EC0FF00E01DA831200D6EC0FF0EE
:1020E0000E01DA851200D6EC0FF00E01DA81120033
:0420F00001001200D9
:020000040020DA
:10000000FF0FFF0FFF0FFF0FFF0FFF0FFF0FFF0F80
:020000040030CA
:0C000000AAFFFFFF9FFFFFFFFFFFFFFFB5
:00000001FF
