:0400000026EF00F0F7
:1000080028820E0133A10BEF00F00DEF00F024EF72
:1000180000F07CAE12EF00F016EF00F0196A192A12
:1000280017EF00F0196A193219327C5019187F0B32
:1000380019187C6E000E276E000E266E0E01339185
:080048002892110053EF07F0AC
:100E000000524742433A256920256920256920255B
:100E1000690A0000889682800E019A918096000EE1
:100E2000256E000E246E74EC07F0DCEC07F0270E44
:100E30001F6E100E1E6E000E216E000E206EA3ECB3
:100E400007F0F6EC07F08AA028EF07F02CEF07F088
:100E5000226A222A2DEF07F0226A224622462246E3
:100E600080502218F70B2218806EA30E236E570EA7
:100E7000226E020EE82EFED7222EFCD7232EFAD7A2
:100E800000D0EBEC07F0A30E236E570E226E020E7D
:100E9000E82EFED7222EFCD7232EFAD700D023EF40
:100EA00007F026EF00F0180EF66E100EF76E000E2B
:100EB000F86E0900F5CF26F00900F5CF27F000EE17
:100EC00060F03C0EEE6AE806FDE100EE01F0180E5F
:100ED000EE6AE806FDE128902892000EF86E0E0EEC
:100EE000F76E00010AEF07F08EEC07F0010E1C6EA2
:100EF000000ECCEC07F03F0E1E6E550EE82EFED70E
:100F00001E2EFCD700F0030E1C6E000ECCEC07F07A
:100F1000D50E1C6E010ECCEC07F012000E01D9515B
:100F2000F00B0809D96FD98B9F0ED66F848A848CF9
:100F3000A79BA79D1D0E1D6F1E0E1C6F1C0E6F6FB5
:100F40001B0E706F120020C01CF0040ECCEC07F0DA
:100F500021501C6E050ECCEC07F01EC01CF0060ED6
:100F6000CCEC07F01F501C6E070ECCEC07F0120003
:100F70000E01D8B5BEEF07F0C0EF07F0B8EF07F0ED
:100F8000DACE1AF01F0E1A16D8A4C9EF07F0CBEF6D
:100F900007F0B8EF07F012001D6E07EC08F0520ED4
:100FA000FCEC07F01D508009FCEC07F01C50FCEC39
:100FB00007F002EC08F01200130E1C6E000ECCECD1
:100FC00007F0D00E1E6ECA0EE82EFED71E2EFCD7DE
:100FD000EBEC07F0120007EC08F0520EFCEC07F007
:100FE000E60EFCEC07F002EC08F01200010E1C6E9D
:100FF0000C0ECCEC07F012001B6EB8EC07F01BC017
:10100000D5FE1200B8EC07F00E01DA851200B8EC3C
:0A10100007F00E01DA811200010062
:020000040020DA
:10000000FF0FFF0FFF0FFF0FFF0FFF0FFF0FFF0F80
:020000040030CA
:0C000000AAFFFFFF9FFFFFFFFFFFFFFFB5
:00000001FF
