:0400000018EF00F005
:1000080052820E0133A10BEF00F00DEF00F016EF56
:1000180000F07C8E000E4D6E010E4C6E27EC0CF03D
:0C0028000E0133915292110040EF0CF0D9
:100E000000524742433A256920256920256920255B
:100E1000690A000020C0D9FF21C0DAFF890EDE5C1C
:100E2000130EDE58D8A017EF07F019EF07F05BEFAD
:100E300007F0000E296E000E286E22C01CF023C0A1
:100E40001DF024C01EF025C01FF028EC0AF0030E90
:100E5000276E700E266E5C0EE82EFED7262EFCD76F
:100E6000272EFAD700D022C01CF023C01DF024C0CA
:100E70001EF025C01FF00EEC0CF0030E276E700E56
:100E8000266E5C0EE82EFED7262EFCD7272EFAD72C
:100E900000D0284A292A29BE57EF07F0295009E136
:100EA000100E285CD8A057EF07F059EF07F01DEFA0
:100EB00007F00CEF08F020C0D9FF21C0DAFFB90E0F
:100EC000DE5C0B0EDE58D8A068EF07F06AEF07F083
:100ED000BDEF07F020EE02F02050D9262150DA2293
:100EE000B90EDE5C0B0EDE58D8A079EF07F07BEF71
:100EF00007F0BDEF07F0000E2B6E000E2A6E22C029
:100F00001CF023C01DF024C01EF025C01FF061ECB2
:100F10000AF0030E276E700E266E5C0EE82EFED7CA
:100F2000262EFCD7272EFAD700D022C01CF023C0D3
:100F30001DF024C01EF025C01FF00EEC0CF0030EB7
:100F4000276E700E266E5C0EE82EFED7262EFCD77E
:100F5000272EFAD700D02A4A2B2A2BBEB9EF07F04A
:100F60002B5009E1100E2A5CD8A0B9EF07F0BBEFB7
:100F700007F07FEF07F00CEF08F020C0D9FF21C089
:100F8000DAFFE90EDE5C030EDE58D8A0CAEF07F0E8
:100F9000CCEF07F00CEF08F0000E2D6E000E2C6E5B
:100FA00022C01CF023C01DF024C01EF025C01FF07D
:100FB00061EC0AF0030E276E700E266E5C0EE82EB2
:100FC000FED7262EFCD7272EFAD700D022C01CF041
:100FD00023C01DF024C01EF025C01FF00EEC0CF045
:100FE000030E276E700E266E5C0EE82EFED7262EA0
:100FF000FCD7272EFAD700D02C4A2D2A2DBE0AEF77
:1010000008F02D5009E11E0E2C5CD8A00AEF08F064
:101010000CEF08F0D0EF07F0120020EE02F01650AF
:10102000D9261750DA22DF50D8B419EF08F01BEF99
:1010300008F04FEF08F016C0D9FF17C0DAFFDF50F5
:10104000186E1850096E0A6A20EE03F01650D92661
:101050001750DA22DECF0BF0DDCF0CF0BCEC0CF039
:1010600009C00FF00AC010F0000E126E640E116E6F
:10107000EEEC09F020EE03F01650D9261750DA22D4
:10108000DF50196E0F50195C1A6E20EE03F01650E7
:10109000D9261750DA22DF501B6E72EF08F016C007
:1010A000D9FF17C0DAFFDF50186E1850096E0A6AB0
:1010B00020EE03F01650D9261750DA22DECF0BF0BF
:1010C000DDCF0CF0BCEC0CF009C00FF00AC010F042
:1010D000000E126E640E116EEEEC09F00F501A6ED7
:1010E000000E1B6E20EE01F01650D9261750DA22A2
:1010F000DF50D8B47EEF08F080EF08F0A2EF08F0E0
:1011000020EE05F01650D9261750DA22DECF18F05F
:10111000DDCF19F018C0D9FF19C0DAFF1AC0DFFF00
:1011200020EE07F01650D9261750DA22DECF18F03D
:10113000DDCF19F018C0D9FF19C0DAFF1BC0DFFFDF
:10114000C2EF08F020EE05F01650D9261750DA222B
:10115000DECF18F0DDCF19F018C0D9FF19C0DAFFC3
:101160001BC0DFFF20EE07F01650D9261750DA22F9
:10117000DECF18F0DDCF19F018C0D9FF19C0DAFFA3
:101180001AC0DFFF120009EC0DF0F4EC0BF014ECC8
:101190000DF0EFEC0CF00B0E0E6EB80E0D6E000E97
:1011A000106E000E0F6E6AEC0CF01FEC0DF0000ECE
:1011B0000A6EC80E096EAEEC09F0380E096E000E0C
:1011C0000A6ECFEC0AF0410E096E000E0A6E9AEC20
:1011D0000AF085948598839E879C849E7C9E889641
:1011E0008096380E1C6E000E1D6E410E1E6E000E97
:1011F0001F6E39EC09F080864C044D10D8A403EF23
:1012000009F005EF09F0F1EF08F0380E1C6E000E42
:101210001D6E410E1E6E000E1F6E0EEC0CF0520E77
:101220002F6E2B0E2E6E000EE82EFED72E2EFCD724
:101230002F2EFAD700D07C9E300E146E000E156E45
:1012400004EC0BF0300E206E000E216E380E226E74
:10125000000E236E410E246E000E256E0AEC07F080
:101260008096000E4D6E000E4C6EF1EF08F018EFF8
:1012700000F01CC0D9FF1DC0DAFF050EDF6E1EC0D6
:10128000D9FF1FC0DAFF050EDF6E20EE01F01E5001
:10129000D9261F50DA22010EDF6E20EE01F01C501D
:1012A000D9261D50DA22010EDF6E20EE02F01C500E
:1012B000D9261D50DA22010EDF6E20EE02F01E50FC
:1012C000D9261F50DA22010EDF6E7DEF09F01CC017
:1012D000D9FF1DC0DAFFDF2A1EC0D9FF1FC0DAFF09
:1012E000DF2A1CC016F01DC017F00DEC08F01EC060
:1012F00016F01FC017F00DEC08F01CC0D9FF1DC080
:10130000DAFF150EDF6087EF09F089EF09F095EF3E
:1013100009F01EC0D9FF1FC0DAFF140EDF6493EF7F
:1013200009F095EF09F067EF09F01CC0D9FF1DC067
:10133000DAFF140EDF6E1EC0D9FF1FC0DAFF140ED5
:10134000DF6E1CC016F01DC017F00DEC08F01EC0BB
:1013500016F01FC017F00DEC08F01200050E0E017C
:10136000746F060E766F070E696F080E886FBD509A
:101370008F0B3009BD6EE00EBE16BF50F00B010999
:10138000BF6EC80EBC6EBD8E000EAA6E000EA66E9D
:10139000000E0F01256F000E216FFC0EAD16F30E2F
:1013A000AD16CF0EAD163F0EAD16AB88AB50F00BA1
:1013B0000C09AB6EAB8EA788A750F00B0C09A76E7B
:1013C000A78E26892651F00B0C09266F268F2289BD
:1013D0002251F00B0C09226F228F1200000E146EA6
:1013E000000E136E11501210D8B4F9EF09F0FBEF94
:1013F00009F023EF0AF0010E156E03EF0AF0D89002
:1014000011361236152A12AE08EF0AF00AEF0AF06A
:10141000FFEF09F0D8901336143611500F5C1250BC
:101420001058D8A016EF0AF018EF0AF01DEF0AF0D6
:1014300011500F5E1250105A1380D8901232113290
:10144000152E0AEF0AF013C00FF014C010F01200AE
:101450001CC0D9FF1DC0DAFF320EDF6E1EC0D9FFDF
:101460001FC0DAFF320EDF6E20EE02F01C50D926CC
:101470001D50DA22010EDF6E20EE02F01E50D9263A
:101480001F50DA22010EDF6E20EE01F01E50D92629
:101490001F50DA22000EDF6E20EE01F01C50D9261C
:1014A0001D50DA22010EDF6E1CC016F01DC017F0B1
:1014B0000DEC08F01EC016F01FC017F00DEC08F080
:1014C00012001CC0D9FF1DC0DAFF320EDF6E1EC035
:1014D000D9FF1FC0DAFF320EDF6E20EE02F01C5083
:1014E000D9261D50DA22010EDF6E20EE02F01E50CA
:1014F000D9261F50DA22010EDF6E20EE01F01C50BB
:10150000D9261D50DA22000EDF6E20EE01F01E50AB
:10151000D9261F50DA22010EDF6E1CC016F01DC046
:1015200017F00DEC08F01EC016F01FC017F00DEC00
:1015300008F0120009C0D9FF0AC0DAFF320EDF6ED0
:1015400020EE01F00950D9260A50DA22010EDF6E92
:1015500020EE02F00950D9260A50DA22010EDF6E81
:1015600020EE05F00950D9260A50DA22250EDE6E4B
:101570000F0EDD6E20EE07F00950D9260A50DA2250
:10158000210EDE6E0F0EDD6E20EE03F00950D9261F
:101590000A50DA22C80EDE6E000EDD6E120009C09F
:1015A000D9FF0AC0DAFF320EDF6E20EE01F00950DB
:1015B000D9260A50DA22010EDF6E20EE02F0095021
:1015C000D9260A50DA22010EDF6E20EE05F009500E
:1015D000D9260A50DA22AA0EDE6E0F0EDD6E20EE3C
:1015E00007F00950D9260A50DA22A60EDE6E0F0E39
:1015F000DD6E20EE03F00950D9260A50DA22C80E1B
:10160000DE6E000EDD6E120033EC0BF014C0D9FF5D
:1016100015C0DAFF0DC0DEFF0EC0DDFFABEC0BF036
:1016200020EE04F01450D9261550DA220DC0DEFF4A
:101630000EC0DDFF5BEC0BF020EE02F01450D9265B
:101640001550DA220DC0DEFF0EC0DDFF83EC0BF07B
:1016500020EE06F01450D9261550DA220DC0DEFF18
:101660000EC0DDFF120041EC0DF0520E25EC0DF026
:10167000B60E25EC0DF037EC0DF0530E25EC0DF009
:10168000010ED3EC0BF00F6E0F50126E136A000EAA
:10169000D3EC0BF00F6E0F50116E106A1250101039
:1016A000126E13501110136E3CEC0DF012C00DF0C1
:1016B00013C00EF0120041EC0DF0520E25EC0DF0AF
:1016C000B80E25EC0DF037EC0DF0530E25EC0DF0B7
:1016D000010ED3EC0BF00F6E0F50126E136A000E5A
:1016E000D3EC0BF00F6E0F50116E106A12501010E9
:1016F000126E13501110136E3CEC0DF012C00DF071
:1017000013C00EF0120041EC0DF0520E25EC0DF05E
:10171000B40E25EC0DF037EC0DF0530E25EC0DF06A
:10172000010ED3EC0BF00F6E0F50126E136A000E09
:10173000D3EC0BF00F6E0F50116E106A1250101098
:10174000126E13501110136E3CEC0DF012C00DF020
:1017500013C00EF0120041EC0DF0520E25EC0DF00E
:10176000BA0E25EC0DF037EC0DF0530E25EC0DF014
:10177000010ED3EC0BF00F6E0F50126E136A000EB9
:10178000D3EC0BF00F6E0F50116E106A1250101048
:10179000126E13501110136E3CEC0DF012C00DF0D0
:1017A00013C00EF012000B6E94EC0CF00E01DA87F1
:1017B00094EC0CF0D5CE0CF094EC0CF00B50D8B4AB
:1017C000E4EF0BF0E8EF0BF00A6A0A2AE9EF0BF0FE
:1017D0000A6A0A3A0A460E01DA510A18DF0B0A1899
:1017E000DA6FDA890C50120055EC0CF0010E0B6E1A
:1017F000000ECFEC0CF03F0E0D6E550EE82EFED70E
:101800000D2EFCD700F0030E0B6E000ECFEC0CF08B
:10181000D50E0B6E010ECFEC0CF012001CC0D9FFE0
:101820001DC0DAFF000EDF6E1EC0D9FF1FC0DAFF39
:10183000000EDF6E1CC016F01DC017F00DEC08F096
:101840001EC016F01FC017F00DEC08F012004BEC94
:101850000DF0520E31EC0DF0E60E31EC0DF046ECD1
:101860000DF0FCEC0CF02BEC0DF0130E066E880E58
:10187000056E000E086E000E076E7FEC0CF0120075
:1018800000EE60F0500EEE6AE806FDE100EE4AF070
:10189000080EEE6AE806FDE152905292000EF86ED4
:1018A0000E0EF76E0001C3EF08F00E01D951F00BD8
:1018B0000809D96FD98B9F0ED66F848A848CA79B19
:1018C000A79D1D0E1D6F1E0E1C6F1C0E6F6F1B0E35
:1018D000706F12000FC00BF0040ECFEC0CF0105024
:1018E0000B6E050ECFEC0CF00DC00BF0060ECFEC1E
:1018F0000CF00E500B6E070ECFEC0CF0120007C070
:1019000003F0040EDFEC0CF00850036E050EDFEC64
:101910000CF005C003F0060EDFEC0CF00650036E71
:10192000070EDFEC0CF012000E01D8B59AEF0CF0A8
:101930009CEF0CF094EF0CF0DACE09F01F0E0916B4
:10194000D8A4A5EF0CF0A7EF0CF094EF0CF0120068
:101950000E01D8B5AEEF0CF0B0EF0CF0A8EF0CF024
:10196000DACE01F01F0E0116D8A4B9EF0CF0BBEFD0
:101970000CF0A8EF0CF0120009500B02F3CF0DF0A1
:10198000F4CF0EF009500C02F3500E260A500B0251
:10199000F3500E260DC009F00EC00AF012000C6EB6
:1019A00041EC0DF0520E25EC0DF00C50800925ECA9
:1019B0000DF00B5025EC0DF03CEC0DF01200046E18
:1019C0004BEC0DF0520E31EC0DF00450800931EC6F
:1019D0000DF0035031EC0DF046EC0DF01200130E3B
:1019E0000B6E000ECFEC0CF0D00E0D6ECA0EE82E72
:1019F000FED70D2EFCD71200130E036E000EDFEC87
:101A00000CF0D00E056ECA0EE82EFED7052EFCD7C0
:101A1000120087907F8081987988869E7E8E81963D
:101A20007986859E7D8E120082800E019A91339177
:101A300029811F81F290F28AF28CF28E1200020E3E
:101A40000B6E0C0ECFEC0CF012000A6E94EC0CF046
:101A50000AC0D5FE1200020E036E0C0EDFEC0CF075
:101A60001200026EA8EC0CF002C0D5FE120094EC3D
:101A70000CF00E01DA83120094EC0CF00E01DA8502
:101A8000120094EC0CF00E01DA811200A8EC0CF0BC
:101A90000E01DA851200A8EC0CF00E01DA811200BA
:020000040020DA
:10000000FF0FFF0FFF0FFF0FFF0FFF0FFF0FFF0F80
:020000040030CA
:0C000000AAFFFFFF9FFFFFFFFFFFFFFFB5
:00000001FF
