:0400000019EF00F004
:1000080057820E0133A10BEF00F00DEF00F017EF50
:1000180000F07C8E000E00019F6F010E9E6F01ECB8
:0E00280015F00E013391579211008CEF14F079
:100E000000524742433A256920256920256920255B
:070E1000692025690A0000BA
:100E18004F502124D96E50502220DA6EDE04D8A417
:100E280018EF07F01AEF07F05EEF07F0000E000169
:100E3800B16F000EB06F23C01CF024C01DF025C098
:100E48001EF026C01FF049EC13F0030E286E700E3A
:100E5800276E5C0EE82EFED7272EFCD7282EFAD751
:100E680000D023C01CF024C01DF025C01EF026C0F1
:100E78001FF0E8EC14F0030E286E700E276E5C0E5F
:100E8800E82EFED7272EFCD7282EFAD700D000014F
:100E9800B04BB12BB1BF5AEF07F0B15109E1100EB9
:100EA800B05DD8A05AEF07F05CEF07F01FEF07F02E
:100EB8009BEF09F04F502124D96E50502220DA6E52
:100EC800020EDE18D8A46BEF07F06DEF07F0B1EF54
:100ED80007F0000E0001B36F000EB26F23C01CF0C4
:100EE80024C01DF025C01EF026C01FF010EC13F022
:100EF800030E286E700E276E5C0EE82EFED7272E86
:100F0800FCD7282EFAD700D023C01CF024C01DF02F
:100F180025C01EF026C01FF0E8EC14F0030E286E62
:100F2800700E276E5C0EE82EFED7272EFCD7282ED3
:100F3800FAD700D00001B24BB32BB3BFADEF07F027
:100F4800B35109E1100EB25DD8A0ADEF07F0AFEFD5
:100F580007F072EF07F09BEF09F04F502124D96E8C
:100F680050502220DA6E030EDE18D8A4BEEF07F028
:100F7800C0EF07F004EF08F0000E0001B56F000E97
:100F8800B46F23C01CF024C01DF025C01EF026C07D
:100F98001FF010EC13F0030E286E700E276E5C0E17
:100FA800E82EFED7272EFCD7282EFAD700D023C04C
:100FB8001CF024C01DF025C01EF026C01FF0E8EC70
:100FC80014F0030E286E700E276E5C0EE82EFED706
:100FD800272EFCD7282EFAD700D00001B44BB52B0A
:100FE800B5BF00EF08F0B55109E11E0EB45DD8A0F9
:100FF80000EF08F002EF08F0C5EF07F09BEF09F0EB
:101008004F502124D96E50502220DA6E040EDE187B
:10101800D8A411EF08F013EF08F07EEF08F023C012
:101028001CF024C01DF025C01EF026C01FF042ECA5
:1010380011F0D00E276ECA0EE82EFED7272EFCD749
:1010480023C01CF024C01DF025C01EF026C01FF0D0
:10105800E8EC14F0090E286E1E0E276EE40EE82E3A
:10106800FED7272EFCD7282EFAD700D0000E000175
:10107800B76F000EB66F23C01CF024C01DF025C04A
:101088001EF026C01FF049EC13F0030E286E700EF8
:10109800276E5C0EE82EFED7272EFCD7282EFAD70F
:1010A80000D023C01CF024C01DF025C01EF026C0AF
:1010B8001FF0E8EC14F0030E286E700E276E5C0E1D
:1010C800E82EFED7272EFCD7282EFAD700D000010D
:1010D800B64BB72BB7BF7AEF08F0B75109E1110E3D
:1010E800B65DD8A07AEF08F07CEF08F03FEF08F083
:1010F8009BEF09F04F502124D96E50502220DA6E10
:10110800050EDE18D8A48BEF08F08DEF08F0F7EF86
:1011180008F023C01CF024C01DF025C01EF026C016
:101128001FF042EC11F0D00E276ECA0EE82EFED743
:10113800272EFCD723C01CF024C01DF025C01EF0AC
:1011480026C01FF0E8EC14F0190E286E5A0E276E10
:10115800B20EE82EFED7272EFCD7282EFAD7000E7F
:101168000001B96F000EB86F23C01CF024C01DF039
:1011780025C01EF026C01FF010EC13F0030E286ED9
:10118800700E276E5C0EE82EFED7272EFCD7282E71
:10119800FAD700D023C01CF024C01DF025C01EF0D3
:1011A80026C01FF0E8EC14F0030E286E700E276EB0
:1011B8005C0EE82EFED7272EFCD7282EFAD700D0B3
:1011C8000001B84BB92BB9BFF3EF08F0B95109E1E9
:1011D8000D0EB85DD8A0F3EF08F0F5EF08F0B8EF02
:1011E80008F09BEF09F04F502124D96E505022206F
:1011F800DA6E060EDE18D8A404EF09F006EF09F03F
:101208004AEF09F0000E0001BB6F000EBA6F23C051
:101218001CF024C01DF025C01EF026C01FF010ECE5
:1012280013F0030E286E700E276E5C0EE82EFED7A4
:10123800272EFCD7282EFAD700D023C01CF024C0B4
:101248001DF025C01EF026C01FF0E8EC14F0030EB8
:10125800286E700E276E5C0EE82EFED7272EFCD760
:10126800282EFAD700D00001BA4BBB2BBBBF46EFE4
:1012780009F0BB5109E1180EBA5DD8A046EF09F094
:1012880048EF09F00BEF09F09BEF09F04F502124CC
:10129800D96E50502220DA6E070EDE18D8A457EF08
:1012A80009F059EF09F09BEF09F0000E0001BD6F3E
:1012B800000EBC6F23C01CF024C01DF025C01EF01A
:1012C80026C01FF010EC13F0030E286E700E276E68
:1012D8005C0EE82EFED7272EFCD7282EFAD700D092
:1012E80023C01CF024C01DF025C01EF026C01FF02E
:1012F800E8EC14F0030E286E700E276E5C0EE82ED4
:10130800FED7272EFCD7282EFAD700D00001BC4BD9
:10131800BD2BBDBF99EF09F0BD5109E1150EBC5DAC
:10132800D8A099EF09F09BEF09F05EEF09F04F069E
:10133800D8A050064F2806E15028D8A4A6EF09F0F7
:10134800A8EF09F0ABEF09F0000E0001A06F120042
:10135800000E096E000E0A6E000E0B6E410E0C6E2A
:1013680020EE14F02150D9262250DA22DECF0DF0DB
:10137800DECF0EF0DECF0FF0DECF10F0C0EC10F0B5
:10138800D8B0C9EF09F0CBEF09F010EF0AF0000E62
:101398002A6E000E296E23C01CF024C01DF025C043
:1013A8001EF026C01FF010EC13F0030E286E700E0E
:1013B800276E5C0EE82EFED7272EFCD7282EFAD7EC
:1013C80000D023C01CF024C01DF025C01EF026C08C
:1013D8001FF0E8EC14F0030E286E700E276E5C0EFA
:1013E800E82EFED7272EFCD7282EFAD700D0294A78
:1013F8002A2A2ABE09EF0AF02A5009E1100E295CB0
:10140800D8A009EF0AF00BEF0AF0CFEF09F0010EB0
:10141800FBEF0BF0FBEF0BF0000E096E000E0A6EEF
:10142800900E0B6E400E0C6E20EE18F02150D9264F
:101438002250DA22DECF0DF0DECF0EF0DECF0FF035
:10144800DECF10F0C0EC10F0D8B02DEF0AF02FEF7F
:101458000AF091EF0AF020EE18F02150D926225018
:10146800DA22DECF09F0DECF0AF0DECF0BF0DECFD6
:101478000CF0660E0D6E660E0E6EA60E0F6E400E0A
:10148800106EC0EC10F0D8B04CEF0AF04EEF0AF036
:1014980091EF0AF0000E2C6E000E2B6E23C01CF08C
:1014A80024C01DF025C01EF026C01FF049EC13F023
:1014B800030E286E700E276E5C0EE82EFED7272EC0
:1014C800FCD7282EFAD700D023C01CF024C01DF06A
:1014D80025C01EF026C01FF0E8EC14F0030E286E9D
:1014E800700E276E5C0EE82EFED7272EFCD7282E0E
:1014F800FAD700D02B4A2C2A2CBE8CEF0AF02C509D
:1015080009E1100E2B5CD8A08CEF0AF08EEF0AF0E0
:1015180052EF0AF0020EFBEF0BF0330E096E330E9A
:101528000A6E330E0B6E400E0C6E20EE18F0215032
:10153800D9262250DA22DECF0DF0DECF0EF0DECF34
:101548000FF0DECF10F0C0EC10F0D8B0AEEF0AF01C
:10155800B0EF0AF08EEF0BF020EE18F02150D926EC
:101568002250DA22DECF09F0DECF0AF0DECF0BF010
:10157800DECF0CF0CD0E0D6ECC0E0E6E4C0E0F6E37
:10158800400E106EC0EC10F0D8B0CDEF0AF0CFEFDF
:101598000AF08EEF0BF0330E096E330E0A6E330E1F
:1015A8000B6E400E0C6E20EE10F02150D926225002
:1015B800DA22DECF0DF0DECF0EF0DECF0FF0DECF79
:1015C80010F0C0EC10F0D8B0ECEF0AF0EEEF0AF033
:1015D8008EEF0BF020EE10F02150D9262250DA229F
:1015E800DECF09F0DECF0AF0DECF0BF0DECF0CF055
:1015F800CD0E0D6ECC0E0E6E4C0E0F6E400E106E94
:10160800C0EC10F0D8B00BEF0BF00DEF0BF08EEF35
:101618000BF0330E096E330E0A6E330E0B6E400E4E
:101628000C6E20EE14F02150D9262250DA22DECF9B
:101638000DF0DECF0EF0DECF0FF0DECF10F0C0ECF5
:1016480010F0D8B02AEF0BF02CEF0BF08EEF0BF068
:1016580020EE14F02150D9262250DA22DECF09F0EC
:10166800DECF0AF0DECF0BF0DECF0CF0CD0E0D6E24
:10167800CC0E0E6E4C0E0F6E400E106EC0EC10F0BD
:10168800D8B049EF0BF04BEF0BF08EEF0BF0000EDC
:101698002E6E000E2D6E23C01CF024C01DF025C038
:1016A8001EF026C01FF049EC13F0030E286E700ED2
:1016B800276E5C0EE82EFED7272EFCD7282EFAD7E9
:1016C80000D023C01CF024C01DF025C01EF026C089
:1016D8001FF0E8EC14F0030E286E700E276E5C0EF7
:1016E800E82EFED7272EFCD7282EFAD700D02D4A71
:1016F8002E2A2EBE89EF0BF02E5009E11E0E2D5C0E
:10170800D8A089EF0BF08BEF0BF04FEF0BF0030E27
:10171800FBEF0BF0000E096E000E0A6E400E0B6E0A
:10172800410E0C6E20EE1CF02150D9262250DA22F0
:10173800DECF0DF0DECF0EF0DECF0FF0DECF10F0F3
:10174800C0EC10F0D8B0ABEF0BF0ADEF0BF00EEF34
:101758000AF0010E0001A06F000E306E000E2F6E11
:1017680023C01CF024C01DF025C01EF026C01FF0A9
:1017780049EC13F0030E286E700E276E5C0EE82EEF
:10178800FED7272EFCD7282EFAD700D023C01CF06E
:1017980024C01DF025C01EF026C01FF0E8EC14F090
:1017A800030E286E700E276E5C0EE82EFED7272ECD
:1017B800FCD7282EFAD700D02F4A302A30BEEEEFB9
:1017C8000BF0305009E1290E2F5CD8A0EEEF0BF09A
:1017D800F0EF0BF0B4EF0BF0230E1C6E000E1D6E35
:1017E800250E1E6E000E1F6EBEEC11F0000E1200CC
:1017F8000C50800B196E0C500C24206E0BAE07EFAA
:101808000CF009EF0CF00AEF0CF020802050D8B44F
:1018180010EF0CF012EF0CF027EF0CF02028D8A4F2
:1018280018EF0CF01AEF0CF022EF0CF0000E096E16
:10183800000E0A6E000E0B6E000E0C6E0B8E000E64
:101848000C6E2FEF0CF0000E096E000E0A6E000EE3
:101858000B6E000E0C6E1050800B191A10501024CD
:10186800216E0FAE3AEF0CF03CEF0CF03DEF0CF0B0
:1018780021802150D8B443EF0CF045EF0CF05AEF1B
:101888000CF02128D8A44BEF0CF04DEF0CF055EFDD
:101898000CF0000E0D6E000E0E6E000E0F6E000E98
:1018A800106E0F8E000E106E62EF0CF0000E0D6EB3
:1018B800000E0E6E000E0F6E000E106E0D500E1004
:1018C8000F101010D8A46BEF0CF06DEF0CF085EF33
:1018D8000CF0000E096E000E0A6E000E0B6E000E64
:1018E8000C6E800E0B127F0E0C1219500C1209C0D0
:1018F80009F00AC00AF00BC00BF00CC00CF0C8EFDE
:101908000DF02050D8A48BEF0CF08DEF0CF097EF72
:101918000CF0000E096E000E0A6E000E0B6E000E23
:101928000C6EC8EF0DF0215020C011F0126A115E44
:10193800000E125A7F0E11241A6E000E12201B6E12
:1019480009C015F00AC016F00BC017F00CC018F04B
:10195800000E096E000E0A6E000E0B6E000E0C6E65
:10196800000E1C6E000E1D6E000E1E6E000E1F6E09
:10197800000E216EF8EF0CF02150D8B4C6EF0CF031
:10198800C8EF0CF0DFEF0CF0D89015361636173686
:101998001836D89009360A360B360C361FAED7EFF4
:1019A8000CF0D9EF0CF0DAEF0CF00980D8901C3667
:1019B8001D361E361F360D50155C0E5016580F502A
:1019C800175810501858D8A0ECEF0CF0EEEF0CF0A8
:1019D800F7EF0CF01F8C0D50155E0E50165A0F5075
:1019E800175A1050185A212A190E2164FEEF0CF0CC
:1019F80000EF0DF0C0EF0CF015501610171018106E
:101A0800D8B409EF0DF00BEF0DF023EF0DF01C80AB
:101A180023EF0DF0D89009360A360B360C361FAE78
:101A280018EF0DF01AEF0DF01BEF0DF00980D890AC
:101A38001C361D361E361F361A06D8A01B060BAEDE
:101A480028EF0DF02AEF0DF00EEF0DF0000E216ECD
:101A58001FAE31EF0DF033EF0DF057EF0DF0FF0E25
:101A68001C14116EFF0E1D14126EFF0E1E14136E41
:101A78007F0E1F14146E1150121013101410D8B4C6
:101A880048EF0DF04AEF0DF04EEF0DF0010E216E0C
:101A980057EF0DF009A053EF0DF055EF0DF057EF8C
:101AA8000DF04AEF0DF02150D8B45DEF0DF05FEF67
:101AB8000DF083EF0DF0010E0926000E0A220B220D
:101AC8000C220CA06AEF0DF06CEF0DF083EF0DF017
:101AD80009C011F00AC012F00BC013F00CC014F0CA
:101AE8001434143213321232113211C009F012C0F8
:101AF8000AF013C00BF014C00CF01A4A1B2A1BBEC4
:101B08008EEF0DF01B5008E11A28D8A08EEF0DF0CB
:101B180090EF0DF09BEF0DF0000E1B6E1A68000E93
:101B2800096E000E0A6E000E0B6E000E0C6E1BBEC8
:101B3800A8EF0DF01B5006E11A04D8B0A6EF0DF07F
:101B4800A8EF0DF0B6EF0DF0000E1B6E000E1A6E2A
:101B5800000E096E000E0A6E000E0B6E000E0C6E63
:101B6800000E196E1AC020F020A0BDEF0DF0BFEFD7
:101B78000DF0C2EF0DF00B8EC3EF0DF00B9ED89059
:101B880020300C6E79EF0CF012001C6E1C50D8B48B
:101B9800D0EF0DF0D2EF0DF0F4EF0DF017BED9EF46
:101BA8000DF0D7EF0DF0F4EF0DF014C018F015C0DC
:101BB80019F016C01AF017C01BF0181E191E1A1EAD
:101BC8001B1E182A000E19221A221B2218C01EF0EA
:101BD80019C01FF01AC020F01BC021F0FCEF0DF057
:101BE80014C01EF015C01FF016C020F017C021F059
:101BF8001450151016101710D8A405EF0EF007EFA3
:101C08000EF011EF0EF0000E146E000E156E000EA1
:101C1800166E000E176EA2EF0EF0960E1D6E1BEFDD
:101C28000EF01D2AD890213220321F321E32000EAB
:101C38001E14186E000E1F14196E000E20141A6E52
:101C4800FE0E21141B6E185019101A101B10D8A460
:101C580030EF0EF032EF0EF015EF0EF040EF0EF011
:101C68001D2A010E1E26000E1F2220222122D89096
:101C7800213220321F321E32000E1E14186E000E42
:101C88001F14196E000E20141A6EFF0E21141B6EFD
:101C9800185019101A101B10D8A455EF0EF057EF52
:101CA8000EF034EF0EF05FEF0EF01D06D8901E36E2
:101CB8001F362036213620BE64EF0EF066EF0EF098
:101CC8006EEF0EF0020E1D606CEF0EF06EEF0EF070
:101CD80059EF0EF01DB073EF0EF075EF0EF076EFC2
:101CE8000EF0209ED8901D321DC018F0196A1A6A8D
:101CF8001B6A18C01BF01A6A196A186A18501E1253
:101D080019501F121A5020121B5021121C50D8B4FF
:101D180090EF0EF092EF0EF09AEF0EF017BE99EFDB
:101D28000EF097EF0EF09AEF0EF0218E1EC014F011
:101D38001FC015F020C016F021C017F01200CEEC1D
:101D480015F0CEEC14F0D9EC15F0B4EC15F0F0C0A9
:101D58000DF0F1C00EF09CC00FF09DC010F02FECFC
:101D680015F0E4EC15F0000E0A6EC80E096E96EC3C
:101D780012F0DE0E096E000E0A6EB7EC13F0E70ED5
:101D8800096E000E0A6E82EC13F085948598839E86
:101D9800879C849E7C9E88968096ECEC13F064EC7D
:101DA80014F014EC14F03CEC14F0000E0001A06FD9
:101DB800DE0E1C6E000E1D6EE70E1E6E000E1F6EF0
:101DC800BEEC11F000019E059F11D8A4EEEF0EF0B5
:101DD800F0EF0EF0DCEF0EF0DE0E1C6E000E1D6E46
:101DE800E70E1E6E000E1F6EE8EC14F0520E326EF7
:101DF8002B0E316E000EE82EFED7312EFCD7322E78
:101E0800FAD700D07C9EBE0E226E000E236E33ECF5
:101E180012F0BE0E226E000E236E17EC10F00001B9
:101E2800A051D8A41AEF0FF01CEF0FF049EF0FF0F4
:101E380080A621EF0FF025EF0FF0316A312A26EF47
:101E48000FF0316A31463146314680503118F70B70
:101E58003118806EBE0E216E000E226EDE0E236ECD
:101E6800000E246EE70E256E000E266EACEC09F00F
:101E7800316EA10E4F24D96E000E5020DA6E31C09B
:101E8800DFFF4F4A502A57EF0FF0A10E216E000EC8
:101E9800226EDE0E236E000E246EE70E256E000EF7
:101EA800266E0CEC07F08096000E00019F6F000E66
:101EB8009E6FDCEF0EF019EF00F020EE02F01650E6
:101EC800D9261750DA22DF50D8B46DEF0FF06FEF34
:101ED8000FF0A3EF0FF016C0D9FF17C0DAFFDF50DD
:101EE800186E1850096E0A6A20EE03F01650D926AB
:101EF8001750DA22DECF0BF0DDCF0CF081EC15F0B5
:101F080009C00FF00AC010F0000E126E640E116EB8
:101F1800D6EC12F020EE03F01650D9261750DA222C
:101F2800DF50196E0F50195C1A6E20EE03F0165030
:101F3800D9261750DA22DF501B6EC6EF0FF016C0F5
:101F4800D9FF17C0DAFFDF50186E1850096E0A6AF9
:101F580020EE03F01650D9261750DA22DECF0BF008
:101F6800DDCF0CF081EC15F009C00FF00AC010F0BD
:101F7800000E126E640E116ED6EC12F00F501A6E2F
:101F8800000E1B6E20EE01F01650D9261750DA22EB
:101F9800DF50D8B4D2EF0FF0D4EF0FF0F6EF0FF018
:101FA80020EE05F01650D9261750DA22DECF18F0A9
:101FB800DDCF19F018C0D9FF19C0DAFF1AC0DFFF4A
:101FC80020EE07F01650D9261750DA22DECF18F087
:101FD800DDCF19F018C0D9FF19C0DAFF1BC0DFFF29
:101FE80016EF10F020EE05F01650D9261750DA2219
:101FF800DECF18F0DDCF19F018C0D9FF19C0DAFF0D
:102008001BC0DFFF20EE07F01650D9261750DA2242
:10201800DECF18F0DDCF19F018C0D9FF19C0DAFFEC
:102028001AC0DFFF120020EE0CF02250D9262350F0
:10203800DA22DECF09F0DECF0AF0DECF0BF0DECFFA
:102048000CF022C0D9FF23C0DAFFDECF0DF0DECFBF
:102058000EF0DECF0FF0DECF10F0FCEC0BF020EE30
:1020680010F02250D9262350DA2209C0DEFF0AC018
:10207800DEFF0BC0DEFF0CC0DEFF20EE0CF02250AE
:10208800D9262350DA22DECF09F0DECF0AF0DECFE0
:102098000BF0DECF0CF020EE04F02250D9262350AE
:1020A800DA22DECF0DF0DECF0EF0DECF0FF0DECF7E
:1020B80010F0FCEC0BF020EE14F02250D92623503F
:1020C800DA2209C0DEFF0AC0DEFF0BC0DEFF0CC04B
:1020D800DEFF20EE0CF02250D9262350DA22DECF84
:1020E80009F0DECF0AF0DECF0BF0DECF0CF020EEE9
:1020F80008F02250D9262350DA22DECF0DF0DECFA9
:102108000EF0DECF0FF0DECF10F0FCEC0BF020EE7F
:1021180018F02250D9262350DA2209C0DEFF0AC05F
:10212800DEFF0BC0DEFF0CC0DEFF20EE0CF02250FD
:10213800D9262350DA22DECF09F0DECF0AF0DECF2F
:102148000BF0DECF0CF0000E0D6E000E0E6E000EC2
:102158000F6E000E106EFCEC0BF020EE1CF02250FF
:10216800D9262350DA2209C0DEFF0AC0DEFF0BC0E1
:10217800DEFF0CC0DEFF1200000E0914116E000E07
:102188000A14126E800E0B14136E7F0E0C14146E4C
:102198001150121013101410D8A4D5EF10F0D7EF67
:1021A80010F0DFEF10F0000E096E000E0A6E000E40
:1021B8000B6E000E0C6E000E0D14116E000E0E1438
:1021C800126E800E0F14136E7F0E1014146E1150C1
:1021D800121013101410D8A4F4EF10F0F6EF10F04A
:1021E800FEEF10F0000E0D6E000E0E6E000E0F6E5C
:1021F800000E106E0CAE03EF11F005EF11F00EEFAC
:1022080011F0096C0A1ED8B00A2A0B1ED8B00B2A86
:10221800800E0C5610AE13EF11F015EF11F01EEFF3
:1022280011F00D6C0E1ED8B00E2A0F1ED8B00F2A52
:10223800800E1056000E091A000E0A1A000E0B1A0C
:10224800800E0C1A000E0D1A000E0E1A000E0F1A30
:10225800800E101A0D50095C0E500A580F500B587A
:1022680010500C58D8B03BEF11F03DEF11F040EF93
:1022780011F0D89041EF11F0D88012001CC0D9FF9E
:102288001DC0DAFF050EDF6E1EC0D9FF1FC0DAFFC2
:10229800050EDF6E20EE01F01E50D9261F50DA22FF
:1022A800000EDF6E20EE01F01C50D9261D50DA22F8
:1022B800000EDF6E20EE02F01C50D9261D50DA22E7
:1022C800010EDF6E20EE02F01E50D9261F50DA22D2
:1022D800010EDF6E8DEF11F01CC0D9FF1DC0DAFFB3
:1022E800DF2A1EC0D9FF1FC0DAFFDF2AD00E206EFA
:1022F800CA0EE82EFED7202EFCD71CC016F01DC033
:1023080017F061EC0FF01EC016F01FC017F061EC5B
:102318000FF01CC0D9FF1DC0DAFF650EDF6097EF14
:1023280011F099EF11F0A5EF11F01EC0D9FF1FC0F1
:10233800DAFF640EDF64A3EF11F0A5EF11F070EF80
:1023480011F01CC0D9FF1DC0DAFF640EDF6E1EC07D
:10235800D9FF1FC0DAFF640EDF6E1CC016F01DC067
:1023680017F061EC0FF01EC016F01FC017F061ECFB
:102378000FF012001CC0D9FF1DC0DAFF050EDF6E7A
:102388001EC0D9FF1FC0DAFF050EDF6E20EE01F078
:102398001E50D9261F50DA22010EDF6E20EE01F002
:1023A8001C50D9261D50DA22010EDF6E20EE02F0F5
:1023B8001C50D9261D50DA22010EDF6E20EE02F0E5
:1023C8001E50D9261F50DA22010EDF6E02EF12F0DE
:1023D8001CC0D9FF1DC0DAFFDF2A1EC0D9FF1FC0ED
:1023E800DAFFDF2A1CC016F01DC017F061EC0FF0F1
:1023F8001EC016F01FC017F061EC0FF01CC0D9FF0B
:102408001DC0DAFF150EDF600CEF12F00EEF12F0B0
:102418001AEF12F01EC0D9FF1FC0DAFF140EDF64D6
:1024280018EF12F01AEF12F0ECEF11F01CC0D9FF00
:102438001DC0DAFF140EDF6E1EC0D9FF1FC0DAFF01
:10244800140EDF6E1CC016F01DC017F061EC0FF003
:102458001EC016F01FC017F061EC0FF01200ECEC74
:1024680013F00DC014F00EC015F0166A176A000EAE
:10247800C9EC0DF022C0D9FF23C0DAFF14C0DEFF7B
:1024880015C0DEFF16C0DEFF17C0DEFF64EC14F0D7
:102498000DC014F00EC015F0166A176A000EC9ECCC
:1024A8000DF020EE08F02250D9262350DA2214C06D
:1024B800DEFF15C0DEFF16C0DEFF17C0DEFF14EC1E
:1024C80014F00DC014F00EC015F0166A176A000E4D
:1024D800C9EC0DF020EE04F02250D9262350DA2260
:1024E80014C0DEFF15C0DEFF16C0DEFF17C0DEFF1A
:1024F8003CEC14F00DC014F00EC015F0166A176A03
:10250800000EC9EC0DF020EE0CF02250D926235015
:10251800DA2214C0DEFF15C0DEFF16C0DEFF17C0CA
:10252800DEFF1200050E0E01746F060E766F070EA1
:10253800696F080E886FBD508F0B3009BD6EE00EB5
:10254800BE16BF50F00B0109BF6EC80EBC6EBD8E23
:10255800000EAA6E000EA66E000E0F01256F000E6B
:10256800216FFC0EAD16F30EAD16CF0EAD163F0E55
:10257800AD16AB88AB50F00B0C09AB6EAB8EA788D1
:10258800A750F00B0C09A76EA78E26892651F00BD1
:102598000C09266F268F22892251F00B0C09226F15
:1025A800228F1200000E156E000E146E11501210BC
:1025B800D8B4E1EF12F0E3EF12F00BEF13F0010ED5
:1025C800136EEBEF12F0D89011361236132A12AEB2
:1025D800F0EF12F0F2EF12F0E7EF12F0D8901436A5
:1025E800153611500F5C12501058D8A0FEEF12F09B
:1025F80000EF13F005EF13F011500F5E1250105A50
:102608001480D89012321132132EF2EF12F014C047
:102618000FF015C010F012001CC0D9FF1DC0DAFF62
:10262800320EDF6E1EC0D9FF1FC0DAFF320EDF6E1A
:1026380020EE02F01C50D9261D50DA22010EDF6E62
:1026480020EE02F01E50D9261F50DA22010EDF6E4E
:1026580020EE01F01E50D9261F50DA22000EDF6E40
:1026680020EE01F01C50D9261D50DA22010EDF6E33
:102678001CC016F01DC017F061EC0FF01EC016F05C
:102688001FC017F061EC0FF012001CC0D9FF1DC06D
:10269800DAFF320EDF6E1EC0D9FF1FC0DAFF320E1E
:1026A800DF6E20EE02F01C50D9261D50DA22010EF2
:1026B800DF6E20EE02F01E50D9261F50DA22010EDE
:1026C800DF6E20EE01F01C50D9261D50DA22000ED4
:1026D800DF6E20EE01F01E50D9261F50DA22010EBF
:1026E800DF6E1CC016F01DC017F061EC0FF01EC0A5
:1026F80016F01FC017F061EC0FF0120009C0D9FFE7
:102708000AC0DAFF320EDF6E20EE01F00950D9263A
:102718000A50DA22010EDF6E20EE02F00950D926A7
:102728000A50DA22010EDF6E20EE05F00950D92694
:102738000A50DA22250EDE6E0F0EDD6E20EE07F04F
:102748000950D9260A50DA22210EDE6E0F0EDD6EF0
:1027580020EE03F00950D9260A50DA22C80EDE6EA0
:10276800000EDD6E120009C0D9FF0AC0DAFF320E72
:10277800DF6E20EE01F00950D9260A50DA22010E48
:10278800DF6E20EE02F00950D9260A50DA22010E37
:10279800DF6E20EE05F00950D9260A50DA22AA0E7B
:1027A800DE6E0F0EDD6E20EE07F00950D9260A50B6
:1027B800DA22A60EDE6E0F0EDD6E20EE03F0095053
:1027C800D9260A50DA22C80EDE6E000EDD6E12001F
:1027D80006EC16F0520EEAEC15F0B60EEAEC15F01F
:1027E800FCEC15F0530EEAEC15F0010EADEC14F00C
:1027F8000F6E0F50126E136A000EADEC14F00F6ED0
:102808000F50116E106A12501010126E13501110E2
:10281800136E01EC16F012C00DF013C00EF012008A
:1028280006EC16F0520EEAEC15F0B80EEAEC15F0CC
:10283800FCEC15F0530EEAEC15F0010EADEC14F0BB
:102848000F6E0F50126E136A000EADEC14F00F6E7F
:102858000F50116E106A12501010126E1350111092
:10286800136E01EC16F012C00DF013C00EF012003A
:1028780006EC16F0520EEAEC15F0B40EEAEC15F080
:10288800FCEC15F0530EEAEC15F0010EADEC14F06B
:102898000F6E0F50126E136A000EADEC14F00F6E2F
:1028A8000F50116E106A12501010126E1350111042
:1028B800136E01EC16F012C00DF013C00EF01200EA
:1028C80006EC16F0520EEAEC15F0BA0EEAEC15F02A
:1028D800FCEC15F0530EEAEC15F0010EADEC14F01B
:1028E8000F6E0F50126E136A000EADEC14F00F6EDF
:1028F8000F50116E106A12501010126E13501110F2
:10290800136E01EC16F012C00DF013C00EF0120099
:102918002A0EF66E2C0EF76E000EF86E0900F5CF33
:10292800F0F00900F5CFF1F000EE60F0500EEE6A1D
:10293800E806FDE100EE33F0240EEE6AE806FDE15C
:1029480057905792000EF86E0E0EF76E0001A3EF27
:102958000EF00B6E59EC15F00E01DA8759EC15F0F4
:10296800D5CE0CF059EC15F00B50D8B4BEEF14F0DE
:10297800C2EF14F00A6A0A2AC3EF14F00A6A0A3A84
:102988000A460E01DA510A18DF0B0A18DA6FDA89DB
:102998000C5012001AEC15F0010E0B6E000E94ECA0
:1029A80015F03F0E0D6E550EE82EFED70D2EFCD7F6
:1029B80000F0030E0B6E000E94EC15F0D50E0B6EA6
:1029C800010E94EC15F012001CC0D9FF1DC0DAFFEF
:1029D800000EDF6E1EC0D9FF1FC0DAFF000EDF6ECB
:1029E8001CC016F01DC017F061EC0FF01EC016F0E9
:1029F8001FC017F061EC0FF0120010EC16F0520E29
:102A0800F6EC15F0E60EF6EC15F00BEC16F0C1EC52
:102A180015F0F0EC15F0F0C005F0F1C006F09CC020
:102A280007F09DC008F044EC15F012000E01D951D2
:102A3800F00B0809D96FD98B9F0ED66F848A848CC6
:102A4800A79BA79D1D0E1D6F1E0E1C6F1C0E6F6F82
:102A58001B0E706F12000FC00BF0040E94EC15F0F3
:102A680010500B6E050E94EC15F00DC00BF0060E11
:102A780094EC15F00E500B6E070E94EC15F0120046
:102A880007C003F0040EA4EC15F00850036E050E01
:102A9800A4EC15F005C003F0060EA4EC15F00650E2
:102AA800036E070EA4EC15F012000E01D8B55FEF07
:102AB80015F061EF15F059EF15F0DACE09F01F0E99
:102AC8000916D8A46AEF15F06CEF15F059EF15F058
:102AD80012000E01D8B573EF15F075EF15F06DEF14
:102AE80015F0DACE01F01F0E0116D8A47EEF15F00E
:102AF80080EF15F06DEF15F0120009500B02F3CFBF
:102B08000DF0F4CF0EF009500C02F3500E260A50C7
:102B18000B02F3500E260DC009F00EC00AF0120089
:102B28000C6E06EC16F0520EEAEC15F00C5080090B
:102B3800EAEC15F00B50EAEC15F001EC16F0120077
:102B4800046E10EC16F0520EF6EC15F004508009E5
:102B5800F6EC15F00350F6EC15F00BEC16F012003D
:102B6800130E0B6E000E94EC15F0D00E0D6ECA0EFF
:102B7800E82EFED70D2EFCD71200130E036E000EA2
:102B8800A4EC15F0D00E056ECA0EE82EFED7052E61
:102B9800FCD7120087907F8081987988869E7E8EE8
:102BA80081967986859E7D8E120082800E019A918B
:102BB800339129811F81F290F28AF28CF28E1200F1
:102BC800020E0B6E0C0E94EC15F012000A6E59EC06
:102BD80015F00AC0D5FE1200020E036E0C0EA4EC0E
:102BE80015F01200026E6DEC15F002C0D5FE120051
:102BF80059EC15F00E01DA83120059EC15F00E01AC
:102C0800DA85120059EC15F00E01DA8112006DEC2C
:102C180015F00E01DA8512006DEC15F00E01DA815F
:042C28001200B80BD3
:020000040020DA
:10000000FF0FFF0FFF0FFF0FFF0FFF0FFF0FFF0F80
:020000040030CA
:0C000000AAFFFFFF9FFFFFFFFFFFFFFFB5
:00000001FF
