:040000001AEF00F003
:1000080057820E0133A10BEF00F00DEF00F018EF4F
:1000180000F0000E0001D96F010ED86FD64BD72B18
:100028003FEC1DF00E01339157921100C4EF1CF004
:100E000000524742433A2566202566202566202564
:070E1000662025660A0000C0
:100E180020EE1CF02750D9262850DA22DECF09F020
:100E2800DECF0AF0DECF0BF0DECF0CF043C00DF0C2
:100E380044C00EF045C00FF046C010F058EC18F052
:100E4800D8B029EF07F02BEF07F01FEF0AF03FC0EB
:100E580009F040C00AF041C00BF042C00CF020EE8F
:100E68001CF02750D9262850DA22DECF0DF0DECF2D
:100E78000EF0DECF0FF0DECF10F058EC18F0D8B03F
:100E880048EF07F04AEF07F01FEF0AF020EE18F0DE
:100E98002750D9262850DA22DECF09F0DECF0AF013
:100EA800DECF0BF0DECF0CF0000E0D6E000E0E6ED6
:100EB800A00E0F6E400E106E58EC18F0D8B067EF09
:100EC80007F069EF07F02AEF08F09A0E096E990EFD
:100ED8000A6ED90E0B6E3F0E0C6E20EE10F02750E6
:100EE800D9262850DA22DECF0DF0DECF0EF0DECF85
:100EF8000FF0DECF10F058EC18F0D8B086EF07F0FE
:100F080088EF07F02AEF08F020EE10F02750D926D6
:100F18002850DA22DECF09F0DECF0AF0DECF0BF060
:100F2800DECF0CF0CD0E0D6ECC0E0E6E0C0E0F6ECD
:100F3800400E106E58EC18F0D8B0A5EF07F0A7EFE8
:100F480007F02AEF08F0000E096E000E0A6E400E38
:100F58000B6E400E0C6E20EE14F02750D926285048
:100F6800DA22DECF0DF0DECF0EF0DECF0FF0DECFCF
:100F780010F058EC18F0D8B0C4EF07F0C6EF07F03F
:100F88002AEF08F020EE14F02750D9262850DA224C
:100F9800DECF09F0DECF0AF0DECF0BF0DECF0CF0AB
:100FA800000E0D6E000E0E6E600E0F6E400E106E6F
:100FB80058EC18F0D8B0E3EF07F0E5EF07F02AEFA8
:100FC80008F029C01CF02AC01DF02BC01EF02CC050
:100FD8001FF0DAEC18F0F40E2E6E820E2D6E050E50
:100FE800E82EFED72D2EFCD72E2EFAD700F029C0DA
:100FF8001CF02AC01DF02BC01EF02CC01FF026ECE0
:101008001DF0090E2E6E1E0E2D6EE40EE82EFED774
:101018002D2EFCD72E2EFAD700D029C01CF02AC0BE
:101028001DF02BC01EF02CC01FF056EC1BF0120E4A
:101038002E6E0C0E2D6E950EE82EFED72D2EFCD79B
:101048002E2EFAD700F0050E4CEF0DF0000E096EAB
:10105800000E0A6EB00E0B6E400E0C6E20EE18F0ED
:101068002750D9262850DA22DECF0DF0DECF0EF039
:10107800DECF0FF0DECF10F058EC18F0D8B047EF05
:1010880008F049EF08F01DEF09F020EE18F027509E
:10109800D9262850DA22DECF09F0DECF0AF0DECFDB
:1010A8000BF0DECF0CF0000E0D6E000E0E6EC00EB3
:1010B8000F6E400E106E58EC18F0D8B066EF08F0BE
:1010C80068EF08F01DEF09F0330E096E330E0A6E53
:1010D800B30E0B6E3F0E0C6E20EE10F02750D92683
:1010E8002850DA22DECF0DF0DECF0EF0DECF0FF083
:1010F800DECF10F058EC18F0D8B085EF08F087EF85
:1011080008F01DEF09F020EE10F02750D9262850DE
:10111800DA22DECF09F0DECF0AF0DECF0BF0DECF29
:101128000CF09A0E0D6E990E0E6ED90E0F6E3F0EC4
:10113800106E58EC18F0D8B0A4EF08F0A6EF08F03D
:101148001DEF09F0330E096E330E0A6E830E0B6E17
:10115800400E0C6E20EE14F02750D9262850DA22C3
:10116800DECF0DF0DECF0EF0DECF0FF0DECF10F0C9
:1011780058EC18F0D8B0C3EF08F0C5EF08F01DEF31
:1011880009F020EE14F02750D9262850DA22DECFB5
:1011980009F0DECF0AF0DECF0BF0DECF0CF0000E48
:1011A8000D6E000E0E6E900E0F6E400E106E58EC07
:1011B80018F0D8B0E2EF08F0E4EF08F01DEF09F0FE
:1011C80029C021F02AC022F02BC023F02CC024F023
:1011D800F9EC1BF029C01CF02AC01DF02BC01EF032
:1011E8002CC01FF01DEC1BF01B0E2E6E620E2D6E18
:1011F8002B0EE82EFED72D2EFCD72E2EFAD700F078
:1012080029C01CF02AC01DF02BC01EF02CC01FF0F6
:1012180026EC1DF0520E2E6E2B0E2D6E000EE82EB3
:10122800FED72D2EFCD72E2EFAD700D0060E4CEF67
:101238000DF0330E096E330E0A6E530E0B6E400E10
:101248000C6E20EE18F02750D9262850DA22DECF6F
:101258000DF0DECF0EF0DECF0FF0DECF10F058EC41
:1012680018F0D8B03AEF09F03CEF09F01FEF0AF098
:1012780020EE18F02750D9262850DA22DECF09F0C0
:10128800DECF0AF0DECF0BF0DECF0CF09A0E0D6E3B
:10129800990E0E6E790E0F6E400E106E58EC18F007
:1012A800D8B059EF09F05BEF09F01FEF0AF0CD0E47
:1012B800096ECC0E0A6E2C0E0B6E400E0C6E20EED4
:1012C80010F02750D9262850DA22DECF0DF0DECFD5
:1012D8000EF0DECF0FF0DECF10F058EC18F0D8B0DB
:1012E80078EF09F07AEF09F01FEF0AF020EE10F01E
:1012F8002750D9262850DA22DECF09F0DECF0AF0AF
:10130800DECF0BF0DECF0CF0CD0E0D6ECC0E0E6ED8
:101318004C0E0F6E400E106E58EC18F0D8B097EFC8
:1013280009F099EF09F01FEF0AF0000E096E000EA0
:101338000A6E200E0B6E400E0C6E20EE14F0275035
:10134800D9262850DA22DECF0DF0DECF0EF0DECF20
:101358000FF0DECF10F058EC18F0D8B0B6EF09F067
:10136800B8EF09F01FEF0AF020EE14F02750D92645
:101378002850DA22DECF09F0DECF0AF0DECF0BF0FC
:10138800DECF0CF09A0E0D6E990E0E6E390E0F6EA2
:10139800400E106E58EC18F0D8B0D5EF09F0D7EF22
:1013A80009F01FEF0AF07EA0DCEF09F0E0EF09F08A
:1013B8002D6A2D2AE1EF09F02D6A7E502D18FE0BBB
:1013C8002D187E6E29C021F02AC022F02BC023F0F0
:1013D8002CC024F0F9EC1BF029C01CF02AC01DF029
:1013E8002BC01EF02CC01FF056EC1BF01B0E2E6EEF
:1013F800CA0E2D6E100EE82EFED72D2EFCD72E2EDF
:10140800FAD700D029C01CF02AC01DF02BC01EF04E
:101418002CC01FF026EC1DF0520E2E6E2B0E2D6EDA
:10142800000EE82EFED72D2EFCD72E2EFAD700D090
:10143800070E4CEF0DF020EE1CF02750D92628504F
:10144800DA22DECF09F0DECF0AF0DECF0BF0DECFF6
:101458000CF0CCC00DF0CDC00EF0CEC00FF0CFC058
:1014680010F058EC18F0D8B03CEF0AF03EEF0AF054
:10147800DDEF0BF0C8C009F0C9C00AF0CAC00BF014
:10148800CBC00CF020EE1CF02750D9262850DA22C9
:10149800DECF0DF0DECF0EF0DECF0FF0DECF10F096
:1014A80058EC18F0D8B05BEF0AF05DEF0AF0DDEF0A
:1014B8000BF0000E096E000E0A6E000E0B6E410E48
:1014C8000C6E20EE14F02750D9262850DA22DECFF1
:1014D8000DF0DECF0EF0DECF0FF0DECF10F058ECBF
:1014E80018F0D8B07AEF0AF07CEF0AF09FEF0AF014
:1014F80029C021F02AC022F02BC023F02CC024F0F0
:10150800F9EC1BF029C01CF02AC01DF02BC01EF0FE
:101518002CC01FF01DEC1BF0130E2E6E440E2D6E0A
:10152800440EE82EFED72D2EFCD72E2EFAD700D04B
:10153800010E4CEF0DF0000E096E000E0A6E900EB3
:101548000B6E400E0C6E20EE18F02750D92628504E
:10155800DA22DECF0DF0DECF0EF0DECF0FF0DECFD9
:1015680010F058EC18F0D8B0BCEF0AF0BEEF0AF053
:1015780000EF0BF020EE18F02750D9262850DA2279
:10158800DECF09F0DECF0AF0DECF0BF0DECF0CF0B5
:10159800000E0D6E000E0E6EB00E0F6E400E106E29
:1015A80058EC18F0D8B0DBEF0AF0DDEF0AF000EFE6
:1015B8000BF029C021F02AC022F02BC023F02CC048
:1015C80024F0F9EC1BF029C01CF02AC01DF02BC038
:1015D8001EF02CC01FF056EC1BF0120E2E6E0C0ED7
:1015E8002D6E950EE82EFED72D2EFCD72E2EFAD76F
:1015F80000F0020E4CEF0DF0CD0E096ECC0E0A6E07
:101608002C0E0B6E400E0C6E20EE18F02750D926CB
:101618002850DA22DECF0DF0DECF0EF0DECF0FF04D
:10162800DECF10F058EC18F0D8B01DEF0BF01FEF1C
:101638000BF0DDEF0BF020EE18F02750D9262850DC
:10164800DA22DECF09F0DECF0AF0DECF0BF0DECFF4
:101658000CF0330E0D6E330E0E6E530E0F6E400EE1
:10166800106E58EC18F0D8B03CEF0BF03EEF0BF0D2
:10167800DDEF0BF0CD0E096ECC0E0A6E2C0E0B6E44
:10168800400E0C6E20EE10F02750D9262850DA2292
:10169800DECF0DF0DECF0EF0DECF0FF0DECF10F094
:1016A80058EC18F0D8B05BEF0BF05DEF0BF0DDEF06
:1016B8000BF020EE10F02750D9262850DA22DECF82
:1016C80009F0DECF0AF0DECF0BF0DECF0CF0330EE0
:1016D8000D6E330E0E6E530E0F6E400E106E58ECDC
:1016E80018F0D8B07AEF0BF07CEF0BF0DDEF0BF0D1
:1016F800CD0E096ECC0E0A6E2C0E0B6E400E0C6EC3
:1017080020EE14F02750D9262850DA22DECF0DF02B
:10171800DECF0EF0DECF0FF0DECF10F058EC18F071
:10172800D8B099EF0BF09BEF0BF0DDEF0BF020EE4C
:1017380014F02750D9262850DA22DECF09F0DECF60
:101748000AF0DECF0BF0DECF0CF0330E0D6E330E49
:101758000E6E530E0F6E400E106E58EC18F0D8B087
:10176800B8EF0BF0BAEF0BF0DDEF0BF029C021F06A
:101778002AC022F02BC023F02CC024F0F9EC1BF077
:1017880029C01CF02AC01DF02BC01EF02CC01FF071
:1017980056EC1BF0200E2E6E400E2D6EE90EE82E34
:1017A800FED72D2EFCD72E2EFAD700F0030E4CEFC5
:1017B8000DF047C009F048C00AF049C00BF04AC014
:1017C8000CF020EE1CF02750D9262850DA22DECF64
:1017D8000DF0DECF0EF0DECF0FF0DECF10F058ECBC
:1017E80018F0D8B0FAEF0BF0FCEF0BF0A8EF0CF004
:1017F800000E096E000E0A6EA00E0B6E400E0C6EE7
:1018080020EE18F02750D9262850DA22DECF0DF026
:10181800DECF0EF0DECF0FF0DECF10F058EC18F070
:10182800D8B019EF0CF01BEF0CF060EF0CF029C0EA
:101838001CF02AC01DF02BC01EF02CC01FF0DAECE3
:1018480018F0F40E2E6E820E2D6E050EE82EFED7C1
:101858002D2EFCD72E2EFAD700F029C01CF02AC056
:101868001DF02BC01EF02CC01FF026EC1DF0090E39
:101878002E6E1E0E2D6EE40EE82EFED72D2EFCD7F2
:101888002E2EFAD700D029C01CF02AC01DF02BC07C
:101898001EF02CC01FF01DEC1BF0110E2E6EA40EB6
:1018A8002D6EB00EE82EFED72D2EFCD72E2EFAD791
:1018B80000D0040E4CEF0DF020EE18F02750D9267A
:1018C8002850DA22DECF09F0DECF0AF0DECF0BF0A7
:1018D800DECF0CF0000E0D6E000E0E6EA00E0F6E19
:1018E800400E106E58EC18F0D8B07DEF0CF07FEF7A
:1018F8000CF04CEF0DF0010E0001DA6F7C8829C066
:1019080021F02AC022F02BC023F02CC024F0F9ECDF
:101918001BF029C01CF02AC01DF02BC01EF02CC0E3
:101928001FF056EC1BF0200E2E6E400E2D6EE90EA9
:10193800E82EFED72D2EFCD72E2EFAD700F0809653
:101948007C8E080E4CEF0DF050BEB6EF0CF05050E8
:1019580007E1020E4F5CD8B0B4EF0CF0B6EF0CF014
:10196800BAEF0CF04F4A502A4CEF0DF029C021F085
:101978002AC022F02BC023F02CC024F0F9EC1BF075
:10198800000E306E000E2F6E30BED4EF0CF03050CB
:1019980009E14C0E2F5CD8A0D4EF0CF0D6EF0CF078
:1019A800D8EF0CF013EF0DF029C01CF02AC01DF081
:1019B8002BC01EF02CC01FF056EC1BF0030E2E6E31
:1019C800700E2D6E5C0EE82EFED72D2EFCD72E2E17
:1019D800FAD700D029C01CF02AC01DF02BC01EF079
:1019E8002CC01FF026EC1DF0050E2E6EDF0E2D6E9E
:1019F800BC0EE82EFED72D2EFCD72E2EFAD72F4A56
:101A0800302A30BE11EF0DF0305009E14C0E2F5C3A
:101A1800D8A011EF0DF013EF0DF0D8EF0CF029C09E
:101A28001CF02AC01DF02BC01EF02CC01FF056EC75
:101A38001BF0200E2E6E400E2D6EE90EE82EFED7FE
:101A48002D2EFCD72E2EFAD700F029C01CF02AC064
:101A58001DF02BC01EF02CC01FF026EC1DF0520EFE
:101A68002E6E2B0E2D6E000EE82EFED72D2EFCD7D7
:101A78002E2EFAD700D0010E0001DA6F5106D8A039
:101A88005206000E506E000E4F6E80967C8E090E28
:101A980012000C50800B156E0C500C24176E0BAEF8
:101AA80058EF0DF05AEF0DF05BEF0DF0178017505F
:101AB800D8B461EF0DF063EF0DF078EF0DF0172853
:101AC800D8A469EF0DF06BEF0DF073EF0DF0000E79
:101AD800096E000E0A6E000E0B6E000E0C6E0B8E59
:101AE800000E0C6E80EF0DF0000E096E000E0A6EEF
:101AF800000E0B6E000E0C6E1050800B166E1550FB
:101B08001618D8B48AEF0DF08CEF0DF08DEF0DF0AC
:101B1800158C10501024166E0FAE95EF0DF097EF40
:101B28000DF098EF0DF016801650D8B49EEF0DF01A
:101B3800A0EF0DF0B5EF0DF01628D8A4A6EF0DF024
:101B4800A8EF0DF0B0EF0DF0000E0D6E000E0E6E4A
:101B5800000E0F6E000E106E0F8E000E106EBDEF91
:101B68000DF0000E0D6E000E0E6E000E0F6E000EC4
:101B7800106E1750165CD8B0C4EF0DF0C6EF0DF01C
:101B8800EDEF0DF015ACCBEF0DF0CDEF0DF0CFEF85
:101B98000DF0800E151A17C018F016C017F018C0EF
:101BA80016F009C018F00DC009F018C00DF00AC0F1
:101BB80018F00EC00AF018C00EF00BC018F00FC0D5
:101BC8000BF018C00FF00CC018F010C00CF018C0C3
:101BD80010F0000E186E175016C011F0126A115E40
:101BE800000E125A12BE02EF0EF0125009E11A0E40
:101BF800115CD8A002EF0EF004EF0EF03BEF0EF0F0
:101C080009500A100B100C10D8A40DEF0EF010EFAD
:101C18000EF0010E11EF0EF0000E186E000E096E98
:101C2800000E0A6E000E0B6E000E0C6E16C017F03A
:101C380044EF0EF018A023EF0EF025EF0EF02BEF77
:101C48000EF0D89018300109186E2DEF0EF0D890CC
:101C5800183209A032EF0EF034EF0EF035EF0EF027
:101C6800188E0C340C320B320A320932172A1650ED
:101C7800175CD8A042EF0EF044EF0EF01EEF0EF006
:101C880015BC49EF0EF04BEF0EF08BEF0EF017502E
:101C9800D8A451EF0EF053EF0EF05DEF0EF0000EEA
:101CA800096E000E0A6E000E0B6E000E0C6EACEF85
:101CB8000FF00D5009260E500A220F500B2210501B
:101CC8000C220CA06AEF0EF06CEF0EF018EF0FF07C
:101CD80018A071EF0EF073EF0EF079EF0EF0D890B8
:101CE80018300109186E7BEF0EF0D890183209A051
:101CF80080EF0EF082EF0EF083EF0EF0188E0C34AA
:101D08000C320B320A320932172A18EF0FF00D5035
:101D1800095C0E500A580F500B580C50800A116E6F
:101D28001050800A1158D8B09CEF0EF09EEF0EF0BC
:101D3800C9EF0EF009500D5C116E0A500E58126E64
:101D48000B500F58136E0C501058146EFF0E1124C0
:101D5800096EFF0E12200A6EFF0E13200B6EFF0E87
:101D680014200C6E800E151A186C1850D8A4BFEFEA
:101D78000EF0C1EF0EF0D1EF0EF0010E0926000EA5
:101D88000A220B220C22D1EF0EF00D50095E0E50E4
:101D98000A5A0F500B5A10500C5A09500A100B10BF
:101DA8000C10D8A4DAEF0EF0DCEF0EF011EF0FF004
:101DB8001850D8A4E2EF0EF0E4EF0EF011EF0FF098
:101DC800000E096E000E0A6E000E0B6E000E0C6EF1
:101DD800ACEF0FF0D89009360A360B360C3618AE31
:101DE800F8EF0EF0FAEF0EF0FBEF0EF0098018A0F6
:101DF80000EF0FF002EF0FF006EF0FF0D880183663
:101E080008EF0FF0D89018361750D8B40EEF0FF02F
:101E180010EF0FF011EF0FF017060BAE16EF0FF0E3
:101E280018EF0FF0EEEF0EF0000E166E18AE1FEF63
:101E38000FF021EF0FF039EF0FF018C011F07F0EFF
:101E48001116D8B42AEF0FF02CEF0FF030EF0FF087
:101E5800010E166E39EF0FF009A035EF0FF037EFCE
:101E68000FF039EF0FF02CEF0FF01650D8B43FEF0A
:101E78000FF041EF0FF06CEF0FF0010E0926000E86
:101E88000A220B220C220CA04CEF0FF04EEF0FF0A1
:101E98006CEF0FF009C011F00AC012F00BC013F07C
:101EA8000CC014F01434143213321232113211C02F
:101EB80009F012C00AF013C00BF014C00CF0172878
:101EC800D8B469EF0FF06BEF0FF06CEF0FF0172A33
:101ED8001728D8B472EF0FF074EF0FF07CEF0FF003
:101EE8001750D8A47AEF0FF07CEF0FF08EEF0FF0B9
:101EF800000E096E000E0A6E000E0B6E000E0C6EC0
:101F08001750D8A48AEF0FF08CEF0FF08EEF0FF078
:101F1800000E156E17A093EF0FF095EF0FF098EFE6
:101F28000FF00B8E99EF0FF00B9ED89017300C6EB8
:101F380015AEA1EF0FF0A3EF0FF0A4EF0FF00C8E8A
:101F480009C009F00AC00AF00BC00BF00CC00CF075
:101F58001200515027242D6E525028202E6EFE0E4E
:101F68002D24D96EFF0E2E20DA6EDE04D8A4BFEF22
:101F78000FF0C1EF0FF0E3EF0FF029C021F02AC0F6
:101F880022F02BC023F02CC024F0F9EC1BF029C060
:101F98001CF02AC01DF02BC01EF02CC01FF056EC00
:101FA8001BF0110E2E6E3C0E2D6ECB0EE82EFED7BA
:101FB8002D2EFCD72E2EFAD700F090EF11F05150AD
:101FC80027242D6E525028202E6EFE0E2D24D96EF9
:101FD800FF0E2E20DA6E020EDE18D8A4F6EF0FF0F0
:101FE800F8EF0FF01AEF10F029C021F02AC022F004
:101FF8002BC023F02CC024F0F9EC1BF029C01CF0F6
:102008002AC01DF02BC01EF02CC01FF01DEC1BF0C9
:10201800120E2E6E740E2D6E7A0EE82EFED72D2E11
:10202800FCD72E2EFAD700D090EF11F0515027246C
:102038002D6E525028202E6EFE0E2D24D96EFF0EC6
:102048002E20DA6E030EDE18D8A42DEF10F02FEF35
:1020580010F051EF10F029C021F02AC022F02BC057
:1020680023F02CC024F0F9EC1BF029C01CF02AC086
:102078001DF02BC01EF02CC01FF056EC1BF0200EDC
:102088002E6E400E2D6EE90EE82EFED72D2EFCD7B3
:102098002E2EFAD700F090EF11F0515027242D6E14
:1020A800525028202E6EFE0E2D24D96EFF0E2E20A3
:1020B800DA6E040EDE18D8A464EF10F066EF10F0A4
:1020C800B3EF10F029C021F02AC022F02BC023F072
:1020D8002CC024F0F9EC1BF029C01CF02AC01DF01C
:1020E8002BC01EF02CC01FF056EC1BF0120E2E6EEB
:1020F8000C0E2D6E950EE82EFED72D2EFCD72E2E0B
:10210800FAD700F029C01CF02AC01DF02BC01EF021
:102118002CC01FF026EC1DF0090E2E6E1E0E2D6E23
:10212800E40EE82EFED72D2EFCD72E2EFAD700D09F
:1021380029C01CF02AC01DF02BC01EF02CC01FF0B7
:10214800CBEC19F0620E2E6E670E2D6ECE0EE82EB9
:10215800FED72D2EFCD72E2EFAD790EF11F0515026
:1021680027242D6E525028202E6EFE0E2D24D96E57
:10217800FF0E2E20DA6E050EDE18D8A4C6EF10F07A
:10218800C8EF10F022EF11F029C01CF02AC01DF092
:102198002BC01EF02CC01FF026EC1DF0090E2E6E71
:1021A8001E0E2D6EE40EE82EFED72D2EFCD72E2EF9
:1021B800FAD700D029C01CF02AC01DF02BC01EF091
:1021C8002CC01FF01DEC1BF0120E2E6E0C0E2D6E87
:1021D800950EE82EFED72D2EFCD72E2EFAD700F01E
:1021E80029C01CF02AC01DF02BC01EF02CC01FF007
:1021F80026EC1DF0090E2E6E1E0E2D6EE40EE82E36
:10220800FED72D2EFCD72E2EFAD700D029C01CF0D1
:102218002AC01DF02BC01EF02CC01FF0CBEC19F00B
:10222800A30E2E6E570E2D6E020EE82EFED72D2E03
:10223800FCD72E2EFAD700D090EF11F0515027245A
:102248002D6E525028202E6EFE0E2D24D96EFF0EB4
:102258002E20DA6E060EDE18D8A435EF11F037EF0F
:1022680011F059EF11F029C021F02AC022F02BC03B
:1022780023F02CC024F0F9EC1BF029C01CF02AC074
:102288001DF02BC01EF02CC01FF056EC1BF01B0ECF
:102298002E6ECA0E2D6E100EE82EFED72D2EFCD7F0
:1022A8002E2EFAD700D090EF11F0515027242D6E22
:1022B800525028202E6EFE0E2D24D96EFF0E2E2091
:1022C800DA6E070EDE18D8A46CEF11F06EEF11F07D
:1022D80090EF11F029C021F02AC022F02BC023F082
:1022E8002CC024F0F9EC1BF029C01CF02AC01DF00A
:1022F8002BC01EF02CC01FF01DEC1BF01B0E2E6E09
:10230800620E2D6E2B0EE82EFED72D2EFCD72E2E0C
:10231800FAD700F090EF11F012002550800B326EC2
:1023280025502524396E24AE9CEF11F09EEF11F054
:102338009FEF11F039803950D8B4A5EF11F0A7EF0D
:1023480011F0BCEF11F03928D8A4ADEF11F0AFEFC0
:1023580011F0B7EF11F0000E226E000E236E000E82
:10236800246E000E256E248E000E256EC4EF11F02B
:10237800000E226E000E236E000E246E000E256ED7
:102388002950800B321A295029243A6E28AECFEFF3
:1023980011F0D1EF11F0D2EF11F03A803A50D8B4E1
:1023A800D8EF11F0DAEF11F0EFEF11F03A28D8A4D6
:1023B800E0EF11F0E2EF11F0EAEF11F0000E266EF7
:1023C800000E276E000E286E000E296E288E000E55
:1023D800296EF7EF11F0000E266E000E276E000E24
:1023E800286E000E296E2650271028102910D8A410
:1023F80000EF12F002EF12F01AEF12F0000E226E48
:10240800000E236E000E246E000E256E800E241220
:102418007F0E25123250251222C022F023C023F04D
:1024280024C024F025C025F05DEF13F03950D8A45E
:1024380020EF12F022EF12F02CEF12F0000E226EB5
:10244800000E236E000E246E000E256E5DEF13F055
:102458003A5039C02AF02B6A2A5E000E2B5A7F0E9A
:102468002A24336E000E2B20346E22C02EF023C097
:102478002FF024C030F025C031F0000E226E000E7F
:10248800236E000E246E000E256E000E356E000EB3
:10249800366E000E376E000E386E000E3A6E8DEFF7
:1024A80012F03A50D8B45BEF12F05DEF12F074EF0F
:1024B80012F0D8902E362F3630363136D890223654
:1024C80023362436253638AE6CEF12F06EEF12F054
:1024D8006FEF12F02280D8903536363637363836D8
:1024E80026502E5C27502F582850305829503158E4
:1024F800D8A081EF12F083EF12F08CEF12F0388C35
:1025080026502E5E27502F5A2850305A2950315ABB
:102518003A2A190E3A6493EF12F095EF12F055EF3C
:1025280012F02E502F1030103110D8B49EEF12F048
:10253800A0EF12F0B8EF12F03580B8EF12F0D89093
:10254800223623362436253638AEADEF12F0AFEFFB
:1025580012F0B0EF12F02280D89035363636373682
:1025680038363306D8A0340624AEBDEF12F0BFEFDC
:1025780012F0A3EF12F0000E3A6E38AEC6EF12F06A
:10258800C8EF12F0ECEF12F0FF0E35142A6EFF0EB2
:1025980036142B6EFF0E37142C6E7F0E38142D6EEA
:1025A8002A502B102C102D10D8B4DDEF12F0DFEFCD
:1025B80012F0E3EF12F0010E3A6EECEF12F022A0E7
:1025C800E8EF12F0EAEF12F0ECEF12F0DFEF12F0A2
:1025D8003A50D8B4F2EF12F0F4EF12F018EF13F00B
:1025E800010E2226000E23222422252225A0FFEFF9
:1025F80012F001EF13F018EF13F022C02AF023C0F5
:102608002BF024C02CF025C02DF02D342D322C3287
:102618002B322A322AC022F02BC023F02CC024F0FF
:102628002DC025F0334A342A34BE23EF13F034503A
:1026380008E13328D8A023EF13F025EF13F030EF8B
:1026480013F0000E346E3368000E226E000E236EF7
:10265800000E246E000E256E34BE3DEF13F034508C
:1026680006E13304D8B03BEF13F03DEF13F04BEF26
:1026780013F0000E346E000E336E000E226E000E44
:10268800236E000E246E000E256E000E326E33C0CF
:1026980039F039A052EF13F054EF13F057EF13F05D
:1026A800248E58EF13F0249ED8903930256E0EEF03
:1026B80012F0120017EC1EF00CEC1DF0000E0A6E62
:1026C800C80E096EA3EC1AF0A20E096E000E0A6E6F
:1026D800C4EC1BF0AB0E096E000E0A6E8FEC1BF0FB
:1026E800A20E096E000E0A6EAB0E0B6E000E0C6E7B
:1026F8003BEC1EF0849E7C9E8896809654EC1EF0DF
:10270800820E0001606F000E616FA20E626F000EF4
:10271800636FAB0E646F000E656FE9EC14F00CECA0
:102728001EF0F2EC1DF0EAC00DF0EBC00EF0D0C0C8
:102738000FF0D1C010F06DEC1DF01EEC1EF0000E75
:102748000001DA6F000E526E000E516E000E506ED0
:10275800000E4F6E000ED76F000ED66F88908090D7
:1027680086907E9084987C9884967C96A20E1C6EA7
:10277800000E1D6EAB0E1E6E000E1F6ECBEC19F018
:102788000001D805D911D8A4CCEF13F0CEEF13F07F
:10279800BAEF13F0D7BFDAEF13F0D75109E1020E01
:1027A800D65DD8A0DAEF13F0DCEF13F0BAEF13F030
:1027B800A20E1C6E000E1D6EAB0E1E6E000E1F6E5E
:1027C80026EC1DF0520E0001816F2B0E806F000E5B
:1027D800E82EFED7802FFCD7812FFAD700F07C9EF9
:1027E8000001DA51D8A4FBEF13F0FDEF13F03DEF31
:1027F80014F08086A20E1C6E000E1D6EAB0E1E6EAF
:10280800000E1F6E56EC19F0310E0001816FB40EE8
:10281800806F650EE82EFED7802FFCD7812FFAD760
:1028280000D0820E226E000E236E40EC1AF0820E4B
:102838003B6E000E3C6EEAEC16F0820E276E000E20
:10284800286EA20E296E000E2A6EAB0E2B6E000E9D
:102858002C6E0CEC07F00001806FDB0E5124D96E52
:10286800000E5220DA6E80C0DFFF514A522ADFEF95
:1028780014F07C8EA20E1C6E000E1D6EAB0E1E6E2A
:10288800000E1F6E56EC19F0310E0001816FB40E68
:10289800806F650EE82EFED7802FFCD7812FFAD7E0
:1028A80000D0DB0E276E000E286EA20E296E000ED9
:1028B8002A6EAB0E2B6E000E2C6EADEC0FF051068F
:1028C800D8A0520651045210D8A46DEF14F06FEF3F
:1028D80014F0DFEF14F0000E0001DA6F7C98A20EFE
:1028E8001C6E000E1D6EAB0E1E6E000E1F6ECBEC26
:1028F80019F0CB0E0001816FEC0E806F840EE82E6C
:10290800FED7802FFCD7812FFAD700F0A20E1C6EBD
:10291800000E1D6EAB0E1E6E000E1F6E26EC1DF017
:10292800290E0001816F960E806F7F0EE82EFED76C
:10293800802FFCD7812FFAD7A20E1C6E000E1D6EB9
:10294800AB0E1E6E000E1F6E56EC1BF0230E000120
:10295800816FE70E806FF70EE82EFED7802FFCD729
:10296800812FFAD700D080A0BCEF14F0C1EF14F08B
:102978000001806B802BC3EF14F00001806B805046
:102988008019FE0B8019806EA20E1C6E000E1D6E43
:10299800AB0E1E6E000E1F6E26EC1DF0A30E00017E
:1029A800816F570E806F020EE82EFED7802FFCD75E
:1029B800812FFAD700F08096000E0001D96F000E23
:1029C800D86FBAEF13F01AEF00F0000E00017F6F16
:1029D800000E7E6F8EB4F3EF14F0F5EF14F073EF82
:1029E80015F0050E7E197F11D8B4FDEF14F0FFEF36
:1029F80014F009EF15F062C01CF063C01DF064C04C
:102A08001EF065C01FF056EC19F0290E3E6E960EAA
:102A18003D6E7F0EE82EFED73D2EFCD73E2EFAD710
:102A280000F0808660C022F061C023F040EC1AF00C
:102A380060C03BF061C03CF0EAEC16F0290E3E6E37
:102A4800960E3D6E7F0EE82EFED73D2EFCD73E2E0D
:102A5800FAD700F08096000120EE1CF06051D926CC
:102A68006151DA22660E3D6E000E3E6ED8907E35BC
:102A7800E16E7F35E26ED890E136E2363D50E126D0
:102A88003E50E222DECFE6FFDECFE6FFDECFE6FFF6
:102A9800DECFE6FF290E3E6E960E3D6E7F0EE82EC7
:102AA800FED73D2EFCD73E2EFAD700F062C01CF0B0
:102AB80063C01DF064C01EF065C01FF026EC1DF059
:102AC800290E3E6E960E3D6E7F0EE82EFED73D2EE9
:102AD800FCD73E2EFAD700F000017E4B7F2B7FBF3C
:102AE8007FEF15F07F5109E1060E7E5DD8A07FEFDC
:102AF80015F081EF15F0EEEF14F066C009F067C02D
:102B08000AF068C00BF069C00CF0CD0E0D6ECC0E4B
:102B18000E6ECC0E0F6EBE0E106E4DEC0DF009C091
:102B280047F00AC048F00BC049F00CC04AF06AC030
:102B380009F06BC00AF06CC00BF06DC00CF09A0E77
:102B48000D6E990E0E6E990E0F6E3E0E106E4DECB8
:102B58000DF009C043F00AC044F00BC045F00CC0AA
:102B680046F06EC009F06FC00AF070C00BF071C07B
:102B78000CF09A0E0D6E990E0E6E990E0F6EBE0E1B
:102B8800106E4DEC0DF009C03FF00AC040F00BC0CC
:102B980041F00CC042F072C009F073C00AF074C072
:102BA8000BF075C00CF0CD0E0D6ECC0E0E6ECC0E6B
:102BB8000F6E3E0E106E4DEC0DF009C0CCF00AC041
:102BC800CDF00BC0CEF00CC0CFF076C009F077C0C6
:102BD8000AF078C00BF079C00CF0CD0E0D6ECC0E5B
:102BE8000E6E4C0E0F6EBE0E106E4DEC0DF009C041
:102BF800C8F00AC0C9F00BC0CAF00CC0CBF0A30ED5
:102C08003E6E570E3D6E020EE82EFED73D2EFCD7C7
:102C18003E2EFAD700D012001C6E1C50D8B417EF05
:102C280016F019EF16F03BEF16F017BE20EF16F06E
:102C38001EEF16F03BEF16F014C018F015C019F08F
:102C480016C01AF017C01BF0181E191E1A1E1B1EDC
:102C5800182A000E19221A221B2218C01EF019C0A9
:102C68001FF01AC020F01BC021F043EF16F014C06B
:102C78001EF015C01FF016C020F017C021F0145028
:102C8800151016101710D8A44CEF16F04EEF16F0CA
:102C980058EF16F0000E146E000E156E000E166E2C
:102CA800000E176EE9EF16F0960E1D6E62EF16F025
:102CB8001D2AD890213220321F321E32000E1E14D7
:102CC800186E000E1F14196E000E20141A6EFE0ED8
:102CD80021141B6E185019101A101B10D8A477EF66
:102CE80016F079EF16F05CEF16F087EF16F01D2A54
:102CF800010E1E26000E1F2220222122D8902132EA
:102D080020321F321E32000E1E14186E000E1F14C1
:102D1800196E000E20141A6EFF0E21141B6E185027
:102D280019101A101B10D8A49CEF16F09EEF16F07D
:102D38007BEF16F0A6EF16F01D06D8901E361F364C
:102D48002036213620BEABEF16F0ADEF16F0B5EF0A
:102D580016F0020E1D60B3EF16F0B5EF16F0A0EFF7
:102D680016F01DB0BAEF16F0BCEF16F0BDEF16F076
:102D7800209ED8901D321DC018F0196A1A6A1B6A65
:102D880018C01BF01A6A196A186A18501E121950CE
:102D98001F121A5020121B5021121C50D8B4D7EF02
:102DA80016F0D9EF16F0E1EF16F017BEE0EF16F0C7
:102DB800DEEF16F0E1EF16F0218E1EC014F01FC0F2
:102DC80015F020C016F021C017F01200090E4C6E45
:102DD800510E4B6E20EE0CF03B50D9263C50DA22B7
:102DE800DECF22F0DECF23F0DECF24F0DECF25F0D9
:102DF8003BC0D9FF3CC0DAFFDECF26F0DECF27F09C
:102E0800DECF28F0DECF29F091EC11F020EE10F0A3
:102E18003B50D9263C50DA2222C0DEFF23C0DEFF19
:102E280024C0DEFF25C0DEFF20EE0CF03B50D92683
:102E38003C50DA22DECF22F0DECF23F0DECF24F0C2
:102E4800DECF25F020EE04F03B50D9263C50DA22A4
:102E5800DECF26F0DECF27F0DECF28F0DECF29F058
:102E680091EC11F020EE14F03B50D9263C50DA22B8
:102E780022C0DEFF23C0DEFF24C0DEFF25C0DEFF48
:102E880020EE0CF03B50D9263C50DA22DECF22F05F
:102E9800DECF23F0DECF24F0DECF25F020EE08F0E1
:102EA8003B50D9263C50DA22DECF26F0DECF27F081
:102EB800DECF28F0DECF29F091EC11F020EE18F0EB
:102EC8003B50D9263C50DA2222C0DEFF23C0DEFF69
:102ED80024C0DEFF25C0DEFF20EE0CF03B50D926D3
:102EE8003C50DA22DECF22F0DECF23F0DECF24F012
:102EF800DECF25F0510E146E090E156E000E166EFB
:102F0800000E176E010E10EC16F014C026F015C056
:102F180027F016C028F017C029F091EC11F020EE28
:102F28001CF03B50D9263C50DA2222C0DEFF23C0D9
:102F3800DEFF24C0DEFF25C0DEFF120020EE02F017
:102F48001650D9261750DA22DF50D8B4AEEF17F052
:102F5800B0EF17F0E4EF17F016C0D9FF17C0DAFF8B
:102F6800DF50186E1850096E0A6A20EE03F01650EA
:102F7800D9261750DA22DECF0BF0DDCF0CF0BFECEC
:102F88001DF009C00FF00AC010F0000E126E640E9A
:102F9800116EE3EC1AF020EE03F01650D926175004
:102FA800DA22DF50196E0F50195C1A6E20EE03F00A
:102FB8001650D9261750DA22DF501B6E07EF18F08B
:102FC80016C0D9FF17C0DAFFDF50186E1850096E07
:102FD8000A6A20EE03F01650D9261750DA22DECFFF
:102FE8000BF0DDCF0CF0BFEC1DF009C00FF00AC0EC
:102FF80010F0000E126E640E116EE3EC1AF00F5012
:103008001A6E000E1B6E20EE01F01650D9261750CE
:10301800DA22DF50D8B413EF18F015EF18F037EFB5
:1030280018F020EE05F01650D9261750DA22DECF18
:1030380018F0DDCF19F018C0D9FF19C0DAFF1AC08F
:10304800DFFF20EE07F01650D9261750DA22DECF20
:1030580018F0DDCF19F018C0D9FF19C0DAFF1BC06E
:10306800DFFF57EF18F020EE05F01650D92617505D
:10307800DA22DECF18F0DDCF19F018C0D9FF19C059
:10308800DAFF1BC0DFFF20EE07F01650D9261750D5
:10309800DA22DECF18F0DDCF19F018C0D9FF19C039
:1030A800DAFF1AC0DFFF1200000E0914116E000EBD
:1030B8000A14126E800E0B14136E7F0E0C14146E0D
:1030C8001150121013101410D8A46DEF18F06FEFF0
:1030D80018F077EF18F0000E096E000E0A6E000E59
:1030E8000B6E000E0C6E000E0D14116E000E0E14F9
:1030F800126E800E0F14136E7F0E1014146E115082
:10310800121013101410D8A48CEF18F08EEF18F0CA
:1031180096EF18F0000E0D6E000E0E6E000E0F6E7C
:10312800000E106E0CAE9BEF18F09DEF18F0A6EF96
:1031380018F0096C0A1ED8B00A2A0B1ED8B00B2A40
:10314800800E0C5610AEABEF18F0ADEF18F0B6EFDE
:1031580018F00D6C0E1ED8B00E2A0F1ED8B00F2A0C
:10316800800E1056000E091A000E0A1A000E0B1ACD
:10317800800E0C1A000E0D1A000E0E1A000E0F1AF1
:10318800800E101A0D50095C0E500A580F500B583B
:1031980010500C58D8B0D3EF18F0D5EF18F0D8EF7E
:1031A80018F0D890D9EF18F0D88012001CC0D9FFB9
:1031B8001DC0DAFF050EDF6E1EC0D9FF1FC0DAFF83
:1031C800050EDF6E20EE01F01E50D9261F50DA22C0
:1031D800000EDF6E20EE01F01C50D9261D50DA22B9
:1031E800000EDF6E20EE02F01C50D9261D50DA22A8
:1031F800010EDF6E20EE02F01E50D9261F50DA2293
:10320800010EDF6E25EF19F01CC0D9FF1DC0DAFFD3
:10321800DF2A1EC0D9FF1FC0DAFFDF2AD00E206EBA
:10322800CA0EE82EFED7202EFCD71CC016F01DC0F3
:1032380017F0A2EC17F01EC016F01FC017F0A2EC92
:1032480017F01CC0D9FF1DC0DAFF150EDF602FEF85
:1032580019F031EF19F03DEF19F01EC0D9FF1FC06A
:10326800DAFF140EDF643BEF19F03DEF19F008EFB9
:1032780019F01CC0D9FF1DC0DAFF140EDF6E1EC086
:10328800D9FF1FC0DAFF140EDF6E1CC016F01DC078
:1032980017F0A2EC17F01EC016F01FC017F0A2EC32
:1032A80017F012001CC0D9FF1DC0DAFF320EDF6E06
:1032B8001EC0D9FF1FC0DAFF320EDF6E20EE01F00C
:1032C8001E50D9261F50DA22010EDF6E20EE01F0C3
:1032D8001C50D9261D50DA22010EDF6E20EE02F0B6
:1032E8001C50D9261D50DA22010EDF6E20EE02F0A6
:1032F8001E50D9261F50DA22010EDF6E9AEF19F000
:103308001CC0D9FF1DC0DAFFDF2A1EC0D9FF1FC0AD
:10331800DAFFDF2A1CC016F01DC017F0A2EC17F068
:103328001EC016F01FC017F0A2EC17F01CC0D9FF82
:103338001DC0DAFF560EDF60A4EF19F0A6EF19F0F2
:10334800B2EF19F01EC0D9FF1FC0DAFF550EDF64B7
:10335800B0EF19F0B2EF19F084EF19F01CC0D9FFE3
:103368001DC0DAFF550EDF6E1EC0D9FF1FC0DAFF81
:10337800550EDF6E1CC016F01DC017F0A2EC17F03A
:103388001EC016F01FC017F0A2EC17F012001CC0E8
:10339800D9FF1DC0DAFF050EDF6E1EC0D9FF1FC0A2
:1033A800DAFF050EDF6E20EE01F01E50D9261F5001
:1033B800DA22010EDF6E20EE01F01C50D9261D50D6
:1033C800DA22010EDF6E20EE02F01C50D9261D50C5
:1033D800DA22010EDF6E20EE02F01E50D9261F50B1
:1033E800DA22010EDF6E0FEF1AF01CC0D9FF1DC0E4
:1033F800DAFFDF2A1EC0D9FF1FC0DAFFDF2A1CC090
:1034080016F01DC017F0A2EC17F01EC016F01FC072
:1034180017F0A2EC17F01CC0D9FF1DC0DAFF330E5D
:10342800DF6019EF1AF01BEF1AF027EF1AF01EC031
:10343800D9FF1FC0DAFF320EDF6425EF1AF027EF3D
:103448001AF0F9EF19F01CC0D9FF1DC0DAFF320ECF
:10345800DF6E1EC0D9FF1FC0DAFF320EDF6E1CC040
:1034680016F01DC017F0A2EC17F01EC016F01FC012
:1034780017F0A2EC17F0120024EC1CF00DC014F0A9
:103488000EC015F0166A176A000E10EC16F022C06E
:10349800D9FF23C0DAFF14C0DEFF15C0DEFF16C057
:1034A800DEFF17C0DEFF9CEC1CF00DC014F00EC050
:1034B80015F0166A176A000E10EC16F020EE08F0E8
:1034C8002250D9262350DA2214C0DEFF15C0DEFFB1
:1034D80016C0DEFF17C0DEFF4CEC1CF00DC014F068
:1034E8000EC015F0166A176A000E10EC16F020EEE2
:1034F80004F02250D9262350DA2214C0DEFF15C06A
:10350800DEFF16C0DEFF17C0DEFF74EC1CF00DC036
:1035180014F00EC015F0166A176A000E10EC16F0BB
:1035280020EE0CF02250D9262350DA2214C0DEFFF8
:1035380015C0DEFF16C0DEFF17C0DEFF1200050E45
:103548000E01746F060E766F070E696F080E886F8E
:10355800BD508F0B3009BD6EE00EBE16BF50F00B8C
:103568000109BF6EC80EBC6EBD8E000EAA6E000E9D
:10357800A66E000E0F01256F000E216FFC0EAD1612
:10358800F30EAD16CF0EAD163F0EAD16AB88AB5091
:10359800F00B0C09AB6EAB8EA788A750F00B0C098B
:1035A800A76EA78E26892651F00B0C09266F268F49
:1035B80022892251F00B0C09226F228F1200000E73
:1035C800146E000E136E11501210D8B4EEEF1AF0EC
:1035D800F0EF1AF018EF1BF0010E156EF8EF1AF065
:1035E800D89011361236152A12AEFDEF1AF0FFEFF9
:1035F8001AF0F4EF1AF0D8901336143611500F5C05
:1036080012501058D8A00BEF1BF00DEF1BF012EF63
:103618001BF011500F5E1250105A1380D8901232BE
:103628001132152EFFEF1AF013C00FF014C010F06E
:1036380012001CC0D9FF1DC0DAFF3C0EDF6E1EC091
:10364800D9FF1FC0DAFF3C0EDF6E20EE02F01C50DF
:10365800D9261D50DA22010EDF6E20EE02F01E5030
:10366800D9261F50DA22010EDF6E20EE01F01E501F
:10367800D9261F50DA22000EDF6E20EE01F01C5012
:10368800D9261D50DA22010EDF6E1CC016F01DC0AF
:1036980017F0A2EC17F01EC016F01FC017F0A2EC2E
:1036A80017F012001CC0D9FF1DC0DAFF3C0EDF6EF8
:1036B8001EC0D9FF1FC0DAFF3C0EDF6E20EE02F0FD
:1036C8001C50D9261D50DA22010EDF6E20EE02F0C2
:1036D8001E50D9261F50DA22010EDF6E20EE01F0AF
:1036E8001C50D9261D50DA22000EDF6E20EE01F0A4
:1036F8001E50D9261F50DA22010EDF6E1CC016F0AC
:103708001DC017F0A2EC17F01EC016F01FC017F06E
:10371800A2EC17F0120009C0D9FF0AC0DAFF320E76
:10372800DF6E20EE01F00950D9260A50DA22010E88
:10373800DF6E20EE02F00950D9260A50DA22010E77
:10374800DF6E20EE05F00950D9260A50DA22250E40
:10375800DE6E0F0EDD6E20EE07F00950D9260A50F6
:10376800DA22210EDE6E0F0EDD6E20EE03F0095018
:10377800D9260A50DA22C80EDE6E000EDD6E12005F
:1037880009C0D9FF0AC0DAFF320EDF6E20EE01F061
:103798000950D9260A50DA22010EDF6E20EE02F017
:1037A8000950D9260A50DA22010EDF6E20EE05F004
:1037B8000950D9260A50DA22AA0EDE6E0F0EDD6EE7
:1037C80020EE07F00950D9260A50DA22A60EDE6E3E
:1037D8000F0EDD6E20EE03F00950D9260A50DA22CA
:1037E800C80EDE6E000EDD6E120021C01CF022C075
:1037F8001DF023C01EF024C01FF0DAEC18F0310EC3
:10380800266EB40E256E660EE82EFED7252EFCD742
:10381800262EFAD721C01CF022C01DF023C01EF0AE
:1038280024C01FF026EC1DF0190E266E5A0E256EC8
:10383800B20EE82EFED7252EFCD7262EFAD7120078
:1038480045EC1EF0520E24EC1EF0B60E24EC1EF0D1
:1038580036EC1EF0530E24EC1EF0010EEBEC1CF0BF
:103868000F6E0F50126E136A000EEBEC1CF00F6E09
:103878000F50116E106A12501010126E1350111062
:10388800136E40EC1EF012C00DF013C00EF01200C3
:1038980045EC1EF0520E24EC1EF0B80E24EC1EF07F
:1038A80036EC1EF0530E24EC1EF0010EEBEC1CF06F
:1038B8000F6E0F50126E136A000EEBEC1CF00F6EB9
:1038C8000F50116E106A12501010126E1350111012
:1038D800136E40EC1EF012C00DF013C00EF0120073
:1038E80045EC1EF0520E24EC1EF0B40E24EC1EF033
:1038F80036EC1EF0530E24EC1EF0010EEBEC1CF01F
:103908000F6E0F50126E136A000EEBEC1CF00F6E68
:103918000F50116E106A12501010126E13501110C1
:10392800136E40EC1EF012C00DF013C00EF0120022
:1039380045EC1EF0520E24EC1EF0BA0E24EC1EF0DC
:1039480036EC1EF0530E24EC1EF0010EEBEC1CF0CE
:103958000F6E0F50126E136A000EEBEC1CF00F6E18
:103968000F50116E106A12501010126E1350111071
:10397800136E40EC1EF012C00DF013C00EF01200D2
:10398800C20EF66E3C0EF76E000EF86E0900F5CF0B
:10399800EAF00900F5CFEBF001EE00F03C0EEE6A1C
:1039A800E806FDE100EEB4F0360EEE6AE806FDE149
:1039B80000EE3FF0180EEE6AE806FDE157905792C8
:1039C800000EF86E0E0EF76E00015EEF13F00B6E30
:1039D80097EC1DF00E01DA8797EC1DF0D5CE0CF0B0
:1039E80097EC1DF00B50D8B4FCEF1CF000EF1DF065
:1039F8000A6A0A2A01EF1DF00A6A0A3A0A460E0103
:103A0800DA510A18DF0B0A18DA6FDA890C5012003B
:103A180058EC1DF0010E0B6E000ED2EC1DF03F0E9F
:103A28000D6E550EE82EFED70D2EFCD700F0030EB6
:103A38000B6E000ED2EC1DF0D50E0B6E010ED2EC03
:103A48001DF012001CC0D9FF1DC0DAFF000EDF6E8A
:103A58001EC0D9FF1FC0DAFF000EDF6E1CC016F0B3
:103A68001DC017F0A2EC17F01EC016F01FC017F00B
:103A7800A2EC17F012004FEC1EF0520E30EC1EF0C4
:103A8800E60E30EC1EF04AEC1EF0FFEC1DF02AECBE
:103A98001EF0EAC005F0EBC006F0D0C007F0D1C0B8
:103AA80008F082EC1DF012000E01D951F00B080944
:103AB800D96FD98B9F0ED66F848A848CA79BA79DBC
:103AC8001D0E1D6F1E0E1C6F1C0E6F6F1B0E706F70
:103AD80012000FC00BF0040ED2EC1DF010500B6E4C
:103AE800050ED2EC1DF00DC00BF0060ED2EC1DF049
:103AF8000E500B6E070ED2EC1DF0120007C003F03B
:103B0800040EE2EC1DF00850036E050EE2EC1DF009
:103B180005C003F0060EE2EC1DF00650036E070E1A
:103B2800E2EC1DF012000E01D8B59DEF1DF09FEFDD
:103B38001DF097EF1DF0DACE09F01F0E0916D8A474
:103B4800A8EF1DF0AAEF1DF097EF1DF012000E016F
:103B5800D8B5B1EF1DF0B3EF1DF0ABEF1DF0DACE25
:103B680001F01F0E0116D8A4BCEF1DF0BEEF1DF02A
:103B7800ABEF1DF0120009500B02F3CF0DF0F4CF9C
:103B88000EF009500C02F3500E260A500B02F350A7
:103B98000E260DC009F00EC00AF012000C6E45EC9E
:103BA8001EF0520E24EC1EF00C50800924EC1EF07E
:103BB8000B5024EC1EF040EC1EF01200046E4FEC8B
:103BC8001EF0520E30EC1EF00450800930EC1EF04E
:103BD800035030EC1EF04AEC1EF01200130E0B6E70
:103BE800000ED2EC1DF0D00E0D6ECA0EE82EFED7D8
:103BF8000D2EFCD71200130E036E000EE2EC1DF022
:103C0800D00E056ECA0EE82EFED7052EFCD7120080
:103C180082800E019A91339129811F81F290F28A54
:103C2800F28CF28E120058EC1EF05BEC1EF05EEC8B
:103C38001EF01200020E0B6E0C0ED2EC1DF01200DC
:103C48000A6E97EC1DF00AC0D5FE1200020E036E34
:103C58000C0EE2EC1DF01200026EABEC1DF002C07F
:103C6800D5FE120097EC1DF00E01DA831200859440
:103C78008598839E879C120097EC1DF00E01DA85CB
:103C8800120097EC1DF00E01DA811200ABEC1DF06A
:103C98000E01DA851200ABEC1DF00E01DA8112007C
:103CA80086840E01B495120087907F801200859E4D
:0C3CB8007D8E1200819679861200D007E4
:020000040020DA
:10000000FF0FFF0FFF0FFF0FFF0FFF0FFF0FFF0F80
:020000040030CA
:0C000000AAFFFFFF9FFFFFFFFFFFFFFFB5
:00000001FF
