:0400000019EF00F004
:1000080056820E0133A10BEF00F00DEF00F017EF51
:1000180000F07C8E000E0001966F010E956F55EC76
:0E0028000DF00E013391569211001FEF0DF0F6
:100E000000524742433A256920256920256920255B
:100E1000690A000026C03CF027C03DF028C03EF023
:100E200029C03FF02AC040F02BC041F02CC042F056
:100E30002DC043F043BE1FEF07F022EF07F0010E75
:100E400023EF07F0000E446E4450D8B42AEF07F0A9
:100E50002CEF07F03CEF07F0431E421E411E401EE0
:100E60003F1E3E1E3D1E3C6C000E3D223E223F2298
:100E7000402241224222432250BE49EF07F0505007
:100E800006E14F04D8B047EF07F049EF07F04FEF06
:100E900007F0000E396E010E386E53EF07F04FC0A9
:100EA00038F050C039F091C03AF092C03BF0445055
:100EB000D8B45DEF07F05FEF07F076EF07F03A0682
:100EC000D8A03B064450D8A468EF07F06AEF07F0BB
:100ED00070EF07F0000E376E2B0E366E74EF07F0D2
:100EE000000E376E2D0E366E36C044F0000E466E84
:100EF0001F0E456E000E01016F6FFBEF07F04506F8
:100F0000D8A04606500E4524D96E010E4620DA6E52
:100F10003CC009F03DC00AF03EC00BF03FC00CF0F1
:100F200040C00DF041C00EF042C00FF043C010F0C1
:100F30000A0E116E000E126E000E136E000E146E6D
:100F4000000E156E000E166E000E176E000E186E57
:100F50000CEC09F009C02EF00AC02FF00BC030F0E5
:100F60000CC031F00DC032F00EC033F00FC034F0C1
:100F700010C035F02EC01BF02FC01CF0DFEC0CF0C1
:100F80001B50300FDF6E3806D8A039063A06D8A0BD
:100F90003B063CC009F03DC00AF03EC00BF03FC02C
:100FA0000CF040C00DF041C00EF042C00FF043C045
:100FB00010F00A0E116E000E126E000E136E000E6F
:100FC000146E000E156E000E166E000E176E000EDB
:100FD000186E48EC08F009C03CF00AC03DF00BC0A8
:100FE0003EF00CC03FF00DC040F00EC041F00FC00D
:100FF00042F010C043F046BE06EF08F0465008E14C
:101000004504D8A006EF08F008EF08F024EF08F038
:101010003C503D103E103F10401041104210431014
:10102000D8A415EF08F017EF08F07FEF07F039BEEE
:1010300024EF08F0395006E13804D8B022EF08F068
:1010400024EF08F07FEF07F04450D8B42AEF08F0FF
:101050002CEF08F037EF08F04506D8A04606500EF2
:101060004524D96E010E4620DA6E44C0DFFF24C04D
:1010700019F025C01AF0500E45241B6E010E4620B3
:101080001C6E3AC01DF03BC01EF00DEC0BF01200C0
:10109000000E1A6E18BE51EF08F04FEF08F063EF24
:1010A00008F0181E171E161E151E141E131E121EE3
:1010B000116C000E1222132214221522162217225E
:1010C0001822010E1A6E10BE6AEF08F068EF08F0E1
:1010D0007CEF08F0101E0F1E0E1E0D1E0C1E0B1EA8
:1010E0000A1E096C000E0A220B220C220D220E226F
:1010F0000F221022010E1A1A20EE1BF0070EDE6AD4
:10110000E806FDE2115012101310141015101610FD
:1011100017101810D8B48FEF08F091EF08F0E3EF34
:1011200008F0010E196E9FEF08F0D89011361236B4
:10113000133614361536163617361836192A18AEE1
:10114000A4EF08F0A6EF08F095EF08F0D8901B3652
:101150001C361D361E361F362036213622361150DB
:10116000095C12500A5813500B5814500C58155063
:101170000D5816500E5817500F5818501058D8A028
:10118000C4EF08F0C6EF08F0D7EF08F01150095E81
:1011900012500A5A13500B5A14500C5A15500D5A2B
:1011A00016500E5A17500F5A1850105A1B80D890CC
:1011B00018321732163215321432133212321132FB
:1011C000192EA6EF08F01A50D8B4E9EF08F0EBEFAB
:1011D00008F0FBEF08F0221E211E201E1F1E1E1EFF
:1011E0001D1E1C1E1B6C000E1C221D221E221F22F7
:1011F0002022212222221BC009F01CC00AF01DC09F
:101200000BF01EC00CF01FC00DF020C00EF021C06E
:101210000FF022C010F01200000E1A6E10BE15EF73
:1012200009F013EF09F027EF09F0101E0F1E0E1E34
:101230000D1E0C1E0B1E0A1E096C000E0A220B222C
:101240000C220D220E220F221022010E1A6E18BE41
:101250002EEF09F02CEF09F03EEF09F0181E171ED3
:10126000161E151E141E131E121E116C000E1222C5
:10127000132214221522162217221822115012109E
:10128000131014101510161017101810D8B44BEFB7
:1012900009F04DEF09F095EF09F0010E196E5BEFC3
:1012A00009F0D89011361236133614361536163624
:1012B00017361836192A18AE60EF09F062EF09F0F8
:1012C00051EF09F01150095C12500A5813500B5895
:1012D00014500C5815500D5816500E5817500F58E2
:1012E00018501058D8A077EF09F079EF09F089EF7E
:1012F00009F01150095E12500A5A13500B5A14503B
:101300000C5A15500D5A16500E5A17500F5A1850A5
:10131000105AD8901832173216321532143213324E
:1013200012321132192E62EF09F01A50D8B49BEF25
:1013300009F09DEF09F0ADEF09F0101E0F1E0E1E13
:101340000D1E0C1E0B1E0A1E096C000E0A220B221B
:101350000C220D220E220F22102209C009F00AC011
:101360000AF00BC00BF00CC00CF00DC00DF00EC05D
:101370000EF00FC00FF010C010F0120049C0D9FFDE
:101380004AC0DAFFDECFF6FFDDCFF7FF0800F550E9
:10139000250AD8A4CEEF09F0D0EF09F050EF0AF0FB
:1013A00049C0D9FF4AC0DAFFDE2A000EDD22000E56
:1013B0000001926F000E916F91C051F04F6850681C
:1013C00049C0D9FF4AC0DAFFDECF68F0DDCF69F04F
:1013D00068C0F6FF69C0F7FF0800F550640AD8B48A
:1013E000F4EF09F0F6EF09F004EF0AF068C0F6FF39
:1013F00069C0F7FF0800F550690AD8A402EF0AF0A7
:1014000004EF0AF047EF0AF04BC0D9FF4CC0DAFFF7
:10141000DFCF4DF0020EDE26DFCF4EF0000EDD22D4
:101420004DC0D9FF4EC0DAFFDECF60F0DDCF61F0F6
:10143000000E61BFFF0E626F636F646F656F666F52
:10144000676F010E68254D6E000E69214E6E49C012
:10145000D9FF4AC0DAFF4DC0DEFF4EC0DDFF47C0F6
:1014600024F048C025F060C026F061C027F062C0BB
:1014700028F063C029F064C02AF065C02BF066C074
:101480002CF067C02DF00AEC07F064EF0AF049C0B9
:10149000D9FF4AC0DAFFDE2A000EDD2264EF0AF02F
:1014A00049C0D9FF4AC0DAFFDECFF6FFDDCFF7FF34
:1014B0000800F550096E0A6A47C00BF048C00CF0EE
:1014C00065EC0AF047EF0AF012000B500C10D8B48C
:1014D0006CEF0AF06EEF0AF077EF0AF00B500C1089
:1014E000D8A475EF0AF077EF0AF07CEF0AF0095004
:1014F00053EC0EF0C9EF0AF020EE09F00B50D9269C
:101500000C50DA22DE50DE10D8B489EF0AF08BEFEF
:101510000AF0A6EF0AF020EE09F00B50D9260C5085
:10152000DA2210EE03F00B50E1260C50E222DE50DE
:10153000E65CE650800A116EDE50800A1158D8B081
:10154000A4EF0AF0A6EF0AF0C9EF0AF020EE03F0CC
:101550000B50D9260C50DA22DECF0DF0DDCF0EF085
:101560000BC0D9FF0CC0DAFFDECF0FF0DDCF10F0DB
:101570000D500F24D96E0E501020DA6E09C0DFFF17
:1015800020EE03F00B50D9260C50DA22DE2A000E92
:10159000DD2212001DEC0EF088968096D3EC0DF043
:1015A0003BEC0DF0D40E146E010E156E7CEC0BF0BE
:1015B00080A6DDEF0AF0E2EF0AF000018F6B8F2BBF
:1015C000E4EF0AF000018F6B8F478F478F47805001
:1015D0008F19F70B8F19806E290E0001906F960EF0
:1015E0008F6F7F0EE82EFED78F2FFCD7902FFAD764
:1015F000700E00018B6F010E8C6FD40E8D6F010E7B
:101600008E6F4AEC0BF0700E0E6E010E0F6EC0EC7A
:101610000DF0D2EF0AF019EF00F01EBE12EF0BF042
:1016200014EF0BF01AEF0BF01DC022F01EC023F0D8
:101630001EEF0BF0000E236E000E226E000E216EC8
:10164000000E206E30EF0BF0000E0A6E200E096EB9
:1016500019C00BF01AC00CF065EC0AF0204A212AE0
:101660002250205C2150800A1F6E2350800A1F5890
:10167000D8A03DEF0BF03FEF0BF024EF0BF01BC0B9
:1016800012F01CC013F019C014F01AC015F09CEC35
:101690000CF012008BC072F08CC073F0010E0001D0
:1016A000746F0E0E756F8DC0D9FF8EC0DAFFDECF5E
:1016B00076F0DDCF77F020EE02F08D51D9268E51F5
:1016C000DA22DECF78F0DDCF79F020EE04F08D5114
:1016D000D9268E51DA22DECF7AF0DDCF7BF020EEF4
:1016E00006F08D51D9268E51DA22DECF7CF0DDCF87
:1016F0007DF0ABEC0BF01200D4EC0BF014C0D9FF72
:1017000015C0DAFF0DC0DEFF0EC0DDFF4CEC0CF0A3
:1017100020EE04F01450D9261550DA220DC0DEFF59
:101720000EC0DDFFFCEC0BF020EE02F01450D926C9
:101730001550DA220DC0DEFF0EC0DDFF24EC0CF0E8
:1017400020EE06F01450D9261550DA220DC0DEFF27
:101750000EC0DDFF1200760E00017E6F000E7F6F5F
:1017600072C080F073C081F0000E846F000E836F32
:10177000000E8A6F000E896F800E6A6F000E6B6F0D
:1017800074C06CF075C06DF07E0E6E6F000E6F6FE2
:1017900074EC0CF0000183517225D96E84517321D1
:1017A000DA6E000EDF6E120044EC0EF0520E28ECE2
:1017B0000EF0B60E28EC0EF03AEC0EF0530E28ECBC
:1017C0000EF0010EBEEC0CF00F6E0F50126E136A8D
:1017D000000EBEEC0CF00F6E0F50116E106A12501E
:1017E0001010126E13501110136E3FEC0EF012C059
:1017F0000DF013C00EF0120044EC0EF0520E28EC67
:101800000EF0B80E28EC0EF03AEC0EF0530E28EC69
:101810000EF0010EBEEC0CF00F6E0F50126E136A3C
:10182000000EBEEC0CF00F6E0F50116E106A1250CD
:101830001010126E13501110136E3FEC0EF012C008
:101840000DF013C00EF0120044EC0EF0520E28EC16
:101850000EF0B40E28EC0EF03AEC0EF0530E28EC1D
:101860000EF0010EBEEC0CF00F6E0F50126E136AEC
:10187000000EBEEC0CF00F6E0F50116E106A12507D
:101880001010126E13501110136E3FEC0EF012C0B8
:101890000DF013C00EF0120044EC0EF0520E28ECC6
:1018A0000EF0BA0E28EC0EF03AEC0EF0530E28ECC7
:1018B0000EF0010EBEEC0CF00F6E0F50126E136A9C
:1018C000000EBEEC0CF00F6E0F50116E106A12502D
:1018D0001010126E13501110136E3FEC0EF012C068
:1018E0000DF013C00EF012006CC070F06DC071F0FE
:1018F00088EF0CF06AC047F06BC048F0700E496E7C
:10190000000E4A6E6EC04BF06FC04CF0BEEC09F09A
:1019100070C0F6FF71C0F7FF0800F5500009D8A4A9
:1019200094EF0CF096EF0CF07AEF0CF0000E000143
:101930006B6F000E6A6F1200000E186E000E176EAD
:10194000ADEF0CF016C009F00A6A14C00BF015C018
:101950000CF065EC0AF0174A182A17501224D96EB9
:1019600018501320DA6EDF50166E1650D8A4BBEF55
:101970000CF0BDEF0CF0A2EF0CF012000B6E98EC27
:101980000DF00E01DA8798EC0DF0D5CE0CF098EC46
:101990000DF00B50D8B4CFEF0CF0D3EF0CF00A6A77
:1019A0000A2AD4EF0CF00A6A0A3A0A460E01DA5102
:1019B0000A18DF0B0A18DA6FDA890C5012001CBE05
:1019C000ECEF0CF01C5006E11B04D8B0EAEF0CF071
:1019D000ECEF0CF0FAEF0CF01BC01DF01CC01EF079
:1019E0001D1E1E1E1D4A1E2A1DC01BF01EC01CF0FF
:1019F000FEEF0CF01BC01BF01CC01CF01200000E10
:101A00000D6E000E0C6E10EF0DF00C500A24D96E06
:101A10000D500B20DA6EDF5011EC0EF00C4A0D2A3F
:101A20000C500A24D96E0D500B20DA6EDF50D8A46A
:101A30001CEF0DF01EEF0DF005EF0DF0120001EEA2
:101A400000F0700EEE6AE806FDE10001966B956B02
:101A5000946B936B926B916B00EE4FF0070EEE6AF6
:101A6000E806FDE156905692000EF86E0E0EF76EE7
:101A70000001CAEF0AF06EEC0DF0010E0B6E000EC5
:101A8000E4EC0DF03F0E0D6E550EE82EFED70D2E38
:101A9000FCD700F0030E0B6E000EE4EC0DF0D50E3B
:101AA0000B6E010EE4EC0DF012004EEC0EF0520E37
:101AB00034EC0EF0E60E34EC0EF049EC0EF004ECD3
:101AC0000EF02EEC0EF0130E066E880E056E000E54
:101AD000086E000E076E83EC0DF012000E01D95156
:101AE000F00B0809D96FD98B9F0ED66F848A848C2E
:101AF000A79BA79D1D0E1D6F1E0E1C6F1C0E6F6FEA
:101B00001B0E706F120007C003F0040EF4EC0DF012
:101B10000850036E050EF4EC0DF005C003F0060E40
:101B2000F4EC0DF00650036E070EF4EC0DF012000D
:101B30000E01D8B59EEF0DF0A0EF0DF098EF0DF06F
:101B4000DACE09F01F0E0916D8A4A9EF0DF0ABEFFD
:101B50000DF098EF0DF012000E01D8B5B2EF0DF0B8
:101B6000B4EF0DF0ACEF0DF0DACE01F01F0E011660
:101B7000D8A4BDEF0DF0BFEF0DF0ACEF0DF01200EB
:101B8000110E116E3C0E106ECB0EE82EFED7102EED
:101B9000FCD7112EFAD700F00EC00AF00FC00BF0E0
:101BA000FFEC0CF01200120E0E01626F110E156F99
:101BB000E997E895670EE56F000EE66FE789E88B19
:101BC000E78F2D872D8512000C6E44EC0EF0520E1F
:101BD00028EC0EF00C50800928EC0EF00B5028EC8D
:101BE0000EF03FEC0EF01200046E4EEC0EF0520EB2
:101BF00034EC0EF00450800934EC0EF0035034EC59
:101C00000EF049EC0EF01200130E036E000EF4EC11
:101C10000DF0D00E056ECA0EE82EFED7052EFCD7AD
:101C20001200096E0E0137A518EF0EF01AEF0EF034
:101C300012EF0EF009C0E4FE120087907F808198B9
:101C40007988869E7E8E81967986859E7D8E12000D
:101C50000A6E98EC0DF00AC0D5FE1200020E036E5B
:101C60000C0EF4EC0DF01200026EACEC0DF002C0A4
:101C7000D5FE120098EC0DF00E01DA83120098ECFC
:101C80000DF00E01DA85120098EC0DF00E01DA81EC
:101C90001200ACEC0DF00E01DA851200ACEC0DF088
:081CA0000E01DA8112001200AE
:020000040020DA
:10000000FF0FFF0FFF0FFF0FFF0FFF0FFF0FFF0F80
:020000040030CA
:0C000000AAFFFFFF9FFFFFFFFFFFFFFFB5
:00000001FF
