:040000001AEF00F003
:1000080057820E0133A10BEF00F00DEF00F018EF4F
:1000180000F0000E0001DB6F010EDA6FD84BD92B10
:100028007CEC1AF00E0133915792110001EF1AF08F
:100E000000524742433A2566202566202566202564
:070E1000662025660A0000C0
:100E180020EE1CF02750D9262850DA22DECF09F020
:100E2800DECF0AF0DECF0BF0DECF0CF041C00DF0C4
:100E380042C00EF043C00FF044C010F064EC15F04F
:100E4800D8B029EF07F02BEF07F0BFEF07F050BE3F
:100E580039EF07F0505007E1020E4F5CD8B037EF7A
:100E680007F039EF07F03DEF07F04F4A502ABFEF80
:100E780007F029C021F02AC022F02BC023F02CC093
:100E880024F036EC19F0000E306E000E2F6E29C0DB
:100E98001CF02AC01DF02BC01EF02CC01FF062EC05
:100EA80018F0030E2E6E700E2D6E5C0EE82EFED717
:100EB8002D2EFCD72E2EFAD700D029C01CF02AC020
:100EC8001DF02BC01EF02CC01FF063EC1AF0050EAD
:100ED8002E6EDF0E2D6EBC0EE82EFED72D2EFCD703
:100EE8002E2EFAD72F4A302A30BE84EF07F0305022
:100EF80009E1510E2F5CD8A084EF07F086EF07F0C8
:100F08004BEF07F029C01CF02AC01DF02BC01EF0C3
:100F18002CC01FF062EC18F01B0E2E6ECA0E2D6E40
:100F2800100EE82EFED72D2EFCD72E2EFAD700D085
:100F380029C01CF02AC01DF02BC01EF02CC01FF0C9
:100F480063EC1AF0520E2E6E2B0E2D6E000EE82E4C
:100F5800FED72D2EFCD72E2EFAD700D0010E000179
:100F6800DC6F5106D8A05206000E506E000E4F6E70
:100F7800090E55EF0DF020EE1CF02750D926285009
:100F8800DA22DECF09F0DECF0AF0DECF0BF0DECFBB
:100F98000CF045C00DF046C00EF047C00FF048C039
:100FA80010F064EC15F0D8B0DCEF07F0DEEF07F0D6
:100FB800D1EF0AF0CCC009F0CDC00AF0CEC00BF0DA
:100FC800CFC00CF020EE1CF02750D9262850DA228A
:100FD800DECF0DF0DECF0EF0DECF0FF0DECF10F05B
:100FE80064EC15F0D8B0FBEF07F0FDEF07F0D1EF98
:100FF8000AF020EE18F02750D9262850DA22DECF42
:1010080009F0DECF0AF0DECF0BF0DECF0CF0000ED9
:101018000D6E000E0E6EA00E0F6E400E106E64EC7C
:1010280015F0D8B01AEF08F01CEF08F0DCEF08F064
:101038009A0E096E990E0A6ED90E0B6E3F0E0C6E43
:1010480020EE10F02750D9262850DA22DECF0DF0F6
:10105800DECF0EF0DECF0FF0DECF10F064EC15F02F
:10106800D8B039EF08F03BEF08F0DCEF08F020EEDD
:1010780010F02750D9262850DA22DECF09F0DECF2B
:101088000AF0DECF0BF0DECF0CF0CD0E0D6ECC0EDD
:101098000E6E0C0E0F6E400E106E64EC15F0D8B08C
:1010A80058EF08F05AEF08F0DCEF08F0000E096E70
:1010B800000E0A6E400E0B6E400E0C6E20EE14F001
:1010C8002750D9262850DA22DECF0DF0DECF0EF0D9
:1010D800DECF0FF0DECF10F064EC15F0D8B077EF6C
:1010E80008F079EF08F0DCEF08F020EE14F0275054
:1010F800D9262850DA22DECF09F0DECF0AF0DECF7B
:101108000BF0DECF0CF0000E0D6E000E0E6E600EB2
:101118000F6E400E106E64EC15F0D8B096EF08F024
:1011280098EF08F0DCEF08F029C01CF02AC01DF089
:101138002BC01EF02CC01FF0E6EC15F0F40E2E6E3E
:10114800820E2D6E050EE82EFED72D2EFCD72E2EE4
:10115800FAD700F029C01CF02AC01DF02BC01EF0E1
:101168002CC01FF063EC1AF0090E2E6E1E0E2D6EA9
:10117800E40EE82EFED72D2EFCD72E2EFAD700D05F
:1011880029C01CF02AC01DF02BC01EF02CC01FF077
:1011980062EC18F0120E2E6EDC0E2D6E600EE82E2C
:1011A800FED72D2EFCD72E2EFAD7050E55EF0DF0B3
:1011B800000E096E000E0A6EB00E0B6E400E0C6E1D
:1011C80020EE18F02750D9262850DA22DECF0DF06D
:1011D800DECF0EF0DECF0FF0DECF10F064EC15F0AE
:1011E800D8B0F9EF08F0FBEF08F0CFEF09F020EEE8
:1011F80018F02750D9262850DA22DECF09F0DECFA2
:101208000AF0DECF0BF0DECF0CF0000E0D6E000EF4
:101218000E6EC00E0F6E400E106E64EC15F0D8B056
:1012280018EF09F01AEF09F0CFEF09F0330E096E45
:10123800330E0A6EB30E0B6E3F0E0C6E20EE10F0DE
:101248002750D9262850DA22DECF0DF0DECF0EF057
:10125800DECF0FF0DECF10F064EC15F0D8B037EF2A
:1012680009F039EF09F0CFEF09F020EE10F0275020
:10127800D9262850DA22DECF09F0DECF0AF0DECFF9
:101288000BF0DECF0CF09A0E0D6E990E0E6ED90E85
:101298000F6E3F0E106E64EC15F0D8B056EF09F0E3
:1012A80058EF09F0CFEF09F0330E096E330E0A6ECE
:1012B800830E0B6E400E0C6E20EE14F02750D926CC
:1012C8002850DA22DECF0DF0DECF0EF0DECF0FF0A1
:1012D800DECF10F064EC15F0D8B075EF09F077EFB9
:1012E80009F0CFEF09F020EE14F02750D926285046
:1012F800DA22DECF09F0DECF0AF0DECF0BF0DECF48
:101308000CF0000E0D6E000E0E6E900E0F6E400E5D
:10131800106E64EC15F0D8B094EF09F096EF09F070
:10132800CFEF09F029C021F02AC022F02BC023F00A
:101338002CC024F036EC19F029C01CF02AC01DF08E
:101348002BC01EF02CC01FF029EC18F01B0E2E6EBF
:10135800CA0E2D6E100EE82EFED72D2EFCD72E2E7F
:10136800FAD700D029C01CF02AC01DF02BC01EF0EF
:101378002CC01FF063EC1AF0520E2E6E2B0E2D6E41
:10138800000EE82EFED72D2EFCD72E2EFAD700D031
:10139800060E55EF0DF0330E096E330E0A6E530E1E
:1013A8000B6E400E0C6E20EE18F02750D9262850F0
:1013B800DA22DECF0DF0DECF0EF0DECF0FF0DECF7B
:1013C80010F064EC15F0D8B0ECEF09F0EEEF09F08E
:1013D800D1EF0AF020EE18F02750D9262850DA224B
:1013E800DECF09F0DECF0AF0DECF0BF0DECF0CF057
:1013F8009A0E0D6E990E0E6E790E0F6E400E106ECF
:1014080064EC15F0D8B00BEF0AF00DEF0AF0D1EF4D
:101418000AF0CD0E096ECC0E0A6E2C0E0B6E400E25
:101428000C6E20EE10F02750D9262850DA22DECF95
:101438000DF0DECF0EF0DECF0FF0DECF10F064EC53
:1014480015F0D8B02AEF0AF02CEF0AF0D1EF0AF025
:1014580020EE10F02750D9262850DA22DECF09F0E6
:10146800DECF0AF0DECF0BF0DECF0CF0CD0E0D6E26
:10147800CC0E0E6E4C0E0F6E400E106E64EC15F016
:10148800D8B049EF0AF04BEF0AF0D1EF0AF0000E9E
:10149800096E000E0A6E200E0B6E400E0C6E20EECA
:1014A80014F02750D9262850DA22DECF0DF0DECFEF
:1014B8000EF0DECF0FF0DECF10F064EC15F0D8B0F0
:1014C80068EF0AF06AEF0AF0D1EF0AF020EE14F0A4
:1014D8002750D9262850DA22DECF09F0DECF0AF0CD
:1014E800DECF0BF0DECF0CF09A0E0D6E990E0E6E5D
:1014F800390E0F6E400E106E64EC15F0D8B087EF01
:101508000AF089EF0AF0D1EF0AF07EA08EEF0AF018
:1015180092EF0AF02D6A2D2A93EF0AF02D6A7E5079
:101528002D18FE0B2D187E6E29C021F02AC022F03E
:101538002BC023F02CC024F036EC19F029C01CF085
:101548002AC01DF02BC01EF02CC01FF062EC18F052
:101558001B0E2E6ECA0E2D6E100EE82EFED72D2EE7
:10156800FCD72E2EFAD700D029C01CF02AC01DF0B7
:101578002BC01EF02CC01FF063EC1AF0520E2E6E1A
:101588002B0E2D6E000EE82EFED72D2EFCD72E2EFC
:10159800FAD700D0070E55EF0DF020EE1CF02750BB
:1015A800D9262850DA22DECF09F0DECF0AF0DECFC6
:1015B8000BF0DECF0CF0C8C00DF0C9C00EF0CAC0E9
:1015C8000FF0CBC010F064EC15F0D8B0EEEF0AF0D5
:1015D800F0EF0AF08EEF0CF041C009F042C00AF0BB
:1015E80043C00BF044C00CF020EE1CF02750D92665
:1015F8002850DA22DECF0DF0DECF0EF0DECF0FF06E
:10160800DECF10F064EC15F0D8B00DEF0BF00FEF53
:101618000BF08EEF0CF0000E096E000E0A6E000E35
:101628000B6E410E0C6E20EE14F02750D926285070
:10163800DA22DECF0DF0DECF0EF0DECF0FF0DECFF8
:1016480010F064EC15F0D8B02CEF0BF02EEF0BF087
:1016580050EF0BF029C021F02AC022F02BC023F054
:101668002CC024F036EC19F029C01CF02AC01DF05B
:101678002BC01EF02CC01FF029EC18F0130E2E6E94
:10168800AC0E2D6E2A0EE82EFED72D2EFCD72E2E50
:10169800FAD7010E55EF0DF0000E096E000E0A6E16
:1016A800900E0B6E400E0C6E20EE18F02750D926C7
:1016B8002850DA22DECF0DF0DECF0EF0DECF0FF0AD
:1016C800DECF10F064EC15F0D8B06DEF0BF06FEFD3
:1016D8000BF0B1EF0BF020EE18F02750D926285068
:1016E800DA22DECF09F0DECF0AF0DECF0BF0DECF54
:1016F8000CF0000E0D6E000E0E6EB00E0F6E400E4A
:10170800106E64EC15F0D8B08CEF0BF08EEF0BF088
:10171800B1EF0BF029C021F02AC022F02BC023F032
:101728002CC024F036EC19F029C01CF02AC01DF09A
:101738002BC01EF02CC01FF062EC18F0120E2E6E9B
:10174800740E2D6E7A0EE82EFED72D2EFCD72E2E77
:10175800FAD700D0020E55EF0DF0CD0E096ECC0E63
:101768000A6E2C0E0B6E400E0C6E20EE18F02750F1
:10177800D9262850DA22DECF0DF0DECF0EF0DECFEC
:101788000FF0DECF10F064EC15F0D8B0CEEF0BF010
:10179800D0EF0BF08EEF0CF020EE18F02750D92682
:1017A8002850DA22DECF09F0DECF0AF0DECF0BF0C8
:1017B800DECF0CF0330E0D6E330E0E6E530E0F6E21
:1017C800400E106E64EC15F0D8B0EDEF0BF0EFEFB3
:1017D8000BF08EEF0CF0CD0E096ECC0E0A6E2C0EAF
:1017E8000B6E400E0C6E20EE10F02750D9262850B4
:1017F800DA22DECF0DF0DECF0EF0DECF0FF0DECF37
:1018080010F064EC15F0D8B00CEF0CF00EEF0CF003
:101818008EEF0CF020EE10F02750D9262850DA224F
:10182800DECF09F0DECF0AF0DECF0BF0DECF0CF012
:10183800330E0D6E330E0E6E530E0F6E400E106E7D
:1018480064EC15F0D8B02BEF0CF02DEF0CF08EEF08
:101858000CF0CD0E096ECC0E0A6E2C0E0B6E400EDF
:101868000C6E20EE14F02750D9262850DA22DECF4D
:101878000DF0DECF0EF0DECF0FF0DECF10F064EC0F
:1018880015F0D8B04AEF0CF04CEF0CF08EEF0CF0DE
:1018980020EE14F02750D9262850DA22DECF09F09E
:1018A800DECF0AF0DECF0BF0DECF0CF0330E0D6E7C
:1018B800330E0E6E530E0F6E400E106E64EC15F064
:1018C800D8B069EF0CF06BEF0CF08EEF0CF029C07C
:1018D80021F02AC022F02BC023F02CC024F036ECD3
:1018E80019F029C01CF02AC01DF02BC01EF02CC016
:1018F8001FF062EC18F0210E2E6E780E2D6E980EE9
:10190800E82EFED72D2EFCD72E2EFAD700D0030EA8
:1019180055EF0DF049C009F04AC00AF04BC00BF072
:101928004CC00CF020EE1CF02750D9262850DA22A3
:10193800DECF0DF0DECF0EF0DECF0FF0DECF10F0F1
:1019480064EC15F0D8B0ABEF0CF0ADEF0CF055EF40
:101958000DF0000E096E000E0A6EA00E0B6E400E02
:101968000C6E20EE18F02750D9262850DA22DECF48
:101978000DF0DECF0EF0DECF0FF0DECF10F064EC0E
:1019880015F0D8B0CAEF0CF0CCEF0CF011EF0DF059
:1019980029C01CF02AC01DF02BC01EF02CC01FF05F
:1019A800E6EC15F0F40E2E6E820E2D6E050EE82E66
:1019B800FED72D2EFCD72E2EFAD700F029C01CF00A
:1019C8002AC01DF02BC01EF02CC01FF063EC1AF0CB
:1019D800090E2E6E1E0E2D6EE40EE82EFED72D2E4D
:1019E800FCD72E2EFAD700D029C01CF02AC01DF033
:1019F8002BC01EF02CC01FF029EC18F0120E2E6E12
:101A0800740E2D6E7A0EE82EFED72D2EFCD72E2EB4
:101A1800FAD700D0040E55EF0DF020EE18F027503D
:101A2800D9262850DA22DECF09F0DECF0AF0DECF41
:101A38000BF0DECF0CF0000E0D6E000E0E6EA00E39
:101A48000F6E400E106E64EC15F0D8B02EEF0DF04E
:101A580030EF0DF055EF0DF0010E0001DC6F7C88C2
:101A680029C021F02AC022F02BC023F02CC024F07A
:101A780036EC19F029C01CF02AC01DF02BC01EF04E
:101A88002CC01FF062EC18F0230E2E6EE70E2D6EA0
:101A9800F80EE82EFED72D2EFCD72E2EFAD78096DC
:101AA800080E120054EC1BF049EC1AF0000E0A6EF6
:101AB800C80E096EAFEC17F0A20E096E000E0A6E82
:101AC800D0EC18F0AB0E096E000E0A6E9BEC18F005
:101AD800A20E096E000E0A6EAB0E0B6E000E0C6E97
:101AE80078EC1BF0849E7C9E88968096000E000100
:101AF800816F000E806F86840E01B495EEEF0DF0B5
:101B08008EB489EF0DF08BEF0DF0EEEF0DF0050EB2
:101B180080198111D8B493EF0DF095EF0DF09FEF78
:101B28000DF0A20E1C6E000E1D6EAB0E1E6E000E8A
:101B38001F6E62EC16F0290E0001676F960E666F35
:101B48007F0EE82EFED7662FFCD7672FFAD7820EB6
:101B58003D6E000E3E6E05EC19F0680E0001666FD2
:101B6800000E676FD8908035D96E8135DA6ED890BF
:101B7800D936DA366651D9266751DA223DC0DEFFFA
:101B88003EC0DEFF3FC0DEFF40C0DEFF804B812B42
:101B9800290E0001676F960E666F7F0EE82EFED73E
:101BA800662FFCD7672FFAD7A20E1C6E000E1D6E8B
:101BB800AB0E1E6E000E1F6E63EC1AF0290E0001AC
:101BC800676F960E666F7F0EE82EFED7662FFCD7DE
:101BD800672FFAD7000181BFFBEF0DF0815109E1B2
:101BE800060E805DD8A0FBEF0DF0FDEF0DF084EF41
:101BF8000DF049EC1BF02FEC1BF0ECC00DF0EDC024
:101C08000EF0D0C00FF0D1C010F0AAEC1AF05BECC7
:101C18001BF0000E0001DC6F000E526E000E516EBC
:101C2800000E506E000E4F6E000ED96F000ED86F6A
:101C38008890809086907E9084987C9884967C96F4
:101C4800A20E1C6E000E1D6EAB0E1E6E000E1F6ED9
:101C5800D7EC16F00001DA05DB11D8A436EF0EF048
:101C680038EF0EF024EF0EF0D9BF44EF0EF0D95143
:101C780009E1020ED85DD8A044EF0EF046EF0EF051
:101C880024EF0EF0660E496E660E4A6EB60E4B6E67
:101C9800400E4C6E000E456E000E466EB00E476E3E
:101CA800400E486E000ECC6F000ECD6F900ECE6FBA
:101CB800400ECF6F660EC86F660EC96F860ECA6F6C
:101CC800400ECB6F9A0E416E990E426E990E436E7E
:101CD8003F0E446EA20E1C6E000E1D6EAB0E1E6EE5
:101CE800000E1F6E63EC1AF0520E0001676F2B0E88
:101CF800666F000EE82EFED7662FFCD7672FFAD73F
:101D080000F07C9E0001DC51D8A48DEF0EF08FEF1F
:101D18000EF0CFEF0EF08086A20E1C6E000E1D6E28
:101D2800AB0E1E6E000E1F6E62EC16F0310E000137
:101D3800676FB40E666F650EE82EFED7662FFCD768
:101D4800672FFAD700D0820E226E000E236E4CEC5D
:101D580017F0820E3B6E000E3C6EF6EC13F0820E0E
:101D6800276E000E286EA20E296E000E2A6EAB0E8C
:101D78002B6E000E2C6E0CEC07F00001666FDD0E6A
:101D88005124D96E000E5220DA6E66C0DFFF514A28
:101D9800522A70EF0FF07C8EA20E1C6E000E1D6E84
:101DA800AB0E1E6E000E1F6E62EC16F0310E0001B7
:101DB800676FB40E666F650EE82EFED7662FFCD7E8
:101DC800672FFAD700D0DD0E276E000E286EA20E00
:101DD800296E000E2A6EAB0E2B6E000E2C6E7AEC5E
:101DE8000FF05106D8A0520651045210D8A4FFEFA4
:101DF8000EF001EF0FF070EF0FF0000E0001DC6F36
:101E08007C98A20E1C6E000E1D6EAB0E1E6E000E90
:101E18001F6ED7EC16F0290E0001676F960E666FDD
:101E28007F0EE82EFED7662FFCD7672FFAD7A20EB3
:101E38001C6E000E1D6EAB0E1E6E000E1F6E63EC48
:101E48001AF0290E0001676F960E666F7F0EE82E56
:101E5800FED7662FFCD7672FFAD7A20E1C6E000E8E
:101E68001D6EAB0E1E6E000E1F6E62EC18F0230E78
:101E78000001676FE70E666FF70EE82EFED7662F34
:101E8800FCD7672FFAD700D080A04DEF0FF052EFA4
:101E98000FF00001666B662B54EF0FF00001666BC4
:101EA80080506619FE0B6619806EA20E1C6E000E1D
:101EB8001D6EAB0E1E6E000E1F6E63EC1AF0A30EA5
:101EC8000001676F570E666F020EE82EFED7662F69
:101ED800FCD7672FFAD700F08096000E0001DB6F61
:101EE800000EDA6F24EF0EF01AEF00F0515027249D
:101EF8002D6E525028202E6EFE0E2D24D96EFF0E08
:101F08002E20DA6EDE04D8A48CEF0FF08EEF0FF0DF
:101F1800B0EF0FF029C021F02AC022F02BC023F027
:101F28002CC024F036EC19F029C01CF02AC01DF092
:101F38002BC01EF02CC01FF062EC18F0120E2E6E93
:101F4800740E2D6E7A0EE82EFED72D2EFCD72E2E6F
:101F5800FAD700D04EEF11F0515027242D6E525071
:101F680028202E6EFE0E2D24D96EFF0E2E20DA6E3E
:101F7800020EDE18D8A4C3EF0FF0C5EF0FF0E6EF9E
:101F88000FF029C021F02AC022F02BC023F02CC06A
:101F980024F036EC19F029C01CF02AC01DF02BC023
:101FA8001EF02CC01FF029EC18F0130E2E6EAC0E8C
:101FB8002D6E2A0EE82EFED72D2EFCD72E2EFAD700
:101FC8004EEF11F0515027242D6E525028202E6EBE
:101FD800FE0E2D24D96EFF0E2E20DA6E030EDE18AB
:101FE800D8A4F9EF0FF0FBEF0FF01CEF10F029C0A9
:101FF80021F02AC022F02BC023F02CC024F036ECAC
:1020080019F029C01CF02AC01DF02BC01EF02CC0EE
:102018001FF029EC18F0220E2E6EB00E2D6E480E11
:10202800E82EFED72D2EFCD72E2EFAD74EEF11F024
:10203800515027242D6E525028202E6EFE0E2D242E
:10204800D96EFF0E2E20DA6E040EDE18D8A42FEFFC
:1020580010F031EF10F07EEF10F029C021F02AC007
:1020680022F02BC023F02CC024F036EC19F029C044
:102078001CF02AC01DF02BC01EF02CC01FF062EC13
:1020880018F0120E2E6E740E2D6E7A0EE82EFED7F4
:102098002D2EFCD72E2EFAD700D029C01CF02AC02E
:1020A8001DF02BC01EF02CC01FF063EC1AF0090EB7
:1020B8002E6E1E0E2D6EE40EE82EFED72D2EFCD7AA
:1020C8002E2EFAD700D029C01CF02AC01DF02BC034
:1020D8001EF02CC01FF0D7EC16F0620E2E6E670EA5
:1020E8002D6ECE0EE82EFED72D2EFCD72E2EFAD72B
:1020F8004EEF11F0515027242D6E525028202E6E8D
:10210800FE0E2D24D96EFF0E2E20DA6E050EDE1877
:10211800D8A491EF10F093EF10F0ECEF10F029C075
:102128001CF02AC01DF02BC01EF02CC01FF063EC61
:102138001AF0090E2E6E1E0E2D6EE40EE82EFED736
:102148002D2EFCD72E2EFAD700D029C01CF02AC07D
:102158001DF02BC01EF02CC01FF029EC18F0130E38
:102168002E6EAC0E2D6E2A0EE82EFED72D2EFCD725
:102178002E2EFAD729C01CF02AC01DF02BC01EF045
:102188002CC01FF063EC1AF0090E2E6E1E0E2D6E79
:10219800E40EE82EFED72D2EFCD72E2EFAD700D02F
:1021A80029C01CF02AC01DF02BC01EF02CC01FF047
:1021B800D7EC16F0A30E2E6E570E2D6E020EE82EDB
:1021C800FED72D2EFCD72E2EFAD700D04EEF11F0C9
:1021D800515027242D6E525028202E6EFE0E2D248D
:1021E800D96EFF0E2E20DA6E060EDE18D8A4FFEF89
:1021F80010F001EF11F023EF11F029C021F02AC0EF
:1022080022F02BC023F02CC024F036EC19F029C0A2
:102218001CF02AC01DF02BC01EF02CC01FF062EC71
:1022280018F01D0E2E6E690E2D6EA50EE82EFED727
:102238002D2EFCD72E2EFAD700F04EEF11F051506C
:1022480027242D6E525028202E6EFE0E2D24D96E76
:10225800FF0E2E20DA6E070EDE18D8A436EF11F026
:1022680038EF11F04EEF11F029C021F02AC022F00A
:102278002BC023F02CC024F036EC19F029C01CF038
:102288002AC01DF02BC01EF02CC01FF029EC18F03E
:1022980015EF11F012002550800B326E25502524C1
:1022A800396E24AE5AEF11F05CEF11F05DEF11F0CA
:1022B80039803950D8B463EF11F065EF11F07AEF37
:1022C80011F03928D8A46BEF11F06DEF11F075EF0C
:1022D80011F0000E226E000E236E000E246E000E0A
:1022E800256E248E000E256E82EF11F0000E226EF0
:1022F800000E236E000E246E000E256E2950800BF2
:10230800321A295029243A6E28AE8DEF11F08FEF3A
:1023180011F090EF11F03A803A50D8B496EF11F0DE
:1023280098EF11F0ADEF11F03A28D8A49EEF11F014
:10233800A0EF11F0A8EF11F0000E266E000E276E28
:10234800000E286E000E296E288E000E296EB5EF3D
:1023580011F0000E266E000E276E000E286E000E7D
:10236800296E2650271028102910D8A4BEEF11F086
:10237800C0EF11F0D8EF11F0000E226E000E236EA0
:10238800000E246E000E256E800E24127F0E25127C
:102398003250251222C022F023C023F024C024F09A
:1023A80025C025F01BEF13F03950D8A4DEEF11F04B
:1023B800E0EF11F0EAEF11F0000E226E000E236E2E
:1023C800000E246E000E256E1BEF13F03A5039C034
:1023D8002AF02B6A2A5E000E2B5A7F0E2A24336EAF
:1023E800000E2B20346E22C02EF023C02FF024C004
:1023F80030F025C031F0000E226E000E236E000E64
:10240800246E000E256E000E356E000E366E000E20
:10241800376E000E386E000E3A6E4BEF12F03A50DF
:10242800D8B419EF12F01BEF12F032EF12F0D89077
:102438002E362F3630363136D8902236233624368B
:10244800253638AE2AEF12F02CEF12F02DEF12F0ED
:102458002280D890353636363736383626502E5CB8
:1024680027502F582850305829503158D8A03FEFBE
:1024780012F041EF12F04AEF12F0388C26502E5E1F
:1024880027502F5A2850305A2950315A3A2A190EB3
:102498003A6451EF12F053EF12F013EF12F02E508E
:1024A8002F1030103110D8B45CEF12F05EEF12F03C
:1024B80076EF12F0358076EF12F0D8902236233678
:1024C8002436253638AE6BEF12F06DEF12F06EEF52
:1024D80012F02280D89035363636373638363306FD
:1024E800D8A0340624AE7BEF12F07DEF12F061EF36
:1024F80012F0000E3A6E38AE84EF12F086EF12F04A
:10250800AAEF12F0FF0E35142A6EFF0E36142B6E4A
:10251800FF0E37142C6E7F0E38142D6E2A502B1098
:102528002C102D10D8B49BEF12F09DEF12F0A1EFF4
:1025380012F0010E3A6EAAEF12F022A0A6EF12F0E6
:10254800A8EF12F0AAEF12F09DEF12F03A50D8B4AB
:10255800B0EF12F0B2EF12F0D6EF12F0010E222611
:10256800000E23222422252225A0BDEF12F0BFEF62
:1025780012F0D6EF12F022C02AF023C02BF024C0AC
:102588002CF025C02DF02D342D322C322B322A324E
:102598002AC022F02BC023F02CC024F02DC025F037
:1025A800334A342A34BEE1EF12F0345008E13328BC
:1025B800D8A0E1EF12F0E3EF12F0EEEF12F0000E08
:1025C800346E3368000E226E000E236E000E246EE9
:1025D800000E256E34BEFBEF12F0345006E13304D2
:1025E800D8B0F9EF12F0FBEF12F009EF13F0000E7C
:1025F800346E000E336E000E226E000E236E000E37
:10260800246E000E256E000E326E33C039F039A0EC
:1026180010EF13F012EF13F015EF13F0248E16EFEE
:1026280013F0249ED8903930256ECCEF11F01200AB
:102638001C6E1C50D8B423EF13F025EF13F047EFAE
:1026480013F017BE2CEF13F02AEF13F047EF13F037
:1026580014C018F015C019F016C01AF017C01BF0F6
:10266800181E191E1A1E1B1E182A000E19221A22BD
:102678001B2218C01EF019C01FF01AC020F01BC082
:1026880021F04FEF13F014C01EF015C01FF016C054
:1026980020F017C021F01450151016101710D8A4E8
:1026A80058EF13F05AEF13F064EF13F0000E146EA6
:1026B800000E156E000E166E000E176EF5EF13F075
:1026C800960E1D6E6EEF13F01D2AD890213220321F
:1026D8001F321E32000E1E14186E000E1F14196EC3
:1026E800000E20141A6EFE0E21141B6E18501910BD
:1026F8001A101B10D8A483EF13F085EF13F068EFBE
:1027080013F093EF13F01D2A010E1E26000E1F2250
:1027180020222122D890213220321F321E32000E70
:102728001E14186E000E1F14196E000E20141A6E57
:10273800FF0E21141B6E185019101A101B10D8A464
:10274800A8EF13F0AAEF13F087EF13F0B2EF13F02E
:102758001D06D8901E361F362036213620BEB7EF0C
:1027680013F0B9EF13F0C1EF13F0020E1D60BFEFC5
:1027780013F0C1EF13F0ACEF13F01DB0C6EF13F078
:10278800C8EF13F0C9EF13F0209ED8901D321DC07A
:1027980018F0196A1A6A1B6A18C01BF01A6A196AB3
:1027A800186A18501E1219501F121A5020121B5066
:1027B80021121C50D8B4E3EF13F0E5EF13F0EDEF5E
:1027C80013F017BEECEF13F0EAEF13F0EDEF13F090
:1027D800218E1EC014F01FC015F020C016F021C0B5
:1027E80017F01200090E4E6E510E4D6E20EE0CF0D1
:1027F8003B50D9263C50DA22DECF22F0DECF23F040
:10280800DECF24F0DECF25F03BC0D9FF3CC0DAFF95
:10281800DECF26F0DECF27F0DECF28F0DECF29F09E
:102828004FEC11F020EE10F03B50D9263C50DA2244
:1028380022C0DEFF23C0DEFF24C0DEFF25C0DEFF8E
:1028480020EE0CF03B50D9263C50DA22DECF22F0A5
:10285800DECF23F0DECF24F0DECF25F020EE04F02B
:102868003B50D9263C50DA22DECF26F0DECF27F0C7
:10287800DECF28F0DECF29F04FEC11F020EE14F077
:102888003B50D9263C50DA2222C0DEFF23C0DEFFAF
:1028980024C0DEFF25C0DEFF20EE0CF03B50D92619
:1028A8003C50DA22DECF22F0DECF23F0DECF24F058
:1028B800DECF25F020EE08F03B50D9263C50DA2236
:1028C800DECF26F0DECF27F0DECF28F0DECF29F0EE
:1028D8004FEC11F020EE18F03B50D9263C50DA228C
:1028E80022C0DEFF23C0DEFF24C0DEFF25C0DEFFDE
:1028F80020EE0CF03B50D9263C50DA22DECF22F0F5
:10290800DECF23F0DECF24F0DECF25F0510E146E9B
:10291800090E156E000E166E000E176E010E1CECD9
:1029280013F014C026F015C027F016C028F017C001
:1029380029F04FEC11F020EE1CF03B50D9263C500A
:10294800DA2222C0DEFF23C0DEFF24C0DEFF25C05E
:10295800DEFF120020EE02F01650D9261750DA22B8
:10296800DF50D8B4BAEF14F0BCEF14F0F0EF14F065
:1029780016C0D9FF17C0DAFFDF50186E1850096E5D
:102988000A6A20EE03F01650D9261750DA22DECF55
:102998000BF0DDCF0CF0FCEC1AF009C00FF00AC008
:1029A80010F0000E126E640E116EEFEC17F020EEB0
:1029B80003F01650D9261750DA22DF50196E0F503F
:1029C800195C1A6E20EE03F01650D9261750DA2239
:1029D800DF501B6E13EF15F016C0D9FF17C0DAFFD2
:1029E800DF50186E1850096E0A6A20EE03F0165070
:1029F800D9261750DA22DECF0BF0DDCF0CF0FCEC35
:102A08001AF009C00FF00AC010F0000E126E640E22
:102A1800116EEFEC17F00F501A6E000E1B6E20EEC1
:102A280001F01650D9261750DA22DF50D8B41FEF1C
:102A380015F021EF15F043EF15F020EE05F01650D4
:102A4800D9261750DA22DECF18F0DDCF19F018C0DA
:102A5800D9FF19C0DAFF1AC0DFFF20EE07F01650C1
:102A6800D9261750DA22DECF18F0DDCF19F018C0BA
:102A7800D9FF19C0DAFF1BC0DFFF63EF15F020EEA6
:102A880005F01650D9261750DA22DECF18F0DDCF20
:102A980019F018C0D9FF19C0DAFF1BC0DFFF20EEFC
:102AA80007F01650D9261750DA22DECF18F0DDCFFE
:102AB80019F018C0D9FF19C0DAFF1AC0DFFF1200D9
:102AC800000E0914116E000E0A14126E800E0B14FB
:102AD800136E7F0E0C14146E115012101310141074
:102AE800D8A479EF15F07BEF15F083EF15F0000E01
:102AF800096E000E0A6E000E0B6E000E0C6E000EB4
:102B08000D14116E000E0E14126E800E0F14136E3B
:102B18007F0E1014146E1150121013101410D8A434
:102B280098EF15F09AEF15F0A2EF15F0000E0D6E64
:102B3800000E0E6E000E0F6E000E106E0CAEA7EF9C
:102B480015F0A9EF15F0B2EF15F0096C0A1ED8B010
:102B58000A2A0B1ED8B00B2A800E0C5610AEB7EFFF
:102B680015F0B9EF15F0C2EF15F00D6C0E1ED8B0C8
:102B78000E2A0F1ED8B00F2A800E1056000E091A02
:102B8800000E0A1A000E0B1A800E0C1A000E0D1AEF
:102B9800000E0E1A000E0F1A800E101A0D50095C46
:102BA8000E500A580F500B5810500C58D8B0DFEF81
:102BB80015F0E1EF15F0E4EF15F0D890E5EF15F01A
:102BC800D88012001CC0D9FF1DC0DAFF050EDF6EC9
:102BD8001EC0D9FF1FC0DAFF050EDF6E20EE01F020
:102BE8001E50D9261F50DA22000EDF6E20EE01F0AB
:102BF8001C50D9261D50DA22000EDF6E20EE02F09E
:102C08001C50D9261D50DA22010EDF6E20EE02F08C
:102C18001E50D9261F50DA22010EDF6E31EF16F052
:102C28001CC0D9FF1DC0DAFFDF2A1EC0D9FF1FC094
:102C3800DAFFDF2AD00E206ECA0EE82EFED7202E2D
:102C4800FCD71CC016F01DC017F0AEEC14F01EC067
:102C580016F01FC017F0AEEC14F01CC0D9FF1DC051
:102C6800DAFF150EDF603BEF16F03DEF16F049EF87
:102C780016F01EC0D9FF1FC0DAFF140EDF6447EF3D
:102C880016F049EF16F014EF16F01CC0D9FF1DC05E
:102C9800DAFF140EDF6E1EC0D9FF1FC0DAFF140E54
:102CA800DF6E1CC016F01DC017F0AEEC14F01EC08D
:102CB80016F01FC017F0AEEC14F012001CC0D9FFBC
:102CC8001DC0DAFF320EDF6E1EC0D9FF1FC0DAFF4B
:102CD800320EDF6E20EE01F01E50D9261F50DA2288
:102CE800010EDF6E20EE01F01C50D9261D50DA22AD
:102CF800010EDF6E20EE02F01C50D9261D50DA229C
:102D0800010EDF6E20EE02F01E50D9261F50DA2287
:102D1800010EDF6EA6EF16F01CC0D9FF1DC0DAFF4A
:102D2800DF2A1EC0D9FF1FC0DAFFDF2A1CC016F039
:102D38001DC017F0AEEC14F01EC016F01FC017F03F
:102D4800AEEC14F01CC0D9FF1DC0DAFF560EDF60D0
:102D5800B0EF16F0B2EF16F0BEEF16F01EC0D9FFB6
:102D68001FC0DAFF550EDF64BCEF16F0BEEF16F099
:102D780090EF16F01CC0D9FF1DC0DAFF550EDF6EAC
:102D88001EC0D9FF1FC0DAFF550EDF6E1CC016F03B
:102D98001DC017F0AEEC14F01EC016F01FC017F0DF
:102DA800AEEC14F012001CC0D9FF1DC0DAFF050EEE
:102DB800DF6E1EC0D9FF1FC0DAFF050EDF6E20EEE2
:102DC80001F01E50D9261F50DA22010EDF6E20EEC8
:102DD80001F01C50D9261D50DA22010EDF6E20EEBC
:102DE80002F01C50D9261D50DA22010EDF6E20EEAB
:102DF80002F01E50D9261F50DA22010EDF6E1BEF9B
:102E080017F01CC0D9FF1DC0DAFFDF2A1EC0D9FF8A
:102E18001FC0DAFFDF2A1CC016F01DC017F0AEEC89
:102E280014F01EC016F01FC017F0AEEC14F01CC052
:102E3800D9FF1DC0DAFF330EDF6025EF17F027EF4B
:102E480017F033EF17F01EC0D9FF1FC0DAFF320E9C
:102E5800DF6431EF17F033EF17F005EF17F01CC000
:102E6800D9FF1DC0DAFF320EDF6E1EC0D9FF1FC0AA
:102E7800DAFF320EDF6E1CC016F01DC017F0AEEC84
:102E880014F01EC016F01FC017F0AEEC14F01200BC
:102E980061EC19F00DC014F00EC015F0166A176A2F
:102EA800000E1CEC13F022C0D9FF23C0DAFF14C0B7
:102EB800DEFF15C0DEFF16C0DEFF17C0DEFFD9EC4F
:102EC80019F00DC014F00EC015F0166A176A000E3E
:102ED8001CEC13F020EE08F02250D9262350DA22F9
:102EE80014C0DEFF15C0DEFF16C0DEFF17C0DEFF10
:102EF80089EC19F00DC014F00EC015F0166A176AA7
:102F0800000E1CEC13F020EE04F02250D9262350BA
:102F1800DA2214C0DEFF15C0DEFF16C0DEFF17C0C0
:102F2800DEFFB1EC19F00DC014F00EC015F0166AF2
:102F3800176A000E1CEC13F020EE0CF02250D92674
:102F48002350DA2214C0DEFF15C0DEFF16C0DEFFF4
:102F580017C0DEFF1200050E0E01746F060E766FA5
:102F6800070E696F080E886FBD508F0B3009BD6E54
:102F7800E00EBE16BF50F00B0109BF6EC80EBC6E46
:102F8800BD8E000EAA6E000EA66E000E0F01256FF4
:102F9800000E216FFC0EAD16F30EAD16CF0EAD165A
:102FA8003F0EAD16AB88AB50F00B0C09AB6EAB8E79
:102FB800A788A750F00B0C09A76EA78E2689265163
:102FC800F00B0C09266F268F22892251F00B0C0971
:102FD800226F228F1200000E146E000E136E115015
:102FE8001210D8B4FAEF17F0FCEF17F024EF18F02E
:102FF800010E156E04EF18F0D89011361236152A06
:1030080012AE09EF18F00BEF18F000EF18F0D89097
:103018001336143611500F5C12501058D8A017EF01
:1030280018F019EF18F01EEF18F011500F5E12503B
:10303800105A1380D89012321132152E0BEF18F057
:1030480013C00FF014C010F012001CC0D9FF1DC02F
:10305800DAFF3C0EDF6E1EC0D9FF1FC0DAFF3C0E40
:10306800DF6E20EE02F01C50D9261D50DA22010E28
:10307800DF6E20EE02F01E50D9261F50DA22010E14
:10308800DF6E20EE01F01E50D9261F50DA22000E06
:10309800DF6E20EE01F01C50D9261D50DA22010EF9
:1030A800DF6E1CC016F01DC017F0AEEC14F01EC089
:1030B80016F01FC017F0AEEC14F012001CC0D9FFB8
:1030C8001DC0DAFF3C0EDF6E1EC0D9FF1FC0DAFF3D
:1030D8003C0EDF6E20EE02F01C50D9261D50DA227D
:1030E800010EDF6E20EE02F01E50D9261F50DA22A4
:1030F800010EDF6E20EE01F01C50D9261D50DA2299
:10310800000EDF6E20EE01F01E50D9261F50DA2285
:10311800010EDF6E1CC016F01DC017F0AEEC14F0E7
:103128001EC016F01FC017F0AEEC14F0120009C054
:10313800D9FF0AC0DAFF320EDF6E20EE01F0095027
:10314800D9260A50DA22010EDF6E20EE02F009506D
:10315800D9260A50DA22010EDF6E20EE05F009505A
:10316800D9260A50DA22250EDE6E0F0EDD6E20EE0D
:1031780007F00950D9260A50DA22210EDE6E0F0E0A
:10318800DD6E20EE03F00950D9260A50DA22C80E67
:10319800DE6E000EDD6E120009C0D9FF0AC0DAFF2C
:1031A800320EDF6E20EE01F00950D9260A50DA22DD
:1031B800010EDF6E20EE02F00950D9260A50DA22FD
:1031C800010EDF6E20EE05F00950D9260A50DA22EA
:1031D800AA0EDE6E0F0EDD6E20EE07F00950D9261E
:1031E8000A50DA22A60EDE6E0F0EDD6E20EE03F018
:1031F8000950D9260A50DA22C80EDE6E000EDD6E9E
:1032080012008086290E0001616F960E606F7F0E96
:10321800E82EFED7602FFCD7612FFAD73DC022F0E9
:103228003EC023F04CEC17F03DC03BF03EC03CF0F4
:10323800F6EC13F020EE1CF03D50D9263E50DA2271
:10324800DECF62F0DECF63F0DECF64F0DECF65F074
:10325800809662C03DF063C03EF064C03FF065C038
:1032680040F0120021C01CF022C01DF023C01EF047
:1032780024C01FF0E6EC15F0310E266EB40E256E54
:10328800660EE82EFED7252EFCD7262EFAD721C0AB
:103298001CF022C01DF023C01EF024C01FF063ECF8
:1032A8001AF0190E266E5A0E256EB20EE82EFED7AB
:1032B800252EFCD7262EFAD7120082EC1BF0520ED0
:1032C80061EC1BF0B60E61EC1BF073EC1BF0530EB7
:1032D80061EC1BF0010E28EC1AF00F6E0F50126E05
:1032E800136A000E28EC1AF00F6E0F50116E106A58
:1032F80012501010126E13501110136E7DEC1BF04B
:1033080012C00DF013C00EF0120082EC1BF0520E2A
:1033180061EC1BF0B80E61EC1BF073EC1BF0530E64
:1033280061EC1BF0010E28EC1AF00F6E0F50126EB4
:10333800136A000E28EC1AF00F6E0F50116E106A07
:1033480012501010126E13501110136E7DEC1BF0FA
:1033580012C00DF013C00EF0120082EC1BF0520EDA
:1033680061EC1BF0B40E61EC1BF073EC1BF0530E18
:1033780061EC1BF0010E28EC1AF00F6E0F50126E64
:10338800136A000E28EC1AF00F6E0F50116E106AB7
:1033980012501010126E13501110136E7DEC1BF0AA
:1033A80012C00DF013C00EF0120082EC1BF0520E8A
:1033B80061EC1BF0BA0E61EC1BF073EC1BF0530EC2
:1033C80061EC1BF0010E28EC1AF00F6E0F50126E14
:1033D800136A000E28EC1AF00F6E0F50116E106A67
:1033E80012501010126E13501110136E7DEC1BF05A
:1033F80012C00DF013C00EF01200340EF66E370E28
:10340800F76E000EF86E0900F5CFECF00900F5CF65
:10341800EDF001EE00F03C0EEE6AE806FDE100EE8C
:10342800B4F0380EEE6AE806FDE100EE41F0160E43
:10343800EE6AE806FDE157905792000EF86E0E0E00
:10344800F76E000156EF0DF00B6ED4EC1AF00E017A
:10345800DA87D4EC1AF0D5CE0CF0D4EC1AF00B5075
:10346800D8B439EF1AF03DEF1AF00A6A0A2A3EEF8B
:103478001AF00A6A0A3A0A460E01DA510A18DF0BEC
:103488000A18DA6FDA890C50120095EC1AF0010E5E
:103498000B6E000E0FEC1BF03F0E0D6E550EE82E56
:1034A800FED70D2EFCD700F0030E0B6E000E0FECAE
:1034B8001BF0D50E0B6E010E0FEC1BF012001CC09A
:1034C800D9FF1DC0DAFF000EDF6E1EC0D9FF1FC076
:1034D800DAFF000EDF6E1CC016F01DC017F0AEEC50
:1034E80014F01EC016F01FC017F0AEEC14F0120056
:1034F8008CEC1BF0520E6DEC1BF0E60E6DEC1BF025
:1035080087EC1BF03CEC1BF067EC1BF0ECC005F003
:10351800EDC006F0D0C007F0D1C008F0BFEC1AF03B
:1035280012000E01D951F00B0809D96FD98B9F0EE3
:10353800D66F848A848CA79BA79D1D0E1D6F1E0EB7
:103548001C6F1C0E6F6F1B0E706F12000FC00BF0FC
:10355800040E0FEC1BF010500B6E050E0FEC1BF059
:103568000DC00BF0060E0FEC1BF00E500B6E070E85
:103578000FEC1BF0120007C003F0040E1FEC1BF049
:103588000850036E050E1FEC1BF005C003F0060E75
:103598001FEC1BF00650036E070E1FEC1BF0120009
:1035A8000E01D8B5DAEF1AF0DCEF1AF0D4EF1AF002
:1035B800DACE09F01F0E0916D8A4E5EF1AF0E7EFE6
:1035C8001AF0D4EF1AF012000E01D8B5EEEF1AF087
:1035D800F0EF1AF0E8EF1AF0DACE01F01F0E01163C
:1035E800D8A4F9EF1AF0FBEF1AF0E8EF1AF012007E
:1035F80009500B02F3CF0DF0F4CF0EF009500C0276
:10360800F3500E260A500B02F3500E260DC009F097
:103618000EC00AF012000C6E82EC1BF0520E61EC28
:103628001BF00C50800961EC1BF00B5061EC1BF097
:103638007DEC1BF01200046E8CEC1BF0520E6DEC4E
:103648001BF0045080096DEC1BF003506DEC1BF06F
:1036580087EC1BF01200130E0B6E000E0FEC1BF024
:10366800D00E0D6ECA0EE82EFED70D2EFCD7120016
:10367800130E036E000E1FEC1BF0D00E056ECA0E63
:10368800E82EFED7052EFCD7120082800E019A91F3
:10369800339129811F81F290F28AF28CF28E120006
:1036A80091EC1BF094EC1BF097EC1BF01200020E4F
:1036B8000B6E0C0E0FEC1BF012000A6ED4EC1AF015
:1036C8000AC0D5FE1200020E036E0C0E1FEC1BF092
:1036D8001200026EE8EC1AF002C0D5FE1200D4EC1B
:1036E8001AF00E01DA83120085948598839E879CD0
:1036F8001200D4EC1AF00E01DA851200D4EC1AF09C
:103708000E01DA811200E8EC1AF00E01DA851200D7
:10371800E8EC1AF00E01DA81120087907F8012001F
:0E372800859E7D8E1200819679861200D00754
:020000040020DA
:10000000FF0FFF0FFF0FFF0FFF0FFF0FFF0FFF0F80
:020000040030CA
:0C000000AAFFFFFF9FFFFFFFFFFFFFFFB5
:00000001FF
