:0400000019EF00F004
:1000080056820E0133A10BEF00F00DEF00F017EF51
:1000180000F07C8E000E00019D6F010E9C6FCCECF1
:0E00280011F00E01339156921100E5EF11F028
:100E000000524742433A256920256920256920255B
:100E1000690A000021C0D9FF22C0DAFF410EDE5C62
:100E20001F0EDE58D8A017EF07F019EF07F07EEF7E
:100E300007F020EE02F02150D9262250DA22D00EFF
:100E4000DE5C070EDE58D8B028EF07F02AEF07F077
:100E50007EEF07F020EE04F02150D9262250DA224E
:100E6000D00EDE5C070EDE58D8B039EF07F03BEF4E
:100E700007F07EEF07F0000E2A6E000E296E23C0E9
:100E80001CF024C01DF025C01EF026C01FF0CDECC4
:100E90000FF0030E286E700E276E5C0EE82EFED744
:100EA000272EFCD7282EFAD700D023C01CF024C050
:100EB0001DF025C01EF026C01FF0B3EC11F0030E8C
:100EC000286E700E276E5C0EE82EFED7272EFCD7FC
:100ED000282EFAD700D0294A2A2A2ABE79EF07F00D
:100EE0002A5009E1100E295CD8A079EF07F07BEFBA
:100EF00007F03FEF07F0010EA0EF0AF021C0D9FF85
:100F000022C0DAFFB90EDE5C0B0EDE58D8A08BEFE4
:100F100007F08DEF07F0E0EF07F020EE02F0215030
:100F2000D9262250DA22B90EDE5C0B0EDE58D8A08C
:100F30009CEF07F09EEF07F0E0EF07F0000E2C6E3D
:100F4000000E2B6E23C01CF024C01DF025C01EF027
:100F500026C01FF006EC10F0030E286E700E276EF0
:100F60005C0EE82EFED7272EFCD7282EFAD700D00D
:100F700023C01CF024C01DF025C01EF026C01FF0A9
:100F8000B3EC11F0030E286E700E276E5C0EE82E87
:100F9000FED7272EFCD7282EFAD700D02B4A2C2A92
:100FA0002CBEDCEF07F02C5009E1100E2B5CD8A012
:100FB000DCEF07F0DEEF07F0A2EF07F09EEF0AF09C
:100FC00021C0D9FF22C0DAFFE90EDE5C030EDE5835
:100FD000D8A0EDEF07F0EFEF07F031EF08F0000ECB
:100FE0002E6E000E2D6E23C01CF024C01DF025C0F7
:100FF0001EF026C01FF006EC10F0030E286E700ED7
:10100000276E5C0EE82EFED7272EFCD7282EFAD7A7
:1010100000D023C01CF024C01DF025C01EF026C047
:101020001FF0B3EC11F0030E286E700E276E5C0EED
:10103000E82EFED7272EFCD7282EFAD700D02D4A2F
:101040002E2A2EBE2DEF08F02E5009E11E0E2D5C2B
:10105000D8A02DEF08F02FEF08F0F3EF07F09EEF88
:101060000AF021C0D9FF22C0DAFFE10EDE5C2E0EAD
:10107000DE58D8A03EEF08F040EF08F0D0EF08F0BF
:1010800020EE02F02150D9262250DA22590EDE5CE1
:101090001B0EDE58D8A04FEF08F051EF08F0D0EF4C
:1010A00008F020EE04F02150D9262250DA22940EC6
:1010B000DE5C110EDE58D8B060EF08F062EF08F089
:1010C000D0EF08F023C01CF024C01DF025C01EF096
:1010D00026C01FF0E8EC0DF0050E286E0F0E276EEF
:1010E000F10EE82EFED7272EFCD7282EFAD700F0D7
:1010F00023C01CF024C01DF025C01EF026C01FF028
:10110000B3EC11F0090E286E1E0E276EE40EE82EC9
:10111000FED7272EFCD7282EFAD700D0000E306E2F
:10112000000E2F6E23C01CF024C01DF025C01EF041
:1011300026C01FF0CDEC0FF0030E286E700E276E48
:101140005C0EE82EFED7272EFCD7282EFAD700D02B
:1011500023C01CF024C01DF025C01EF026C01FF0C7
:10116000B3EC11F0030E286E700E276E5C0EE82EA5
:10117000FED7272EFCD7282EFAD700D02F4A302AA8
:1011800030BECCEF08F0305009E1110E2F5CD8A032
:10119000CCEF08F0CEEF08F092EF08F09EEF0AF0E7
:1011A00021C0D9FF22C0DAFF110EDE5C270EDE5807
:1011B000D8A0DDEF08F0DFEF08F07AEF09F020EEBD
:1011C00002F02150D9262250DA22590EDE5C1B0E85
:1011D000DE58D8A0EEEF08F0F0EF08F07AEF09F053
:1011E00020EE06F02150D9262250DA22210EDE5CB4
:1011F0004E0EDE58D8A0FFEF08F001EF09F07AEFAD
:1012000009F020EE06F02150D9262250DA22F00E05
:10121000DE5C550EDE58D8B010EF09F012EF09F081
:101220007AEF09F023C01CF024C01DF025C01EF089
:1012300026C01FF0E8EC0DF0D00E276ECA0EE82E87
:10124000FED7272EFCD723C01CF024C01DF025C0DC
:101250001EF026C01FF0B3EC11F0190E286E5A0EC6
:10126000276EB20EE82EFED7272EFCD7282EFAD7EF
:10127000000E326E000E316E23C01CF024C01DF033
:1012800025C01EF026C01FF006EC10F0030E286EDD
:10129000700E276E5C0EE82EFED7272EFCD7282E68
:1012A000FAD700D023C01CF024C01DF025C01EF0CA
:1012B00026C01FF0B3EC11F0030E286E700E276EDF
:1012C0005C0EE82EFED7272EFCD7282EFAD700D0AA
:1012D000314A322A32BE76EF09F0325009E10D0E62
:1012E000315CD8A076EF09F078EF09F03CEF09F017
:1012F0009EEF0AF021C0D9FF22C0DAFF290EDE5C82
:10130000230EDE58D8A087EF09F089EF09F01DEF12
:101310000AF021C0D9FF22C0DAFF1C0EDE5C250EC8
:10132000DE58D8B096EF09F098EF09F01DEF0AF0FB
:1013300020EE02F02150D9262250DA22590EDE5C2E
:101340001B0EDE58D8A0A7EF09F0A9EF09F01DEF9A
:101350000AF020EE06F02150D9262250DA22C90EDA
:10136000DE5C320EDE58D8A0B8EF09F0BAEF09F013
:101370001DEF0AF020EE06F02150D9262250DA2285
:10138000980EDE5C3A0EDE58D8B0C9EF09F0CBEF0C
:1013900009F01DEF0AF0000E346E000E336E34BEFD
:1013A000DBEF09F0345009E1180E335CD8A0DBEF15
:1013B00009F0DDEF09F0DFEF09F09EEF0AF023C03E
:1013C0001CF024C01DF025C01EF026C01FF0CDEC7F
:1013D0000FF0030E286E700E276E5C0EE82EFED7FF
:1013E000272EFCD7282EFAD700D023C01CF024C00B
:1013F0001DF025C01EF026C01FF0B3EC11F0030E47
:10140000286E700E276E5C0EE82EFED7272EFCD7B6
:10141000282EFAD700D0334A342A34BE19EF0AF006
:10142000345009E1180E335CD8A019EF0AF01BEF15
:101430000AF0DFEF09F09EEF0AF020EE02F02150F3
:10144000D9262250DA22AD0EDE5C0D0EDE58D8A071
:101450002CEF0AF02EEF0AF09EEF0AF020EE04F0D7
:101460002150D9262250DA22A10EDE5C0F0EDE5862
:10147000D8A03DEF0AF03FEF0AF09EEF0AF021C03E
:10148000D9FF22C0DAFF940EDE5C110EDE58D8B010
:101490004CEF0AF04EEF0AF09EEF0AF0000E366EA7
:1014A000000E356E36BE5EEF0AF0365009E1150EBD
:1014B000355CD8A05EEF0AF060EF0AF062EF0AF048
:1014C0009EEF0AF023C01CF024C01DF025C01EF0C2
:1014D00026C01FF006EC10F0030E286E700E276E6B
:1014E0005C0EE82EFED7272EFCD7282EFAD700D088
:1014F00023C01CF024C01DF025C01EF026C01FF024
:10150000B3EC11F0030E286E700E276E5C0EE82E01
:10151000FED7272EFCD7282EFAD700D0354A362AF8
:1015200036BE9CEF0AF0365009E1150E355CD8A0A6
:101530009CEF0AF09EEF0AF062EF0AF04D4A4E2A45
:1015400012004D502124D96E4E502220DA6EDE0456
:10155000D8A4ADEF0AF0AFEF0AF0F1EF0AF0000EF9
:101560002A6E000E296E23C01CF024C01DF025C079
:101570001EF026C01FF006EC10F0030E286E700E51
:10158000276E5C0EE82EFED7272EFCD7282EFAD722
:1015900000D023C01CF024C01DF025C01EF026C0C2
:1015A0001FF0B3EC11F0030E286E700E276E5C0E68
:1015B000E82EFED7272EFCD7282EFAD700D0294AAE
:1015C0002A2A2ABEEDEF0AF02A5009E1100E295C02
:1015D000D8A0EDEF0AF0EFEF0AF0B3EF0AF022EF38
:1015E0000DF04D502124D96E4E502220DA6E020E9D
:1015F000DE18D8A4FEEF0AF000EF0BF042EF0BF07C
:10160000000E2C6E000E2B6E23C01CF024C01DF0AB
:1016100025C01EF026C01FF0CDEC0FF0030E286E83
:10162000700E276E5C0EE82EFED7272EFCD7282ED4
:10163000FAD700D023C01CF024C01DF025C01EF036
:1016400026C01FF0B3EC11F0030E286E700E276E4B
:101650005C0EE82EFED7272EFCD7282EFAD700D016
:101660002B4A2C2A2CBE3EEF0BF02C5009E1100E19
:101670002B5CD8A03EEF0BF040EF0BF004EF0BF02B
:1016800022EF0DF04D502124D96E4E502220DA6EFB
:10169000030EDE18D8A44FEF0BF051EF0BF093EFD1
:1016A0000BF0000E2E6E000E2D6E23C01CF024C019
:1016B0001DF025C01EF026C01FF0CDEC0FF0030E6C
:1016C000286E700E276E5C0EE82EFED7272EFCD7F4
:1016D000282EFAD700D023C01CF024C01DF025C04E
:1016E0001EF026C01FF0B3EC11F0030E286E700E32
:1016F000276E5C0EE82EFED7272EFCD7282EFAD7B1
:1017000000D02D4A2E2A2EBE8FEF0BF02E5009E16D
:101710001E0E2D5CD8A08FEF0BF091EF0BF055EF64
:101720000BF022EF0DF04D502124D96E4E502220A7
:10173000DA6E040EDE18D8A4A0EF0BF0A2EF0BF0C7
:101740000BEF0CF023C01CF024C01DF025C01EF0D0
:1017500026C01FF0E8EC0DF0D00E276ECA0EE82E62
:10176000FED7272EFCD723C01CF024C01DF025C0B7
:101770001EF026C01FF0B3EC11F0090E286E1E0EED
:10178000276EE40EE82EFED7272EFCD7282EFAD798
:1017900000D0000E306E000E2F6E23C01CF024C04F
:1017A0001DF025C01EF026C01FF006EC10F0030E41
:1017B000286E700E276E5C0EE82EFED7272EFCD703
:1017C000282EFAD700D023C01CF024C01DF025C05D
:1017D0001EF026C01FF0B3EC11F0030E286E700E41
:1017E000276E5C0EE82EFED7272EFCD7282EFAD7C0
:1017F00000D02F4A302A30BE07EF0CF0305009E1FC
:10180000110E2F5CD8A007EF0CF009EF0CF0CDEF14
:101810000BF022EF0DF04D502124D96E4E502220B6
:10182000DA6E050EDE18D8A418EF0CF01AEF0CF0E3
:1018300082EF0CF023C01CF024C01DF025C01EF068
:1018400026C01FF0E8EC0DF0D00E276ECA0EE82E71
:10185000FED7272EFCD723C01CF024C01DF025C0C6
:101860001EF026C01FF0B3EC11F0190E286E5A0EB0
:10187000276EB20EE82EFED7272EFCD7282EFAD7D9
:10188000000E326E000E316E23C01CF024C01DF01D
:1018900025C01EF026C01FF0CDEC0FF0030E286E01
:1018A000700E276E5C0EE82EFED7272EFCD7282E52
:1018B000FAD700D023C01CF024C01DF025C01EF0B4
:1018C00026C01FF0B3EC11F0030E286E700E276EC9
:1018D0005C0EE82EFED7272EFCD7282EFAD700D094
:1018E000314A322A32BE7EEF0CF0325009E10D0E41
:1018F000315CD8A07EEF0CF080EF0CF044EF0CF0E0
:1019000022EF0DF04D502124D96E4E502220DA6E78
:10191000060EDE18D8A48FEF0CF091EF0CF0D3EF89
:101920000CF0000E346E000E336E23C01CF024C089
:101930001DF025C01EF026C01FF0CDEC0FF0030EE9
:10194000286E700E276E5C0EE82EFED7272EFCD771
:10195000282EFAD700D023C01CF024C01DF025C0CB
:101960001EF026C01FF0B3EC11F0030E286E700EAF
:10197000276E5C0EE82EFED7272EFCD7282EFAD72E
:1019800000D0334A342A34BECFEF0CF0345009E192
:10199000180E335CD8A0CFEF0CF0D1EF0CF095EF20
:1019A0000CF022EF0DF04D502124D96E4E50222024
:1019B000DA6E070EDE18D8A4E0EF0CF0E2EF0CF0C0
:1019C00022EF0DF0000E366E000E356E23C01CF0B7
:1019D00024C01DF025C01EF026C01FF0CDEC0FF076
:1019E000030E286E700E276E5C0EE82EFED7272E93
:1019F000FCD7282EFAD700D023C01CF024C01DF03D
:101A000025C01EF026C01FF0B3EC11F0030E286EA7
:101A1000700E276E5C0EE82EFED7272EFCD7282EE0
:101A2000FAD700D0354A362A36BE20EF0DF03650B0
:101A300009E1150E355CD8A020EF0DF022EF0DF076
:101A4000E6EF0CF04D06D8A04E064D2806E14E28D4
:101A5000D8A42DEF0DF02FEF0DF031EF0DF0000EAB
:101A6000516E120020EE02F01650D9261750DA22DD
:101A7000DF50D8B43EEF0DF040EF0DF074EF0DF0F5
:101A800016C0D9FF17C0DAFFDF50186E1850096E64
:101A90000A6A20EE03F01650D9261750DA22DECF5C
:101AA0000BF0DDCF0CF061EC12F009C00FF00AC0B2
:101AB00010F0000E126E640E116E93EC0FF020EE1B
:101AC00003F01650D9261750DA22DF50196E0F5046
:101AD000195C1A6E20EE03F01650D9261750DA2240
:101AE000DF501B6E97EF0DF016C0D9FF17C0DAFF5D
:101AF000DF50186E1850096E0A6A20EE03F0165077
:101B0000D9261750DA22DECF0BF0DDCF0CF061ECD6
:101B100012F009C00FF00AC010F0000E126E640E31
:101B2000116E93EC0FF00F501A6E000E1B6E20EE2C
:101B300001F01650D9261750DA22DF50D8B4A3EF9F
:101B40000DF0A5EF0DF0C7EF0DF020EE05F01650EB
:101B5000D9261750DA22DECF18F0DDCF19F018C0E1
:101B6000D9FF19C0DAFF1AC0DFFF20EE07F01650C8
:101B7000D9261750DA22DECF18F0DDCF19F018C0C1
:101B8000D9FF19C0DAFF1BC0DFFFE7EF0DF020EE31
:101B900005F01650D9261750DA22DECF18F0DDCF27
:101BA00019F018C0D9FF19C0DAFF1BC0DFFF20EE03
:101BB00007F01650D9261750DA22DECF18F0DDCF05
:101BC00019F018C0D9FF19C0DAFF1AC0DFFF1200E0
:101BD0001CC0D9FF1DC0DAFF050EDF6E1EC0D9FF85
:101BE0001FC0DAFF050EDF6E20EE01F01E50D92671
:101BF0001F50DA22000EDF6E20EE01F01C50D926B5
:101C00001D50DA22000EDF6E20EE02F01C50D926A5
:101C10001D50DA22010EDF6E20EE02F01E50D92692
:101C20001F50DA22010EDF6E33EF0EF01CC0D9FF19
:101C30001DC0DAFFDF2A1EC0D9FF1FC0DAFFDF2A6E
:101C4000D00E206ECA0EE82EFED7202EFCD71CC068
:101C500016F01DC017F032EC0DF01EC016F01FC0BC
:101C600017F032EC0DF01CC0D9FF1DC0DAFF650E75
:101C7000DF603DEF0EF03FEF0EF04BEF0EF01EC0B9
:101C8000D9FF1FC0DAFF640EDF6449EF0EF04BEF9F
:101C90000EF016EF0EF01CC0D9FF1DC0DAFF640E67
:101CA000DF6E1EC0D9FF1FC0DAFF640EDF6E1CC0DE
:101CB00016F01DC017F032EC0DF01EC016F01FC05C
:101CC00017F032EC0DF01200AEEC12F099EC11F0BE
:101CD000B9EC12F094EC12F00B0E0E6EB80E0D6E05
:101CE000000E106E000E0F6E0FEC12F0C4EC12F02E
:101CF000000E0A6EC80E096E53EC0FF0BB0E096E93
:101D0000000E0A6E74EC10F0C40E096E000E0A6E1E
:101D10003FEC10F085948598839E879C849E7C9EE2
:101D200088968096BB0E1C6E000E1D6EC40E1E6E35
:101D3000000E1F6EDEEC0EF0808600019C059D11EA
:101D4000D8A4A5EF0EF0A7EF0EF092EF0EF0BB0EA9
:101D50001C6E000E1D6EC40E1E6E000E1F6EB3ECC8
:101D600011F0520E386E2B0E376E000EE82EFED795
:101D7000372EFCD7382EFAD700D07C9EAD0E146ECD
:101D8000000E156EA9EC10F0000E516E9E0E216E25
:101D9000000E226EBB0E236E000E246EC40E256E46
:101DA000000E266EA1EC0AF08096000E00019D6FD9
:101DB000000E9C6F92EF0EF019EF00F01CC0D9FFDF
:101DC0001DC0DAFF050EDF6E1EC0D9FF1FC0DAFF8F
:101DD000050EDF6E20EE01F01E50D9261F50DA22CC
:101DE000010EDF6E20EE01F01C50D9261D50DA22C4
:101DF000010EDF6E20EE02F01C50D9261D50DA22B3
:101E0000010EDF6E20EE02F01E50D9261F50DA229E
:101E1000010EDF6E22EF0FF01CC0D9FF1DC0DAFFEC
:101E2000DF2A1EC0D9FF1FC0DAFFDF2A1CC016F050
:101E30001DC017F032EC0DF01EC016F01FC017F0D9
:101E400032EC0DF01CC0D9FF1DC0DAFF150EDF60AB
:101E50002CEF0FF02EEF0FF03AEF0FF01EC0D9FF6E
:101E60001FC0DAFF140EDF6438EF0FF03AEF0FF007
:101E70000CEF0FF01CC0D9FF1DC0DAFF140EDF6E8F
:101E80001EC0D9FF1FC0DAFF140EDF6E1CC016F093
:101E90001DC017F032EC0DF01EC016F01FC017F079
:101EA00032EC0DF01200050E0E01746F060E766F07
:101EB000070E696F080E886FBD508F0B3009BD6E1D
:101EC000E00EBE16BF50F00B0109BF6EC80EBC6E0F
:101ED000BD8E000EAA6E000EA66E000E0F01256FBD
:101EE000000E216FFC0EAD16F30EAD16CF0EAD1623
:101EF0003F0EAD16AB88AB50F00B0C09AB6EAB8E42
:101F0000A788A750F00B0C09A76EA78E268926512B
:101F1000F00B0C09266F268F22892251F00B0C0939
:101F2000226F228F1200000E146E000E136E1150DD
:101F30001210D8B49EEF0FF0A0EF0FF0C8EF0FF023
:101F4000010E156EA8EF0FF0D89011361236152A33
:101F500012AEADEF0FF0AFEF0FF0A4EF0FF0D8908F
:101F60001336143611500F5C12501058D8A0BBEF26
:101F70000FF0BDEF0FF0C2EF0FF011500F5E1250D7
:101F8000105A1380D89012321132152EAFEF0FF085
:101F900013C00FF014C010F012001CC0D9FF1DC0F8
:101FA000DAFF320EDF6E1EC0D9FF1FC0DAFF320E1D
:101FB000DF6E20EE02F01C50D9261D50DA22010EF1
:101FC000DF6E20EE02F01E50D9261F50DA22010EDD
:101FD000DF6E20EE01F01E50D9261F50DA22000ECF
:101FE000DF6E20EE01F01C50D9261D50DA22010EC2
:101FF000DF6E1CC016F01DC017F032EC0DF01EC0D5
:1020000016F01FC017F032EC0DF012001CC0D9FF03
:102010001DC0DAFF320EDF6E1EC0D9FF1FC0DAFF0F
:10202000320EDF6E20EE02F01C50D9261D50DA224F
:10203000010EDF6E20EE02F01E50D9261F50DA226C
:10204000010EDF6E20EE01F01C50D9261D50DA2261
:10205000000EDF6E20EE01F01E50D9261F50DA224E
:10206000010EDF6E1CC016F01DC017F032EC0DF033
:102070001EC016F01FC017F032EC0DF0120009C0A0
:10208000D9FF0AC0DAFF320EDF6E20EE01F00950F0
:10209000D9260A50DA22010EDF6E20EE02F0095036
:1020A000D9260A50DA22010EDF6E20EE05F0095023
:1020B000D9260A50DA22250EDE6E0F0EDD6E20EED6
:1020C00007F00950D9260A50DA22210EDE6E0F0ED3
:1020D000DD6E20EE03F00950D9260A50DA22C80E30
:1020E000DE6E000EDD6E120009C0D9FF0AC0DAFFF5
:1020F000320EDF6E20EE01F00950D9260A50DA22A6
:10210000010EDF6E20EE02F00950D9260A50DA22C5
:10211000010EDF6E20EE05F00950D9260A50DA22B2
:10212000AA0EDE6E0F0EDD6E20EE07F00950D926E6
:102130000A50DA22A60EDE6E0F0EDD6E20EE03F0E0
:102140000950D9260A50DA22C80EDE6E000EDD6E66
:102150001200D8EC10F014C0D9FF15C0DAFF0DC082
:10216000DEFF0EC0DDFF50EC11F020EE04F0145045
:10217000D9261550DA220DC0DEFF0EC0DDFF00ECBF
:1021800011F020EE02F01450D9261550DA220DC0BD
:10219000DEFF0EC0DDFF28EC11F020EE06F014503B
:1021A000D9261550DA220DC0DEFF0EC0DDFF120069
:1021B000E6EC12F0520ECAEC12F0B60ECAEC12F0B7
:1021C000DCEC12F0530ECAEC12F0010E78EC11F0B8
:1021D0000F6E0F50126E136A000E78EC11F00F6E36
:1021E0000F50116E106A12501010126E1350111011
:1021F000136EE1EC12F012C00DF013C00EF01200DD
:10220000E6EC12F0520ECAEC12F0B80ECAEC12F064
:10221000DCEC12F0530ECAEC12F0010E78EC11F067
:102220000F6E0F50126E136A000E78EC11F00F6EE5
:102230000F50116E106A12501010126E13501110C0
:10224000136EE1EC12F012C00DF013C00EF012008C
:10225000E6EC12F0520ECAEC12F0B40ECAEC12F018
:10226000DCEC12F0530ECAEC12F0010E78EC11F017
:102270000F6E0F50126E136A000E78EC11F00F6E95
:102280000F50116E106A12501010126E1350111070
:10229000136EE1EC12F012C00DF013C00EF012003C
:1022A000E6EC12F0520ECAEC12F0BA0ECAEC12F0C2
:1022B000DCEC12F0530ECAEC12F0010E78EC11F0C7
:1022C0000F6E0F50126E136A000E78EC11F00F6E45
:1022D0000F50116E106A12501010126E1350111020
:1022E000136EE1EC12F012C00DF013C00EF01200EC
:1022F0000B6E39EC12F00E01DA8739EC12F0D5CE04
:102300000CF039EC12F00B50D8B489EF11F08DEFCE
:1023100011F00A6A0A2A8EEF11F00A6A0A3A0A468E
:102320000E01DA510A18DF0B0A18DA6FDA890C503D
:102330001200FAEC11F0010E0B6E000E74EC12F0AC
:102340003F0E0D6E550EE82EFED70D2EFCD700F079
:10235000030E0B6E000E74EC12F0D50E0B6E010E18
:1023600074EC12F012001CC0D9FF1DC0DAFF000E81
:10237000DF6E1EC0D9FF1FC0DAFF000EDF6E1CC06B
:1023800016F01DC017F032EC0DF01EC016F01FC085
:1023900017F032EC0DF01200F0EC12F0520ED6EC09
:1023A00012F0E60ED6EC12F0EBEC12F0A1EC12F00B
:1023B000D0EC12F0130E066E880E056E000E086E3D
:1023C000000E076E24EC12F0120000EE60F04D0ECD
:1023D000EE6AE806FDE100EE39F01D0EEE6AE80651
:1023E000FDE156905692000EF86E0E0EF76E00014B
:1023F00064EF0EF00E01D951F00B0809D96FD98B9B
:102400009F0ED66F848A848CA79BA79D1D0E1D6F7F
:102410001E0E1C6F1C0E6F6F1B0E706F12000FC014
:102420000BF0040E74EC12F010500B6E050E74ECF1
:1024300012F00DC00BF0060E74EC12F00E500B6E85
:10244000070E74EC12F0120007C003F0040E84ECC7
:1024500012F00850036E050E84EC12F005C003F074
:10246000060E84EC12F00650036E070E84EC12F098
:1024700012000E01D8B53FEF12F041EF12F039EF24
:1024800012F0DACE09F01F0E0916D8A44AEF12F0A6
:102490004CEF12F039EF12F012000E01D8B553EFE5
:1024A00012F055EF12F04DEF12F0DACE01F01F0EE0
:1024B0000116D8A45EEF12F060EF12F04DEF12F0AB
:1024C000120009500B02F3CF0DF0F4CF0EF00950BB
:1024D0000C02F3500E260A500B02F3500E260DC0CC
:1024E00009F00EC00AF012000C6EE6EC12F0520E6B
:1024F000CAEC12F00C508009CAEC12F00B50CAEC76
:1025000012F0E1EC12F01200046EF0EC12F0520E38
:10251000D6EC12F004508009D6EC12F00350D6EC41
:1025200012F0EBEC12F01200130E0B6E000E74ECB6
:1025300012F0D00E0D6ECA0EE82EFED70D2EFCD76F
:102540001200130E036E000E84EC12F0D00E056E16
:10255000CA0EE82EFED7052EFCD7120087907F808A
:1025600081987988869E7E8E81967986859E7D8EDD
:10257000120082800E019A91339129811F81F2907D
:10258000F28AF28CF28E1200020E0B6E0C0E74ECBC
:1025900012F012000A6E39EC12F00AC0D5FE1200D9
:1025A000020E036E0C0E84EC12F01200026E4DEC63
:1025B00012F002C0D5FE120039EC12F00E01DA83DF
:1025C000120039EC12F00E01DA85120039EC12F02B
:1025D0000E01DA8112004DEC12F00E01DA851200C4
:0A25E0004DEC12F00E01DA8112003A
:020000040020DA
:10000000FF0FFF0FFF0FFF0FFF0FFF0FFF0FFF0F80
:020000040030CA
:0C000000AAFFFFFF9FFFFFFFFFFFFFFFB5
:00000001FF
