:0400000018EF00F005
:100008004C820E0133A10BEF00F00DEF00F016EF5C
:1000180000F07C8E000E476E010E466E3FEC0BF032
:0C0028000E0133914C92110058EF0BF0C8
:100E000000524742433A256920256920256920255B
:100E1000690A000020EE02F01650D9261750DA2297
:100E2000DF50D8B416EF07F018EF07F04CEF07F0DB
:100E300016C0D9FF17C0DAFFDF50186E1850096EC0
:100E40000A6A20EE03F01650D9261750DA22DECFB8
:100E50000BF0DDCF0CF0D4EC0BF009C00FF00AC0A2
:100E600010F0000E126E640E116E3FEC09F020EED1
:100E700003F01650D9261750DA22DF50196E0F50A2
:100E8000195C1A6E20EE03F01650D9261750DA229C
:100E9000DF501B6E6FEF07F016C0D9FF17C0DAFFE7
:100EA000DF50186E1850096E0A6A20EE03F01650D3
:100EB000D9261750DA22DECF0BF0DDCF0CF0D4ECC0
:100EC0000BF009C00FF00AC010F0000E126E640E95
:100ED000116E3FEC09F00F501A6E000E1B6E20EEE3
:100EE00001F01650D9261750DA22DF50D8B47BEF24
:100EF00007F07DEF07F09FEF07F020EE05F01650AA
:100F0000D9261750DA22DECF18F0DDCF19F018C03D
:100F1000D9FF19C0DAFF1AC0DFFF20EE07F0165024
:100F2000D9261750DA22DECF18F0DDCF19F018C01D
:100F3000D9FF19C0DAFF1BC0DFFFBFEF07F020EEBB
:100F400005F01650D9261750DA22DECF18F0DDCF83
:100F500019F018C0D9FF19C0DAFF1BC0DFFF20EE5F
:100F600007F01650D9261750DA22DECF18F0DDCF61
:100F700019F018C0D9FF19C0DAFF1AC0DFFF12003C
:100F800021EC0CF00CEC0BF02CEC0CF007EC0CF062
:100F9000130E0E6E880E0D6E000E106E000E0F6E8C
:100FA00082EC0BF037EC0CF0000E0A6EC80E096EE6
:100FB000FFEC08F0320E096E000E0A6EE7EC09F045
:100FC0003B0E096E000E0A6EB2EC09F0859485980E
:100FD000839E879C849E7C9E88968096320E1C6E93
:100FE000000E1D6E3B0E1E6E000E1F6E36EC08F0DE
:100FF000808646044710D8A400EF08F002EF08F0FE
:10100000EEEF07F0320E1C6E000E1D6E3B0E1E6ED4
:10101000000E1F6E26EC0BF0520E296E2B0E286E62
:10102000000EE82EFED7282EFCD7292EFAD700D0A6
:101030007C9E2A0E146E000E156E1CEC0AF02A0E11
:10104000206E000E216E320E226E000E236E3B0EBD
:10105000246E000E256EABEC08F08096000E476EF5
:10106000000E466EEEEF07F018EF00F01CC0D9FF3F
:101070001DC0DAFF050EDF6E1EC0D9FF1FC0DAFFEC
:10108000050EDF6E20EE01F01E50D9261F50DA2229
:10109000010EDF6E20EE01F01C50D9261D50DA2221
:1010A000010EDF6E20EE02F01C50D9261D50DA2210
:1010B000010EDF6E20EE02F01E50D9261F50DA22FC
:1010C000010EDF6E7AEF08F01CC0D9FF1DC0DAFFF9
:1010D000DF2A1EC0D9FF1FC0DAFFDF2A1CC016F0AE
:1010E0001DC017F00AEC07F01EC016F01FC017F065
:1010F0000AEC07F01CC0D9FF1DC0DAFF150EDF6037
:1011000084EF08F086EF08F092EF08F01EC0D9FFD8
:101110001FC0DAFF140EDF6490EF08F092EF08F0C2
:1011200064EF08F01CC0D9FF1DC0DAFF140EDF6E9B
:101130001EC0D9FF1FC0DAFF140EDF6E1CC016F0F0
:101140001DC017F00AEC07F01EC016F01FC017F004
:101150000AEC07F0120020EE06F02050D9262150AC
:10116000DA22D10EDE5C070EDE58D8A0BAEF08F006
:10117000BCEF08F0FEEF08F022C01CF023C01DF009
:1011800024C01EF025C01FF026EC0BF0090E276EC0
:101190001E0E266EE40EE82EFED7262EFCD7272E36
:1011A000FAD700D022C01CF023C01DF024C01EF0CE
:1011B00025C01FF079EC09F0120E276E0C0E266E7A
:1011C000950EE82EFED7262EFCD7272EFAD700F054
:1011D00022C01CF023C01DF024C01EF025C01FF04B
:1011E00026EC0BF0090E276E1E0E266EE40EE82E7E
:1011F000FED7262EFCD7272EFAD700D01200050ED8
:101200000E01746F060E766F070E696F080E886FF9
:10121000BD508F0B3009BD6EE00EBE16BF50F00BF7
:101220000109BF6EC80EBC6EBD8E000EAA6E000E08
:10123000A66E000E0F01256F000E216FFC0EAD167D
:10124000F30EAD16CF0EAD163F0EAD16AB88AB50FC
:10125000F00B0C09AB6EAB8EA788A750F00B0C09F6
:10126000A76EA78E26892651F00B0C09266F268FB4
:1012700022892251F00B0C09226F228F1200000EDE
:10128000146E000E136E11501210D8B44AEF09F00C
:101290004CEF09F074EF09F0010E156E54EF09F0F0
:1012A000D89011361236152A12AE59EF09F05BEFBD
:1012B00009F050EF09F0D8901336143611500F5C36
:1012C00012501058D8A067EF09F069EF09F06EEFDF
:1012D00009F011500F5E1250105A1380D89012323C
:1012E0001132152E5BEF09F013C00FF014C010F08F
:1012F00012001CC0D9FF1DC0DAFF320EDF6E1EC007
:10130000D9FF1FC0DAFF320EDF6E20EE02F01C5054
:10131000D9261D50DA22010EDF6E20EE02F01E509B
:10132000D9261F50DA22010EDF6E20EE01F01E508A
:10133000D9261F50DA22000EDF6E20EE01F01C507D
:10134000D9261D50DA22010EDF6E1CC016F01DC01A
:1013500017F00AEC07F01EC016F01FC017F00AECD9
:1013600007F0120009C0D9FF0AC0DAFF320EDF6EA3
:1013700020EE01F00950D9260A50DA22010EDF6E64
:1013800020EE02F00950D9260A50DA22010EDF6E53
:1013900020EE05F00950D9260A50DA22250EDE6E1D
:1013A0000F0EDD6E20EE07F00950D9260A50DA2222
:1013B000210EDE6E0F0EDD6E20EE03F00950D926F1
:1013C0000A50DA22C80EDE6E000EDD6E120009C071
:1013D000D9FF0AC0DAFF320EDF6E20EE01F00950AD
:1013E000D9260A50DA22010EDF6E20EE02F00950F3
:1013F000D9260A50DA22010EDF6E20EE05F00950E0
:10140000D9260A50DA22AA0EDE6E0F0EDD6E20EE0D
:1014100007F00950D9260A50DA22A60EDE6E0F0E0A
:10142000DD6E20EE03F00950D9260A50DA22C80EEC
:10143000DE6E000EDD6E12004BEC0AF014C0D9FF18
:1014400015C0DAFF0DC0DEFF0EC0DDFFC3EC0AF0F1
:1014500020EE04F01450D9261550DA220DC0DEFF1C
:101460000EC0DDFF73EC0AF020EE02F01450D92616
:101470001550DA220DC0DEFF0EC0DDFF9BEC0AF036
:1014800020EE06F01450D9261550DA220DC0DEFFEA
:101490000EC0DDFF120059EC0CF0520E3DEC0CF0CA
:1014A000B60E3DEC0CF04FEC0CF0530E3DEC0CF096
:1014B000010EEBEC0AF00F6E0F50126E136A000E65
:1014C000EBEC0AF00F6E0F50116E106A12501010F4
:1014D000126E13501110136E54EC0CF012C00DF07C
:1014E00013C00EF0120059EC0CF0520E3DEC0CF053
:1014F000B80E3DEC0CF04FEC0CF0530E3DEC0CF044
:10150000010EEBEC0AF00F6E0F50126E136A000E14
:10151000EBEC0AF00F6E0F50116E106A12501010A3
:10152000126E13501110136E54EC0CF012C00DF02B
:1015300013C00EF0120059EC0CF0520E3DEC0CF002
:10154000B40E3DEC0CF04FEC0CF0530E3DEC0CF0F7
:10155000010EEBEC0AF00F6E0F50126E136A000EC4
:10156000EBEC0AF00F6E0F50116E106A1250101053
:10157000126E13501110136E54EC0CF012C00DF0DB
:1015800013C00EF0120059EC0CF0520E3DEC0CF0B2
:10159000BA0E3DEC0CF04FEC0CF0530E3DEC0CF0A1
:1015A000010EEBEC0AF00F6E0F50126E136A000E74
:1015B000EBEC0AF00F6E0F50116E106A1250101003
:1015C000126E13501110136E54EC0CF012C00DF08B
:1015D00013C00EF012000B6EACEC0BF00E01DA87AC
:1015E000ACEC0BF0D5CE0CF0ACEC0BF00B50D8B44F
:1015F000FCEF0AF000EF0BF00A6A0A2A01EF0BF089
:101600000A6A0A3A0A460E01DA510A18DF0B0A186A
:10161000DA6FDA890C5012006DEC0BF0010E0B6ED4
:10162000000EE7EC0BF03F0E0D6E550EE82EFED7C8
:101630000D2EFCD700F0030E0B6E000EE7EC0BF046
:10164000D50E0B6E010EE7EC0BF012001CC0D9FF9B
:101650001DC0DAFF000EDF6E1EC0D9FF1FC0DAFF0B
:10166000000EDF6E1CC016F01DC017F00AEC07F06C
:101670001EC016F01FC017F00AEC07F0120063EC52
:101680000CF0520E49EC0CF0E60E49EC0CF05EEC5E
:101690000CF014EC0CF043EC0CF0130E066E880EFC
:1016A000056E000E086E000E076E97EC0BF0120030
:1016B00000EE60F0500EEE6AE806FDE100EE44F048
:1016C000080EEE6AE806FDE14C904C92000EF86EB2
:1016D0000E0EF76E0001C0EF07F00E01D951F00BAE
:1016E0000809D96FD98B9F0ED66F848A848CA79BEB
:1016F000A79D1D0E1D6F1E0E1C6F1C0E6F6F1B0E07
:10170000706F12000FC00BF0040EE7EC0BF01050DE
:101710000B6E050EE7EC0BF00DC00BF0060EE7ECC0
:101720000BF00E500B6E070EE7EC0BF0120007C02B
:1017300003F0040EF7EC0BF00850036E050EF7EC07
:101740000BF005C003F0060EF7EC0BF00650036E2D
:10175000070EF7EC0BF012000E01D8B5B2EF0BF04C
:10176000B4EF0BF0ACEF0BF0DACE09F01F0E091658
:10177000D8A4BDEF0BF0BFEF0BF0ACEF0BF01200F5
:101780000E01D8B5C6EF0BF0C8EF0BF0C0EF0BF0B1
:10179000DACE01F01F0E0116D8A4D1EF0BF0D3EF73
:1017A0000BF0C0EF0BF0120009500B02F3CF0DF05D
:1017B000F4CF0EF009500C02F3500E260A500B0223
:1017C000F3500E260DC009F00EC00AF012000C6E88
:1017D00059EC0CF0520E3DEC0CF00C5080093DEC35
:1017E0000CF00B503DEC0CF054EC0CF01200046EBD
:1017F00063EC0CF0520E49EC0CF00450800949ECFB
:101800000CF0035049EC0CF05EEC0CF01200130EDF
:101810000B6E000EE7EC0BF0D00E0D6ECA0EE82E2C
:10182000FED70D2EFCD71200130E036E000EF7EC40
:101830000BF0D00E056ECA0EE82EFED7052EFCD793
:10184000120087907F8081987988869E7E8E81960F
:101850007986859E7D8E120082800E019A91339149
:1018600029811F81F290F28AF28CF28E1200020E10
:101870000B6E0C0EE7EC0BF012000A6EACEC0BF0EA
:101880000AC0D5FE1200020E036E0C0EF7EC0BF030
:101890001200026EC0EC0BF002C0D5FE1200ACECE0
:1018A0000BF00E01DA831200ACEC0BF00E01DA85BE
:1018B0001200ACEC0BF00E01DA811200C0EC0BF060
:1018C0000E01DA851200C0EC0BF00E01DA81120075
:020000040020DA
:10000000FF0FFF0FFF0FFF0FFF0FFF0FFF0FFF0F80
:020000040030CA
:0C000000AAFFFFFF9FFFFFFFFFFFFFFFB5
:00000001FF
