:040000001AEF00F003
:1000080057820E0133A10BEF00F00DEF00F018EF4F
:1000180000F0000E0001D96F010ED86FD64BD72B18
:1000280029EC1DF00E01339157921100AEEF1CF030
:100E000000524742433A2566202566202566202564
:070E1000662025660A0000C0
:100E180020EE1CF02750D9262850DA22DECF09F020
:100E2800DECF0AF0DECF0BF0DECF0CF043C00DF0C2
:100E380044C00EF045C00FF046C010F042EC18F068
:100E4800D8B029EF07F02BEF07F01EEF0AF03FC0EC
:100E580009F040C00AF041C00BF042C00CF020EE8F
:100E68001CF02750D9262850DA22DECF0DF0DECF2D
:100E78000EF0DECF0FF0DECF10F042EC18F0D8B055
:100E880048EF07F04AEF07F01EEF0AF020EE18F0DF
:100E98002750D9262850DA22DECF09F0DECF0AF013
:100EA800DECF0BF0DECF0CF0000E0D6E000E0E6ED6
:100EB800A00E0F6E400E106E42EC18F0D8B067EF1F
:100EC80007F069EF07F029EF08F09A0E096E990EFE
:100ED8000A6ED90E0B6E3F0E0C6E20EE10F02750E6
:100EE800D9262850DA22DECF0DF0DECF0EF0DECF85
:100EF8000FF0DECF10F042EC18F0D8B086EF07F014
:100F080088EF07F029EF08F020EE10F02750D926D7
:100F18002850DA22DECF09F0DECF0AF0DECF0BF060
:100F2800DECF0CF0CD0E0D6ECC0E0E6E0C0E0F6ECD
:100F3800400E106E42EC18F0D8B0A5EF07F0A7EFFE
:100F480007F029EF08F0000E096E000E0A6E400E39
:100F58000B6E400E0C6E20EE14F02750D926285048
:100F6800DA22DECF0DF0DECF0EF0DECF0FF0DECFCF
:100F780010F042EC18F0D8B0C4EF07F0C6EF07F055
:100F880029EF08F020EE14F02750D9262850DA224D
:100F9800DECF09F0DECF0AF0DECF0BF0DECF0CF0AB
:100FA800000E0D6E000E0E6E600E0F6E400E106E6F
:100FB80042EC18F0D8B0E3EF07F0E5EF07F029EFBF
:100FC80008F029C01CF02AC01DF02BC01EF02CC050
:100FD8001FF0C4EC18F0F40E2E6E820E2D6E050E66
:100FE800E82EFED72D2EFCD72E2EFAD700F029C0DA
:100FF8001CF02AC01DF02BC01EF02CC01FF010ECF6
:101008001DF0090E2E6E1E0E2D6EE40EE82EFED774
:101018002D2EFCD72E2EFAD700D029C01CF02AC0BE
:101028001DF02BC01EF02CC01FF040EC1BF0120E60
:101038002E6EDC0E2D6E600EE82EFED72D2EFCD700
:101048002E2EFAD7050E46EF0DF0000E096E000E93
:101058000A6EB00E0B6E400E0C6E20EE18F0275084
:10106800D9262850DA22DECF0DF0DECF0EF0DECF03
:101078000FF0DECF10F042EC18F0D8B046EF08F0D1
:1010880048EF08F01CEF09F020EE18F02750D92699
:101098002850DA22DECF09F0DECF0AF0DECF0BF0DF
:1010A800DECF0CF0000E0D6E000E0E6EC00E0F6E31
:1010B800400E106E42EC18F0D8B065EF08F067EFFC
:1010C80008F01CEF09F0330E096E330E0A6EB30EEA
:1010D8000B6E3F0E0C6E20EE10F02750D9262850CC
:1010E800DA22DECF0DF0DECF0EF0DECF0FF0DECF4E
:1010F80010F042EC18F0D8B084EF08F086EF08F052
:101108001CEF09F020EE10F02750D9262850DA22DB
:10111800DECF09F0DECF0AF0DECF0BF0DECF0CF029
:101128009A0E0D6E990E0E6ED90E0F6E3F0E106E42
:1011380042EC18F0D8B0A3EF08F0A5EF08F01CEFC8
:1011480009F0330E096E330E0A6E830E0B6E400ED5
:101158000C6E20EE14F02750D9262850DA22DECF64
:101168000DF0DECF0EF0DECF0FF0DECF10F042EC48
:1011780018F0D8B0C2EF08F0C4EF08F01CEF09F07F
:1011880020EE14F02750D9262850DA22DECF09F0B5
:10119800DECF0AF0DECF0BF0DECF0CF0000E0D6EC6
:1011A800000E0E6E900E0F6E400E106E42EC18F090
:1011B800D8B0E1EF08F0E3EF08F01CEF09F029C020
:1011C80021F02AC022F02BC023F02CC024F0E3EC3D
:1011D8001BF029C01CF02AC01DF02BC01EF02CC02B
:1011E8001FF007EC1BF01B0E2E6ECA0E2D6E100E94
:1011F800E82EFED72D2EFCD72E2EFAD700D029C0E8
:101208001CF02AC01DF02BC01EF02CC01FF010ECE3
:101218001DF0520E2E6E2B0E2D6E000EE82EFED7F0
:101228002D2EFCD72E2EFAD700D0060E46EF0DF045
:10123800330E096E330E0A6E530E0B6E400E0C6E93
:1012480020EE18F02750D9262850DA22DECF0DF0EC
:10125800DECF0EF0DECF0FF0DECF10F042EC18F04C
:10126800D8B039EF09F03BEF09F01EEF0AF020EE95
:1012780018F02750D9262850DA22DECF09F0DECF21
:101288000AF0DECF0BF0DECF0CF09A0E0D6E990E41
:101298000E6E790E0F6E400E106E42EC18F0D8B03C
:1012A80058EF09F05AEF09F01EEF0AF0CD0E096E5B
:1012B800CC0E0A6E2C0E0B6E400E0C6E20EE10F04B
:1012C8002750D9262850DA22DECF0DF0DECF0EF0D7
:1012D800DECF0FF0DECF10F042EC18F0D8B077EF89
:1012E80009F079EF09F01EEF0AF020EE10F0275010
:1012F800D9262850DA22DECF09F0DECF0AF0DECF79
:101308000BF0DECF0CF0CD0E0D6ECC0E0E6E4C0E2B
:101318000F6E400E106E42EC18F0D8B096EF09F040
:1013280098EF09F01EEF0AF0000E096E000E0A6E23
:10133800200E0B6E400E0C6E20EE14F02750D926AE
:101348002850DA22DECF0DF0DECF0EF0DECF0FF020
:10135800DECF10F042EC18F0D8B0B5EF09F0B7EFD7
:1013680009F01EEF0AF020EE14F02750D926285075
:10137800DA22DECF09F0DECF0AF0DECF0BF0DECFC7
:101388000CF09A0E0D6E990E0E6E390E0F6E400E01
:10139800106E42EC18F0D8B0D4EF09F0D6EF09F08F
:1013A8001EEF0AF07EA0DBEF09F0DFEF09F02D6AEF
:1013B8002D2AE0EF09F02D6A7E502D18FE0B2D180E
:1013C8007E6E29C021F02AC022F02BC023F02CC049
:1013D80024F0E3EC1BF029C01CF02AC01DF02BC040
:1013E8001EF02CC01FF040EC1BF01B0E2E6ECA0E18
:1013F8002D6E100EE82EFED72D2EFCD72E2EFAD7E6
:1014080000D029C01CF02AC01DF02BC01EF02CC033
:101418001FF010EC1DF0520E2E6E2B0E2D6E000ECE
:10142800E82EFED72D2EFCD72E2EFAD700D0070E89
:1014380046EF0DF020EE1CF02750D9262850DA226E
:10144800DECF09F0DECF0AF0DECF0BF0DECF0CF0F6
:10145800CCC00DF0CDC00EF0CEC00FF0CFC010F054
:1014680042EC18F0D8B03BEF0AF03DEF0AF0DBEFA2
:101478000BF0C8C009F0C9C00AF0CAC00BF0CBC055
:101488000CF020EE1CF02750D9262850DA22DECFA7
:101498000DF0DECF0EF0DECF0FF0DECF10F042EC15
:1014A80018F0D8B05AEF0AF05CEF0AF0DBEF0BF057
:1014B800000E096E000E0A6E000E0B6E410E0C6EC9
:1014C80020EE14F02750D9262850DA22DECF0DF06E
:1014D800DECF0EF0DECF0FF0DECF10F042EC18F0CA
:1014E800D8B079EF0AF07BEF0AF09DEF0AF029C037
:1014F80021F02AC022F02BC023F02CC024F0E3EC0A
:101508001BF029C01CF02AC01DF02BC01EF02CC0F7
:101518001FF007EC1BF0130E2E6EAC0E2D6E2A0E6C
:10152800E82EFED72D2EFCD72E2EFAD7010E46EF29
:101538000DF0000E096E000E0A6E900E0B6E400E36
:101548000C6E20EE18F02750D9262850DA22DECF6C
:101558000DF0DECF0EF0DECF0FF0DECF10F042EC54
:1015680018F0D8B0BAEF0AF0BCEF0AF0FEEF0AF0B4
:1015780020EE18F02750D9262850DA22DECF09F0BD
:10158800DECF0AF0DECF0BF0DECF0CF0000E0D6ED2
:10159800000E0E6EB00E0F6E400E106E42EC18F07C
:1015A800D8B0D9EF0AF0DBEF0AF0FEEF0AF029C055
:1015B80021F02AC022F02BC023F02CC024F0E3EC49
:1015C8001BF029C01CF02AC01DF02BC01EF02CC037
:1015D8001FF040EC1BF0120E2E6E740E2D6E7A0E5C
:1015E800E82EFED72D2EFCD72E2EFAD700D0020ECD
:1015F80046EF0DF0CD0E096ECC0E0A6E2C0E0B6E5A
:10160800400E0C6E20EE18F02750D9262850DA220A
:10161800DECF0DF0DECF0EF0DECF0FF0DECF10F014
:1016280042EC18F0D8B01BEF0BF01DEF0BF0DBEF1E
:101638000BF020EE18F02750D9262850DA22DECFFA
:1016480009F0DECF0AF0DECF0BF0DECF0CF0330E60
:101658000D6E330E0E6E530E0F6E400E106E42EC72
:1016680018F0D8B03AEF0BF03CEF0BF0DBEF0BF0D3
:10167800CD0E096ECC0E0A6E2C0E0B6E400E0C6E43
:1016880020EE10F02750D9262850DA22DECF0DF0B0
:10169800DECF0EF0DECF0FF0DECF10F042EC18F008
:1016A800D8B059EF0BF05BEF0BF0DBEF0BF020EE4F
:1016B80010F02750D9262850DA22DECF09F0DECFE5
:1016C8000AF0DECF0BF0DECF0CF0330E0D6E330ECA
:1016D8000E6E530E0F6E400E106E42EC18F0D8B01E
:1016E80078EF0BF07AEF0BF0DBEF0BF0CD0E096E15
:1016F800CC0E0A6E2C0E0B6E400E0C6E20EE14F003
:101708002750D9262850DA22DECF0DF0DECF0EF092
:10171800DECF0FF0DECF10F042EC18F0D8B097EF24
:101728000BF099EF0BF0DBEF0BF020EE14F02750E5
:10173800D9262850DA22DECF09F0DECF0AF0DECF34
:101748000BF0DECF0CF0330E0D6E330E0E6E530E13
:101758000F6E400E106E42EC18F0D8B0B6EF0BF0DA
:10176800B8EF0BF0DBEF0BF029C021F02AC022F014
:101778002BC023F02CC024F0E3EC1BF029C01CF094
:101788002AC01DF02BC01EF02CC01FF040EC1BF02F
:10179800210E2E6E780E2D6E980EE82EFED72D2E69
:1017A800FCD72E2EFAD700D0030E46EF0DF047C017
:1017B80009F048C00AF049C00BF04AC00CF020EE0E
:1017C8001CF02750D9262850DA22DECF0DF0DECFC4
:1017D8000EF0DECF0FF0DECF10F042EC18F0D8B0EC
:1017E800F8EF0BF0FAEF0BF0A4EF0CF0000E096E17
:1017F800000E0A6EA00E0B6E400E0C6E20EE18F056
:101808002750D9262850DA22DECF0DF0DECF0EF091
:10181800DECF0FF0DECF10F042EC18F0D8B017EFA3
:101828000CF019EF0CF05EEF0CF029C01CF02AC088
:101838001DF02BC01EF02CC01FF0C4EC18F0F40EE5
:101848002E6E820E2D6E050EE82EFED72D2EFCD79D
:101858002E2EFAD700F029C01CF02AC01DF02BC08C
:101868001EF02CC01FF010EC1DF0090E2E6E1E0E7F
:101878002D6EE40EE82EFED72D2EFCD72E2EFAD78D
:1018880000D029C01CF02AC01DF02BC01EF02CC0AF
:101898001FF007EC1BF0120E2E6E740E2D6E7A0ED2
:1018A800E82EFED72D2EFCD72E2EFAD700D0040E08
:1018B80046EF0DF020EE18F02750D9262850DA22EE
:1018C800DECF09F0DECF0AF0DECF0BF0DECF0CF072
:1018D800000E0D6E000E0E6EA00E0F6E400E106EF6
:1018E80042EC18F0D8B07BEF0CF07DEF0CF046EF2F
:1018F8000DF0010E0001DA6F7C8829C021F02AC0A2
:1019080022F02BC023F02CC024F0E3EC1BF029C0FC
:101918001CF02AC01DF02BC01EF02CC01FF040EC9C
:101928001BF0230E2E6EE70E2D6EF80EE82EFED756
:101938002D2EFCD72E2EFAD78096080E46EF0DF0E6
:1019480050BEB2EF0CF0505007E1020E4F5CD8B019
:10195800B0EF0CF0B2EF0CF0B6EF0CF04F4A502A93
:1019680046EF0DF029C021F02AC022F02BC023F049
:101978002CC024F0E3EC1BF0000E306E000E2F6E2E
:1019880030BED0EF0CF0305009E14C0E2F5CD8A0DF
:10199800D0EF0CF0D2EF0CF0D4EF0CF00FEF0DF00D
:1019A80029C01CF02AC01DF02BC01EF02CC01FF04F
:1019B80040EC1BF0030E2E6E700E2D6E5C0EE82EA2
:1019C800FED72D2EFCD72E2EFAD700D029C01CF01A
:1019D8002AC01DF02BC01EF02CC01FF010EC1DF00B
:1019E800050E2E6EDF0E2D6EBC0EE82EFED72D2EA8
:1019F800FCD72E2EFAD72F4A302A30BE0DEF0DF025
:101A0800305009E14C0E2F5CD8A00DEF0DF00FEF10
:101A18000DF0D4EF0CF029C01CF02AC01DF02BC02B
:101A28001EF02CC01FF040EC1BF0210E2E6E780E1D
:101A38002D6E980EE82EFED72D2EFCD72E2EFAD717
:101A480000D029C01CF02AC01DF02BC01EF02CC0ED
:101A58001FF010EC1DF0520E2E6E2B0E2D6E000E88
:101A6800E82EFED72D2EFCD72E2EFAD700D0010E49
:101A78000001DA6F5106D8A05206000E506E000E13
:101A88004F6E090E12000C50800B156E0C500C2472
:101A9800176E0BAE52EF0DF054EF0DF055EF0DF041
:101AA80017801750D8B45BEF0DF05DEF0DF072EFB3
:101AB8000DF01728D8A463EF0DF065EF0DF06DEF6A
:101AC8000DF0000E096E000E0A6E000E0B6E000E71
:101AD8000C6E0B8E000E0C6E7AEF0DF0000E096E78
:101AE800000E0A6E000E0B6E000E0C6E1050800B6E
:101AF800166E15501618D8B484EF0DF086EF0DF059
:101B080087EF0DF0158C10501024166E0FAE8FEF66
:101B18000DF091EF0DF092EF0DF016801650D8B43D
:101B280098EF0DF09AEF0DF0AFEF0DF01628D8A44E
:101B3800A0EF0DF0A2EF0DF0AAEF0DF0000E0D6E64
:101B4800000E0E6E000E0F6E000E106E0F8E000E41
:101B5800106EB7EF0DF0000E0D6E000E0E6E000E3B
:101B68000F6E000E106E1750165CD8B0BEEF0DF059
:101B7800C0EF0DF0E7EF0DF015ACC5EF0DF0C7EFB6
:101B88000DF0C9EF0DF0800E151A17C018F016C029
:101B980017F018C016F009C018F00DC009F018C0E9
:101BA8000DF00AC018F00EC00AF018C00EF00BC0F5
:101BB80018F00FC00BF018C00FF00CC018F010C0D0
:101BC8000CF018C010F0000E186E175016C011F067
:101BD800126A115E000E125A12BEFCEF0DF012507E
:101BE80009E11A0E115CD8A0FCEF0DF0FEEF0DF024
:101BF80035EF0EF009500A100B100C10D8A407EF9F
:101C08000EF00AEF0EF0010E0BEF0EF0000E186E3C
:101C1800000E096E000E0A6E000E0B6E000E0C6EA2
:101C280016C017F03EEF0EF018A01DEF0EF01FEFD4
:101C38000EF025EF0EF0D89018300109186E27EF36
:101C48000EF0D890183209A02CEF0EF02EEF0EF0FF
:101C58002FEF0EF0188E0C340C320B320A32093288
:101C6800172A1650175CD8A03CEF0EF03EEF0EF086
:101C780018EF0EF015BC43EF0EF045EF0EF085EFB0
:101C88000EF01750D8A44BEF0EF04DEF0EF057EFB3
:101C98000EF0000E096E000E0A6E000E0B6E000E9E
:101CA8000C6EA6EF0FF00D5009260E500A220F50A9
:101CB8000B2210500C220CA064EF0EF066EF0EF011
:101CC80012EF0FF018A06BEF0EF06DEF0EF073EF40
:101CD8000EF0D89018300109186E75EF0EF0D890F4
:101CE800183209A07AEF0EF07CEF0EF07DEF0EF0BF
:101CF800188E0C340C320B320A320932172A12EFC2
:101D08000FF00D50095C0E500A580F500B580C502C
:101D1800800A116E1050800A1158D8B096EF0EF054
:101D280098EF0EF0C3EF0EF009500D5C116E0A50DB
:101D38000E58126E0B500F58136E0C501058146E2C
:101D4800FF0E1124096EFF0E12200A6EFF0E1320DB
:101D58000B6EFF0E14200C6E800E151A186C18509E
:101D6800D8A4B9EF0EF0BBEF0EF0CBEF0EF0010EDA
:101D78000926000E0A220B220C22CBEF0EF00D5082
:101D8800095E0E500A5A0F500B5A10500C5A09503F
:101D98000A100B100C10D8A4D4EF0EF0D6EF0EF0EA
:101DA8000BEF0FF01850D8A4DCEF0EF0DEEF0EF0BA
:101DB8000BEF0FF0000E096E000E0A6E000E0B6E90
:101DC800000E0C6EA6EF0FF0D89009360A360B36C7
:101DD8000C3618AEF2EF0EF0F4EF0EF0F5EF0EF051
:101DE800098018A0FAEF0EF0FCEF0EF000EF0FF0EC
:101DF800D880183602EF0FF0D89018361750D8B49C
:101E080008EF0FF00AEF0FF00BEF0FF017060BAE0D
:101E180010EF0FF012EF0FF0E8EF0EF0000E166E55
:101E280018AE19EF0FF01BEF0FF033EF0FF018C0DB
:101E380011F07F0E1116D8B424EF0FF026EF0FF033
:101E48002AEF0FF0010E166E33EF0FF009A02FEFF7
:101E58000FF031EF0FF033EF0FF026EF0FF01650C1
:101E6800D8B439EF0FF03BEF0FF066EF0FF0010E2B
:101E78000926000E0A220B220C220CA046EF0FF0B6
:101E880048EF0FF066EF0FF009C011F00AC012F02A
:101E98000BC013F00CC014F0143414321332123285
:101EA800113211C009F012C00AF013C00BF014C0AF
:101EB8000CF01728D8B463EF0FF065EF0FF066EF5A
:101EC8000FF0172A1728D8B46CEF0FF06EEF0FF049
:101ED80076EF0FF01750D8A474EF0FF076EF0FF0ED
:101EE80088EF0FF0000E096E000E0A6E000E0B6EE2
:101EF800000E0C6E1750D8A484EF0FF086EF0FF089
:101F080088EF0FF0000E156E17A08DEF0FF08FEF12
:101F18000FF092EF0FF00B8E93EF0FF00B9ED8900F
:101F280017300C6E15AE9BEF0FF09DEF0FF09EEF84
:101F38000FF00C8E09C009F00AC00AF00BC00BF0B4
:101F48000CC00CF01200515027242D6E525028203E
:101F58002E6EFE0E2D24D96EFF0E2E20DA6EDE04B4
:101F6800D8A4B9EF0FF0BBEF0FF0DDEF0FF029C0E9
:101F780021F02AC022F02BC023F02CC024F0E3EC7F
:101F88001BF029C01CF02AC01DF02BC01EF02CC06D
:101F98001FF040EC1BF0120E2E6E740E2D6E7A0E92
:101FA800E82EFED72D2EFCD72E2EFAD700D07BEFA9
:101FB80011F0515027242D6E525028202E6EFE0EFF
:101FC8002D24D96EFF0E2E20DA6E020EDE18D8A44C
:101FD800F0EF0FF0F2EF0FF013EF10F029C021F03F
:101FE8002AC022F02BC023F02CC024F0E3EC1BF015
:101FF80029C01CF02AC01DF02BC01EF02CC01FF0F9
:1020080007EC1BF0130E2E6EAC0E2D6E2A0EE82E6A
:10201800FED72D2EFCD72E2EFAD77BEF11F051507C
:1020280027242D6E525028202E6EFE0E2D24D96E98
:10203800FF0E2E20DA6E030EDE18D8A426EF10F05D
:1020480028EF10F049EF10F029C021F02AC022F043
:102058002BC023F02CC024F0E3EC1BF029C01CF0AB
:102068002AC01DF02BC01EF02CC01FF007EC1BF07F
:10207800220E2E6EB00E2D6E480EE82EFED72D2E97
:10208800FCD72E2EFAD77BEF11F0515027242D6E56
:10209800525028202E6EFE0E2D24D96EFF0E2E20B3
:1020A800DA6E040EDE18D8A45CEF10F05EEF10F0C4
:1020B800ABEF10F029C021F02AC022F02BC023F08A
:1020C8002CC024F0E3EC1BF029C01CF02AC01DF042
:1020D8002BC01EF02CC01FF040EC1BF0120E2E6E11
:1020E800740E2D6E7A0EE82EFED72D2EFCD72E2ECE
:1020F800FAD700D029C01CF02AC01DF02BC01EF052
:102108002CC01FF010EC1DF0090E2E6E1E0E2D6E49
:10211800E40EE82EFED72D2EFCD72E2EFAD700D0AF
:1021280029C01CF02AC01DF02BC01EF02CC01FF0C7
:10213800B5EC19F0620E2E6E670E2D6ECE0EE82EDF
:10214800FED72D2EFCD72E2EFAD77BEF11F051504B
:1021580027242D6E525028202E6EFE0E2D24D96E67
:10216800FF0E2E20DA6E050EDE18D8A4BEEF10F092
:10217800C0EF10F019EF11F029C01CF02AC01DF0B3
:102188002BC01EF02CC01FF010EC1DF0090E2E6E97
:102198001E0E2D6EE40EE82EFED72D2EFCD72E2E09
:1021A800FAD700D029C01CF02AC01DF02BC01EF0A1
:1021B8002CC01FF007EC1BF0130E2E6EAC0E2D6E0C
:1021C8002A0EE82EFED72D2EFCD72E2EFAD729C0A0
:1021D8001CF02AC01DF02BC01EF02CC01FF010EC04
:1021E8001DF0090E2E6E1E0E2D6EE40EE82EFED783
:1021F8002D2EFCD72E2EFAD700D029C01CF02AC0CD
:102208001DF02BC01EF02CC01FF0B5EC19F0A30E6A
:102218002E6E570E2D6E020EE82EFED72D2EFCD7F1
:102228002E2EFAD700D07BEF11F0515027242D6EB7
:10223800525028202E6EFE0E2D24D96EFF0E2E2011
:10224800DA6E060EDE18D8A42CEF11F02EEF11F07E
:1022580050EF11F029C021F02AC022F02BC023F042
:102268002CC024F0E3EC1BF029C01CF02AC01DF0A0
:102278002BC01EF02CC01FF040EC1BF01D0E2E6E64
:10228800690E2D6EA50EE82EFED72D2EFCD72E2E0C
:10229800FAD700F07BEF11F0515027242D6E5250E1
:1022A80028202E6EFE0E2D24D96EFF0E2E20DA6EFB
:1022B800070EDE18D8A463EF11F065EF11F07BEF7D
:1022C80011F029C021F02AC022F02BC023F02CC025
:1022D80024F0E3EC1BF029C01CF02AC01DF02BC031
:1022E8001EF02CC01FF007EC1BF042EF11F012009B
:1022F8002550800B326E25502524396E24AE87EF89
:1023080011F089EF11F08AEF11F039803950D8B403
:1023180090EF11F092EF11F0A7EF11F03928D8A43F
:1023280098EF11F09AEF11F0A2EF11F0000E226E63
:10233800000E236E000E246E000E256E248E000EF5
:10234800256EAFEF11F0000E226E000E236E000E08
:10235800246E000E256E2950800B321A295029242C
:102368003A6E28AEBAEF11F0BCEF11F0BDEF11F0E4
:102378003A803A50D8B4C3EF11F0C5EF11F0DAEF54
:1023880011F03A28D8A4CBEF11F0CDEF11F0D5EF2A
:1023980011F0000E266E000E276E000E286E000E3D
:1023A800296E288E000E296EE2EF11F0000E266EBF
:1023B800000E276E000E286E000E296E265027107C
:1023C80028102910D8A4EBEF11F0EDEF11F005EF6C
:1023D80012F0000E226E000E236E000E246E000E08
:1023E800256E800E24127F0E25123250251222C02F
:1023F80022F023C023F024C024F025C025F048EFA4
:1024080013F03950D8A40BEF12F00DEF12F017EFBC
:1024180012F0000E226E000E236E000E246E000EC7
:10242800256E48EF13F03A5039C02AF02B6A2A5E1D
:10243800000E2B5A7F0E2A24336E000E2B20346E8A
:1024480022C02EF023C02FF024C030F025C031F078
:10245800000E226E000E236E000E246E000E256EF6
:10246800000E356E000E366E000E376E000E386E9A
:10247800000E3A6E78EF12F03A50D8B446EF12F0E8
:1024880048EF12F05FEF12F0D8902E362F36303624
:102498003136D890223623362436253638AE57EFD3
:1024A80012F059EF12F05AEF12F02280D890353618
:1024B80036363736383626502E5C27502F58285057
:1024C800305829503158D8A06CEF12F06EEF12F046
:1024D80077EF12F0388C26502E5E27502F5A28504E
:1024E800305A2950315A3A2A190E3A647EEF12F0BE
:1024F80080EF12F040EF12F02E502F1030103110F4
:10250800D8B489EF12F08BEF12F0A3EF12F03580F8
:10251800A3EF12F0D890223623362436253638AE6B
:1025280098EF12F09AEF12F09BEF12F02280D890F9
:1025380035363636373638363306D8A0340624AE24
:10254800A8EF12F0AAEF12F08EEF12F0000E3A6E1A
:1025580038AEB1EF12F0B3EF12F0D7EF12F0FF0E72
:1025680035142A6EFF0E36142B6EFF0E37142C6EA0
:102578007F0E38142D6E2A502B102C102D10D8B425
:10258800C8EF12F0CAEF12F0CEEF12F0010E3A6E59
:10259800D7EF12F022A0D3EF12F0D5EF12F0D7EF59
:1025A80012F0CAEF12F03A50D8B4DDEF12F0DFEFB4
:1025B80012F003EF13F0010E2226000E232224222C
:1025C800252225A0EAEF12F0ECEF12F003EF13F04A
:1025D80022C02AF023C02BF024C02CF025C02DF0F7
:1025E8002D342D322C322B322A322AC022F02BC025
:1025F80023F02CC024F02DC025F0334A342A34BEF1
:102608000EEF13F0345008E13328D8A00EEF13F082
:1026180010EF13F01BEF13F0000E346E3368000E4A
:10262800226E000E236E000E246E000E256E34BE40
:1026380028EF13F0345006E13304D8B026EF13F036
:1026480028EF13F036EF13F0000E346E000E336EE1
:10265800000E226E000E236E000E246E000E256EF4
:10266800000E326E33C039F039A03DEF13F03FEF62
:1026780013F042EF13F0248E43EF13F0249ED8900A
:102688003930256EF9EF11F0120001EC1EF0F6EC6E
:102698001CF0000E0A6EC80E096E8DEC1AF0A20E20
:1026A800096E000E0A6EAEEC1BF0AB0E096E000E42
:1026B8000A6E79EC1BF0A20E096E000E0A6EAB0EC4
:1026C8000B6E000E0C6E25EC1EF0849E7C9E889688
:1026D80080963EEC1EF0820E0001606F000E616F66
:1026E800A20E626F000E636FAB0E646F000E656F13
:1026F800D3EC14F0F6EC1DF0DCEC1DF0EAC00DF0A4
:10270800EBC00EF0D0C00FF0D1C010F057EC1DF0A8
:1027180008EC1EF0000E0001DA6F000E526E000E7B
:10272800516E000E506E000E4F6E000ED76F000EE9
:10273800D66F8890809086907E9084987C988496B6
:102748007C96A20E1C6E000E1D6EAB0E1E6E000E49
:102758001F6EB5EC19F00001D805D911D8A4B7EF50
:1027680013F0B9EF13F0A5EF13F0D7BFC5EF13F0CF
:10277800D75109E1020ED65DD8A0C5EF13F0C7EF17
:1027880013F0A5EF13F0A20E1C6E000E1D6EAB0E1B
:102798001E6E000E1F6E10EC1DF0520E0001816FB0
:1027A8002B0E806F000EE82EFED7802FFCD7812FCE
:1027B800FAD700F07C9E0001DA51D8A4E6EF13F0B6
:1027C800E8EF13F028EF14F08086A20E1C6E000EBE
:1027D8001D6EAB0E1E6E000E1F6E40EC19F0310E12
:1027E8000001816FB40E806F650EE82EFED7802F32
:1027F800FCD7812FFAD700D0820E226E000E236EEE
:102808002AEC1AF0820E3B6E000E3C6ED4EC16F0E9
:10281800820E276E000E286EA20E296E000E2A6EFA
:10282800AB0E2B6E000E2C6E0CEC07F00001806FC7
:10283800DB0E5124D96E000E5220DA6E80C0DFFF05
:10284800514A522AC9EF14F07C8EA20E1C6E000E5B
:102858001D6EAB0E1E6E000E1F6E40EC19F0310E91
:102868000001816FB40E806F650EE82EFED7802FB1
:10287800FCD7812FFAD700D0DB0E276E000E286E0A
:10288800A20E296E000E2A6EAB0E2B6E000E2C6E59
:10289800A7EC0FF05106D8A0520651045210D8A444
:1028A80058EF14F05AEF14F0C9EF14F0000E0001BD
:1028B800DA6F7C98A20E1C6E000E1D6EAB0E1E6E9B
:1028C800000E1F6EB5EC19F0290E0001816F960EEF
:1028D800806F7F0EE82EFED7802FFCD7812FFAD786
:1028E800A20E1C6E000E1D6EAB0E1E6E000E1F6E2D
:1028F80010EC1DF0290E0001816F960E806F7F0E7F
:10290800E82EFED7802FFCD7812FFAD7A20E1C6E97
:10291800000E1D6EAB0E1E6E000E1F6E40EC1BF0FF
:10292800230E0001816FE70E806FF70EE82EFED7A9
:10293800802FFCD7812FFAD700D080A0A6EF14F003
:10294800ABEF14F00001806B802BADEF14F00001A9
:10295800806B80508019FE0B8019806EA20E1C6E51
:10296800000E1D6EAB0E1E6E000E1F6E10EC1DF0DD
:10297800A30E0001816F570E806F020EE82EFED75E
:10298800802FFCD7812FFAD700F08096000E000127
:10299800D96F000ED86FA5EF13F01AEF00F0000EF4
:1029A80000017F6F000E7E6F8EB4DDEF14F0DFEF55
:1029B80014F05DEF15F0050E7E197F11D8B4E7EF1E
:1029C80014F0E9EF14F0F3EF14F062C01CF063C0E8
:1029D8001DF064C01EF065C01FF040EC19F0290E10
:1029E8003E6E960E3D6E7F0EE82EFED73D2EFCD72E
:1029F8003E2EFAD700F0808660C022F061C023F036
:102A08002AEC1AF060C03BF061C03CF0D4EC16F040
:102A1800290E3E6E960E3D6E7F0EE82EFED73D2E99
:102A2800FCD73E2EFAD700F08096000120EE1CF06D
:102A38006051D9266151DA22660E3D6E000E3E6E57
:102A4800D8907E35E16E7F35E26ED890E136E23679
:102A58003D50E1263E50E222DECFE6FFDECFE6FF24
:102A6800DECFE6FFDECFE6FF290E3E6E960E3D6E08
:102A78007F0EE82EFED73D2EFCD73E2EFAD700F06B
:102A880062C01CF063C01DF064C01EF065C01FF07A
:102A980010EC1DF0290E3E6E960E3D6E7F0EE82E50
:102AA800FED73D2EFCD73E2EFAD700F000017E4B14
:102AB8007F2B7FBF69EF15F07F5109E1060E7E5D20
:102AC800D8A069EF15F06BEF15F0D8EF14F066C0D9
:102AD80009F067C00AF068C00BF069C00CF0CD0EB1
:102AE8000D6ECC0E0E6ECC0E0F6EBE0E106E47EC39
:102AF8000DF009C047F00AC048F00BC049F00CC0FF
:102B08004AF06AC009F06BC00AF06CC00BF06DC0E7
:102B18000CF09A0E0D6E990E0E6E990E0F6E3E0EFB
:102B2800106E47EC0DF009C043F00AC044F00BC02A
:102B380045F00CC046F06EC009F06FC00AF070C0D6
:102B48000BF071C00CF09A0E0D6E990E0E6E990E68
:102B58000F6EBE0E106E47EC0DF009C03FF00AC0B4
:102B680040F00BC041F00CC042F072C009F073C0D5
:102B78000AF074C00BF075C00CF0CD0E0D6ECC0EC3
:102B88000E6ECC0E0F6E3E0E106E47EC0DF009C0A7
:102B9800CCF00AC0CDF00BC0CEF00CC0CFF076C0A0
:102BA80009F077C00AF078C00BF079C00CF0CD0EB0
:102BB8000D6ECC0E0E6E4C0E0F6EBE0E106E47ECE8
:102BC8000DF009C0C8F00AC0C9F00BC0CAF00CC0AB
:102BD800CBF0A30E3E6E570E3D6E020EE82EFED7CA
:102BE8003D2EFCD73E2EFAD700D012001C6E1C508A
:102BF800D8B401EF16F003EF16F025EF16F017BE64
:102C08000AEF16F008EF16F025EF16F014C018F0CA
:102C180015C019F016C01AF017C01BF0181E191E9F
:102C28001A1E1B1E182A000E19221A221B2218C04F
:102C38001EF019C01FF01AC020F01BC021F02DEFA4
:102C480016F014C01EF015C01FF016C020F017C0F3
:102C580021F01450151016101710D8A436EF16F0DE
:102C680038EF16F042EF16F0000E146E000E156ED7
:102C7800000E166E000E176ED3EF16F0960E1D6E30
:102C88004CEF16F01D2AD890213220321F321E3206
:102C9800000E1E14186E000E1F14196E000E20145C
:102CA8001A6EFE0E21141B6E185019101A101B10E4
:102CB800D8A461EF16F063EF16F046EF16F071EF47
:102CC80016F01D2A010E1E26000E1F222022212288
:102CD800D890213220321F321E32000E1E14186E78
:102CE800000E1F14196E000E20141A6EFF0E211408
:102CF8001B6E185019101A101B10D8A486EF16F066
:102D080088EF16F065EF16F090EF16F01D06D890D4
:102D18001E361F362036213620BE95EF16F097EF67
:102D280016F09FEF16F0020E1D609DEF16F09FEF54
:102D380016F08AEF16F01DB0A4EF16F0A6EF16F005
:102D4800A7EF16F0209ED8901D321DC018F0196A02
:102D58001A6A1B6A18C01BF01A6A196A186A18508E
:102D68001E1219501F121A5020121B5021121C50EB
:102D7800D8B4C1EF16F0C3EF16F0CBEF16F017BEBC
:102D8800CAEF16F0C8EF16F0CBEF16F0218E1EC072
:102D980014F01FC015F020C016F021C017F0120063
:102DA800090E4C6E510E4B6E20EE0CF03B50D9269E
:102DB8003C50DA22DECF22F0DECF23F0DECF24F043
:102DC800DECF25F03BC0D9FF3CC0DAFFDECF26F0CE
:102DD800DECF27F0DECF28F0DECF29F07CEC11F033
:102DE80020EE10F03B50D9263C50DA2222C0DEFFFC
:102DF80023C0DEFF24C0DEFF25C0DEFF20EE0CF07E
:102E08003B50D9263C50DA22DECF22F0DECF23F029
:102E1800DECF24F0DECF25F020EE04F03B50D9269B
:102E28003C50DA22DECF26F0DECF27F0DECF28F0C6
:102E3800DECF29F07CEC11F020EE14F03B50D926BF
:102E48003C50DA2222C0DEFF23C0DEFF24C0DEFFB2
:102E580025C0DEFF20EE0CF03B50D9263C50DA228C
:102E6800DECF22F0DECF23F0DECF24F0DECF25F058
:102E780020EE08F03B50D9263C50DA22DECF26F06F
:102E8800DECF27F0DECF28F0DECF29F07CEC11F082
:102E980020EE18F03B50D9263C50DA2222C0DEFF43
:102EA80023C0DEFF24C0DEFF25C0DEFF20EE0CF0CD
:102EB8003B50D9263C50DA22DECF22F0DECF23F079
:102EC800DECF24F0DECF25F0510E146E090E156EFC
:102ED800000E166E000E176E010EFAEC15F014C0F7
:102EE80026F015C027F016C028F017C029F07CEC92
:102EF80011F020EE1CF03B50D9263C50DA2222C0BB
:102F0800DEFF23C0DEFF24C0DEFF25C0DEFF120087
:102F180020EE02F01650D9261750DA22DF50D8B426
:102F280098EF17F09AEF17F0CEEF17F016C0D9FF09
:102F380017C0DAFFDF50186E1850096E0A6A20EEC3
:102F480003F01650D9261750DA22DECF0BF0DDCF6A
:102F58000CF0A9EC1DF009C00FF00AC010F0000E2B
:102F6800126E640E116ECDEC1AF020EE03F01650BE
:102F7800D9261750DA22DF50196E0F50195C1A6ED5
:102F880020EE03F01650D9261750DA22DF501B6EB8
:102F9800F1EF17F016C0D9FF17C0DAFFDF50186E2F
:102FA8001850096E0A6A20EE03F01650D9261750F9
:102FB800DA22DECF0BF0DDCF0CF0A9EC1DF009C052
:102FC8000FF00AC010F0000E126E640E116ECDECF8
:102FD8001AF00F501A6E000E1B6E20EE01F01650FC
:102FE800D9261750DA22DF50D8B4FDEF17F0FFEFDB
:102FF80017F021EF18F020EE05F01650D9261750DB
:10300800DA22DECF18F0DDCF19F018C0D9FF19C0C9
:10301800DAFF1AC0DFFF20EE07F01650D926175046
:10302800DA22DECF18F0DDCF19F018C0D9FF19C0A9
:10303800DAFF1BC0DFFF41EF18F020EE05F0165055
:10304800D9261750DA22DECF18F0DDCF19F018C0D4
:10305800D9FF19C0DAFF1BC0DFFF20EE07F01650BA
:10306800D9261750DA22DECF18F0DDCF19F018C0B4
:10307800D9FF19C0DAFF1AC0DFFF1200000E0914C9
:10308800116E000E0A14126E800E0B14136E7F0E52
:103098000C14146E1150121013101410D8A457EFFA
:1030A80018F059EF18F061EF18F0000E096E000ED5
:1030B8000A6E000E0B6E000E0C6E000E0D14116ED3
:1030C800000E0E14126E800E0F14136E7F0E101465
:1030D800146E1150121013101410D8A476EF18F0B3
:1030E80078EF18F080EF18F0000E0D6E000E0E6EDF
:1030F800000E0F6E000E106E0CAE85EF18F087EF05
:1031080018F090EF18F0096C0A1ED8B00A2A0B1EA6
:10311800D8B00B2A800E0C5610AE95EF18F097EF2A
:1031280018F0A0EF18F00D6C0E1ED8B00E2A0F1E66
:10313800D8B00F2A800E1056000E091A000E0A1A6F
:10314800000E0B1A800E0C1A000E0D1A000E0E1A25
:10315800000E0F1A800E101A0D50095C0E500A58F6
:103168000F500B5810500C58D8B0BDEF18F0BFEFE7
:1031780018F0C2EF18F0D890C3EF18F0D8801200FA
:103188001CC0D9FF1DC0DAFF050EDF6E1EC0D9FFB7
:103198001FC0DAFF050EDF6E20EE01F01E50D926A3
:1031A8001F50DA22000EDF6E20EE01F01C50D926E7
:1031B8001D50DA22000EDF6E20EE02F01C50D926D8
:1031C8001D50DA22010EDF6E20EE02F01E50D926C5
:1031D8001F50DA22010EDF6E0FEF19F01CC0D9FF65
:1031E8001DC0DAFFDF2A1EC0D9FF1FC0DAFFDF2AA1
:1031F800D00E206ECA0EE82EFED7202EFCD71CC09B
:1032080016F01DC017F08CEC17F01EC016F01FC08A
:1032180017F08CEC17F01CC0D9FF1DC0DAFF150E93
:10322800DF6019EF19F01BEF19F027EF19F01EC036
:10323800D9FF1FC0DAFF140EDF6425EF19F027EF5E
:1032480019F0F2EF18F01CC0D9FF1DC0DAFF140EF8
:10325800DF6E1EC0D9FF1FC0DAFF140EDF6E1CC060
:1032680016F01DC017F08CEC17F01EC016F01FC02A
:1032780017F08CEC17F012001CC0D9FF1DC0DAFF44
:10328800320EDF6E1EC0D9FF1FC0DAFF320EDF6EAE
:1032980020EE01F01E50D9261F50DA22010EDF6EF3
:1032A80020EE01F01C50D9261D50DA22010EDF6EE7
:1032B80020EE02F01C50D9261D50DA22010EDF6ED6
:1032C80020EE02F01E50D9261F50DA22010EDF6EC2
:1032D80084EF19F01CC0D9FF1DC0DAFFDF2A1EC019
:1032E800D9FF1FC0DAFFDF2A1CC016F01DC017F077
:1032F8008CEC17F01EC016F01FC017F08CEC17F0FE
:103308001CC0D9FF1DC0DAFF560EDF608EEF19F022
:1033180090EF19F09CEF19F01EC0D9FF1FC0DAFF1B
:10332800550EDF649AEF19F09CEF19F06EEF19F063
:103338001CC0D9FF1DC0DAFF550EDF6E1EC0D9FFB5
:103348001FC0DAFF550EDF6E1CC016F01DC017F047
:103358008CEC17F01EC016F01FC017F08CEC17F09D
:1033680012001CC0D9FF1DC0DAFF050EDF6E1EC09B
:10337800D9FF1FC0DAFF050EDF6E20EE01F01E50E8
:10338800D9261F50DA22010EDF6E20EE01F01C5004
:10339800D9261D50DA22010EDF6E20EE02F01C50F5
:1033A800D9261D50DA22010EDF6E20EE02F01E50E3
:1033B800D9261F50DA22010EDF6EF9EF19F01CC072
:1033C800D9FF1DC0DAFFDF2A1EC0D9FF1FC0DAFFF0
:1033D800DF2A1CC016F01DC017F08CEC17F01EC0B9
:1033E80016F01FC017F08CEC17F01CC0D9FF1DC0D9
:1033F800DAFF330EDF6003EF1AF005EF1AF011EF72
:103408001AF01EC0D9FF1FC0DAFF320EDF640FEFBB
:103418001AF011EF1AF0E3EF19F01CC0D9FF1DC024
:10342800DAFF320EDF6E1EC0D9FF1FC0DAFF320E80
:10343800DF6E1CC016F01DC017F08CEC17F01EC014
:1034480016F01FC017F08CEC17F012000EEC1CF0F1
:103458000DC014F00EC015F0166A176A000EFAECCB
:1034680015F022C0D9FF23C0DAFF14C0DEFF15C053
:10347800DEFF16C0DEFF17C0DEFF86EC1CF00DC0B5
:1034880014F00EC015F0166A176A000EFAEC15F063
:1034980020EE08F02250D9262350DA2214C0DEFF8D
:1034A80015C0DEFF16C0DEFF17C0DEFF36EC1CF0CD
:1034B8000DC014F00EC015F0166A176A000EFAEC6B
:1034C80015F020EE04F02250D9262350DA2214C039
:1034D800DEFF15C0DEFF16C0DEFF17C0DEFF5EECA4
:1034E8001CF00DC014F00EC015F0166A176A000E15
:1034F800FAEC15F020EE0CF02250D9262350DA22EF
:1035080014C0DEFF15C0DEFF16C0DEFF17C0DEFFE9
:103518001200050E0E01746F060E766F070E696FA6
:10352800080E886FBD508F0B3009BD6EE00EBE16B9
:10353800BF50F00B0109BF6EC80EBC6EBD8E000EE9
:10354800AA6E000EA66E000E0F01256F000E216FE9
:10355800FC0EAD16F30EAD16CF0EAD163F0EAD1622
:10356800AB88AB50F00B0C09AB6EAB8EA788A7509D
:10357800F00B0C09A76EA78E26892651F00B0C09B3
:10358800266F268F22892251F00B0C09226F228F79
:103598001200000E146E000E136E11501210D8B4E3
:1035A800D8EF1AF0DAEF1AF002EF1BF0010E156EE1
:1035B800E2EF1AF0D89011361236152A12AEE7EF5C
:1035C8001AF0E9EF1AF0DEEF1AF0D8901336143635
:1035D80011500F5C12501058D8A0F5EF1AF0F7EF01
:1035E8001AF0FCEF1AF011500F5E1250105A1380A7
:1035F800D89012321132152EE9EF1AF013C00FF0DD
:1036080014C010F012001CC0D9FF1DC0DAFF3C0E18
:10361800DF6E1EC0D9FF1FC0DAFF3C0EDF6E20EE42
:1036280002F01C50D9261D50DA22010EDF6E20EE62
:1036380002F01E50D9261F50DA22010EDF6E20EE4E
:1036480001F01E50D9261F50DA22000EDF6E20EE40
:1036580001F01C50D9261D50DA22010EDF6E1CC065
:1036680016F01DC017F08CEC17F01EC016F01FC026
:1036780017F08CEC17F012001CC0D9FF1DC0DAFF40
:103688003C0EDF6E1EC0D9FF1FC0DAFF3C0EDF6E96
:1036980020EE02F01C50D9261D50DA22010EDF6EF2
:1036A80020EE02F01E50D9261F50DA22010EDF6EDE
:1036B80020EE01F01C50D9261D50DA22000EDF6ED4
:1036C80020EE01F01E50D9261F50DA22010EDF6EBF
:1036D8001CC016F01DC017F08CEC17F01EC016F0B9
:1036E8001FC017F08CEC17F0120009C0D9FF0AC0F0
:1036F800DAFF320EDF6E20EE01F00950D9260A50AB
:10370800DA22010EDF6E20EE02F00950D9260A50A7
:10371800DA22010EDF6E20EE05F00950D9260A5094
:10372800DA22250EDE6E0F0EDD6E20EE07F0095050
:10373800D9260A50DA22210EDE6E0F0EDD6E20EE3B
:1037480003F00950D9260A50DA22C80EDE6E000EA0
:10375800DD6E120009C0D9FF0AC0DAFF320EDF6E33
:1037680020EE01F00950D9260A50DA22010EDF6E48
:1037780020EE02F00950D9260A50DA22010EDF6E37
:1037880020EE05F00950D9260A50DA22AA0EDE6E7C
:103798000F0EDD6E20EE07F00950D9260A50DA2206
:1037A800A60EDE6E0F0EDD6E20EE03F00950D92650
:1037B8000A50DA22C80EDE6E000EDD6E120021C03D
:1037C8001CF022C01DF023C01EF024C01FF0C4EC62
:1037D80018F0310E266EB40E256E660EE82EFED752
:1037E800252EFCD7262EFAD721C01CF022C01DF0AA
:1037F80023C01EF024C01FF010EC1DF0190E266E19
:103808005A0E256EB20EE82EFED7252EFCD7262E90
:10381800FAD712002FEC1EF0520E0EEC1EF0B60E68
:103828000EEC1EF020EC1EF0530E0EEC1EF0010EF6
:10383800D5EC1CF00F6E0F50126E136A000ED5EC0B
:103848001CF00F6E0F50116E106A12501010126E8D
:1038580013501110136E2AEC1EF012C00DF013C095
:103868000EF012002FEC1EF0520E0EEC1EF0B80EE9
:103878000EEC1EF020EC1EF0530E0EEC1EF0010EA6
:10388800D5EC1CF00F6E0F50126E136A000ED5ECBB
:103898001CF00F6E0F50116E106A12501010126E3D
:1038A80013501110136E2AEC1EF012C00DF013C045
:1038B8000EF012002FEC1EF0520E0EEC1EF0B40E9D
:1038C8000EEC1EF020EC1EF0530E0EEC1EF0010E56
:1038D800D5EC1CF00F6E0F50126E136A000ED5EC6B
:1038E8001CF00F6E0F50116E106A12501010126EED
:1038F80013501110136E2AEC1EF012C00DF013C0F5
:103908000EF012002FEC1EF0520E0EEC1EF0BA0E46
:103918000EEC1EF020EC1EF0530E0EEC1EF0010E05
:10392800D5EC1CF00F6E0F50126E136A000ED5EC1A
:103938001CF00F6E0F50116E106A12501010126E9C
:1039480013501110136E2AEC1EF012C00DF013C0A4
:103958000EF01200960EF66E3C0EF76E000EF86E24
:103968000900F5CFEAF00900F5CFEBF001EE00F021
:103978003C0EEE6AE806FDE100EEB4F0360EEE6AA3
:10398800E806FDE100EE3FF0180EEE6AE806FDE1FC
:1039980057905792000EF86E0E0EF76E000149EF21
:1039A80013F00B6E81EC1DF00E01DA8781EC1DF02F
:1039B800D5CE0CF081EC1DF00B50D8B4E6EF1CF01E
:1039C800EAEF1CF00A6A0A2AEBEF1CF00A6A0A3AC4
:1039D8000A460E01DA510A18DF0B0A18DA6FDA897B
:1039E8000C50120042EC1DF0010E0B6E000EBCECE8
:1039F8001DF03F0E0D6E550EE82EFED70D2EFCD78E
:103A080000F0030E0B6E000EBCEC1DF0D50E0B6E15
:103A1800010EBCEC1DF012001CC0D9FF1DC0DAFF5E
:103A2800000EDF6E1EC0D9FF1FC0DAFF000EDF6E6A
:103A38001CC016F01DC017F08CEC17F01EC016F055
:103A48001FC017F08CEC17F0120039EC1EF0520E64
:103A58001AEC1EF0E60E1AEC1EF034EC1EF0E9EC3F
:103A68001DF014EC1EF0EAC005F0EBC006F0D0C063
:103A780007F0D1C008F06CEC1DF012000E01D9510E
:103A8800F00B0809D96FD98B9F0ED66F848A848C66
:103A9800A79BA79D1D0E1D6F1E0E1C6F1C0E6F6F22
:103AA8001B0E706F12000FC00BF0040EBCEC1DF063
:103AB80010500B6E050EBCEC1DF00DC00BF0060E81
:103AC800BCEC1DF00E500B6E070EBCEC1DF0120086
:103AD80007C003F0040ECCEC1DF00850036E050E71
:103AE800CCEC1DF005C003F0060ECCEC1DF0065022
:103AF800036E070ECCEC1DF012000E01D8B587EF4F
:103B08001DF089EF1DF081EF1DF0DACE09F01F0ED0
:103B18000916D8A492EF1DF094EF1DF081EF1DF067
:103B280012000E01D8B59BEF1DF09DEF1DF095EF2B
:103B38001DF0DACE01F01F0E0116D8A4A6EF1DF075
:103B4800A8EF1DF095EF1DF0120009500B02F3CFFE
:103B58000DF0F4CF0EF009500C02F3500E260A5067
:103B68000B02F3500E260DC009F00EC00AF0120029
:103B78000C6E2FEC1EF0520E0EEC1EF00C5080094D
:103B88000EEC1EF00B500EEC1EF02AEC1EF012008C
:103B9800046E39EC1EF0520E1AEC1EF00450800927
:103BA8001AEC1EF003501AEC1EF034EC1EF0120052
:103BB800130E0B6E000EBCEC1DF0D00E0D6ECA0E6F
:103BC800E82EFED70D2EFCD71200130E036E000E42
:103BD800CCEC1DF0D00E056ECA0EE82EFED7052ED1
:103BE800FCD7120082800E019A91339129811F819E
:103BF800F290F28AF28CF28E120042EC1EF045EC42
:103C08001EF048EC1EF01200020E0B6E0C0EBCECFF
:103C18001DF012000A6E81EC1DF00AC0D5FE1200DC
:103C2800020E036E0C0ECCEC1DF01200026E95EC29
:103C38001DF002C0D5FE120081EC1DF00E01DA83E2
:103C4800120085948598839E879C120081EC1DF054
:103C58000E01DA85120081EC1DF00E01DA811200E6
:103C680095EC1DF00E01DA85120095EC1DF00E01A1
:103C7800DA81120086840E01B495120087907F8045
:103C88001200859E7D8E1200819679861200D007DB
:020000040020DA
:10000000FF0FFF0FFF0FFF0FFF0FFF0FFF0FFF0F80
:020000040030CA
:0C000000AAFFFFFF9FFFFFFFFFFFFFFFB5
:00000001FF
