:040000001AEF00F003
:1000080057820E0133A10BEF00F00DEF00F018EF4F
:1000180000F0000E0001D96F010ED86FD64BD72B18
:100028003DEC1DF00E01339157921100C2EF1CF008
:100E000000524742433A2566202566202566202564
:070E1000662025660A0000C0
:100E180020EE1CF02750D9262850DA22DECF09F020
:100E2800DECF0AF0DECF0BF0DECF0CF043C00DF0C2
:100E380044C00EF045C00FF046C010F056EC18F054
:100E4800D8B029EF07F02BEF07F01FEF0AF03FC0EB
:100E580009F040C00AF041C00BF042C00CF020EE8F
:100E68001CF02750D9262850DA22DECF0DF0DECF2D
:100E78000EF0DECF0FF0DECF10F056EC18F0D8B041
:100E880048EF07F04AEF07F01FEF0AF020EE18F0DE
:100E98002750D9262850DA22DECF09F0DECF0AF013
:100EA800DECF0BF0DECF0CF0000E0D6E000E0E6ED6
:100EB800A00E0F6E400E106E56EC18F0D8B067EF0B
:100EC80007F069EF07F02AEF08F09A0E096E990EFD
:100ED8000A6ED90E0B6E3F0E0C6E20EE10F02750E6
:100EE800D9262850DA22DECF0DF0DECF0EF0DECF85
:100EF8000FF0DECF10F056EC18F0D8B086EF07F000
:100F080088EF07F02AEF08F020EE10F02750D926D6
:100F18002850DA22DECF09F0DECF0AF0DECF0BF060
:100F2800DECF0CF0CD0E0D6ECC0E0E6E0C0E0F6ECD
:100F3800400E106E56EC18F0D8B0A5EF07F0A7EFEA
:100F480007F02AEF08F0000E096E000E0A6E400E38
:100F58000B6E400E0C6E20EE14F02750D926285048
:100F6800DA22DECF0DF0DECF0EF0DECF0FF0DECFCF
:100F780010F056EC18F0D8B0C4EF07F0C6EF07F041
:100F88002AEF08F020EE14F02750D9262850DA224C
:100F9800DECF09F0DECF0AF0DECF0BF0DECF0CF0AB
:100FA800000E0D6E000E0E6E600E0F6E400E106E6F
:100FB80056EC18F0D8B0E3EF07F0E5EF07F02AEFAA
:100FC80008F029C01CF02AC01DF02BC01EF02CC050
:100FD8001FF0D8EC18F0F40E2E6E820E2D6E050E52
:100FE800E82EFED72D2EFCD72E2EFAD700F029C0DA
:100FF8001CF02AC01DF02BC01EF02CC01FF024ECE2
:101008001DF0090E2E6E1E0E2D6EE40EE82EFED774
:101018002D2EFCD72E2EFAD700D029C01CF02AC0BE
:101028001DF02BC01EF02CC01FF054EC1BF0120E4C
:101038002E6E0C0E2D6E950EE82EFED72D2EFCD79B
:101048002E2EFAD700F0050E4AEF0DF0000E096EAD
:10105800000E0A6EB00E0B6E400E0C6E20EE18F0ED
:101068002750D9262850DA22DECF0DF0DECF0EF039
:10107800DECF0FF0DECF10F056EC18F0D8B047EF07
:1010880008F049EF08F01DEF09F020EE18F027509E
:10109800D9262850DA22DECF09F0DECF0AF0DECFDB
:1010A8000BF0DECF0CF0000E0D6E000E0E6EC00EB3
:1010B8000F6E400E106E56EC18F0D8B066EF08F0C0
:1010C80068EF08F01DEF09F0330E096E330E0A6E53
:1010D800B30E0B6E3F0E0C6E20EE10F02750D92683
:1010E8002850DA22DECF0DF0DECF0EF0DECF0FF083
:1010F800DECF10F056EC18F0D8B085EF08F087EF87
:1011080008F01DEF09F020EE10F02750D9262850DE
:10111800DA22DECF09F0DECF0AF0DECF0BF0DECF29
:101128000CF09A0E0D6E990E0E6ED90E0F6E3F0EC4
:10113800106E56EC18F0D8B0A4EF08F0A6EF08F03F
:101148001DEF09F0330E096E330E0A6E830E0B6E17
:10115800400E0C6E20EE14F02750D9262850DA22C3
:10116800DECF0DF0DECF0EF0DECF0FF0DECF10F0C9
:1011780056EC18F0D8B0C3EF08F0C5EF08F01DEF33
:1011880009F020EE14F02750D9262850DA22DECFB5
:1011980009F0DECF0AF0DECF0BF0DECF0CF0000E48
:1011A8000D6E000E0E6E900E0F6E400E106E56EC09
:1011B80018F0D8B0E2EF08F0E4EF08F01DEF09F0FE
:1011C80029C021F02AC022F02BC023F02CC024F023
:1011D800F7EC1BF029C01CF02AC01DF02BC01EF034
:1011E8002CC01FF01BEC1BF01B0E2E6E620E2D6E1A
:1011F8002B0EE82EFED72D2EFCD72E2EFAD700F078
:1012080029C01CF02AC01DF02BC01EF02CC01FF0F6
:1012180024EC1DF0520E2E6E2B0E2D6E000EE82EB5
:10122800FED72D2EFCD72E2EFAD700D0060E4AEF69
:101238000DF0330E096E330E0A6E530E0B6E400E10
:101248000C6E20EE18F02750D9262850DA22DECF6F
:101258000DF0DECF0EF0DECF0FF0DECF10F056EC43
:1012680018F0D8B03AEF09F03CEF09F01FEF0AF098
:1012780020EE18F02750D9262850DA22DECF09F0C0
:10128800DECF0AF0DECF0BF0DECF0CF09A0E0D6E3B
:10129800990E0E6E790E0F6E400E106E56EC18F009
:1012A800D8B059EF09F05BEF09F01FEF0AF0CD0E47
:1012B800096ECC0E0A6E2C0E0B6E400E0C6E20EED4
:1012C80010F02750D9262850DA22DECF0DF0DECFD5
:1012D8000EF0DECF0FF0DECF10F056EC18F0D8B0DD
:1012E80078EF09F07AEF09F01FEF0AF020EE10F01E
:1012F8002750D9262850DA22DECF09F0DECF0AF0AF
:10130800DECF0BF0DECF0CF0CD0E0D6ECC0E0E6ED8
:101318004C0E0F6E400E106E56EC18F0D8B097EFCA
:1013280009F099EF09F01FEF0AF0000E096E000EA0
:101338000A6E200E0B6E400E0C6E20EE14F0275035
:10134800D9262850DA22DECF0DF0DECF0EF0DECF20
:101358000FF0DECF10F056EC18F0D8B0B6EF09F069
:10136800B8EF09F01FEF0AF020EE14F02750D92645
:101378002850DA22DECF09F0DECF0AF0DECF0BF0FC
:10138800DECF0CF09A0E0D6E990E0E6E390E0F6EA2
:10139800400E106E56EC18F0D8B0D5EF09F0D7EF24
:1013A80009F01FEF0AF07EA0DCEF09F0E0EF09F08A
:1013B8002D6A2D2AE1EF09F02D6A7E502D18FE0BBB
:1013C8002D187E6E29C021F02AC022F02BC023F0F0
:1013D8002CC024F0F7EC1BF029C01CF02AC01DF02B
:1013E8002BC01EF02CC01FF054EC1BF01B0E2E6EF1
:1013F800CA0E2D6E100EE82EFED72D2EFCD72E2EDF
:10140800FAD700D029C01CF02AC01DF02BC01EF04E
:101418002CC01FF024EC1DF0520E2E6E2B0E2D6EDC
:10142800000EE82EFED72D2EFCD72E2EFAD700D090
:10143800070E4AEF0DF020EE1CF02750D926285051
:10144800DA22DECF09F0DECF0AF0DECF0BF0DECFF6
:101458000CF0CCC00DF0CDC00EF0CEC00FF0CFC058
:1014680010F056EC18F0D8B03CEF0AF03EEF0AF056
:10147800DDEF0BF0C8C009F0C9C00AF0CAC00BF014
:10148800CBC00CF020EE1CF02750D9262850DA22C9
:10149800DECF0DF0DECF0EF0DECF0FF0DECF10F096
:1014A80056EC18F0D8B05BEF0AF05DEF0AF0DDEF0C
:1014B8000BF0000E096E000E0A6E000E0B6E410E48
:1014C8000C6E20EE14F02750D9262850DA22DECFF1
:1014D8000DF0DECF0EF0DECF0FF0DECF10F056ECC1
:1014E80018F0D8B07AEF0AF07CEF0AF09FEF0AF014
:1014F80029C021F02AC022F02BC023F02CC024F0F0
:10150800F7EC1BF029C01CF02AC01DF02BC01EF000
:101518002CC01FF01BEC1BF0130E2E6E440E2D6E0C
:10152800440EE82EFED72D2EFCD72E2EFAD700D04B
:10153800010E4AEF0DF0000E096E000E0A6E900EB5
:101548000B6E400E0C6E20EE18F02750D92628504E
:10155800DA22DECF0DF0DECF0EF0DECF0FF0DECFD9
:1015680010F056EC18F0D8B0BCEF0AF0BEEF0AF055
:1015780000EF0BF020EE18F02750D9262850DA2279
:10158800DECF09F0DECF0AF0DECF0BF0DECF0CF0B5
:10159800000E0D6E000E0E6EB00E0F6E400E106E29
:1015A80056EC18F0D8B0DBEF0AF0DDEF0AF000EFE8
:1015B8000BF029C021F02AC022F02BC023F02CC048
:1015C80024F0F7EC1BF029C01CF02AC01DF02BC03A
:1015D8001EF02CC01FF054EC1BF0120E2E6E0C0ED9
:1015E8002D6E950EE82EFED72D2EFCD72E2EFAD76F
:1015F80000F0020E4AEF0DF0CD0E096ECC0E0A6E09
:101608002C0E0B6E400E0C6E20EE18F02750D926CB
:101618002850DA22DECF0DF0DECF0EF0DECF0FF04D
:10162800DECF10F056EC18F0D8B01DEF0BF01FEF1E
:101638000BF0DDEF0BF020EE18F02750D9262850DC
:10164800DA22DECF09F0DECF0AF0DECF0BF0DECFF4
:101658000CF0330E0D6E330E0E6E530E0F6E400EE1
:10166800106E56EC18F0D8B03CEF0BF03EEF0BF0D4
:10167800DDEF0BF0CD0E096ECC0E0A6E2C0E0B6E44
:10168800400E0C6E20EE10F02750D9262850DA2292
:10169800DECF0DF0DECF0EF0DECF0FF0DECF10F094
:1016A80056EC18F0D8B05BEF0BF05DEF0BF0DDEF08
:1016B8000BF020EE10F02750D9262850DA22DECF82
:1016C80009F0DECF0AF0DECF0BF0DECF0CF0330EE0
:1016D8000D6E330E0E6E530E0F6E400E106E56ECDE
:1016E80018F0D8B07AEF0BF07CEF0BF0DDEF0BF0D1
:1016F800CD0E096ECC0E0A6E2C0E0B6E400E0C6EC3
:1017080020EE14F02750D9262850DA22DECF0DF02B
:10171800DECF0EF0DECF0FF0DECF10F056EC18F073
:10172800D8B099EF0BF09BEF0BF0DDEF0BF020EE4C
:1017380014F02750D9262850DA22DECF09F0DECF60
:101748000AF0DECF0BF0DECF0CF0330E0D6E330E49
:101758000E6E530E0F6E400E106E56EC18F0D8B089
:10176800B8EF0BF0BAEF0BF0DDEF0BF029C021F06A
:101778002AC022F02BC023F02CC024F0F7EC1BF079
:1017880029C01CF02AC01DF02BC01EF02CC01FF071
:1017980054EC1BF0200E2E6E400E2D6EE90EE82E36
:1017A800FED72D2EFCD72E2EFAD700F0030E4AEFC7
:1017B8000DF047C009F048C00AF049C00BF04AC014
:1017C8000CF020EE1CF02750D9262850DA22DECF64
:1017D8000DF0DECF0EF0DECF0FF0DECF10F056ECBE
:1017E80018F0D8B0FAEF0BF0FCEF0BF0A8EF0CF004
:1017F800000E096E000E0A6EA00E0B6E400E0C6EE7
:1018080020EE18F02750D9262850DA22DECF0DF026
:10181800DECF0EF0DECF0FF0DECF10F056EC18F072
:10182800D8B019EF0CF01BEF0CF060EF0CF029C0EA
:101838001CF02AC01DF02BC01EF02CC01FF0D8ECE5
:1018480018F0F40E2E6E820E2D6E050EE82EFED7C1
:101858002D2EFCD72E2EFAD700F029C01CF02AC056
:101868001DF02BC01EF02CC01FF024EC1DF0090E3B
:101878002E6E1E0E2D6EE40EE82EFED72D2EFCD7F2
:101888002E2EFAD700D029C01CF02AC01DF02BC07C
:101898001EF02CC01FF01BEC1BF0110E2E6EA40EB8
:1018A8002D6EB00EE82EFED72D2EFCD72E2EFAD791
:1018B80000D0040E4AEF0DF020EE18F02750D9267C
:1018C8002850DA22DECF09F0DECF0AF0DECF0BF0A7
:1018D800DECF0CF0000E0D6E000E0E6EA00E0F6E19
:1018E800400E106E56EC18F0D8B07DEF0CF07FEF7C
:1018F8000CF04AEF0DF0010E0001DA6F7C8829C068
:1019080021F02AC022F02BC023F02CC024F0F7ECE1
:101918001BF029C01CF02AC01DF02BC01EF02CC0E3
:101928001FF054EC1BF0200E2E6E400E2D6EE90EAB
:10193800E82EFED72D2EFCD72E2EFAD700F0809653
:101948007C8E080E4AEF0DF050BEB6EF0CF05050EA
:1019580007E1020E4F5CD8B0B4EF0CF0B6EF0CF014
:10196800BAEF0CF04F4A502A4AEF0DF029C021F087
:101978002AC022F02BC023F02CC024F0F7EC1BF077
:10198800000E306E000E2F6E30BED4EF0CF03050CB
:1019980009E14C0E2F5CD8A0D4EF0CF0D6EF0CF078
:1019A800D8EF0CF013EF0DF029C01CF02AC01DF081
:1019B8002BC01EF02CC01FF054EC1BF0030E2E6E33
:1019C800700E2D6E5C0EE82EFED72D2EFCD72E2E17
:1019D800FAD700D029C01CF02AC01DF02BC01EF079
:1019E8002CC01FF024EC1DF0050E2E6EDF0E2D6EA0
:1019F800BC0EE82EFED72D2EFCD72E2EFAD72F4A56
:101A0800302A30BE11EF0DF0305009E14C0E2F5C3A
:101A1800D8A011EF0DF013EF0DF0D8EF0CF029C09E
:101A28001CF02AC01DF02BC01EF02CC01FF054EC77
:101A38001BF0200E2E6E400E2D6EE90EE82EFED7FE
:101A48002D2EFCD72E2EFAD700F029C01CF02AC064
:101A58001DF02BC01EF02CC01FF024EC1DF0520E00
:101A68002E6E2B0E2D6E000EE82EFED72D2EFCD7D7
:101A78002E2EFAD700D0010E0001DA6F5106D8A039
:101A88005206000E506E000E4F6E090E12000C50DA
:101A9800800B156E0C500C24176E0BAE56EF0DF024
:101AA80058EF0DF059EF0DF017801750D8B45FEFCD
:101AB8000DF061EF0DF076EF0DF01728D8A467EF61
:101AC8000DF069EF0DF071EF0DF0000E096E000ECC
:101AD8000A6E000E0B6E000E0C6E0B8E000E0C6E56
:101AE8007EEF0DF0000E096E000E0A6E000E0B6EF2
:101AF800000E0C6E1050800B166E15501618D8B4C8
:101B080088EF0DF08AEF0DF08BEF0DF0158C10506B
:101B18001024166E0FAE93EF0DF095EF0DF096EFC3
:101B28000DF016801650D8B49CEF0DF09EEF0DF016
:101B3800B3EF0DF01628D8A4A4EF0DF0A6EF0DF022
:101B4800AEEF0DF0000E0D6E000E0E6E000E0F6E55
:101B5800000E106E0F8E000E106EBBEF0DF0000E13
:101B68000D6E000E0E6E000E0F6E000E106E1750EA
:101B7800165CD8B0C2EF0DF0C4EF0DF0EBEF0DF02E
:101B880015ACC9EF0DF0CBEF0DF0CDEF0DF0800ED9
:101B9800151A17C018F016C017F018C016F009C0AB
:101BA80018F00DC009F018C00DF00AC018F00EC0EA
:101BB8000AF018C00EF00BC018F00FC00BF018C0D8
:101BC8000FF00CC018F010C00CF018C010F0000E88
:101BD800186E175016C011F0126A115E000E125AD4
:101BE80012BE00EF0EF0125009E11A0E115CD8A0D7
:101BF80000EF0EF002EF0EF039EF0EF009500A1068
:101C08000B100C10D8A40BEF0EF00EEF0EF0010E17
:101C18000FEF0EF0000E186E000E096E000E0A6E21
:101C2800000E0B6E000E0C6E16C017F042EF0EF091
:101C380018A021EF0EF023EF0EF029EF0EF0D89048
:101C480018300109186E2BEF0EF0D890183209A041
:101C580030EF0EF032EF0EF033EF0EF0188E0C343A
:101C68000C320B320A320932172A1650175CD8A0E8
:101C780040EF0EF042EF0EF01CEF0EF015BC47EFF0
:101C88000EF049EF0EF089EF0EF01750D8A44FEF81
:101C98000EF051EF0EF05BEF0EF0000E096E000E25
:101CA8000A6E000E0B6E000E0C6EAAEF0FF00D50B0
:101CB80009260E500A220F500B2210500C220CA09D
:101CC80068EF0EF06AEF0EF016EF0FF018A06FEF46
:101CD8000EF071EF0EF077EF0EF0D8901830010982
:101CE800186E79EF0EF0D890183209A07EEF0EF03A
:101CF80080EF0EF081EF0EF0188E0C340C320B32A0
:101D08000A320932172A16EF0FF00D50095C0E50EF
:101D18000A580F500B580C50800A116E1050800A48
:101D28001158D8B09AEF0EF09CEF0EF0C7EF0EF0F6
:101D380009500D5C116E0A500E58126E0B500F5858
:101D4800136E0C501058146EFF0E1124096EFF0EFE
:101D580012200A6EFF0E13200B6EFF0E14200C6E5D
:101D6800800E151A186C1850D8A4BDEF0EF0BFEFEE
:101D78000EF0CFEF0EF0010E0926000E0A220B22FC
:101D88000C22CFEF0EF00D50095E0E500A5A0F507C
:101D98000B5A10500C5A09500A100B100C10D8A4EA
:101DA800D8EF0EF0DAEF0EF00FEF0FF01850D8A4BE
:101DB800E0EF0EF0E2EF0EF00FEF0FF0000E096EFD
:101DC800000E0A6E000E0B6E000E0C6EAAEF0FF0DE
:101DD800D89009360A360B360C3618AEF6EF0EF0E8
:101DE800F8EF0EF0F9EF0EF0098018A0FEEF0EF0F4
:101DF80000EF0FF004EF0FF0D880183606EF0FF061
:101E0800D89018361750D8B40CEF0FF00EEF0FF02B
:101E18000FEF0FF017060BAE14EF0FF016EF0FF0E1
:101E2800ECEF0EF0000E166E18AE1DEF0FF01FEF60
:101E38000FF037EF0FF018C011F07F0E1116D8B45D
:101E480028EF0FF02AEF0FF02EEF0FF0010E166EAD
:101E580037EF0FF009A033EF0FF035EF0FF037EF42
:101E68000FF02AEF0FF01650D8B43DEF0FF03FEF08
:101E78000FF06AEF0FF0010E0926000E0A220B225E
:101E88000C220CA04AEF0FF04CEF0FF06AEF0FF0A6
:101E980009C011F00AC012F00BC013F00CC014F006
:101EA8001434143213321232113211C009F012C034
:101EB8000AF013C00BF014C00CF01728D8B467EF61
:101EC8000FF069EF0FF06AEF0FF0172A1728D8B450
:101ED80070EF0FF072EF0FF07AEF0FF01750D8A4F1
:101EE80078EF0FF07AEF0FF08CEF0FF0000E096E1D
:101EF800000E0A6E000E0B6E000E0C6E1750D8A462
:101F080088EF0FF08AEF0FF08CEF0FF0000E156ED0
:101F180017A091EF0FF093EF0FF096EF0FF00B8EE5
:101F280097EF0FF00B9ED89017300C6E15AE9FEF01
:101F38000FF0A1EF0FF0A2EF0FF00C8E09C009F01F
:101F48000AC00AF00BC00BF00CC00CF01200515084
:101F580027242D6E525028202E6EFE0E2D24D96E69
:101F6800FF0E2E20DA6EDE04D8A4BDEF0FF0BFEF0F
:101F78000FF0E1EF0FF029C021F02AC022F02BC0AA
:101F880023F02CC024F0F7EC1BF029C01CF02AC069
:101F98001DF02BC01EF02CC01FF054EC1BF0110ECE
:101FA8002E6E3C0E2D6ECB0EE82EFED72D2EFCD7B6
:101FB8002E2EFAD700F08EEF11F0515027242D6EF7
:101FC800525028202E6EFE0E2D24D96EFF0E2E2084
:101FD800DA6E020EDE18D8A4F4EF0FF0F6EF0FF069
:101FE80018EF10F029C021F02AC022F02BC023F0EE
:101FF8002CC024F0F7EC1BF029C01CF02AC01DF0FF
:102008002BC01EF02CC01FF01BEC1BF0120E2E6E06
:10201800740E2D6E7A0EE82EFED72D2EFCD72E2E9E
:10202800FAD700D08EEF11F0515027242D6E525060
:1020380028202E6EFE0E2D24D96EFF0E2E20DA6E6D
:10204800030EDE18D8A42BEF10F02DEF10F04FEF91
:1020580010F029C021F02AC022F02BC023F02CC098
:1020680024F0F7EC1BF029C01CF02AC01DF02BC08F
:102078001EF02CC01FF054EC1BF0200E2E6E400EEC
:102088002D6EE90EE82EFED72D2EFCD72E2EFAD770
:1020980000F08EEF11F0515027242D6E5250282059
:1020A8002E6EFE0E2D24D96EFF0E2E20DA6E040E33
:1020B800DE18D8A462EF10F064EF10F0B1EF10F062
:1020C80029C021F02AC022F02BC023F02CC024F014
:1020D800F7EC1BF029C01CF02AC01DF02BC01EF025
:1020E8002CC01FF054EC1BF0120E2E6E0C0E2D6E31
:1020F800950EE82EFED72D2EFCD72E2EFAD700F0FF
:1021080029C01CF02AC01DF02BC01EF02CC01FF0E7
:1021180024EC1DF0090E2E6E1E0E2D6EE40EE82E18
:10212800FED72D2EFCD72E2EFAD700D029C01CF0B2
:102138002AC01DF02BC01EF02CC01FF0C9EC19F0EE
:10214800620E2E6E670E2D6ECE0EE82EFED72D2E49
:10215800FCD72E2EFAD78EEF11F0515027242D6E72
:10216800525028202E6EFE0E2D24D96EFF0E2E20E2
:10217800DA6E050EDE18D8A4C4EF10F0C6EF10F022
:1021880020EF11F029C01CF02AC01DF02BC01EF052
:102198002CC01FF024EC1DF0090E2E6E1E0E2D6EA5
:1021A800E40EE82EFED72D2EFCD72E2EFAD700D01F
:1021B80029C01CF02AC01DF02BC01EF02CC01FF037
:1021C8001BEC1BF0120E2E6E0C0E2D6E950EE82ECB
:1021D800FED72D2EFCD72E2EFAD700F029C01CF0E2
:1021E8002AC01DF02BC01EF02CC01FF024EC1DF0DF
:1021F800090E2E6E1E0E2D6EE40EE82EFED72D2E25
:10220800FCD72E2EFAD700D029C01CF02AC01DF00A
:102218002BC01EF02CC01FF0C9EC19F0A30E2E6EB7
:10222800570E2D6E020EE82EFED72D2EFCD72E2E21
:10223800FAD700D08EEF11F0515027242D6E52504E
:1022480028202E6EFE0E2D24D96EFF0E2E20DA6E5B
:10225800060EDE18D8A433EF11F035EF11F057EF62
:1022680011F029C021F02AC022F02BC023F02CC085
:1022780024F0F7EC1BF029C01CF02AC01DF02BC07D
:102288001EF02CC01FF054EC1BF01B0E2E6ECA0E55
:102298002D6E100EE82EFED72D2EFCD72E2EFAD737
:1022A80000D08EEF11F0515027242D6E5250282067
:1022B8002E6EFE0E2D24D96EFF0E2E20DA6E070E1E
:1022C800DE18D8A46AEF11F06CEF11F08EEF11F060
:1022D80029C021F02AC022F02BC023F02CC024F002
:1022E800F7EC1BF029C01CF02AC01DF02BC01EF013
:1022F8002CC01FF01BEC1BF01B0E2E6E620E2D6EF9
:102308002B0EE82EFED72D2EFCD72E2EFAD700F056
:102318008EEF11F012002550800B326E25502524C7
:10232800396E24AE9AEF11F09CEF11F09DEF11F089
:1023380039803950D8B4A3EF11F0A5EF11F0BAEFF6
:1023480011F03928D8A4ABEF11F0ADEF11F0B5EFCB
:1023580011F0000E226E000E236E000E246E000E89
:10236800256E248E000E256EC2EF11F0000E226E2F
:10237800000E236E000E246E000E256E2950800B71
:10238800321A295029243A6E28AECDEF11F0CFEF3A
:1023980011F0D0EF11F03A803A50D8B4D6EF11F0DE
:1023A800D8EF11F0EDEF11F03A28D8A4DEEF11F0D4
:1023B800E0EF11F0E8EF11F0000E266E000E276E28
:1023C800000E286E000E296E288E000E296EF5EF7D
:1023D80011F0000E266E000E276E000E286E000EFD
:1023E800296E2650271028102910D8A4FEEF11F0C6
:1023F80000EF12F018EF12F0000E226E000E236E9E
:10240800000E246E000E256E800E24127F0E2512FB
:102418003250251222C022F023C023F024C024F019
:1024280025C025F05BEF13F03950D8A41EEF12F049
:1024380020EF12F02AEF12F0000E226E000E236E2B
:10244800000E246E000E256E5BEF13F03A5039C073
:102458002AF02B6A2A5E000E2B5A7F0E2A24336E2E
:10246800000E2B20346E22C02EF023C02FF024C083
:1024780030F025C031F0000E226E000E236E000EE3
:10248800246E000E256E000E356E000E366E000EA0
:10249800376E000E386E000E3A6E8BEF12F03A501F
:1024A800D8B459EF12F05BEF12F072EF12F0D89037
:1024B8002E362F3630363136D8902236233624360B
:1024C800253638AE6AEF12F06CEF12F06DEF12F0AD
:1024D8002280D890353636363736383626502E5C38
:1024E80027502F582850305829503158D8A07FEFFE
:1024F80012F081EF12F08AEF12F0388C26502E5E1F
:1025080027502F5A2850305A2950315A3A2A190E32
:102518003A6491EF12F093EF12F053EF12F02E504D
:102528002F1030103110D8B49CEF12F09EEF12F03B
:10253800B6EF12F03580B6EF12F0D8902236233677
:102548002436253638AEABEF12F0ADEF12F0AEEF11
:1025580012F02280D890353636363736383633067C
:10256800D8A0340624AEBBEF12F0BDEF12F0A1EFF5
:1025780012F0000E3A6E38AEC4EF12F0C6EF12F049
:10258800EAEF12F0FF0E35142A6EFF0E36142B6E8A
:10259800FF0E37142C6E7F0E38142D6E2A502B1018
:1025A8002C102D10D8B4DBEF12F0DDEF12F0E1EFB4
:1025B80012F0010E3A6EEAEF12F022A0E6EF12F0E6
:1025C800E8EF12F0EAEF12F0DDEF12F03A50D8B46B
:1025D800F0EF12F0F2EF12F016EF13F0010E2226D0
:1025E800000E23222422252225A0FDEF12F0FFEF62
:1025F80012F016EF13F022C02AF023C02BF024C0EB
:102608002CF025C02DF02D342D322C322B322A32CD
:102618002AC022F02BC023F02CC024F02DC025F0B6
:10262800334A342A34BE21EF13F0345008E13328FA
:10263800D8A021EF13F023EF13F02EEF13F0000EC4
:10264800346E3368000E226E000E236E000E246E68
:10265800000E256E34BE3BEF13F0345006E1330410
:10266800D8B039EF13F03BEF13F049EF13F0000E39
:10267800346E000E336E000E226E000E236E000EB6
:10268800246E000E256E000E326E33C039F039A06C
:1026980050EF13F052EF13F055EF13F0248E56EF6E
:1026A80013F0249ED8903930256E0CEF12F01200EA
:1026B80015EC1EF00AEC1DF0000E0A6EC80E096E2D
:1026C800A1EC1AF0A20E096E000E0A6EC2EC1BF005
:1026D800AB0E096E000E0A6E8DEC1BF0A20E096E91
:1026E800000E0A6EAB0E0B6E000E0C6E39EC1EF06F
:1026F800849E7C9E8896809652EC1EF0820E000185
:10270800606F000E616FA20E626F000E636FAB0EFA
:10271800646F000E656FE7EC14F00AEC1EF0F0EC45
:102728001DF0EAC00DF0EBC00EF0D0C00FF0D1C024
:1027380010F06BEC1DF01CEC1EF0000E0001DA6FBF
:10274800000E526E000E516E000E506E000E4F6E4F
:10275800000ED76F000ED66F8890809086907E907E
:1027680084987C9884967C96A20E1C6E000E1D6E32
:10277800AB0E1E6E000E1F6EC9EC19F00001D805D5
:10278800D911D8A4CAEF13F0CCEF13F0B8EF13F0B7
:10279800D7BFD8EF13F0D75109E1020ED65DD8A004
:1027A800D8EF13F0DAEF13F0B8EF13F0A20E1C6EA7
:1027B800000E1D6EAB0E1E6E000E1F6E24EC1DF07B
:1027C800520E0001816F2B0E806F000EE82EFED78F
:1027D800802FFCD7812FFAD700F07C9E0001DA51B8
:1027E800D8A4F9EF13F0FBEF13F03BEF14F0808659
:1027F800A20E1C6E000E1D6EAB0E1E6E000E1F6E1E
:1028080054EC19F0310E0001816FB40E806F650E23
:10281800E82EFED7802FFCD7812FFAD700D0820E62
:10282800226E000E236E3EEC1AF0820E3B6E000EF6
:102838003C6EE8EC16F0820E276E000E286EA20E93
:10284800296E000E2A6EAB0E2B6E000E2C6E0CEC51
:1028580007F00001806FDB0E5124D96E000E522064
:10286800DA6E80C0DFFF514A522ADDEF14F07C8E09
:10287800A20E1C6E000E1D6EAB0E1E6E000E1F6E9D
:1028880054EC19F0310E0001816FB40E806F650EA3
:10289800E82EFED7802FFCD7812FFAD700D0DB0E89
:1028A800276E000E286EA20E296E000E2A6EAB0E41
:1028B8002B6E000E2C6EABEC0FF05106D8A0520612
:1028C80051045210D8A46BEF14F06DEF14F0DDEF43
:1028D80014F0000E0001DA6F7C98A20E1C6E000E38
:1028E8001D6EAB0E1E6E000E1F6EC9EC19F0CB0EDE
:1028F8000001816FEC0E806F840EE82EFED7802FCA
:10290800FCD7812FFAD700F0A20E1C6E000E1D6EA8
:10291800AB0E1E6E000E1F6E24EC1DF0290E00017A
:10292800816F960E806F7F0EE82EFED7802FFCD722
:10293800812FFAD7A20E1C6E000E1D6EAB0E1E6EF6
:10294800000E1F6E54EC1BF0230E0001816FE70E82
:10295800806FF70EE82EFED7802FFCD7812FFAD78D
:1029680000D080A0BAEF14F0BFEF14F00001806B24
:10297800802BC1EF14F00001806B80508019FE0B92
:102988008019806EA20E1C6E000E1D6EAB0E1E6EA0
:10299800000E1F6E24EC1DF0A30E0001816F570E70
:1029A800806F020EE82EFED7802FFCD7812FFAD732
:1029B80000F08096000E0001D96F000ED86FB8EFB6
:1029C80013F01AEF00F0000E00017F6F000E7E6F0B
:1029D8008EB4F1EF14F0F3EF14F071EF15F0050E6B
:1029E8007E197F11D8B4FBEF14F0FDEF14F007EF58
:1029F80015F062C01CF063C01DF064C01EF065C015
:102A08001FF054EC19F0290E3E6E960E3D6E7F0EA7
:102A1800E82EFED73D2EFCD73E2EFAD700F0808652
:102A280060C022F061C023F03EEC1AF060C03BF0B9
:102A380061C03CF0E8EC16F0290E3E6E960E3D6E35
:102A48007F0EE82EFED73D2EFCD73E2EFAD700F09B
:102A58008096000120EE1CF06051D9266151DA22DF
:102A6800660E3D6E000E3E6ED8907E35E16E7F3567
:102A7800E26ED890E136E2363D50E1263E50E22241
:102A8800DECFE6FFDECFE6FFDECFE6FFDECFE6FFF6
:102A9800290E3E6E960E3D6E7F0EE82EFED73D2E19
:102AA800FCD73E2EFAD700F062C01CF063C01DF0C0
:102AB80064C01EF065C01FF024EC1DF0290E3E6EA8
:102AC800960E3D6E7F0EE82EFED73D2EFCD73E2E8D
:102AD800FAD700F000017E4B7F2B7FBF7DEF15F00A
:102AE8007F5109E1060E7E5DD8A07DEF15F07FEFDE
:102AF80015F0ECEF14F066C009F067C00AF068C082
:102B08000BF069C00CF0CD0E0D6ECC0E0E6ECC0E17
:102B18000F6EBE0E106E4BEC0DF009C047F00AC0E8
:102B280048F00BC049F00CC04AF06AC009F06BC00D
:102B38000AF06CC00BF06DC00CF09A0E0D6E990E79
:102B48000E6E990E0F6E3E0E106E4BEC0DF009C016
:102B580043F00AC044F00BC045F00CC046F06EC00C
:102B680009F06FC00AF070C00BF071C00CF09A0E3B
:102B78000D6E990E0E6E990E0F6EBE0E106E4BEC0A
:102B88000DF009C03FF00AC040F00BC041F00CC086
:102B980042F072C009F073C00AF074C00BF075C03F
:102BA8000CF0CD0E0D6ECC0E0E6ECC0E0F6E3E0ED2
:102BB800106E4BEC0DF009C0CCF00AC0CDF00BC084
:102BC800CEF00CC0CFF076C009F077C00AF078C01C
:102BD8000BF079C00CF0CD0E0D6ECC0E0E6E4C0EB7
:102BE8000F6EBE0E106E4BEC0DF009C0C8F00AC097
:102BF800C9F00BC0CAF00CC0CBF0A30E3E6E570E46
:102C08003D6E020EE82EFED73D2EFCD73E2EFAD79B
:102C180000D012001C6E1C50D8B415EF16F017EF38
:102C280016F039EF16F017BE1EEF16F01CEF16F06F
:102C380039EF16F014C018F015C019F016C01AF0C4
:102C480017C01BF0181E191E1A1E1B1E182A000E6C
:102C580019221A221B2218C01EF019C01FF01AC010
:102C680020F01BC021F041EF16F014C01EF015C073
:102C78001FF016C020F017C021F0145015101610C0
:102C88001710D8A44AEF16F04CEF16F056EF16F0CE
:102C9800000E146E000E156E000E166E000E176EE6
:102CA800E7EF16F0960E1D6E60EF16F01D2AD8900D
:102CB800213220321F321E32000E1E14186E000EF2
:102CC8001F14196E000E20141A6EFE0E21141B6EAE
:102CD800185019101A101B10D8A475EF16F077EFBA
:102CE80016F05AEF16F085EF16F01D2A010E1E2673
:102CF800000E1F2220222122D890213220321F329A
:102D08001E32000E1E14186E000E1F14196E000ECF
:102D180020141A6EFF0E21141B6E185019101A1069
:102D28001B10D8A49AEF16F09CEF16F079EF16F066
:102D3800A4EF16F01D06D8901E361F362036213611
:102D480020BEA9EF16F0ABEF16F0B3EF16F0020EA7
:102D58001D60B1EF16F0B3EF16F09EEF16F01DB040
:102D6800B8EF16F0BAEF16F0BBEF16F0209ED89029
:102D78001D321DC018F0196A1A6A1B6A18C01BF0A8
:102D88001A6A196A186A18501E1219501F121A5016
:102D980020121B5021121C50D8B4D5EF16F0D7EFD3
:102DA80016F0DFEF16F017BEDEEF16F0DCEF16F0C8
:102DB800DFEF16F0218E1EC014F01FC015F020C0E2
:102DC80016F021C017F01200090E4C6E510E4B6E12
:102DD80020EE0CF03B50D9263C50DA22DECF22F010
:102DE800DECF23F0DECF24F0DECF25F03BC0D9FFC5
:102DF8003CC0DAFFDECF26F0DECF27F0DECF28F0AA
:102E0800DECF29F08FEC11F020EE10F03B50D926E0
:102E18003C50DA2222C0DEFF23C0DEFF24C0DEFFE2
:102E280025C0DEFF20EE0CF03B50D9263C50DA22BC
:102E3800DECF22F0DECF23F0DECF24F0DECF25F088
:102E480020EE04F03B50D9263C50DA22DECF26F0A3
:102E5800DECF27F0DECF28F0DECF29F08FEC11F09F
:102E680020EE14F03B50D9263C50DA2222C0DEFF77
:102E780023C0DEFF24C0DEFF25C0DEFF20EE0CF0FD
:102E88003B50D9263C50DA22DECF22F0DECF23F0A9
:102E9800DECF24F0DECF25F020EE08F03B50D92617
:102EA8003C50DA22DECF26F0DECF27F0DECF28F046
:102EB800DECF29F08FEC11F020EE18F03B50D92628
:102EC8003C50DA2222C0DEFF23C0DEFF24C0DEFF32
:102ED80025C0DEFF20EE0CF03B50D9263C50DA220C
:102EE800DECF22F0DECF23F0DECF24F0DECF25F0D8
:102EF800510E146E090E156E000E166E000E176E2A
:102F0800010E0EEC16F014C026F015C027F016C0FE
:102F180028F017C029F08FEC11F020EE1CF03B5080
:102F2800D9263C50DA2222C0DEFF23C0DEFF24C0AF
:102F3800DEFF25C0DEFF120020EE02F01650D92673
:102F48001750DA22DF50D8B4ACEF17F0AEEF17F015
:102F5800E2EF17F016C0D9FF17C0DAFFDF50186E7E
:102F68001850096E0A6A20EE03F01650D926175039
:102F7800DA22DECF0BF0DDCF0CF0BDEC1DF009C07E
:102F88000FF00AC010F0000E126E640E116EE1EC24
:102F98001AF020EE03F01650D9261750DA22DF5027
:102FA800196E0F50195C1A6E20EE03F01650D926D0
:102FB8001750DA22DF501B6E05EF18F016C0D9FF44
:102FC80017C0DAFFDF50186E1850096E0A6A20EE33
:102FD80003F01650D9261750DA22DECF0BF0DDCFDA
:102FE8000CF0BDEC1DF009C00FF00AC010F0000E87
:102FF800126E640E116EE1EC1AF00F501A6E000E8C
:103008001B6E20EE01F01650D9261750DA22DF5039
:10301800D8B411EF18F013EF18F035EF18F020EED0
:1030280005F01650D9261750DA22DECF18F0DDCF7A
:1030380019F018C0D9FF19C0DAFF1AC0DFFF20EE57
:1030480007F01650D9261750DA22DECF18F0DDCF58
:1030580019F018C0D9FF19C0DAFF1BC0DFFF55EF00
:1030680018F020EE05F01650D9261750DA22DECFD8
:1030780018F0DDCF19F018C0D9FF19C0DAFF1BC04E
:10308800DFFF20EE07F01650D9261750DA22DECFE0
:1030980018F0DDCF19F018C0D9FF19C0DAFF1AC02F
:1030A800DFFF1200000E0914116E000E0A14126ED2
:1030B800800E0B14136E7F0E0C14146E1150121028
:1030C80013101410D8A46BEF18F06DEF18F075EF0B
:1030D80018F0000E096E000E0A6E000E0B6E000E40
:1030E8000C6E000E0D14116E000E0E14126E800E72
:1030F8000F14136E7F0E1014146E1150121013104B
:103108001410D8A48AEF18F08CEF18F094EF18F088
:10311800000E0D6E000E0E6E000E0F6E000E106E7D
:103128000CAE99EF18F09BEF18F0A4EF18F0096CAB
:103138000A1ED8B00A2A0B1ED8B00B2A800E0C56CD
:1031480010AEA9EF18F0ABEF18F0B4EF18F00D6C53
:103158000E1ED8B00E2A0F1ED8B00F2A800E105699
:10316800000E091A000E0A1A000E0B1A800E0C1A0D
:10317800000E0D1A000E0E1A000E0F1A800E101AED
:103188000D50095C0E500A580F500B5810500C582F
:10319800D8B0D1EF18F0D3EF18F0D6EF18F0D890D8
:1031A800D7EF18F0D88012001CC0D9FF1DC0DAFF75
:1031B800050EDF6E1EC0D9FF1FC0DAFF050EDF6ED9
:1031C80020EE01F01E50D9261F50DA22000EDF6EC5
:1031D80020EE01F01C50D9261D50DA22000EDF6EB9
:1031E80020EE02F01C50D9261D50DA22010EDF6EA7
:1031F80020EE02F01E50D9261F50DA22010EDF6E93
:1032080023EF19F01CC0D9FF1DC0DAFFDF2A1EC04A
:10321800D9FF1FC0DAFFDF2AD00E206ECA0EE82EB3
:10322800FED7202EFCD71CC016F01DC017F0A0EC4E
:1032380017F01EC016F01FC017F0A0EC17F01CC046
:10324800D9FF1DC0DAFF150EDF602DEF19F02FEF43
:1032580019F03BEF19F01EC0D9FF1FC0DAFF140E9A
:10326800DF6439EF19F03BEF19F006EF19F01CC0D5
:10327800D9FF1DC0DAFF140EDF6E1EC0D9FF1FC0B4
:10328800DAFF140EDF6E1CC016F01DC017F0A0EC9C
:1032980017F01EC016F01FC017F0A0EC17F01200B0
:1032A8001CC0D9FF1DC0DAFF320EDF6E1EC0D9FF69
:1032B8001FC0DAFF320EDF6E20EE01F01E50D92655
:1032C8001F50DA22010EDF6E20EE01F01C50D926C5
:1032D8001D50DA22010EDF6E20EE02F01C50D926B6
:1032E8001D50DA22010EDF6E20EE02F01E50D926A4
:1032F8001F50DA22010EDF6E98EF19F01CC0D9FFBB
:103308001DC0DAFFDF2A1EC0D9FF1FC0DAFFDF2A7F
:103318001CC016F01DC017F0A0EC17F01EC016F068
:103328001FC017F0A0EC17F01CC0D9FF1DC0DAFFB2
:10333800560EDF60A2EF19F0A4EF19F0B0EF19F004
:103348001EC0D9FF1FC0DAFF550EDF64AEEF19F0BB
:10335800B0EF19F082EF19F01CC0D9FF1DC0DAFFD9
:10336800550EDF6E1EC0D9FF1FC0DAFF550EDF6E87
:103378001CC016F01DC017F0A0EC17F01EC016F008
:103388001FC017F0A0EC17F012001CC0D9FF1DC019
:10339800DAFF050EDF6E1EC0D9FF1FC0DAFF050E6B
:1033A800DF6E20EE01F01E50D9261F50DA22010EE2
:1033B800DF6E20EE01F01C50D9261D50DA22010ED6
:1033C800DF6E20EE02F01C50D9261D50DA22010EC5
:1033D800DF6E20EE02F01E50D9261F50DA22010EB1
:1033E800DF6E0DEF1AF01CC0D9FF1DC0DAFFDF2A0F
:1033F8001EC0D9FF1FC0DAFFDF2A1CC016F01DC08F
:1034080017F0A0EC17F01EC016F01FC017F0A0ECC4
:1034180017F01CC0D9FF1DC0DAFF330EDF6017EFAD
:103428001AF019EF1AF025EF1AF01EC0D9FF1FC0C5
:10343800DAFF320EDF6423EF1AF025EF1AF0F7EF08
:1034480019F01CC0D9FF1DC0DAFF320EDF6E1EC096
:10345800D9FF1FC0DAFF320EDF6E1CC016F01DC088
:1034680017F0A0EC17F01EC016F01FC017F0A0EC64
:1034780017F0120022EC1CF00DC014F00EC015F06D
:10348800166A176A000E0EEC16F022C0D9FF23C088
:10349800DAFF14C0DEFF15C0DEFF16C0DEFF17C05E
:1034A800DEFF9AEC1CF00DC014F00EC015F0166A81
:1034B800176A000E0EEC16F020EE08F02250D926FE
:1034C8002350DA2214C0DEFF15C0DEFF16C0DEFF6F
:1034D80017C0DEFF4AEC1CF00DC014F00EC015F04A
:1034E800166A176A000E0EEC16F020EE04F0225051
:1034F800D9262350DA2214C0DEFF15C0DEFF16C01D
:10350800DEFF17C0DEFF72EC1CF00DC014F00EC019
:1035180015F0166A176A000E0EEC16F020EE0CF085
:103528002250D9262350DA2214C0DEFF15C0DEFF50
:1035380016C0DEFF17C0DEFF1200050E0E01746F05
:10354800060E766F070E696F080E886FBD508F0BD9
:103558003009BD6EE00EBE16BF50F00B0109BF6EFC
:10356800C80EBC6EBD8E000EAA6E000EA66E000EB2
:103578000F01256F000E216FFC0EAD16F30EAD1670
:10358800CF0EAD163F0EAD16AB88AB50F00B0C0945
:10359800AB6EAB8EA788A750F00B0C09A76EA78E51
:1035A80026892651F00B0C09266F268F2289225175
:1035B800F00B0C09226F228F1200000E146E000E01
:1035C800136E11501210D8B4ECEF1AF0EEEF1AF097
:1035D80016EF1BF0010E156EF6EF1AF0D8901136A3
:1035E8001236152A12AEFBEF1AF0FDEF1AF0F2EFC1
:1035F8001AF0D8901336143611500F5C1250105828
:10360800D8A009EF1BF00BEF1BF010EF1BF01150C7
:103618000F5E1250105A1380D89012321132152EA4
:10362800FDEF1AF013C00FF014C010F012001CC008
:10363800D9FF1DC0DAFF3C0EDF6E1EC0D9FF1FC0C8
:10364800DAFF3C0EDF6E20EE02F01C50D9261D502A
:10365800DA22010EDF6E20EE02F01E50D9261F502E
:10366800DA22010EDF6E20EE01F01E50D9261F501F
:10367800DA22000EDF6E20EE01F01C50D9261D5014
:10368800DA22010EDF6E1CC016F01DC017F0A0EC88
:1036980017F01EC016F01FC017F0A0EC17F01200AC
:1036A8001CC0D9FF1DC0DAFF3C0EDF6E1EC0D9FF5B
:1036B8001FC0DAFF3C0EDF6E20EE02F01C50D92648
:1036C8001D50DA22010EDF6E20EE02F01E50D926C0
:1036D8001F50DA22010EDF6E20EE01F01C50D926B1
:1036E8001D50DA22000EDF6E20EE01F01E50D926A2
:1036F8001F50DA22010EDF6E1CC016F01DC017F035
:10370800A0EC17F01EC016F01FC017F0A0EC17F0C1
:10371800120009C0D9FF0AC0DAFF320EDF6E20EEB0
:1037280001F00950D9260A50DA22010EDF6E20EE88
:1037380002F00950D9260A50DA22010EDF6E20EE77
:1037480005F00950D9260A50DA22250EDE6E0F0E32
:10375800DD6E20EE07F00950D9260A50DA22210E34
:10376800DE6E0F0EDD6E20EE03F00950D9260A50EA
:10377800DA22C80EDE6E000EDD6E120009C0D9FF17
:103788000AC0DAFF320EDF6E20EE01F00950D926AA
:103798000A50DA22010EDF6E20EE02F00950D92617
:1037A8000A50DA22010EDF6E20EE05F00950D92604
:1037B8000A50DA22AA0EDE6E0F0EDD6E20EE07F03A
:1037C8000950D9260A50DA22A60EDE6E0F0EDD6EDB
:1037D80020EE03F00950D9260A50DA22C80EDE6E10
:1037E800000EDD6E120021C01CF022C01DF023C0A7
:1037F8001EF024C01FF0D8EC18F0310E266EB40E5F
:10380800256E660EE82EFED7252EFCD7262EFAD773
:1038180021C01CF022C01DF023C01EF024C01FF0E0
:1038280024EC1DF0190E266E5A0E256EB20EE82EE7
:10383800FED7252EFCD7262EFAD7120043EC1EF011
:10384800520E22EC1EF0B60E22EC1EF034EC1EF0E6
:10385800530E22EC1EF0010EE9EC1CF00F6E0F5017
:10386800126E136A000EE9EC1CF00F6E0F50116E09
:10387800106A12501010126E13501110136E3EEC95
:103888001EF012C00DF013C00EF0120043EC1EF033
:10389800520E22EC1EF0B80E22EC1EF034EC1EF094
:1038A800530E22EC1EF0010EE9EC1CF00F6E0F50C7
:1038B800126E136A000EE9EC1CF00F6E0F50116EB9
:1038C800106A12501010126E13501110136E3EEC45
:1038D8001EF012C00DF013C00EF0120043EC1EF0E3
:1038E800520E22EC1EF0B40E22EC1EF034EC1EF048
:1038F800530E22EC1EF0010EE9EC1CF00F6E0F5077
:10390800126E136A000EE9EC1CF00F6E0F50116E68
:10391800106A12501010126E13501110136E3EECF4
:103928001EF012C00DF013C00EF0120043EC1EF092
:10393800520E22EC1EF0BA0E22EC1EF034EC1EF0F1
:10394800530E22EC1EF0010EE9EC1CF00F6E0F5026
:10395800126E136A000EE9EC1CF00F6E0F50116E18
:10396800106A12501010126E13501110136E3EECA4
:103978001EF012C00DF013C00EF01200BE0EF66E4F
:103988003C0EF76E000EF86E0900F5CFEAF009005C
:10399800F5CFEBF001EE00F03C0EEE6AE806FDE133
:1039A80000EEB4F0360EEE6AE806FDE100EE3FF0F8
:1039B800180EEE6AE806FDE157905792000EF86E71
:1039C8000E0EF76E00015CEF13F00B6E95EC1DF018
:1039D8000E01DA8795EC1DF0D5CE0CF095EC1DF0B4
:1039E8000B50D8B4FAEF1CF0FEEF1CF00A6A0A2A52
:1039F800FFEF1CF00A6A0A3A0A460E01DA510A1861
:103A0800DF0B0A18DA6FDA890C50120056EC1DF039
:103A1800010E0B6E000ED0EC1DF03F0E0D6E550E14
:103A2800E82EFED70D2EFCD700F0030E0B6E000E0D
:103A3800D0EC1DF0D50E0B6E010ED0EC1DF012006F
:103A48001CC0D9FF1DC0DAFF000EDF6E1EC0D9FFF3
:103A58001FC0DAFF000EDF6E1CC016F01DC017F085
:103A6800A0EC17F01EC016F01FC017F0A0EC17F05E
:103A780012004DEC1EF0520E2EEC1EF0E60E2EEC4F
:103A88001EF048EC1EF0FDEC1DF028EC1EF0EAC01C
:103A980005F0EBC006F0D0C007F0D1C008F080EC0C
:103AA8001DF012000E01D951F00B0809D96FD98BFE
:103AB8009F0ED66F848A848CA79BA79D1D0E1D6FB1
:103AC8001E0E1C6F1C0E6F6F1B0E706F12000FC046
:103AD8000BF0040ED0EC1DF010500B6E050ED0EC60
:103AE8001DF00DC00BF0060ED0EC1DF00E500B6E45
:103AF800070ED0EC1DF0120007C003F0040EE0EC36
:103B08001DF00850036E050EE0EC1DF005C003F033
:103B1800060EE0EC1DF00650036E070EE0EC1DF0FB
:103B280012000E01D8B59BEF1DF09DEF1DF095EF2B
:103B38001DF0DACE09F01F0E0916D8A4A6EF1DF065
:103B4800A8EF1DF095EF1DF012000E01D8B5AFEFEC
:103B58001DF0B1EF1DF0A9EF1DF0DACE01F01F0E38
:103B68000116D8A4BAEF1DF0BCEF1DF0A9EF1DF0A7
:103B7800120009500B02F3CF0DF0F4CF0EF00950EC
:103B88000C02F3500E260A500B02F3500E260DC0FD
:103B980009F00EC00AF012000C6E43EC1EF0520E33
:103BA80022EC1EF00C50800922EC1EF00B5022EC87
:103BB8001EF03EEC1EF01200046E4DEC1EF0520E8C
:103BC8002EEC1EF0045080092EEC1EF003502EEC53
:103BD8001EF048EC1EF01200130E0B6E000ED0EC17
:103BE8001DF0D00E0D6ECA0EE82EFED70D2EFCD796
:103BF8001200130E036E000EE0EC1DF0D00E056EE1
:103C0800CA0EE82EFED7052EFCD7120082800E01C0
:103C18009A91339129811F81F290F28AF28CF28E67
:103C2800120056EC1EF059EC1EF05CEC1EF012006F
:103C3800020E0B6E0C0ED0EC1DF012000A6E95EC05
:103C48001DF00AC0D5FE1200020E036E0C0EE0EC49
:103C58001DF01200026EA9EC1DF002C0D5FE120084
:103C680095EC1DF00E01DA83120085948598839EE9
:103C7800879C120095EC1DF00E01DA85120095EC78
:103C88001DF00E01DA811200A9EC1DF00E01DA8593
:103C98001200A9EC1DF00E01DA81120086840E01D3
:103CA800B495120087907F801200859E7D8E120049
:083CB800819679861200D00705
:020000040020DA
:10000000FF0FFF0FFF0FFF0FFF0FFF0FFF0FFF0F80
:020000040030CA
:0C000000AAFFFFFF9FFFFFFFFFFFFFFFB5
:00000001FF
