:0400000023EF00F0FA
:100008005D820E0133AB0BEF00F00DEF00F021EF36
:1000180000F080A612EF00F016EF00F0016A012A46
:1000280017EF00F0016A01460146014680500118A9
:10003800F70B0118806E0E01339B5D92110097EF4C
:020048000CF0BA
:100E000000524742433A256920256920256920255B
:100E1000690A00001FC035F020C036F021C037F04D
:100E200022C038F023C039F024C03AF025C03BF08E
:100E300026C03CF03CBE1FEF07F022EF07F0010E8A
:100E400023EF07F0000E3F6E3F50D8B42AEF07F0B3
:100E50002CEF07F03CEF07F03C1E3B1E3A1E391EFC
:100E6000381E371E361E356C000E362237223822C9
:100E700039223A223B223C220001F1BF4AEF07F01F
:100E8000F15106E1F005D8B048EF07F04AEF07F05E
:100E900050EF07F0000E326E010E316E54EF07F086
:100EA000F0C031F0F1C032F0EEC033F0EFC034F0FA
:100EB0003F50D8B45EEF07F060EF07F077EF07F030
:100EC0003306D8A034063F50D8A469EF07F06BEF83
:100ED00007F071EF07F0000E306E2B0E2F6E75EFDE
:100EE00007F0000E306E2D0E2F6E2FC03FF0000E5B
:100EF0003E6E1F0E3D6E000E01016F6FFCEF07F09E
:100F00003D06D8A03E06500E3D24D96E010E3E206F
:100F1000DA6E35C002F036C003F037C004F038C0D6
:100F200005F039C006F03AC007F03BC008F03CC0FD
:100F300009F00A0E0A6E000E0B6E000E0C6E000E0B
:100F40000D6E000E0E6E000E0F6E000E106E000E77
:100F5000116E0DEC09F002C027F003C028F004C0A8
:100F600029F005C02AF006C02BF007C02CF008C0FD
:100F70002DF009C02EF027C014F028C015F0FFECAA
:100F80000CF01450300FDF6E3106D8A03206330655
:100F9000D8A0340635C002F036C003F037C004F0E4
:100FA00038C005F039C006F03AC007F03BC008F081
:100FB0003CC009F00A0E0A6E000E0B6E000E0C6E9D
:100FC000000E0D6E000E0E6E000E0F6E000E106EF7
:100FD000000E116E49EC08F002C035F003C036F087
:100FE00004C037F005C038F006C039F007C03AF049
:100FF00008C03BF009C03CF03EBE07EF08F03E5091
:1010000008E13D04D8A007EF08F009EF08F025EF4C
:1010100008F0355036103710381039103A103B10A0
:101020003C10D8A416EF08F018EF08F080EF07F096
:1010300032BE25EF08F0325006E13104D8B023EF7C
:1010400008F025EF08F080EF07F03F50D8B42BEF01
:1010500008F02DEF08F038EF08F03D06D8A03E0666
:10106000500E3D24D96E010E3E20DA6E3FC0DFFFE8
:101070001DC012F01EC013F0500E3D24146E010E60
:101080003E20156E33C016F034C017F0CBEC0AF0DA
:101090001200000E136E11BE52EF08F050EF08F070
:1010A00064EF08F0111E101E0F1E0E1E0D1E0C1EEA
:1010B0000B1E0A6C000E0B220C220D220E220F2298
:1010C00010221122010E136E09BE6BEF08F069EFBA
:1010D00008F07DEF08F0091E081E071E061E051EFB
:1010E000041E031E026C000E0322042205220622A7
:1010F000072208220922010E131A20EE14F0070E0F
:10110000DE6AE806FDE20A500B100C100D100E10FE
:101110000F1010101110D8B490EF08F092EF08F0F3
:10112000E4EF08F0010E126EA0EF08F0D8900A3636
:101130000B360C360D360E360F3610361136122A97
:1011400011AEA5EF08F0A7EF08F096EF08F0D890E1
:101150001436153616361736183619361A361B3623
:101160000A50025C0B5003580C5004580D5005589F
:101170000E5006580F500758105008581150095873
:10118000D8A0C5EF08F0C7EF08F0D8EF08F00A5074
:10119000025E0B50035A0C50045A0D50055A0E5063
:1011A000065A0F50075A1050085A1150095A148005
:1011B000D890113210320F320E320D320C320B3207
:1011C0000A32122EA7EF08F01350D8B4EAEF08F055
:1011D000ECEF08F0FCEF08F01B1E1A1E191E181E7B
:1011E000171E161E151E146C000E1522162217222D
:1011F000182219221A221B2214C002F015C003F073
:1012000016C004F017C005F018C006F019C007F0AA
:101210001AC008F01BC009F01200000E136E09BEC0
:1012200016EF09F014EF09F028EF09F0091E081E67
:10123000071E061E051E041E031E026C000E03225E
:10124000042205220622072208220922010E136E1B
:1012500011BE2FEF09F02DEF09F03FEF09F0111E3D
:10126000101E0F1E0E1E0D1E0C1E0B1E0A6C000EF5
:101270000B220C220D220E220F22102211220A50C4
:101280000B100C100D100E100F1010101110D8B400
:101290004CEF09F04EEF09F096EF09F0010E126ED7
:1012A0005CEF09F0D8900A360B360C360D360E3648
:1012B0000F3610361136122A11AE61EF09F063EFC6
:1012C00009F052EF09F00A50025C0B5003580C5021
:1012D00004580D5005580E5006580F50075810501E
:1012E000085811500958D8A078EF09F07AEF09F0A2
:1012F0008AEF09F00A50025E0B50035A0C50045A50
:101300000D50055A0E50065A0F50075A1050085AE1
:101310001150095AD890113210320F320E320D325C
:101320000C320B320A32122E63EF09F01350D8B48C
:101330009CEF09F09EEF09F0AEEF09F0091E081EC0
:10134000071E061E051E041E031E026C000E03224D
:1013500004220522062207220822092202C002F0E6
:1013600003C003F004C004F005C005F006C006F099
:1013700007C007F008C008F009C009F0120042C019
:10138000D9FF43C0DAFFDECFF6FFDDCFF7FF08005D
:10139000F550250AD8A4CFEF09F0D1EF09F051EFAD
:1013A0000AF042C0D9FF43C0DAFFDE2A000EDD2278
:1013B000000E0001EF6F000EEE6FEEC0F2F0F0696C
:1013C000F16942C0D9FF43C0DAFFDECF50F0DDCF74
:1013D00051F050C0F6FF51C0F7FF0800F550640A05
:1013E000D8B4F5EF09F0F7EF09F005EF0AF050C0B7
:1013F000F6FF51C0F7FF0800F550690AD8A403EFC3
:101400000AF005EF0AF048EF0AF044C0D9FF45C0E2
:10141000DAFFDFCF46F0020EDE26DFCF47F0000E08
:10142000DD2246C0D9FF47C0DAFFDECF48F0DDCF6E
:1014300049F0000E49BEFF0E4A6E4B6E4C6E4D6E6B
:101440004E6E4F6E010E5024466E000E5120476EB8
:1014500042C0D9FF43C0DAFF46C0DEFF47C0DDFF10
:1014600040C01DF041C01EF048C01FF049C020F030
:101470004AC021F04BC022F04CC023F04DC024F0F4
:101480004EC025F04FC026F00AEC07F065EF0AF0D9
:1014900042C0D9FF43C0DAFFDE2A000EDD2265EF2D
:1014A0000AF042C0D9FF43C0DAFFDECFF6FFDDCF3E
:1014B000F7FF0800F550026E036A40C004F041C017
:1014C00005F066EC0AF048EF0AF01200045005102F
:1014D000D8B46DEF0AF06FEF0AF078EF0AF004501D
:1014E0000510D8A476EF0AF078EF0AF07DEF0AF045
:1014F0000250E4EC0DF0CAEF0AF020EE09F00450BF
:10150000D9260550DA22DE50DE10D8B48AEF0AF070
:101510008CEF0AF0A7EF0AF020EE09F00450D9266C
:101520000550DA2210EE03F00450E1260550E222C5
:10153000DE50E65CE650800A0A6EDE50800A0A58E9
:10154000D8B0A5EF0AF0A7EF0AF0CAEF0AF020EE34
:1015500003F00450D9260550DA22DECF06F0DDCFA5
:1015600007F004C0D9FF05C0DAFFDECF08F0DDCFF9
:1015700009F006500824D96E07500920DA6E02C01F
:10158000DFFF20EE03F00450D9260550DA22DE2AD0
:10159000000EDD22120017BED0EF0AF0D2EF0AF0E3
:1015A000D8EF0AF016C01BF017C01CF0DCEF0AF0F1
:1015B000000E1C6E000E1B6E000E1A6E000E196ED1
:1015C000EEEF0AF0000E036E200E026E12C004F061
:1015D00013C005F066EC0AF0194A1A2A1B50195C70
:1015E0001A50800A186E1C50800A1858D8A0FBEFB9
:1015F0000AF0FDEF0AF0E2EF0AF014C00BF015C09C
:101600000CF012C00DF013C00EF0BCEC0CF0120088
:101610003FEC0DF095EC0DF084967C86C2EC0DF05D
:10162000F6C0E1F0F7C0E2F0F8C0E3F0E60E0D6EB0
:10163000000E0E6E78EC0BF07D0E0001796F000E3F
:101640007A6FE60E7B6F000E7C6F40EC0BF07D0E28
:101650000001796F000E7A6FE60E7B6F000E7C6FD3
:1016600040EC0BF05A6E5B6A5AC0E4F05BC0E5F0E8
:10167000E4C007F0E5C008F082EC0DF023EF00F0C5
:1016800079C060F07AC061F0010E0001626F0E0E49
:10169000636F7BC0D9FF7CC0DAFFDECF64F0DDCFA3
:1016A00065F020EE02F07B51D9267C51DA22DECFA4
:1016B00066F0DDCF67F020EE04F07B51D9267C5137
:1016C000DA22DECF68F0DDCF69F020EE06F07B5144
:1016D000D9267C51DA22DECF6AF0DDCF6BF0A7ECA1
:1016E0000BF079C007F07AC008F082EC0DF0120020
:1016F000D0EC0BF00DC0D9FF0EC0DAFF06C0DEFF44
:1017000007C0DDFF48EC0CF020EE04F00D50D926A8
:101710000E50DA2206C0DEFF07C0DDFFF8EC0BF04A
:1017200020EE02F00D50D9260E50DA2206C0DEFF60
:1017300007C0DDFF20EC0CF020EE06F00D50D9269E
:101740000E50DA2206C0DEFF07C0DDFF1200640E75
:1017500000016C6F000E6D6F60C06EF061C06FF0C5
:10176000000E726F000E716F000E786F000E776FB3
:101770006E0E526E000E536E62C054F063C055F090
:101780006C0E566E000E576E70EC0CF0000171512D
:101790006025D96E72516121DA6E000EDF6E120083
:1017A000DDEC0DF0520ECDEC0DF0B60ECDEC0DF0E3
:1017B000D3EC0DF0530ECDEC0DF0010EDEEC0CF081
:1017C000086E08500B6E0C6A000EDEEC0CF0086E12
:1017D00008500A6E096A0B5009100B6E0C500A1063
:1017E0000C6ED8EC0DF00BC006F00CC007F0120028
:1017F000DDEC0DF0520ECDEC0DF0B80ECDEC0DF091
:10180000D3EC0DF0530ECDEC0DF0010EDEEC0CF030
:10181000086E08500B6E0C6A000EDEEC0CF0086EC1
:1018200008500A6E096A0B5009100B6E0C500A1012
:101830000C6ED8EC0DF00BC006F00CC007F01200D7
:10184000DDEC0DF0520ECDEC0DF0B40ECDEC0DF044
:10185000D3EC0DF0530ECDEC0DF0010EDEEC0CF0E0
:10186000086E08500B6E0C6A000EDEEC0CF0086E71
:1018700008500A6E096A0B5009100B6E0C500A10C2
:101880000C6ED8EC0DF00BC006F00CC007F0120087
:10189000DDEC0DF0520ECDEC0DF0BA0ECDEC0DF0EE
:1018A000D3EC0DF0530ECDEC0DF0010EDEEC0CF090
:1018B000086E08500B6E0C6A000EDEEC0CF0086E21
:1018C00008500A6E096A0B5009100B6E0C500A1072
:1018D0000C6ED8EC0DF00BC006F00CC007F0120037
:1018E00054C058F055C059F084EF0CF052C040F08D
:1018F00053C041F0580E426E000E436E56C044F085
:1019000057C045F0BFEC09F058C0F6FF59C0F7FFCB
:101910000800F5500009D8A490EF0CF092EF0CF0FD
:1019200076EF0CF0000E536E000E526E1200C40ED5
:10193000F66E1B0EF76E000EF86E0900F5CFF6F08E
:101940000900F5CFF7F00900F5CFF8F001EE00F04F
:10195000700EEE6AE806FDE100EEEEF0080EEE6AAB
:10196000E806FDE15C6A5D905D92000EF86E0E0E79
:10197000F76E000108EF0BF0000E116E000E106EF6
:10198000CDEF0CF00FC002F0036A0DC004F00EC0E2
:1019900005F066EC0AF0104A112A10500B24D96E9B
:1019A00011500C20DA6EDF500F6E0F50D8A4DBEF11
:1019B0000CF0DDEF0CF0C2EF0CF01200046E6EECD8
:1019C0000DF00E01DA876EEC0DF0D5CE05F06EEC61
:1019D0000DF00450D8B4EFEF0CF0F3EF0CF0036A05
:1019E000032AF4EF0CF0036A033A03460E01DA51BE
:1019F0000318DF0B0318DA6FDA890550120015BEE1
:101A00000CEF0DF0155006E11404D8B00AEF0DF0FC
:101A10000CEF0DF01AEF0DF014C016F015C017F012
:101A2000161E171E164A172A16C014F017C015F0F6
:101A30001EEF0DF014C014F015C015F01200000ECA
:101A4000066E000E056E30EF0DF005500324D96EC2
:101A500006500420DA6EDF50B6EC0DF0054A062A77
:101A600005500324D96E06500420DA6EDF50D8A446
:101A70003CEF0DF03EEF0DF025EF0DF0120059ECAC
:101A80000DF0010E046E000EA6EC0DF03F0E066E7A
:101A9000550EE82EFED7062EFCD700F0030E046E7E
:101AA000000EA6EC0DF0D50E046E010EA6EC0DF0A6
:101AB00012000E01D951F00B0809D96FD98B9F0E76
:101AC000D66F848A848CA79BA79D1D0E1D6F1E0E4A
:101AD0001C6F1C0E6F6F1B0E706F12000E01D8B5BD
:101AE00074EF0DF076EF0DF06EEF0DF0DACE02F040
:101AF0001F0E0216D8A47FEF0DF081EF0DF06EEFF0
:101B00000DF01200A30E0A6E570E096E020EE82E9B
:101B1000FED7092EFCD70A2EFAD700D007C003F053
:101B200008C004F01FEC0DF01200120E0E01626FDF
:101B3000110E156FE997E895670EE56F000EE66FD9
:101B4000E789E88BE78F2D872D851200056EDDEC88
:101B50000DF0520ECDEC0DF005508009CDEC0DF0DE
:101B60000450CDEC0DF0D8EC0DF01200026E0E0119
:101B700037A5BDEF0DF0BFEF0DF0B7EF0DF002C0D0
:101B8000E4FE120087907F8081987988869E7E8E01
:101B900081967986859E7D8E1200036E6EEC0DF027
:101BA00003C0D5FE12006EEC0DF00E01DA831200B8
:101BB0006EEC0DF00E01DA8512006EEC0DF00E01E8
:071BC000DA81120016181A69
:021BC800120009
:020000040020DA
:10000000FF0FFF0FFF0FFF0FFF0FFF0FFF0FFF0F80
:020000040030CA
:0C000000AAFFFFFF9FFFFFFFFFFFFFFFB5
:00000001FF
