:040000001BEF00F002
:1000080055820E0133A10BEF00F00DEF00F019EF50
:1000180000F07C8E000E0001A16F010EA06F9E4BB8
:100028009F2BB1EC13F00E013391559211003CEF68
:0200380013F0C3
:100E000000524742433A256920256920256920255B
:070E1000692025690A0000BA
:100E1800000E096E000E0A6E000E0B6E410E0C6E6F
:100E280020EE14F02150D9262250DA22DECF0DF020
:100E3800DECF0EF0DECF0FF0DECF10F0F3EC0EF0C9
:100E4800D8B029EF07F02BEF07F09BEF07F023C08E
:100E58001CF024C01DF025C01EF026C01FF0F2ECC7
:100E68000FF0210E286E780E276E980EE82EFED70A
:100E7800272EFCD7282EFAD700D023C01CF024C078
:100E88001DF025C01EF026C01FF098EC13F0070EC9
:100E9800286E7F0E276E500EE82EFED7272EFCD721
:100EA800282EFAD7000E2A6E000E296E23C01CF0D9
:100EB80024C01DF025C01EF026C01FF0C0EC11F0A4
:100EC800020E286EF30E276EB00EE82EFED7272EE0
:100ED800FCD7282EFAD700D023C01CF024C01DF060
:100EE80025C01EF026C01FF098EC13F0030E286EE4
:100EF800700E276E5C0EE82EFED7272EFCD7282E04
:100F0800FAD700D0294A2A2A2ABE94EF07F02A5095
:100F180009E1180E295CD8A094EF07F096EF07F0C6
:100F28005AEF07F0010EE7EF09F0E7EF09F0000EBE
:100F3800096E000E0A6E900E0B6E400E0C6E20EEBF
:100F480018F02150D9262250DA22DECF0DF0DECF5C
:100F58000EF0DECF0FF0DECF10F0F3EC0EF0D8B0CD
:100F6800B8EF07F0BAEF07F012EF08F020EE18F02C
:100F78002150D9262250DA22DECF09F0DECF0AF03E
:100F8800DECF0BF0DECF0CF0660E0D6E660E0E6E29
:100F9800A60E0F6E400E106EF3EC0EF0D8B0D7EF21
:100FA80007F0D9EF07F012EF08F0000E2C6E000ED4
:100FB8002B6E030E286E700E276E5C0EE82EFED781
:100FC800272EFCD7282EFAD700D023C01CF024C027
:100FD8001DF025C01EF026C01FF098EC13F0030E7C
:100FE800286E700E276E5C0EE82EFED7272EFCD7D3
:100FF800282EFAD700D02B4A2C2A2CBE0DEF08F049
:101008002C5009E1100E2B5CD8A00DEF08F00FEF63
:1010180008F0DDEF07F0020EE7EF09F0330E096E76
:10102800330E0A6E330E0B6E400E0C6E20EE18F067
:101038002150D9262250DA22DECF0DF0DECF0EF075
:10104800DECF0FF0DECF10F0F3EC0EF0D8B02FEFBC
:1010580008F031EF08F03AEF09F020EE18F02150CF
:10106800D9262250DA22DECF09F0DECF0AF0DECF11
:101078000BF0DECF0CF0CD0E0D6ECC0E0E6E4C0EBE
:101088000F6E400E106EF3EC0EF0D8B04EEF08F075
:1010980050EF08F03AEF09F0330E096E330E0A6E7E
:1010A800330E0B6E400E0C6E20EE10F02150D92638
:1010B8002250DA22DECF0DF0DECF0EF0DECF0FF0B9
:1010C800DECF10F0F3EC0EF0D8B06DEF08F06FEF54
:1010D80008F03AEF09F020EE10F02150D9262250FE
:1010E800DA22DECF09F0DECF0AF0DECF0BF0DECF5A
:1010F8000CF0CD0E0D6ECC0E0E6E4C0E0F6E400E1B
:10110800106EF3EC0EF0D8B08CEF08F08EEF08F00C
:101118003AEF09F0330E096E330E0A6E330E0B6E7A
:10112800400E0C6E20EE14F02150D9262250DA22FF
:10113800DECF0DF0DECF0EF0DECF0FF0DECF10F0F9
:10114800F3EC0EF0D8B0ABEF08F0ADEF08F03AEFE3
:1011580009F020EE14F02150D9262250DA22DECFF1
:1011680009F0DECF0AF0DECF0BF0DECF0CF0CD0EAB
:101178000D6ECC0E0E6E4C0E0F6E400E106EF3EC14
:101188000EF0D8B0CAEF08F0CCEF08F03AEF09F04B
:1011980023C01CF024C01DF025C01EF026C01FF07F
:1011A800F2EC0FF0210E286E780E276E980EE82EBE
:1011B800FED7272EFCD7282EFAD700D023C01CF044
:1011C80024C01DF025C01EF026C01FF098EC13F0B7
:1011D800070E286E7F0E276E500EE82EFED7272E9C
:1011E800FCD7282EFAD7000E2E6E000E2D6E23C0C7
:1011F8001CF024C01DF025C01EF026C01FF0F9EC1D
:1012080011F0020E286EF30E276EB00EE82EFED7F0
:10121800272EFCD7282EFAD700D023C01CF024C0D4
:101228001DF025C01EF026C01FF098EC13F0030E29
:10123800286E700E276E5C0EE82EFED7272EFCD780
:10124800282EFAD700D02D4A2E2A2EBE35EF09F0C7
:101258002E5009E12E0E2D5CD8A035EF09F037EF9E
:1012680009F0FBEF08F0030EE7EF09F0000E096E36
:10127800000E0A6E400E0B6E410E0C6E20EE1CF036
:101288002150D9262250DA22DECF0DF0DECF0EF023
:10129800DECF0FF0DECF10F0F3EC0EF0D8B057EF42
:1012A80009F059EF09F099EF07F0010E0001A26F5C
:1012B80080A061EF09F065EF09F0276A272A66EF39
:1012C80009F0276A80502718FE0B2718806E23C064
:1012D8001CF024C01DF025C01EF026C01FF0F2EC43
:1012E8000FF0210E286E780E276E980EE82EFED786
:1012F800272EFCD7282EFAD700D023C01CF024C0F4
:101308001DF025C01EF026C01FF098EC13F0070E44
:10131800286E7F0E276E500EE82EFED7272EFCD79C
:10132800282EFAD7000E306E000E2F6E23C01CF048
:1013380024C01DF025C01EF026C01FF0F9EC11F0E6
:10134800020E286EF30E276EB00EE82EFED7272E5B
:10135800FCD7282EFAD700D023C01CF024C01DF0DB
:1013680025C01EF026C01FF098EC13F0030E286E5F
:10137800700E276E5C0EE82EFED7272EFCD7282E7F
:10138800FAD700D02F4A302A30BED4EF09F03050B7
:1013980009E12E0E2F5CD8A0D4EF09F0D6EF09F0A2
:1013A8009AEF09F0230E1C6E000E1D6E250E1E6EA0
:1013B800000E1F6E6EEC10F0FF0E4F244F6EFF0EE6
:1013C8005020506E080E12000C50800B196E0C50F5
:1013D8000C24206E0BAEF3EF09F0F5EF09F0F6EFF1
:1013E80009F020802050D8B4FCEF09F0FEEF09F096
:1013F80013EF0AF02028D8A404EF0AF006EF0AF049
:101408000EEF0AF0000E096E000E0A6E000E0B6E4B
:10141800000E0C6E0B8E000E0C6E1BEF0AF0000E09
:10142800096E000E0A6E000E0B6E000E0C6E105048
:10143800800B191A10501024216E0FAE26EF0AF0F7
:1014480028EF0AF029EF0AF021802150D8B42FEFB5
:101458000AF031EF0AF046EF0AF02128D8A437EF56
:101468000AF039EF0AF041EF0AF0000E0D6E000E97
:101478000E6E000E0F6E000E106E0F8E000E106EA8
:101488004EEF0AF0000E0D6E000E0E6E000E0F6E7F
:10149800000E106E0D500E100F101010D8A457EF3C
:1014A8000AF059EF0AF071EF0AF0000E096E000E0B
:1014B8000A6E000E0B6E000E0C6E800E0B127F0E65
:1014C8000C1219500C1209C009F00AC00AF00BC01E
:1014D8000BF00CC00CF0B4EF0BF02050D8A477EF51
:1014E8000AF079EF0AF083EF0AF0000E096E000E99
:1014F8000A6E000E0B6E000E0C6EB4EF0BF021504E
:1015080020C011F0126A115E000E125A7F0E1124CB
:101518001A6E000E12201B6E09C015F00AC016F0D4
:101528000BC017F00CC018F0000E096E000E0A6E02
:10153800000E0B6E000E0C6E000E1C6E000E1D6E63
:10154800000E1E6E000E1F6E000E216EE4EF0AF0F4
:101558002150D8B4B2EF0AF0B4EF0AF0CBEF0AF09A
:10156800D8901536163617361836D89009360A36F2
:101578000B360C361FAEC3EF0AF0C5EF0AF0C6EF04
:101588000AF00980D8901C361D361E361F360D50BD
:10159800155C0E5016580F50175810501858D8A0F0
:1015A800D8EF0AF0DAEF0AF0E3EF0AF01F8C0D50DB
:1015B800155E0E50165A0F50175A1050185A212AF5
:1015C800190E2164EAEF0AF0ECEF0AF0ACEF0AF02A
:1015D8001550161017101810D8B4F5EF0AF0F7EFD9
:1015E8000AF00FEF0BF01C800FEF0BF0D8900936C4
:1015F8000A360B360C361FAE04EF0BF006EF0BF075
:1016080007EF0BF00980D8901C361D361E361F36A2
:101618001A06D8A01B060BAE14EF0BF016EF0BF052
:10162800FAEF0AF0000E216E1FAE1DEF0BF01FEF50
:101638000BF043EF0BF0FF0E1C14116EFF0E1D1480
:10164800126EFF0E1E14136E7F0E1F14146E1150AF
:10165800121013101410D8B434EF0BF036EF0BF04F
:101668003AEF0BF0010E216E43EF0BF009A03FEFAC
:101678000BF041EF0BF043EF0BF036EF0BF021507E
:10168800D8B449EF0BF04BEF0BF06FEF0BF0010EF6
:101698000926000E0A220B220C220CA056EF0BF092
:1016A80058EF0BF06FEF0BF009C011F00AC012F001
:1016B8000BC013F00CC014F014341432133212326D
:1016C800113211C009F012C00AF013C00BF014C097
:1016D8000CF01A4A1B2A1BBE7AEF0BF01B5008E1CC
:1016E8001A28D8A07AEF0BF07CEF0BF087EF0BF0FD
:1016F800000E1B6E1A68000E096E000E0A6E000EB0
:101708000B6E000E0C6E1BBE94EF0BF01B5006E127
:101718001A04D8B092EF0BF094EF0BF0A2EF0BF095
:10172800000E1B6E000E1A6E000E096E000E0A6E79
:10173800000E0B6E000E0C6E000E196E1AC020F013
:1017480020A0A9EF0BF0ABEF0BF0AEEF0BF00B8E78
:10175800AFEF0BF00B9ED89020300C6E65EF0AF0BF
:1017680012007EEC14F07EEC13F0000E506E000EAA
:101778004F6E000E00019F6F000E9E6F000EB36F3C
:10178800000EB26FA30EB225D96E000EB321DA6E29
:10179800000EDF6EB24BB32BB3BFDCEF0BF0B351CF
:1017A80009E10F0EB25DD8A0DCEF0BF0DEEF0BF015
:1017B800C6EF0BF089EC14F064EC14F0E6C00DF001
:1017C800E7C00EF09CC00FF09DC010F0DFEC13F0E6
:1017D80094EC14F0000E0A6EC80E096E46EC11F077
:1017E800D40E096E000E0A6E67EC12F0DD0E096E5B
:1017F800000E0A6E32EC12F085948598839E879CC1
:10180800849E7C9E889680968890809086907E9014
:101818009CEC12F014EC13F0C4EC12F0ECEC12F0A7
:10182800000E0001A26FD40E1C6E000E1D6EDD0EA0
:101838001E6E000E1F6E6EEC10F04F045010D8A4F0
:1018480028EF0CF02AEF0CF02DEF0CF07E802EEF35
:101858000CF07E900001A005A111D8A436EF0CF081
:1018680038EF0CF017EF0CF09FBF44EF0CF09F51CE
:1018780009E1020E9E5DD8A044EF0CF046EF0CF093
:1018880017EF0CF0D40E1C6E000E1D6EDD0E1E6ED2
:10189800000E1F6E98EC13F0520E326E2B0E316E46
:1018A800000EE82EFED7312EFCD7322EFAD700D004
:1018B8007C9E0001A251D8A464EF0CF066EF0CF0F6
:1018C8009FEF0CF0B40E226E000E236EE3EC10F0C6
:1018D800B40E226E000E236E4AEC0EF080A677EF4F
:1018E8000CF07BEF0CF0316A312A7CEF0CF0316A96
:1018F80031463146314680503118F70B3118806E29
:10190800B40E216E000E226ED40E236E000E246ECD
:10191800DD0E256E000E266E0CEC07F0316EA30E60
:101928004F24D96E000E5020DA6E31C0DFFF4F4AC7
:10193800502AB0EF0CF0A30E216E000E226ED40ECA
:10194800236E000E246EDD0E256E000E266E75ECDD
:101958000FF04F06D8A050068096000E0001A16F28
:10196800000EA06F17EF0CF01BEF00F01C6E1C5060
:10197800D8B4C1EF0CF0C3EF0CF0E5EF0CF017BED4
:10198800CAEF0CF0C8EF0CF0E5EF0CF014C018F03B
:1019980015C019F016C01AF017C01BF0181E191E32
:1019A8001A1E1B1E182A000E19221A221B2218C0E2
:1019B8001EF019C01FF01AC020F01BC021F0EDEF77
:1019C8000CF014C01EF015C01FF016C020F017C090
:1019D80021F01450151016101710D8A4F6EF0CF0BB
:1019E800F8EF0CF002EF0DF0000E146E000E156EFD
:1019F800000E166E000E176E93EF0DF0960E1D6E0C
:101A08000CEF0DF01D2AD890213220321F321E32E1
:101A1800000E1E14186E000E1F14196E000E2014EE
:101A28001A6EFE0E21141B6E185019101A101B1076
:101A3800D8A421EF0DF023EF0DF006EF0DF031EFF4
:101A48000DF01D2A010E1E26000E1F222022212223
:101A5800D890213220321F321E32000E1E14186E0A
:101A6800000E1F14196E000E20141A6EFF0E21149A
:101A78001B6E185019101A101B10D8A446EF0DF041
:101A880048EF0DF025EF0DF050EF0DF01D06D89042
:101A98001E361F362036213620BE55EF0DF057EF83
:101AA8000DF05FEF0DF0020E1D605DEF0DF05FEFC2
:101AB8000DF04AEF0DF01DB064EF0DF066EF0DF07C
:101AC80067EF0DF0209ED8901D321DC018F0196ADE
:101AD8001A6A1B6A18C01BF01A6A196A186A185021
:101AE8001E1219501F121A5020121B5021121C507E
:101AF800D8B481EF0DF083EF0DF08BEF0DF017BE2A
:101B08008AEF0DF088EF0DF08BEF0DF0218E1EC0DF
:101B180014F01FC015F020C016F021C017F01200F5
:101B280020EE02F01650D9261750DA22DF50D8B42A
:101B3800A0EF0DF0A2EF0DF0D6EF0DF016C0D9FF13
:101B480017C0DAFFDF50186E1850096E0A6A20EEC7
:101B580003F01650D9261750DA22DECF0BF0DDCF6E
:101B68000CF031EC14F009C00FF00AC010F0000EB0
:101B7800126E640E116E86EC11F020EE03F0165012
:101B8800D9261750DA22DF50196E0F50195C1A6ED9
:101B980020EE03F01650D9261750DA22DF501B6EBC
:101BA800F9EF0DF016C0D9FF17C0DAFFDF50186E35
:101BB8001850096E0A6A20EE03F01650D9261750FD
:101BC800DA22DECF0BF0DDCF0CF031EC14F009C0D7
:101BD8000FF00AC010F0000E126E640E116E86EC43
:101BE80011F00F501A6E000E1B6E20EE01F0165009
:101BF800D9261750DA22DF50D8B405EF0EF007EFD8
:101C08000EF029EF0EF020EE05F01650D9261750E9
:101C1800DA22DECF18F0DDCF19F018C0D9FF19C0CD
:101C2800DAFF1AC0DFFF20EE07F01650D92617504A
:101C3800DA22DECF18F0DDCF19F018C0D9FF19C0AD
:101C4800DAFF1BC0DFFF49EF0EF020EE05F016505B
:101C5800D9261750DA22DECF18F0DDCF19F018C0D8
:101C6800D9FF19C0DAFF1BC0DFFF20EE07F01650BE
:101C7800D9261750DA22DECF18F0DDCF19F018C0B8
:101C8800D9FF19C0DAFF1AC0DFFF120020EE0CF0EE
:101C98002250D9262350DA22DECF09F0DECF0AF00F
:101CA800DECF0BF0DECF0CF022C0D9FF23C0DAFF65
:101CB800DECF0DF0DECF0EF0DECF0FF0DECF10F06E
:101CC800E8EC09F020EE10F02250D9262350DA2251
:101CD80009C0DEFF0AC0DEFF0BC0DEFF0CC0DEFF5E
:101CE80020EE0CF02250D9262350DA22DECF09F05C
:101CF800DECF0AF0DECF0BF0DECF0CF020EE04F0E2
:101D08002250D9262350DA22DECF0DF0DECF0EF096
:101D1800DECF0FF0DECF10F0E8EC09F020EE14F083
:101D28002250D9262350DA2209C0DEFF0AC0DEFF7E
:101D38000BC0DEFF0CC0DEFF20EE0CF02250D926CF
:101D48002350DA22DECF09F0DECF0AF0DECF0BF027
:101D5800DECF0CF020EE08F02250D9262350DA22EC
:101D6800DECF0DF0DECF0EF0DECF0FF0DECF10F0BD
:101D7800E8EC09F020EE18F02250D9262350DA2298
:101D880009C0DEFF0AC0DEFF0BC0DEFF0CC0DEFFAD
:101D980020EE0CF02250D9262350DA22DECF09F0AB
:101DA800DECF0AF0DECF0BF0DECF0CF0000E0D6EAA
:101DB800000E0E6E000E0F6E000E106EE8EC09F0AD
:101DC80020EE1CF02250D9262350DA2209C0DEFF6B
:101DD8000AC0DEFF0BC0DEFF0CC0DEFF1200000EE3
:101DE8000914116E000E0A14126E800E0B14136E75
:101DF8007F0E0C14146E1150121013101410D8A466
:101E080008EF0FF00AEF0FF012EF0FF0000E096E57
:101E1800000E0A6E000E0B6E000E0C6E000E0D14F6
:101E2800116E000E0E14126E800E0F14136E7F0EBC
:101E38001014146E1150121013101410D8A427EF98
:101E48000FF029EF0FF031EF0FF0000E0D6E000EBE
:101E58000E6E000E0F6E000E106E0CAE36EF0FF009
:101E680038EF0FF041EF0FF0096C0A1ED8B00A2ABC
:101E78000B1ED8B00B2A800E0C5610AE46EF0FF092
:101E880048EF0FF051EF0FF00D6C0E1ED8B00E2A70
:101E98000F1ED8B00F2A800E1056000E091A000E19
:101EA8000A1A000E0B1A800E0C1A000E0D1A000EDC
:101EB8000E1A000E0F1A800E101A0D50095C0E50E3
:101EC8000A580F500B5810500C58D8B06EEF0FF03E
:101ED80070EF0FF073EF0FF0D89074EF0FF0D88019
:101EE80012004F502124D96E50502220DA6EDE04A1
:101EF800D8A481EF0FF083EF0FF0F1EF0FF023C0BC
:101F08001CF024C01DF025C01EF026C01FF0F2EC06
:101F18000FF0210E286E780E276E980EE82EFED749
:101F2800272EFCD7282EFAD700D023C01CF024C0B7
:101F38001DF025C01EF026C01FF098EC13F0070E08
:101F4800286E7F0E276E500EE82EFED7272EFCD760
:101F5800282EFAD7000E2A6E000E296E23C01CF018
:101F680024C01DF025C01EF026C01FF0F9EC11F0AA
:101F7800020E286EF30E276EB00EE82EFED7272E1F
:101F8800FCD7282EFAD700D023C01CF024C01DF09F
:101F980025C01EF026C01FF098EC13F0030E286E23
:101FA800700E276E5C0EE82EFED7272EFCD7282E43
:101FB800FAD700D0294A2A2A2ABEECEF0FF02A5075
:101FC80009E1180E295CD8A0ECEF0FF0EEEF0FF046
:101FD800B2EF0FF04F06D8A0500612001CC0D9FF70
:101FE8001DC0DAFF050EDF6E1EC0D9FF1FC0DAFF65
:101FF800050EDF6E20EE01F01E50D9261F50DA22A2
:10200800000EDF6E20EE01F01C50D9261D50DA229A
:10201800000EDF6E20EE02F01C50D9261D50DA2289
:10202800010EDF6E20EE02F01E50D9261F50DA2274
:10203800010EDF6E3DEF10F01CC0D9FF1DC0DAFFA6
:10204800DF2A1EC0D9FF1FC0DAFFDF2AD00E206E9C
:10205800CA0EE82EFED7202EFCD71CC016F01DC0D5
:1020680017F094EC0DF01EC016F01FC017F094EC9A
:102078000DF01CC0D9FF1DC0DAFF150EDF6047EF59
:1020880010F049EF10F055EF10F01EC0D9FF1FC037
:10209800DAFF140EDF6453EF10F055EF10F020EF65
:1020A80010F01CC0D9FF1DC0DAFF140EDF6E1EC071
:1020B800D9FF1FC0DAFF140EDF6E1CC016F01DC05A
:1020C80017F094EC0DF01EC016F01FC017F094EC3A
:1020D8000DF012001CC0D9FF1DC0DAFF050EDF6E1F
:1020E8001EC0D9FF1FC0DAFF050EDF6E20EE01F01B
:1020F8001E50D9261F50DA22010EDF6E20EE01F0A5
:102108001C50D9261D50DA22010EDF6E20EE02F097
:102118001C50D9261D50DA22010EDF6E20EE02F087
:102128001E50D9261F50DA22010EDF6EB2EF10F0D2
:102138001CC0D9FF1DC0DAFFDF2A1EC0D9FF1FC08F
:10214800DAFFDF2A1CC016F01DC017F094EC0DF062
:102158001EC016F01FC017F094EC0DF01CC0D9FF7C
:102168001DC0DAFF2E0EDF60BCEF10F0BEEF10F0DE
:10217800CAEF10F01EC0D9FF1FC0DAFF2D0EDF64B2
:10218800C8EF10F0CAEF10F09CEF10F01CC0D9FF98
:102198001DC0DAFF2D0EDF6E1EC0D9FF1FC0DAFF8B
:1021A8002D0EDF6E1CC016F01DC017F094EC0DF05C
:1021B8001EC016F01FC017F094EC0DF012009CEC36
:1021C80012F00DC014F00EC015F0166A176A000E52
:1021D800BAEC0CF022C0D9FF23C0DAFF14C0DEFF2E
:1021E80015C0DEFF16C0DEFF17C0DEFF14EC13F0CB
:1021F8000DC014F00EC015F0166A176A000EBAEC7E
:102208000CF020EE08F02250D9262350DA2214C010
:10221800DEFF15C0DEFF16C0DEFF17C0DEFFC4EC10
:1022280012F00DC014F00EC015F0166A176A000EF1
:10223800BAEC0CF020EE04F02250D9262350DA2212
:1022480014C0DEFF15C0DEFF16C0DEFF17C0DEFFBC
:10225800ECEC12F00DC014F00EC015F0166A176AF7
:10226800000EBAEC0CF020EE0CF02250D9262350C8
:10227800DA2214C0DEFF15C0DEFF16C0DEFF17C06D
:10228800DEFF1200050E0E01746F060E766F070E44
:10229800696F080E886FBD508F0B3009BD6EE00E58
:1022A800BE16BF50F00B0109BF6EC80EBC6EBD8EC6
:1022B800000EAA6E000EA66E000E0F01256F000E0E
:1022C800216FFC0EAD16F30EAD16CF0EAD163F0EF8
:1022D800AD16AB88AB50F00B0C09AB6EAB8EA78874
:1022E800A750F00B0C09A76EA78E26892651F00B74
:1022F8000C09266F268F22892251F00B0C09226FB8
:10230800228F1200000E146E000E136E1150121060
:10231800D8B491EF11F093EF11F0BBEF11F0010E6B
:10232800156E9BEF11F0D89011361236152A12AEA1
:10233800A0EF11F0A2EF11F097EF11F0D89013363B
:10234800143611500F5C12501058D8A0AEEF11F08F
:10235800B0EF11F0B5EF11F011500F5E1250105A96
:102368001380D89012321132152EA2EF11F013C03B
:102378000FF014C010F012001CC0D9FF1DC0DAFF06
:102388003C0EDF6E1EC0D9FF1FC0DAFF3C0EDF6EA9
:1023980020EE02F01C50D9261D50DA22010EDF6E05
:1023A80020EE02F01E50D9261F50DA22010EDF6EF1
:1023B80020EE01F01E50D9261F50DA22000EDF6EE3
:1023C80020EE01F01C50D9261D50DA22010EDF6ED6
:1023D8001CC016F01DC017F094EC0DF01EC016F0CE
:1023E8001FC017F094EC0DF012001CC0D9FF1DC0DF
:1023F800DAFF3C0EDF6E1EC0D9FF1FC0DAFF3C0EAD
:10240800DF6E20EE02F01C50D9261D50DA22010E94
:10241800DF6E20EE02F01E50D9261F50DA22010E80
:10242800DF6E20EE01F01C50D9261D50DA22000E76
:10243800DF6E20EE01F01E50D9261F50DA22010E61
:10244800DF6E1CC016F01DC017F094EC0DF01EC016
:1024580016F01FC017F094EC0DF0120009C0D9FF58
:102468000AC0DAFF320EDF6E20EE01F00950D926DD
:102478000A50DA22010EDF6E20EE02F00950D9264A
:102488000A50DA22010EDF6E20EE05F00950D92637
:102498000A50DA22250EDE6E0F0EDD6E20EE07F0F2
:1024A8000950D9260A50DA22210EDE6E0F0EDD6E93
:1024B80020EE03F00950D9260A50DA22C80EDE6E43
:1024C800000EDD6E120009C0D9FF0AC0DAFF320E15
:1024D800DF6E20EE01F00950D9260A50DA22010EEB
:1024E800DF6E20EE02F00950D9260A50DA22010EDA
:1024F800DF6E20EE05F00950D9260A50DA22AA0E1E
:10250800DE6E0F0EDD6E20EE07F00950D9260A5058
:10251800DA22A60EDE6E0F0EDD6E20EE03F00950F5
:10252800D9260A50DA22C80EDE6E000EDD6E1200C1
:10253800B6EC14F0520E9AEC14F0B60E9AEC14F0B5
:10254800ACEC14F0530E9AEC14F0010E5DEC13F0A1
:102558000F6E0F50126E136A000E5DEC13F00F6EC3
:102568000F50116E106A12501010126E1350111085
:10257800136EB1EC14F012C00DF013C00EF012007F
:10258800B6EC14F0520E9AEC14F0B80E9AEC14F063
:10259800ACEC14F0530E9AEC14F0010E5DEC13F051
:1025A8000F6E0F50126E136A000E5DEC13F00F6E73
:1025B8000F50116E106A12501010126E1350111035
:1025C800136EB1EC14F012C00DF013C00EF012002F
:1025D800B6EC14F0520E9AEC14F0B40E9AEC14F017
:1025E800ACEC14F0530E9AEC14F0010E5DEC13F001
:1025F8000F6E0F50126E136A000E5DEC13F00F6E23
:102608000F50116E106A12501010126E13501110E4
:10261800136EB1EC14F012C00DF013C00EF01200DE
:10262800B6EC14F0520E9AEC14F0BA0E9AEC14F0C0
:10263800ACEC14F0530E9AEC14F0010E5DEC13F0B0
:102648000F6E0F50126E136A000E5DEC13F00F6ED2
:102658000F50116E106A12501010126E1350111094
:10266800136EB1EC14F012C00DF013C00EF012008E
:102678008A0EF66E290EF76E000EF86E0900F5CF79
:10268800E6F00900F5CFE7F000EE60F0520EEE6AD2
:10269800E806FDE100EE33F0220EEE6AE806FDE101
:1026A80055905592000EF86E0E0EF76E0001B5EFBC
:1026B8000BF00B6E09EC14F00E01DA8709EC14F03C
:1026C800D5CE0CF009EC14F00B50D8B46EEF13F023
:1026D80072EF13F00A6A0A2A73EF13F00A6A0A3AC9
:1026E8000A460E01DA510A18DF0B0A18DA6FDA897E
:1026F8000C501200CAEC13F0010E0B6E000E44ECE5
:1027080014F03F0E0D6E550EE82EFED70D2EFCD799
:1027180000F0030E0B6E000E44EC14F0D50E0B6E99
:10272800010E44EC14F012001CC0D9FF1DC0DAFFE2
:10273800000EDF6E1EC0D9FF1FC0DAFF000EDF6E6D
:102748001CC016F01DC017F094EC0DF01EC016F05A
:102758001FC017F094EC0DF01200C0EC14F0520EEC
:10276800A6EC14F0E60EA6EC14F0BBEC14F071EC39
:1027780014F0A0EC14F0E6C005F0E7C006F09CC029
:1027880007F09DC008F0F4EC13F012000E01D951C7
:10279800F00B0809D96FD98B9F0ED66F848A848C69
:1027A800A79BA79D1D0E1D6F1E0E1C6F1C0E6F6F25
:1027B8001B0E706F12000FC00BF0040E44EC14F0E7
:1027C80010500B6E050E44EC14F00DC00BF0060E05
:1027D80044EC14F00E500B6E070E44EC14F012008B
:1027E80007C003F0040E54EC14F00850036E050EF5
:1027F80054EC14F005C003F0060E54EC14F0065027
:10280800036E070E54EC14F012000E01D8B50FEF4A
:1028180014F011EF14F009EF14F0DACE09F01F0EDE
:102828000916D8A41AEF14F01CEF14F009EF14F0ED
:1028380012000E01D8B523EF14F025EF14F01DEFA8
:1028480014F0DACE01F01F0E0116D8A42EEF14F002
:1028580030EF14F01DEF14F0120009500B02F3CF03
:102868000DF0F4CF0EF009500C02F3500E260A506A
:102878000B02F3500E260DC009F00EC00AF012002C
:102888000C6EB6EC14F0520E9AEC14F00C50800951
:102898009AEC14F00B509AEC14F0B1EC14F012000E
:1028A800046EC0EC14F0520EA6EC14F0045080092B
:1028B800A6EC14F00350A6EC14F0BBEC14F01200D4
:1028C800130E0B6E000E44EC14F0D00E0D6ECA0EF3
:1028D800E82EFED70D2EFCD71200130E036E000E45
:1028E80054EC14F0D00E056ECA0EE82EFED7052E55
:1028F800FCD7120087907F8081987988869E7E8E8B
:1029080081967986859E7D8E120082800E019A912D
:10291800339129811F81F290F28AF28CF28E120093
:10292800020E0B6E0C0E44EC14F012000A6E09EC49
:1029380014F00AC0D5FE1200020E036E0C0E54EC01
:1029480014F01200026E1DEC14F002C0D5FE120045
:1029580009EC14F00E01DA83120009EC14F00E01F0
:10296800DA85120009EC14F00E01DA8112001DEC70
:1029780014F00E01DA8512001DEC14F00E01DA8154
:042988001200B80B76
:020000040020DA
:10000000FF0FFF0FFF0FFF0FFF0FFF0FFF0FFF0F80
:020000040030CA
:0C000000AAFFFFFF9FFFFFFFFFFFFFFFB5
:00000001FF
