:040000001BEF00F002
:1000080051820E0133A10BEF00F00DEF00F019EF54
:1000180000F07C8E000E4C6E010E4B6E0001B24B50
:10002800B32B86EC19F00E0133915192110011EFA8
:0200380019F0BD
:100E000000524742433A2566202566202566202564
:050E100066200A00004D
:100E160020EE1CF02750D9262850DA22DECF09F022
:100E2600DECF0AF0DECF0BF0DECF0CF0000E0D6E3B
:100E3600000E0E6E100E0F6E410E106EA5EC14F025
:100E4600D8B028EF07F02AEF07F006EF0AF0000EF9
:100E5600096E000E0A6EC00E0B6E400E0C6E20EE72
:100E66001CF02750D9262850DA22DECF0DF0DECF2F
:100E76000EF0DECF0FF0DECF10F0A5EC14F0D8B0F8
:100E860047EF07F049EF07F006EF0AF020EE18F0FB
:100E96002750D9262850DA22DECF09F0DECF0AF015
:100EA600DECF0BF0DECF0CF0000E0D6E000E0E6ED8
:100EB600A00E0F6E400E106EA5EC14F0D8B066EFC3
:100EC60007F068EF07F029EF08F09A0E096E990E01
:100ED6000A6ED90E0B6E3F0E0C6E20EE10F02750E8
:100EE600D9262850DA22DECF0DF0DECF0EF0DECF87
:100EF6000FF0DECF10F0A5EC14F0D8B085EF07F0B8
:100F060087EF07F029EF08F020EE10F02750D926DA
:100F16002850DA22DECF09F0DECF0AF0DECF0BF062
:100F2600DECF0CF0CD0E0D6ECC0E0E6E0C0E0F6ECF
:100F3600400E106EA5EC14F0D8B0A4EF07F0A6EFA3
:100F460007F029EF08F0000E096E000E0A6E400E3B
:100F56000B6E400E0C6E20EE14F02750D92628504A
:100F6600DA22DECF0DF0DECF0EF0DECF0FF0DECFD1
:100F760010F0A5EC14F0D8B0C3EF07F0C5EF07F0FA
:100F860029EF08F020EE14F02750D9262850DA224F
:100F9600DECF09F0DECF0AF0DECF0BF0DECF0CF0AD
:100FA600000E0D6E000E0E6E600E0F6E400E106E71
:100FB600A5EC14F0D8B0E2EF07F0E4EF07F029EF64
:100FC60008F029C01CF02AC01DF02BC01EF02CC052
:100FD6001FF027EC15F0F40E2E6E820E2D6E050E08
:100FE600E82EFED72D2EFCD72E2EFAD700F029C0DC
:100FF6001CF02AC01DF02BC01EF02CC01FF06DEC9B
:1010060019F0090E2E6E1E0E2D6EE40EE82EFED77A
:101016002D2EFCD72E2EFAD700D029C01CF02AC0C0
:101026001DF02BC01EF02CC01FF0A3EC17F0150E00
:101036002E6E4B0E2D6EBE0EE82EFED72D2EFCD735
:101046002E2EFAD700D0050E13EF0DF0000E096E06
:10105600000E0A6EB00E0B6E400E0C6E20EE18F0EF
:101066002750D9262850DA22DECF0DF0DECF0EF03B
:10107600DECF0FF0DECF10F0A5EC14F0D8B046EFBF
:1010860008F048EF08F005EF09F020EE18F02750B9
:10109600D9262850DA22DECF09F0DECF0AF0DECFDD
:1010A6000BF0DECF0CF0000E0D6E000E0E6EC00EB5
:1010B6000F6E400E106EA5EC14F0D8B065EF08F078
:1010C60067EF08F005EF09F0330E096E330E0A6E6E
:1010D600B30E0B6E3F0E0C6E20EE10F02750D92685
:1010E6002850DA22DECF0DF0DECF0EF0DECF0FF085
:1010F600DECF10F0A5EC14F0D8B084EF08F086EF40
:1011060008F005EF09F020EE10F02750D9262850F8
:10111600DA22DECF09F0DECF0AF0DECF0BF0DECF2B
:101126000CF09A0E0D6E990E0E6ED90E0F6E3F0EC6
:10113600106EA5EC14F0D8B0A3EF08F0A5EF08F0F8
:1011460005EF09F0330E096E330E0A6E830E0B6E31
:10115600400E0C6E20EE14F02750D9262850DA22C5
:10116600DECF0DF0DECF0EF0DECF0FF0DECF10F0CB
:10117600A5EC14F0D8B0C2EF08F0C4EF08F005EF04
:1011860009F020EE14F02750D9262850DA22DECFB7
:1011960009F0DECF0AF0DECF0BF0DECF0CF0000E4A
:1011A6000D6E000E0E6E900E0F6E400E106EA5ECBC
:1011B60014F0D8B0E1EF08F0E3EF08F005EF09F01E
:1011C60029C021F02AC022F02BC023F02CC024F025
:1011D60046EC18F029C01CF02AC01DF02BC01EF0EA
:1011E6002CC01FF06AEC17F0230E2E6EE70E2D6E44
:1011F600F80EE82EFED72D2EFCD72E2EFAD7060E89
:1012060013EF0DF0330E096E330E0A6E530E0B6E8E
:10121600400E0C6E20EE18F02750D9262850DA2200
:10122600DECF0DF0DECF0EF0DECF0FF0DECF10F00A
:10123600A5EC14F0D8B022EF09F024EF09F006EF80
:101246000AF020EE18F02750D9262850DA22DECFF1
:1012560009F0DECF0AF0DECF0BF0DECF0CF09A0EEF
:101266000D6E990E0E6E790E0F6E400E106EA5EC79
:1012760014F0D8B041EF09F043EF09F006EF0AF099
:10128600CD0E096ECC0E0A6E2C0E0B6E400E0C6E39
:1012960020EE10F02750D9262850DA22DECF0DF0A6
:1012A600DECF0EF0DECF0FF0DECF10F0A5EC14F09F
:1012B600D8B060EF09F062EF09F006EF0AF020EE11
:1012C60010F02750D9262850DA22DECF09F0DECFDB
:1012D6000AF0DECF0BF0DECF0CF0CD0E0D6ECC0E8D
:1012E6000E6E4C0E0F6E400E106EA5EC14F0D8B0BC
:1012F6007FEF09F081EF09F006EF0AF0000E096EA4
:10130600000E0A6E200E0B6E400E0C6E20EE14F0D0
:101316002750D9262850DA22DECF0DF0DECF0EF088
:10132600DECF0FF0DECF10F0A5EC14F0D8B09EEFB4
:1013360009F0A0EF09F006EF0AF020EE14F02750AE
:10134600D9262850DA22DECF09F0DECF0AF0DECF2A
:101356000BF0DECF0CF09A0E0D6E990E0E6E390E56
:101366000F6E400E106EA5EC14F0D8B0BDEF09F06C
:10137600BFEF09F006EF0AF07EA0C4EF09F0C8EF50
:1013860009F02D6A2D2AC9EF09F02D6A7E502D1815
:10139600FE0B2D187E6E29C021F02AC022F02BC02C
:1013A60023F02CC024F046EC18F029C01CF02AC00B
:1013B6001DF02BC01EF02CC01FF0A3EC17F0230E5F
:1013C6002E6EE70E2D6EF80EE82EFED72D2EFCD7CC
:1013D6002E2EFAD729C01CF02AC01DF02BC01EF0F5
:1013E6002CC01FF06DEC19F0520E2E6E2B0E2D6ECA
:1013F600000EE82EFED72D2EFCD72E2EFAD700D0C3
:10140600070E13EF0DF020EE1CF02750D9262850BA
:10141600DA22DECF09F0DECF0AF0DECF0BF0DECF28
:101426000CF0000E0D6E000E0E6EC00E0F6E400E0E
:10143600106EA5EC14F0D8B023EF0AF025EF0AF0F1
:10144600C3EF0BF0000E096E000E0A6EC00E0B6E97
:101456003F0E0C6E20EE1CF02750D9262850DA22BB
:10146600DECF0DF0DECF0EF0DECF0FF0DECF10F0C8
:10147600A5EC14F0D8B042EF0AF044EF0AF0C3EF3F
:101486000BF0000E096E000E0A6E000E0B6E410E7A
:101496000C6E20EE14F02750D9262850DA22DECF23
:1014A6000DF0DECF0EF0DECF0FF0DECF10F0A5ECA4
:1014B60014F0D8B061EF0AF063EF0AF086EF0AF095
:1014C60029C021F02AC022F02BC023F02CC024F022
:1014D60046EC18F029C01CF02AC01DF02BC01EF0E7
:1014E6002CC01FF06AEC17F0170E2E6EBB0E2D6E79
:1014F6001D0EE82EFED72D2EFCD72E2EFAD700F085
:10150600010E13EF0DF0000E096E000E0A6E900E1E
:101516000B6E400E0C6E20EE18F02750D926285080
:10152600DA22DECF0DF0DECF0EF0DECF0FF0DECF0B
:1015360010F0A5EC14F0D8B0A3EF0AF0A5EF0AF06E
:10154600E7EF0AF020EE18F02750D9262850DA22C5
:10155600DECF09F0DECF0AF0DECF0BF0DECF0CF0E7
:10156600000E0D6E000E0E6EB00E0F6E400E106E5B
:10157600A5EC14F0D8B0C2EF0AF0C4EF0AF0E7EF1A
:101586000AF029C021F02AC022F02BC023F02CC07B
:1015960024F046EC18F029C01CF02AC01DF02BC020
:1015A6001EF02CC01FF0A3EC17F0160E2E6EEB0EDD
:1015B6002D6E530EE82EFED72D2EFCD72E2EFAD7E3
:1015C60000F0020E13EF0DF0CD0E096ECC0E0A6E72
:1015D6002C0E0B6E400E0C6E20EE18F02750D926FE
:1015E6002850DA22DECF0DF0DECF0EF0DECF0FF080
:1015F600DECF10F0A5EC14F0D8B004EF0BF006EF38
:101606000BF0C3EF0BF020EE18F02750D926285028
:10161600DA22DECF09F0DECF0AF0DECF0BF0DECF26
:101626000CF0330E0D6E330E0E6E530E0F6E400E13
:10163600106EA5EC14F0D8B023EF0BF025EF0BF0ED
:10164600C3EF0BF0CD0E096ECC0E0A6E2C0E0B6E90
:10165600400E0C6E20EE10F02750D9262850DA22C4
:10166600DECF0DF0DECF0EF0DECF0FF0DECF10F0C6
:10167600A5EC14F0D8B042EF0BF044EF0BF0C3EF3B
:101686000BF020EE10F02750D9262850DA22DECFB4
:1016960009F0DECF0AF0DECF0BF0DECF0CF0330E12
:1016A6000D6E330E0E6E530E0F6E400E106EA5ECC1
:1016B60014F0D8B061EF0BF063EF0BF0C3EF0BF053
:1016C600CD0E096ECC0E0A6E2C0E0B6E400E0C6EF5
:1016D60020EE14F02750D9262850DA22DECF0DF05E
:1016E600DECF0EF0DECF0FF0DECF10F0A5EC14F05B
:1016F600D8B080EF0BF082EF0BF0C3EF0BF020EECB
:1017060014F02750D9262850DA22DECF09F0DECF92
:101716000AF0DECF0BF0DECF0CF0330E0D6E330E7B
:101726000E6E530E0F6E400E106EA5EC14F0D8B070
:101736009FEF0BF0A1EF0BF0C3EF0BF029C021F0E8
:101746002AC022F02BC023F02CC024F046EC18F05F
:1017560029C01CF02AC01DF02BC01EF02CC01FF0A3
:10176600A3EC17F0280E2E6E5E0E2D6ED00EE82E10
:10177600FED72D2EFCD72E2EFAD7030E13EF0DF023
:10178600000E096E000E0A6EE00E0B6E400E0C6E19
:1017960020EE1CF02750D9262850DA22DECF0DF095
:1017A600DECF0EF0DECF0FF0DECF10F0A5EC14F09A
:1017B600D8B0E0EF0BF0E2EF0BF089EF0CF0000E83
:1017C600096E000E0A6EA00E0B6E400E0C6E20EE19
:1017D60018F02750D9262850DA22DECF0DF0DECFBA
:1017E6000EF0DECF0FF0DECF10F0A5EC14F0D8B07F
:1017F600FFEF0BF001EF0CF045EF0CF029C01CF0E9
:101806002AC01DF02BC01EF02CC01FF027EC15F0CF
:10181600F40E2E6E820E2D6E050EE82EFED72D2EA0
:10182600FCD72E2EFAD700F029C01CF02AC01DF0D6
:101836002BC01EF02CC01FF06DEC19F0090E2E6E99
:101846001E0E2D6EE40EE82EFED72D2EFCD72E2E64
:10185600FAD700D029C01CF02AC01DF02BC01EF0FC
:101866002CC01FF06AEC17F0180E2E6E8A0E2D6E25
:10187600E80EE82EFED72D2EFCD72E2EFAD7040E14
:1018860013EF0DF020EE18F02750D9262850DA2253
:10189600DECF09F0DECF0AF0DECF0BF0DECF0CF0A4
:1018A600000E0D6E000E0E6EA00E0F6E400E106E28
:1018B600A5EC14F0D8B062EF0CF064EF0CF013EF67
:1018C6000DF0010E0001B46F29C021F02AC022F0EC
:1018D6002BC023F02CC024F046EC18F029C01CF0D5
:1018E6002AC01DF02BC01EF02CC01FF0A3EC17F071
:1018F600270E2E6E270E2D6E200EE82EFED72D2ECD
:10190600FCD72E2EFAD7080E13EF0DF048BE97EF30
:101916000CF0485007E1040E475CD8B095EF0CF088
:1019260097EF0CF09BEF0CF0474A482A03EF0DF0B7
:1019360029C01CF02AC01DF02BC01EF02CC01FF0C1
:101946006DEC19F0070E2E6E7F0E2D6E500EE82EE2
:10195600FED72D2EFCD72E2EFAD7000E306E000E97
:101966002F6E30BEC0EF0CF0305009E15B0E2F5CDD
:10197600D8A0C0EF0CF0C2EF0CF0C4EF0CF0FFEFF4
:101986000CF029C01CF02AC01DF02BC01EF02CC084
:101996001FF0A3EC17F0030E2E6E700E2D6E5C0E6C
:1019A600E82EFED72D2EFCD72E2EFAD700D029C032
:1019B6001CF02AC01DF02BC01EF02CC01FF06DECD1
:1019C60019F0050E2E6EDF0E2D6EBC0EE82EFED71C
:1019D6002D2EFCD72E2EFAD72F4A302A30BEFDEFF9
:1019E6000CF0305009E15B0E2F5CD8A0FDEF0CF037
:1019F600FFEF0CF0C4EF0CF0000E486E000E476EC1
:101A06004B504C10D8A40AEF0DF00CEF0DF00FEF71
:101A16000DF0010E0001B46F4906D8A04A06090E62
:101A26001200495027242D6E4A5028202E6EFE0E95
:101A36002D24D96EFF0E2E20DA6EDE04D8A426EFF2
:101A46000DF028EF0DF04AEF0DF029C021F02AC065
:101A560022F02BC023F02CC024F046EC18F029C04D
:101A66001CF02AC01DF02BC01EF02CC01FF0A3ECEA
:101A760017F0170E2E6EBB0E2D6E1D0EE82EFED71E
:101A86002D2EFCD72E2EFAD700F01EEF0FF0495060
:101A960027242D6E4A5028202E6EFE0E2D24D96E38
:101AA600FF0E2E20DA6E020EDE18D8A45DEF0DF0C2
:101AB6005FEF0DF075EF0DF029C021F02AC022F07E
:101AC6002BC023F02CC024F046EC18F029C01CF0E3
:101AD6002AC01DF02BC01EF02CC01FF06AEC17F0B8
:101AE6003CEF0DF0495027242D6E4A5028202E6ECB
:101AF600FE0E2D24D96EFF0E2E20DA6E030EDE1892
:101B0600D8A488EF0DF08AEF0DF0ABEF0DF029C0E9
:101B160021F02AC022F02BC023F02CC024F046EC82
:101B260018F029C01CF02AC01DF02BC01EF02CC0D6
:101B36001FF06AEC17F0290E2E6E2E0E2D6E9A0EE1
:101B4600E82EFED72D2EFCD72E2EFAD71EEF0FF03D
:101B5600495027242D6E4A5028202E6EFE0E2D2425
:101B6600D96EFF0E2E20DA6E040EDE18D8A4BEEF54
:101B76000DF0C0EF0DF04DEF0EF029C021F02AC098
:101B860022F02BC023F02CC024F046EC18F029C01C
:101B96001CF02AC01DF02BC01EF02CC01FF06AECF2
:101BA60017F0170E2E6EBB0E2D6E1D0EE82EFED7ED
:101BB6002D2EFCD72E2EFAD700F029C01CF02AC0F5
:101BC6001DF02BC01EF02CC01FF06DEC19F0090E95
:101BD6002E6E1E0E2D6EE40EE82EFED72D2EFCD791
:101BE6002E2EFAD700D029C01CF02AC01DF02BC01B
:101BF6001EF02CC01FF018EC16F0620E2E6E670E4B
:101C06002D6ECE0EE82EFED72D2EFCD72E2EFAD711
:101C160029C01CF02AC01DF02BC01EF02CC01FF0DE
:101C260027EC15F0310E2E6EB40E2D6E660EE82ED4
:101C3600FED72D2EFCD72E2EFAD729C01CF02AC08F
:101C46001DF02BC01EF02CC01FF0A3EC17F0180ED1
:101C56002E6E230E2D6E020EE82EFED72D2EFCD7ED
:101C66002E2EFAD729C01CF02AC01DF02BC01EF05C
:101C76002CC01FF06DEC19F0090E2E6E1E0E2D6E87
:101C8600E40EE82EFED72D2EFCD72E2EFAD700D046
:101C96001EEF0FF0495027242D6E4A5028202E6E35
:101CA600FE0E2D24D96EFF0E2E20DA6E050EDE18DE
:101CB600D8A460EF0EF062EF0EF0BCEF0EF029C074
:101CC6001CF02AC01DF02BC01EF02CC01FF06DECBE
:101CD60019F0090E2E6E1E0E2D6EE40EE82EFED79E
:101CE6002D2EFCD72E2EFAD700D029C01CF02AC0E4
:101CF6001DF02BC01EF02CC01FF0A3EC17F0150E24
:101D06002E6E4B0E2D6EBE0EE82EFED72D2EFCD758
:101D16002E2EFAD700D029C01CF02AC01DF02BC0E9
:101D26001EF02CC01FF06DEC19F0090E2E6E1E0E63
:101D36002D6EE40EE82EFED72D2EFCD72E2EFAD7CA
:101D460000D029C01CF02AC01DF02BC01EF02CC0EC
:101D56001FF018EC16F0A30E2E6E570E2D6E020E07
:101D6600E82EFED72D2EFCD72E2EFAD700D01EEF4A
:101D76000FF0495027242D6E4A5028202E6EFE0E55
:101D86002D24D96EFF0E2E20DA6E060EDE18D8A48C
:101D9600CFEF0EF0D1EF0EF0F3EF0EF029C021F0E9
:101DA6002AC022F02BC023F02CC024F046EC18F0F9
:101DB60029C01CF02AC01DF02BC01EF02CC01FF03D
:101DC600A3EC17F01D0E2E6E690E2D6EA50EE82ED5
:101DD600FED72D2EFCD72E2EFAD700F01EEF0FF0D1
:101DE600495027242D6E4A5028202E6EFE0E2D2493
:101DF600D96EFF0E2E20DA6E070EDE18D8A406EF77
:101E06000FF008EF0FF01EEF0FF029C021F02AC0E7
:101E160022F02BC023F02CC024F046EC18F029C089
:101E26001CF02AC01DF02BC01EF02CC01FF06AEC5F
:101E360017F0E5EF0EF012002550800B326E25509C
:101E46002524396E24AE2AEF0FF02CEF0FF02DEF7C
:101E56000FF039803950D8B433EF0FF035EF0FF06B
:101E66004AEF0FF03928D8A43BEF0FF03DEF0FF003
:101E760045EF0FF0000E226E000E236E000E246E4C
:101E8600000E256E248E000E256E52EF0FF0000E0A
:101E9600226E000E236E000E246E000E256E295053
:101EA600800B321A295029243A6E28AE5DEF0FF0C6
:101EB6005FEF0FF060EF0FF03A803A50D8B466EF5C
:101EC6000FF068EF0FF07DEF0FF03A28D8A46EEF11
:101ED6000FF070EF0FF078EF0FF0000E266E000E89
:101EE600276E000E286E000E296E288E000E296EB3
:101EF60085EF0FF0000E266E000E276E000E286E80
:101F0600000E296E2650271028102910D8A48EEF0F
:101F16000FF090EF0FF0A8EF0FF0000E226E000EFC
:101F2600236E000E246E000E256E800E24127F0E88
:101F360025123250251222C022F023C023F024C0DD
:101F460024F025C025F0EBEF10F03950D8A4AEEF01
:101F56000FF0B0EF0FF0BAEF0FF0000E226E000E8A
:101F6600236E000E246E000E256EEBEF10F03A5035
:101F760039C02AF02B6A2A5E000E2B5A7F0E2A24BD
:101F8600336E000E2B20346E22C02EF023C02FF0AD
:101F960024C030F025C031F0000E226E000E236EF4
:101FA600000E246E000E256E000E356E000E366E87
:101FB600000E376E000E386E000E3A6E1BEF10F0F4
:101FC6003A50D8B4E9EF0FF0EBEF0FF002EF10F054
:101FD600D8902E362F3630363136D89022362336E4
:101FE6002436253638AEFAEF0FF0FCEF0FF0FDEF92
:101FF6000FF02280D89035363636373638362650AA
:102006002E5C27502F582850305829503158D8A0C8
:102016000FEF10F011EF10F01AEF10F0388C265079
:102026002E5E27502F5A2850305A2950315A3A2AB4
:10203600190E3A6421EF10F023EF10F0E3EF0FF0E2
:102046002E502F1030103110D8B42CEF10F02EEF88
:1020560010F046EF10F0358046EF10F0D89022369B
:1020660023362436253638AE3BEF10F03DEF10F020
:102076003EEF10F02280D890353636363736383671
:102086003306D8A0340624AE4BEF10F04DEF10F017
:1020960031EF10F0000E3A6E38AE54EF10F056EFF6
:1020A60010F07AEF10F0FF0E35142A6EFF0E36147C
:1020B6002B6EFF0E37142C6E7F0E38142D6E2A50A1
:1020C6002B102C102D10D8B46BEF10F06DEF10F014
:1020D60071EF10F0010E3A6E7AEF10F022A076EF53
:1020E60010F078EF10F07AEF10F06DEF10F03A5034
:1020F600D8B480EF10F082EF10F0A6EF10F0010ECA
:102106002226000E23222422252225A08DEF10F060
:102116008FEF10F0A6EF10F022C02AF023C02BF0AC
:1021260024C02CF025C02DF02D342D322C322B322C
:102136002A322AC022F02BC023F02CC024F02DC056
:1021460025F0334A342A34BEB1EF10F0345008E19A
:102156003328D8A0B1EF10F0B3EF10F0BEEF10F0B7
:10216600000E346E3368000E226E000E236E000ED3
:10217600246E000E256E34BECBEF10F0345006E10F
:102186003304D8B0C9EF10F0CBEF10F0D9EF10F050
:10219600000E346E000E336E000E226E000E236E9D
:1021A600000E246E000E256E000E326E33C039F01E
:1021B60039A0E0EF10F0E2EF10F0E5EF10F0248E1A
:1021C600E6EF10F0249ED8903930256E9CEF0FF084
:1021D6001200000E0001B46F000E4A6E000E496E2A
:1021E600000E486E000E476E000EB36F000EB26F03
:1021F60053EC19F053EC1AF05EEC1AF039EC1AF0C5
:10220600F6C00DF0F7C00EF0B0C00FF0B1C010F080
:10221600B4EC19F065EC1AF0000E0A6EC80E096EE1
:10222600F0EC16F0E40E096E000E0A6E11EC18F0D2
:10223600ED0E096E000E0A6EDCEC17F0E40E096E68
:10224600000E0A6EED0E0B6E000E0C6E7DEC1AF093
:10225600849E7C9E889680968890809086907E90BC
:1022660084987C9884967C9649504A10D8A43EEF70
:1022760011F040EF11F041EF11F07C8649044A104D
:10228600D8A448EF11F04AEF11F04BEF11F07C881B
:10229600020E49184A10D8A453EF11F055EF11F069
:1022A60056EF11F08080E40E1C6E000E1D6EED0ED2
:1022B6001E6E000E1F6E18EC16F04B044C10D8A4C0
:1022C60067EF11F069EF11F037EF11F00001B3BFBE
:1022D60076EF11F0B35109E1020EB25DD8A076EFA8
:1022E60011F078EF11F037EF11F0E40E1C6E000ECE
:1022F6001D6EED0E1E6E000E1F6E6DEC19F0520E69
:102306003E6E2B0E3D6E000EE82EFED73D2EFCD700
:102316003E2EFAD700D07C9E0001B451D8A496EF89
:1023260011F098EF11F0E6EF11F0E40E1C6E000EBE
:102336001D6EED0E1E6E000E1F6EA3EC15F0310E17
:102346003E6EB40E3D6E660EE82EFED73D2EFCD7D1
:102356003E2EFAD7C40E226E000E236E8DEC16F0BA
:10236600C40E3B6E000E3C6E37EC13F080A6BEEF3B
:1023760011F0C2EF11F03D6A3D2AC3EF11F03D6A3C
:102386003D463D463D4680503D18F70B3D18806E54
:10239600C40E276E000E286EE40E296E000E2A6EFD
:1023A600ED0E2B6E000E2C6E0BEC07F03D6EB50E8F
:1023B6004924D96E000E4A20DA6E3DC0DFFF494A35
:1023C6004A2A54EF12F0B50E276E000E286EE40E60
:1023D600296E000E2A6EED0E2B6E000E2C6E14EC7E
:1023E6000DF04906D8A04A0649044A10D8A4FEEFC3
:1023F60011F000EF12F054EF12F0000E0001B46F6E
:10240600E40E1C6E000E1D6EED0E1E6E000E1F6E8F
:102416006DEC19F0290E3E6E960E3D6E7F0EE82E7F
:10242600FED73D2EFCD73E2EFAD700F0E40E1C6EEA
:10243600000E1D6EED0E1E6E000E1F6EA3EC17F045
:10244600280E3E6EC60E3D6EB50EE82EFED73D2E0C
:10245600FCD73E2EFAD700F080A034EF12F038EF0A
:1024660012F03D6A3D2A39EF12F03D6A80503D1860
:10247600FE0B3D18806EE40E1C6E000E1D6EED0EFA
:102486001E6E000E1F6E6DEC19F0A30E3E6E570EFB
:102496003D6E020EE82EFED73D2EFCD73E2EFAD715
:1024A60000D08096000E4C6E000E4B6E37EF11F08A
:1024B6001BEF00F01C6E1C50D8B464EF12F066EFF0
:1024C60012F088EF12F017BE6DEF12F06BEF12F0FC
:1024D60088EF12F014C018F015C019F016C01AF0E3
:1024E60017C01BF0181E191E1A1E1B1E182A000ED6
:1024F60019221A221B2218C01EF019C01FF01AC07A
:1025060020F01BC021F090EF12F014C01EF015C091
:102516001FF016C020F017C021F014501510161029
:102526001710D8A499EF12F09BEF12F0A5EF12F056
:10253600000E146E000E156E000E166E000E176E4F
:1025460036EF13F0960E1D6EAFEF12F01D2AD890DF
:10255600213220321F321E32000E1E14186E000E5B
:102566001F14196E000E20141A6EFE0E21141B6E17
:10257600185019101A101B10D8A4C4EF12F0C6EF89
:1025860012F0A9EF12F0D4EF12F01D2A010E1E264A
:10259600000E1F2220222122D890213220321F3203
:1025A6001E32000E1E14186E000E1F14196E000E39
:1025B60020141A6EFF0E21141B6E185019101A10D3
:1025C6001B10D8A4E9EF12F0EBEF12F0C8EF12F0EF
:1025D600F3EF12F01D06D8901E361F362036213630
:1025E60020BEF8EF12F0FAEF12F002EF13F0020E2F
:1025F6001D6000EF13F002EF13F0EDEF12F01DB0C7
:1026060007EF13F009EF13F00AEF13F0209ED890AE
:102616001D321DC018F0196A1A6A1B6A18C01BF011
:102626001A6A196A186A18501E1219501F121A507F
:1026360020121B5021121C50D8B424EF13F026EFA1
:1026460013F02EEF13F017BE2DEF13F02BEF13F050
:102656002EEF13F0218E1EC014F01FC015F020C0FF
:1026660016F021C017F01200090E406E510E3F6E93
:1026760020EE0CF03B50D9263C50DA22DECF22F079
:10268600DECF23F0DECF24F0DECF25F03BC0D9FF2E
:102696003CC0DAFFDECF26F0DECF27F0DECF28F013
:1026A600DECF29F01FEC0FF020EE10F03B50D926BC
:1026B6003C50DA2222C0DEFF23C0DEFF24C0DEFF4C
:1026C60025C0DEFF20EE0CF03B50D9263C50DA2226
:1026D600DECF22F0DECF23F0DECF24F0DECF25F0F2
:1026E60020EE04F03B50D9263C50DA22DECF26F00D
:1026F600DECF27F0DECF28F0DECF29F01FEC0FF07B
:1027060020EE14F03B50D9263C50DA2222C0DEFFE0
:1027160023C0DEFF24C0DEFF25C0DEFF20EE0CF066
:102726003B50D9263C50DA22DECF22F0DECF23F012
:10273600DECF24F0DECF25F020EE08F03B50D92680
:102746003C50DA22DECF26F0DECF27F0DECF28F0AF
:10275600DECF29F01FEC0FF020EE18F03B50D92603
:102766003C50DA2222C0DEFF23C0DEFF24C0DEFF9B
:1027760025C0DEFF20EE0CF03B50D9263C50DA2275
:10278600DECF22F0DECF23F0DECF24F0DECF25F041
:10279600510E146E090E156E000E166E000E176E93
:1027A600010E5DEC12F014C026F015C027F016C01D
:1027B60028F017C029F01FEC0FF020EE1CF03B505C
:1027C600D9263C50DA2222C0DEFF23C0DEFF24C019
:1027D600DEFF25C0DEFF120020EE02F01650D926DD
:1027E6001750DA22DF50D8B4FBEF13F0FDEF13F0E9
:1027F60031EF14F016C0D9FF17C0DAFFDF50186E9C
:102806001850096E0A6A20EE03F01650D9261750A2
:10281600DA22DECF0BF0DDCF0CF006EC1AF009C0A1
:102826000FF00AC010F0000E126E640E116E30EC3E
:1028360017F020EE03F01650D9261750DA22DF5093
:10284600196E0F50195C1A6E20EE03F01650D92639
:102856001750DA22DF501B6E54EF14F016C0D9FF62
:1028660017C0DAFFDF50186E1850096E0A6A20EE9C
:1028760003F01650D9261750DA22DECF0BF0DDCF43
:102886000CF006EC1AF009C00FF00AC010F0000EAA
:10289600126E640E116E30EC17F00F501A6E000EA9
:1028A6001B6E20EE01F01650D9261750DA22DF50A3
:1028B600D8B460EF14F062EF14F084EF14F020EE59
:1028C60005F01650D9261750DA22DECF18F0DDCFE4
:1028D60019F018C0D9FF19C0DAFF1AC0DFFF20EEC1
:1028E60007F01650D9261750DA22DECF18F0DDCFC2
:1028F60019F018C0D9FF19C0DAFF1BC0DFFFA4EF1B
:1029060014F020EE05F01650D9261750DA22DECF45
:1029160018F0DDCF19F018C0D9FF19C0DAFF1BC0B7
:10292600DFFF20EE07F01650D9261750DA22DECF49
:1029360018F0DDCF19F018C0D9FF19C0DAFF1AC098
:10294600DFFF1200000E0914116E000E0A14126E3B
:10295600800E0B14136E7F0E0C14146E1150121091
:1029660013101410D8A4BAEF14F0BCEF14F0C4EF8F
:1029760014F0000E096E000E0A6E000E0B6E000EAD
:102986000C6E000E0D14116E000E0E14126E800EDB
:102996000F14136E7F0E1014146E115012101310B4
:1029A6001410D8A4D9EF14F0DBEF14F0E3EF14F011
:1029B600000E0D6E000E0E6E000E0F6E000E106EE7
:1029C6000CAEE8EF14F0EAEF14F0F3EF14F0096C34
:1029D6000A1ED8B00A2A0B1ED8B00B2A800E0C5637
:1029E60010AEF8EF14F0FAEF14F003EF15F00D6CDB
:1029F6000E1ED8B00E2A0F1ED8B00F2A800E105603
:102A0600000E091A000E0A1A000E0B1A800E0C1A76
:102A1600000E0D1A000E0E1A000E0F1A800E101A56
:102A26000D50095C0E500A580F500B5810500C5898
:102A3600D8B020EF15F022EF15F025EF15F0D8905D
:102A460026EF15F0D88012001CC0D9FF1DC0DAFF92
:102A5600050EDF6E1EC0D9FF1FC0DAFF050EDF6E42
:102A660020EE01F01E50D9261F50DA22000EDF6E2E
:102A760020EE01F01C50D9261D50DA22000EDF6E22
:102A860020EE02F01C50D9261D50DA22010EDF6E10
:102A960020EE02F01E50D9261F50DA22010EDF6EFC
:102AA60072EF15F01CC0D9FF1DC0DAFFDF2A1EC069
:102AB600D9FF1FC0DAFFDF2AD00E206ECA0EE82E1D
:102AC600FED7202EFCD71CC016F01DC017F0EFEC69
:102AD60013F01EC016F01FC017F0EFEC13F01CC069
:102AE600D9FF1DC0DAFF150EDF607CEF15F07EEF13
:102AF60015F08AEF15F01EC0D9FF1FC0DAFF140EBD
:102B0600DF6488EF15F08AEF15F055EF15F01CC05D
:102B1600D9FF1DC0DAFF140EDF6E1EC0D9FF1FC01D
:102B2600DAFF140EDF6E1CC016F01DC017F0EFECB6
:102B360013F01EC016F01FC017F0EFEC13F01200D2
:102B46001CC0D9FF1DC0DAFF1E0EDF6E1EC0D9FFE6
:102B56001FC0DAFF1E0EDF6E20EE01F01E50D926D2
:102B66001F50DA22010EDF6E20EE01F01C50D9262E
:102B76001D50DA22010EDF6E20EE02F01C50D9261F
:102B86001D50DA22010EDF6E20EE02F01E50D9260D
:102B96001F50DA22010EDF6EE7EF15F01CC0D9FFD9
:102BA6001DC0DAFFDF2A1EC0D9FF1FC0DAFFDF2AE9
:102BB6001CC016F01DC017F0EFEC13F01EC016F087
:102BC6001FC017F0EFEC13F01CC0D9FF1DC0DAFFD1
:102BD600470EDF60F1EF15F0F3EF15F0FFEF15F09C
:102BE6001EC0D9FF1FC0DAFF460EDF64FDEF15F0E9
:102BF600FFEF15F0D1EF15F01CC0D9FF1DC0DAFFAD
:102C0600460EDF6E1EC0D9FF1FC0DAFF460EDF6E0E
:102C16001CC016F01DC017F0EFEC13F01EC016F026
:102C26001FC017F0EFEC13F012001CC0D9FF1DC037
:102C3600DAFF050EDF6E1EC0D9FF1FC0DAFF050ED4
:102C4600DF6E20EE01F01E50D9261F50DA22010E4B
:102C5600DF6E20EE01F01C50D9261D50DA22010E3F
:102C6600DF6E20EE02F01C50D9261D50DA22010E2E
:102C7600DF6E20EE02F01E50D9261F50DA22010E1A
:102C8600DF6E5CEF16F01CC0D9FF1DC0DAFFDF2A2D
:102C96001EC0D9FF1FC0DAFFDF2A1CC016F01DC0F8
:102CA60017F0EFEC13F01EC016F01FC017F0EFEC94
:102CB60013F01CC0D9FF1DC0DAFF2E0EDF6066EFD1
:102CC60016F068EF16F074EF16F01EC0D9FF1FC09D
:102CD600DAFF2D0EDF6472EF16F074EF16F046EF92
:102CE60016F01CC0D9FF1DC0DAFF2D0EDF6E1EC008
:102CF600D9FF1FC0DAFF2D0EDF6E1CC016F01DC0F7
:102D060017F0EFEC13F01EC016F01FC017F0EFEC33
:102D160013F0120071EC18F00DC014F00EC015F08F
:102D2600166A176A000E5DEC12F022C0D9FF23C0A6
:102D3600DAFF14C0DEFF15C0DEFF16C0DEFF17C0C7
:102D4600DEFFE9EC18F00DC014F00EC015F0166A9F
:102D5600176A000E5DEC12F020EE08F02250D9261C
:102D66002350DA2214C0DEFF15C0DEFF16C0DEFFD8
:102D760017C0DEFF99EC18F00DC014F00EC015F068
:102D8600166A176A000E5DEC12F020EE04F022506F
:102D9600D9262350DA2214C0DEFF15C0DEFF16C086
:102DA600DEFF17C0DEFFC1EC18F00DC014F00EC038
:102DB60015F0166A176A000E5DEC12F020EE0CF0A4
:102DC6002250D9262350DA2214C0DEFF15C0DEFFBA
:102DD60016C0DEFF17C0DEFF1200050E0E01746F6F
:102DE600060E766F070E696F080E886FBD508F0B43
:102DF6003009BD6EE00EBE16BF50F00B0109BF6E66
:102E0600C80EBC6EBD8E000EAA6E000EA66E000E1B
:102E16000F01256F000E216FFC0EAD16F30EAD16D9
:102E2600CF0EAD163F0EAD16AB88AB50F00B0C09AE
:102E3600AB6EAB8EA788A750F00B0C09A76EA78EBA
:102E460026892651F00B0C09266F268F22892251DE
:102E5600F00B0C09226F228F1200000E146E000E6A
:102E6600136E11501210D8B43BEF17F03DEF17F068
:102E760065EF17F0010E156E45EF17F0D890113675
:102E86001236152A12AE4AEF17F04CEF17F041EF43
:102E960017F0D8901336143611500F5C1250105894
:102EA600D8A058EF17F05AEF17F05FEF17F0115050
:102EB6000F5E1250105A1380D89012321132152E0E
:102EC6004CEF17F013C00FF014C010F012001CC026
:102ED600D9FF1DC0DAFF3C0EDF6E1EC0D9FF1FC032
:102EE600DAFF3C0EDF6E20EE02F01C50D9261D5094
:102EF600DA22010EDF6E20EE02F01E50D9261F5098
:102F0600DA22010EDF6E20EE01F01E50D9261F5088
:102F1600DA22000EDF6E20EE01F01C50D9261D507D
:102F2600DA22010EDF6E1CC016F01DC017F0EFECA2
:102F360013F01EC016F01FC017F0EFEC13F01200CE
:102F46001CC0D9FF1DC0DAFF3C0EDF6E1EC0D9FFC4
:102F56001FC0DAFF3C0EDF6E20EE02F01C50D926B1
:102F66001D50DA22010EDF6E20EE02F01E50D92629
:102F76001F50DA22010EDF6E20EE01F01C50D9261A
:102F86001D50DA22000EDF6E20EE01F01E50D9260B
:102F96001F50DA22010EDF6E1CC016F01DC017F09E
:102FA600EFEC13F01EC016F01FC017F0EFEC13F095
:102FB600120009C0D9FF0AC0DAFF320EDF6E20EE1A
:102FC60001F00950D9260A50DA22010EDF6E20EEF2
:102FD60002F00950D9260A50DA22010EDF6E20EEE1
:102FE60005F00950D9260A50DA22250EDE6E0F0E9C
:102FF600DD6E20EE07F00950D9260A50DA22210E9E
:10300600DE6E0F0EDD6E20EE03F00950D9260A5053
:10301600DA22C80EDE6E000EDD6E120009C0D9FF80
:103026000AC0DAFF320EDF6E20EE01F00950D92613
:103036000A50DA22010EDF6E20EE02F00950D92680
:103046000A50DA22010EDF6E20EE05F00950D9266D
:103056000A50DA22AA0EDE6E0F0EDD6E20EE07F0A3
:103066000950D9260A50DA22A60EDE6E0F0EDD6E44
:1030760020EE03F00950D9260A50DA22C80EDE6E79
:10308600000EDD6E120021C01CF022C01DF023C010
:103096001EF024C01FF027EC15F0310E266EB40E7C
:1030A600256E660EE82EFED7252EFCD7262EFAD7DD
:1030B60021C01CF022C01DF023C01EF024C01FF04A
:1030C6006DEC19F0190E266E5A0E256EB20EE82E0C
:1030D600FED7252EFCD7262EFAD712008CEC1AF036
:1030E600520E6BEC1AF0B60E6BEC1AF082EC1AF07C
:1030F600530E6BEC1AF0010E32EC19F00F6E0F50F6
:10310600126E136A000E32EC19F00F6E0F50116E2C
:10311600106A12501010126E13501110136E87ECB5
:103126001AF012C00DF013C00EF012008CEC1AF05B
:10313600520E6BEC1AF0B80E6BEC1AF082EC1AF029
:10314600530E6BEC1AF0010E32EC19F00F6E0F50A5
:10315600126E136A000E32EC19F00F6E0F50116EDC
:10316600106A12501010126E13501110136E87EC65
:103176001AF012C00DF013C00EF012008CEC1AF00B
:10318600520E6BEC1AF0B40E6BEC1AF082EC1AF0DD
:10319600530E6BEC1AF0010E32EC19F00F6E0F5055
:1031A600126E136A000E32EC19F00F6E0F50116E8C
:1031B600106A12501010126E13501110136E87EC15
:1031C6001AF012C00DF013C00EF012008CEC1AF0BB
:1031D600520E6BEC1AF0BA0E6BEC1AF082EC1AF087
:1031E600530E6BEC1AF0010E32EC19F00F6E0F5005
:1031F600126E136A000E32EC19F00F6E0F50116E3C
:10320600106A12501010126E13501110136E87ECC4
:103216001AF012C00DF013C00EF01200480EF66E32
:10322600350EF76E000EF86E0900F5CFF6F00900C0
:10323600F5CFF7F000EE60F0640EEE6AE806FDE109
:1032460000EE3FF0120EEE6AE806FDE15190519253
:10325600000EF86E0E0EF76E0001ECEF10F00B6E1E
:10326600DEEC19F00E01DA87DEEC19F0D5CE0CF0A3
:10327600DEEC19F00B50D8B443EF19F047EF19F014
:103286000A6A0A2A48EF19F00A6A0A3A0A460E0139
:10329600DA510A18DF0B0A18DA6FDA890C501200B5
:1032A6009FEC19F0010E0B6E000E19EC1AF03F0E92
:1032B6000D6E550EE82EFED70D2EFCD700F0030E30
:1032C6000B6E000E19EC1AF0D50E0B6E010E19ECF2
:1032D6001AF012001CC0D9FF1DC0DAFF000EDF6E07
:1032E6001EC0D9FF1FC0DAFF000EDF6E1CC016F02D
:1032F6001DC017F0EFEC13F01EC016F01FC017F03C
:10330600EFEC13F0120096EC1AF0520E77EC1AF06E
:10331600E60E77EC1AF091EC1AF046EC1AF071EC26
:103326001AF0F6C005F0F7C006F0B0C007F0B1C05D
:1033360008F0C9EC19F012000E01D951F00B08097A
:10334600D96FD98B9F0ED66F848A848CA79BA79D35
:103356001D0E1D6F1E0E1C6F1C0E6F6F1B0E706FE9
:1033660012000FC00BF0040E19EC1AF010500B6E81
:10337600050E19EC1AF00DC00BF0060E19EC1AF03A
:103386000E500B6E070E19EC1AF0120007C003F070
:10339600040E29EC1AF00850036E050E29EC1AF0FB
:1033A60005C003F0060E29EC1AF00650036E070E50
:1033B60029EC1AF012000E01D8B5E4EF19F0E6EF89
:1033C60019F0DEEF19F0DACE09F01F0E0916D8A4AF
:1033D600EFEF19F0F1EF19F0DEEF19F012000E0120
:1033E600D8B5F8EF19F0FAEF19F0F2EF19F0DACED6
:1033F60001F01F0E0116D8A403EF1AF005EF1AF01C
:10340600F2EF19F0120009500B02F3CF0DF0F4CFD2
:103416000EF009500C02F3500E260A500B02F35020
:103426000E260DC009F00EC00AF012000C6E8CECD0
:103436001AF0520E6BEC1AF00C5080096BEC1AF075
:103446000B506BEC1AF087EC1AF01200046E96EC37
:103456001AF0520E77EC1AF00450800977EC1AF045
:10346600035077EC1AF091EC1AF01200130E0B6E63
:10347600000E19EC1AF0D00E0D6ECA0EE82EFED70D
:103486000D2EFCD71200130E036E000E29EC1AF057
:10349600D00E056ECA0EE82EFED7052EFCD71200FA
:1034A60082800E019A91339129811F81F290F28ACE
:1034B600F28CF28E12009BEC1AF09EEC1AF0A1EC44
:1034C6001AF01200020E0B6E0C0E19EC1AF0120016
:1034D6000A6EDEEC19F00AC0D5FE1200020E036E6B
:1034E6000C0E29EC1AF01200026EF2EC19F002C072
:1034F600D5FE120085948598839E879C1200DEEC8B
:1035060019F00E01DA831200DEEC19F00E01DA85ED
:103516001200DEEC19F00E01DA811200F2EC19F05D
:103526000E01DA851200F2EC19F00E01DA811200B2
:1035360087907F801200859E7D8E12008196798607
:0435460012006C07FC
:020000040020DA
:10000000FF0FFF0FFF0FFF0FFF0FFF0FFF0FFF0F80
:020000040030CA
:0C000000AAFFFFFF9FFFFFFFFFFFFFFFB5
:00000001FF
