:040000001BEF00F002
:100008004E820E0133A10BEF00F00DEF00F019EF57
:1000180000F07C8E000E0001A16F010EA06F9E4BB8
:100028009F2B86EC1BF00E0133914E92110011EFBD
:020038001BF0BB
:100E000000524742433A256920256920256920255B
:070E1000692025690A0000BA
:100E1800000E096E000E0A6E000E0B6E410E0C6E6F
:100E280020EE14F02150D9262250DA22DECF0DF020
:100E3800DECF0EF0DECF0FF0DECF10F045EC17F06E
:100E4800D8B029EF07F02BEF07F09BEF07F023C08E
:100E58001CF024C01DF025C01EF026C01FF0C7ECF2
:100E680017F0210E286E780E276E980EE82EFED702
:100E7800272EFCD7282EFAD700D023C01CF024C078
:100E88001DF025C01EF026C01FF06DEC1BF0070EEC
:100E9800286E7F0E276E500EE82EFED7272EFCD721
:100EA800282EFAD7000E0001B36F000EB26F23C0D0
:100EB8001CF024C01DF025C01EF026C01FF095ECC4
:100EC80019F0020E286EF30E276EB00EE82EFED72C
:100ED800272EFCD7282EFAD700D023C01CF024C018
:100EE8001DF025C01EF026C01FF06DEC1BF0030E90
:100EF800286E700E276E5C0EE82EFED7272EFCD7C4
:100F0800282EFAD700D00001B24BB32BB3BF96EF0F
:100F180007F0B35109E1180EB25DD8A096EF07F0BB
:100F280098EF07F05BEF07F0010EB8EF0EF0000E38
:100F3800096E000E0A6E900E0B6E400E0C6E20EEBF
:100F480018F02150D9262250DA22DECF0DF0DECF5C
:100F58000EF0DECF0FF0DECF10F045EC17F0D8B072
:100F6800B8EF07F0BAEF07F059EF08F020EE18F0E5
:100F78002150D9262250DA22DECF09F0DECF0AF03E
:100F8800DECF0BF0DECF0CF0660E0D6E660E0E6E29
:100F9800A60E0F6E400E106E45EC17F0D8B0D7EFC6
:100FA80007F0D9EF07F059EF08F023C01CF024C070
:100FB8001DF025C01EF026C01FF0C7EC17F0210E4B
:100FC800286E780E276E980EE82EFED7272EFCD7AF
:100FD800282EFAD700D023C01CF024C01DF025C04D
:100FE8001EF026C01FF06DEC1BF0070E286E7F0E5A
:100FF800276E500EE82EFED7272EFCD7282EFAD7BC
:10100800000E0001B56F000EB46FB5BF15EF08F004
:10101800B55109E1130EB45DD8A015EF08F017EF2C
:1010280008F019EF08F056EF08F023C01CF024C0B0
:101038001DF025C01EF026C01FF0CEEC19F0030EDF
:10104800286E700E276E5C0EE82EFED7272EFCD772
:10105800282EFAD700D023C01CF024C01DF025C0CC
:101068001EF026C01FF06DEC1BF0030E286E700EEC
:10107800276E5C0EE82EFED7272EFCD7282EFAD72F
:1010880000D00001B44BB52BB5BF54EF08F0B551F3
:1010980009E1130EB45DD8A054EF08F056EF08F03C
:1010A80019EF08F0020EB8EF0EF0330E096E330E8A
:1010B8000A6E330E0B6E400E0C6E20EE18F02150A7
:1010C800D9262250DA22DECF0DF0DECF0EF0DECFA9
:1010D8000FF0DECF10F045EC17F0D8B076EF08F03F
:1010E80078EF08F093EF09F020EE18F02150D92698
:1010F8002250DA22DECF09F0DECF0AF0DECF0BF085
:10110800DECF0CF0CD0E0D6ECC0E0E6E4C0E0F6EAB
:10111800400E106E45EC17F0D8B095EF08F097EF39
:1011280008F093EF09F0330E096E330E0A6E330E92
:101138000B6E400E0C6E20EE10F02150D926225076
:10114800DA22DECF0DF0DECF0EF0DECF0FF0DECFED
:1011580010F045EC17F0D8B0B4EF08F0B6EF08F08F
:1011680093EF09F020EE10F02150D9262250DA2210
:10117800DECF09F0DECF0AF0DECF0BF0DECF0CF0C9
:10118800CD0E0D6ECC0E0E6E4C0E0F6E400E106E08
:1011980045EC17F0D8B0D3EF08F0D5EF08F093EF8F
:1011A80009F0330E096E330E0A6E330E0B6E400EC5
:1011B8000C6E20EE14F02150D9262250DA22DECF10
:1011C8000DF0DECF0EF0DECF0FF0DECF10F045ECE5
:1011D80017F0D8B0F2EF08F0F4EF08F093EF09F049
:1011E80020EE14F02150D9262250DA22DECF09F061
:1011F800DECF0AF0DECF0BF0DECF0CF0CD0E0D6E99
:10120800CC0E0E6E4C0E0F6E400E106E45EC17F0A5
:10121800D8B011EF09F013EF09F093EF09F023C0EC
:101228001CF024C01DF025C01EF026C01FF0C7EC1E
:1012380017F0210E286E780E276E980EE82EFED72E
:10124800272EFCD7282EFAD700D023C01CF024C0A4
:101258001DF025C01EF026C01FF06DEC1BF0070E18
:10126800286E7F0E276E500EE82EFED7272EFCD74D
:10127800282EFAD7000E0001B76F000EB66FB7BF61
:101288004FEF09F0B75109E1290EB65DD8A04FEF2D
:1012980009F051EF09F053EF09F090EF09F023C07E
:1012A8001CF024C01DF025C01EF026C01FF0CEEC97
:1012B80019F0030E286E700E276E5C0EE82EFED70E
:1012C800272EFCD7282EFAD700D023C01CF024C024
:1012D8001DF025C01EF026C01FF06DEC1BF0030E9C
:1012E800286E700E276E5C0EE82EFED7272EFCD7D0
:1012F800282EFAD700D00001B64BB72BB7BF8EEF18
:1013080009F0B75109E1290EB65DD8A08EEF09F0B2
:1013180090EF09F053EF09F0030EB8EF0EF0000E4E
:10132800096E000E0A6EB00E0B6E400E0C6E20EEAB
:1013380018F02150D9262250DA22DECF0DF0DECF68
:101348000EF0DECF0FF0DECF10F045EC17F0D8B07E
:10135800B0EF09F0B2EF09F0CEEF0AF020EE18F086
:101368002150D9262250DA22DECF09F0DECF0AF04A
:10137800DECF0BF0DECF0CF0000E0D6E000E0E6E01
:10138800C00E0F6E400E106E45EC17F0D8B0CFEFC0
:1013980009F0D1EF09F0CEEF0AF0000E096E000E49
:1013A8000A6EC00E0B6E3F0E0C6E20EE10F0215030
:1013B800D9262250DA22DECF0DF0DECF0EF0DECFB6
:1013C8000FF0DECF10F045EC17F0D8B0EEEF09F0D3
:1013D800F0EF09F0CEEF0AF020EE10F02150D926F8
:1013E8002250DA22DECF09F0DECF0AF0DECF0BF092
:1013F800DECF0CF0000E0D6E000E0E6E000E0F6E9E
:10140800400E106E45EC17F0D8B00DEF0AF00FEF54
:101418000AF0CEEF0AF0000E096E000E0A6E400EBA
:101428000B6E400E0C6E20EE14F02150D92622507F
:10143800DA22DECF0DF0DECF0EF0DECF0FF0DECFFA
:1014480010F045EC17F0D8B02CEF0AF02EEF0AF0A8
:10145800CEEF0AF020EE14F02150D9262250DA22DD
:10146800DECF09F0DECF0AF0DECF0BF0DECF0CF0D6
:10147800000E0D6E000E0E6E600E0F6E400E106E9A
:1014880045EC17F0D8B04BEF0AF04DEF0AF0CEEF6D
:101498000AF023C01CF024C01DF025C01EF026C091
:1014A8001FF0C7EC17F0A30E286E570E276E020E1A
:1014B800E82EFED7272EFCD7282EFAD700D023C037
:1014C8001CF024C01DF025C01EF026C01FF06DECD6
:1014D8001BF0090E286E1E0E276EE40EE82EFED7AE
:1014E800272EFCD7282EFAD700D0000E0001B96F9E
:1014F800000EB86FB9BF8AEF0AF0B95109E1110EB1
:10150800B85DD8A08AEF0AF08CEF0AF08EEF0AF0E7
:10151800CBEF0AF023C01CF024C01DF025C01EF03C
:1015280026C01FF095EC19F0030E286E700E276E7A
:101538005C0EE82EFED7272EFCD7282EFAD700D02F
:1015480023C01CF024C01DF025C01EF026C01FF0CB
:101558006DEC1BF0030E286E700E276E5C0EE82EE5
:10156800FED7272EFCD7282EFAD700D00001B84B7B
:10157800B92BB9BFC9EF0AF0B95109E1110EB85D2D
:10158800D8A0C9EF0AF0CBEF0AF08EEF0AF0040EEC
:10159800B8EF0EF020EE18F02150D9262250DA22AA
:1015A800DECF09F0DECF0AF0DECF0BF0DECF0CF095
:1015B800000E0D6E000E0E6EA00E0F6E400E106E19
:1015C80045EC17F0D8B0EBEF0AF0EDEF0AF0F8EFC2
:1015D8000BF0000E096E000E0A6EC00E0B6E3F0E69
:1015E8000C6E20EE10F02150D9262250DA22DECFE0
:1015F8000DF0DECF0EF0DECF0FF0DECF10F045ECB1
:1016080017F0D8B00AEF0BF00CEF0BF0F8EF0BF077
:1016180020EE10F02150D9262250DA22DECF09F030
:10162800DECF0AF0DECF0BF0DECF0CF0000E0D6E31
:10163800000E0E6E000E0F6E400E106E45EC17F089
:10164800D8B029EF0BF02BEF0BF0F8EF0BF0000EF2
:10165800096E000E0A6E400E0B6E400E0C6E20EEE8
:1016680014F02150D9262250DA22DECF0DF0DECF39
:101678000EF0DECF0FF0DECF10F045EC17F0D8B04B
:1016880048EF0BF04AEF0BF0F8EF0BF020EE14F0F8
:101698002150D9262250DA22DECF09F0DECF0AF017
:1016A800DECF0BF0DECF0CF0000E0D6E000E0E6ECE
:1016B800600E0F6E400E106E45EC17F0D8B067EF55
:1016C8000BF069EF0BF0F8EF0BF080A06EEF0BF06A
:1016D80072EF0BF0276A272A73EF0BF0276A805006
:1016E8002718FE0B2718806E23C01CF024C01DF09D
:1016F80025C01EF026C01FF0C7EC17F0A30E286EF9
:10170800570E276E020EE82EFED7272EFCD7282E5E
:10171800FAD700D023C01CF024C01DF025C01EF04D
:1017280026C01FF06DEC1BF0190E286E5A0E276E9E
:10173800B20EE82EFED7272EFCD7282EFAD7000E99
:101748000001BB6F000EBA6FBBBFB4EF0BF0BB510B
:1017580009E10D0EBA5DD8A0B4EF0BF0B6EF0BF0AF
:10176800B8EF0BF0F5EF0BF023C01CF024C01DF010
:1017780025C01EF026C01FF0CEEC19F0030E286E0F
:10178800700E276E5C0EE82EFED7272EFCD7282E6B
:10179800FAD700D023C01CF024C01DF025C01EF0CD
:1017A80026C01FF06DEC1BF0030E286E700E276E1E
:1017B8005C0EE82EFED7272EFCD7282EFAD700D0AD
:1017C8000001BA4BBB2BBBBFF3EF0BF0BB5109E1D8
:1017D8000D0EBA5DD8A0F3EF0BF0F5EF0BF0B8EFF4
:1017E8000BF0050EB8EF0EF0000E096E000E0A6E33
:1017F800B00E0B6E400E0C6E20EE18F02150D9265C
:101808002250DA22DECF0DF0DECF0EF0DECF0FF061
:10181800DECF10F045EC17F0D8B015EF0CF017EF4D
:101828000CF007EF0DF020EE18F02150D9262250C9
:10183800DA22DECF09F0DECF0AF0DECF0BF0DECF02
:101848000CF0000E0D6E000E0E6EC00E0F6E400EE8
:10185800106E45EC17F0D8B034EF0CF036EF0CF002
:1018680007EF0DF0330E096E330E0A6EB30E0B6ED2
:101878003F0E0C6E20EE10F02150D9262250DA22AD
:10188800DECF0DF0DECF0EF0DECF0FF0DECF10F0A2
:1018980045EC17F0D8B053EF0CF055EF0CF007EF0C
:1018A8000DF020EE10F02150D9262250DA22DECF9A
:1018B80009F0DECF0AF0DECF0BF0DECF0CF0660EBB
:1018C8000D6E660E0E6EE60E0F6E3F0E106E45EC38
:1018D80017F0D8B072EF0CF074EF0CF007EF0DF0C2
:1018E800330E096E330E0A6E830E0B6E400E0C6EAD
:1018F80020EE14F02150D9262250DA22DECF0DF046
:10190800DECF0EF0DECF0FF0DECF10F045EC17F093
:10191800D8B091EF0CF093EF0CF007EF0DF020EE3C
:1019280014F02150D9262250DA22DECF09F0DECF7A
:101938000AF0DECF0BF0DECF0CF0000E0D6E000EBD
:101948000E6E900E0F6E400E106E45EC17F0D8B06C
:10195800B0EF0CF0B2EF0CF007EF0DF0000E000145
:10196800BD6F000EBC6FBDBFC3EF0CF0BD5109E1E8
:10197800180EBC5DD8A0C3EF0CF0C5EF0CF0C7EF94
:101988000CF004EF0DF023C01CF024C01DF025C09E
:101998001EF026C01FF095EC19F0030E286E700E8D
:1019A800276E5C0EE82EFED7272EFCD7282EFAD7F6
:1019B80000D023C01CF024C01DF025C01EF026C096
:1019C8001FF06DEC1BF0030E286E700E276E5C0E78
:1019D800E82EFED7272EFCD7282EFAD700D00001F4
:1019E800BC4BBD2BBDBF02EF0DF0BD5109E1180E78
:1019F800BC5DD8A002EF0DF004EF0DF0C7EF0CF0BE
:101A0800060EB8EF0EF0000E096E000E0A6E400EBC
:101A18000B6E400E0C6E20EE18F02150D926225085
:101A2800DA22DECF0DF0DECF0EF0DECF0FF0DECF04
:101A380010F045EC17F0D8B024EF0DF026EF0DF0BC
:101A480016EF0EF020EE18F02150D9262250DA2297
:101A5800DECF09F0DECF0AF0DECF0BF0DECF0CF0E0
:101A6800330E0D6E330E0E6E530E0F6E400E106E4B
:101A780045EC17F0D8B043EF0DF045EF0DF016EF39
:101A88000EF0000E096E000E0A6E600E0B6E400E10
:101A98000C6E20EE10F02150D9262250DA22DECF2B
:101AA8000DF0DECF0EF0DECF0FF0DECF10F045ECFC
:101AB80017F0D8B062EF0DF064EF0DF016EF0EF0EE
:101AC80020EE10F02150D9262250DA22DECF09F07C
:101AD800DECF0AF0DECF0BF0DECF0CF0000E0D6E7D
:101AE800000E0E6E800E0F6E400E106E45EC17F055
:101AF800D8B081EF0DF083EF0DF016EF0EF0660E03
:101B0800096E660E0A6E060E0B6E400E0C6E20EE07
:101B180014F02150D9262250DA22DECF0DF0DECF84
:101B28000EF0DECF0FF0DECF10F045EC17F0D8B096
:101B3800A0EF0DF0A2EF0DF016EF0EF020EE14F06E
:101B48002150D9262250DA22DECF09F0DECF0AF062
:101B5800DECF0BF0DECF0CF0000E0D6E000E0E6E19
:101B6800200E0F6E400E106E45EC17F0D8B0BFEF88
:101B78000DF0C1EF0DF016EF0EF0000E0001BF6F73
:101B8800000EBE6FBFBFD2EF0DF0BF5109E1150EB9
:101B9800BE5DD8A0D2EF0DF0D4EF0DF0D6EF0DF06A
:101BA80013EF0EF023C01CF024C01DF025C01EF05A
:101BB80026C01FF0CEEC19F0030E286E700E276EAB
:101BC8005C0EE82EFED7272EFCD7282EFAD700D099
:101BD80023C01CF024C01DF025C01EF026C01FF035
:101BE8006DEC1BF0030E286E700E276E5C0EE82E4F
:101BF800FED7272EFCD7282EFAD700D00001BE4BDF
:101C0800BF2BBFBF11EF0EF0BF5109E1150EBE5D2E
:101C1800D8A011EF0EF013EF0EF0D6EF0DF0070E6F
:101C2800B8EF0EF0000E096E000E0A6E400E0B6E35
:101C3800410E0C6E20EE1CF02150D9262250DA22DB
:101C4800DECF0DF0DECF0EF0DECF0FF0DECF10F0DE
:101C580045EC17F0D8B033EF0EF035EF0EF0B8EFD3
:101C68000EF0010E0001A26F23C01CF024C01DF06D
:101C780025C01EF026C01FF0C7EC17F0210E286EF5
:101C8800780E276E980EE82EFED7272EFCD7282E22
:101C9800FAD700D023C01CF024C01DF025C01EF0C8
:101CA80026C01FF06DEC1BF0070E286E7F0E276E06
:101CB800500EE82EFED7272EFCD7282EFAD7000E76
:101CC8000001C16F000EC06FC1BF74EF0EF0C151AB
:101CD80009E12E0EC05DD8A074EF0EF076EF0EF07D
:101CE80078EF0EF0B5EF0EF023C01CF024C01DF005
:101CF80025C01EF026C01FF0CEEC19F0020E286E8B
:101D0800F30E276EB00EE82EFED7272EFCD7282E0E
:101D1800FAD700D023C01CF024C01DF025C01EF047
:101D280026C01FF06DEC1BF0030E286E700E276E98
:101D38005C0EE82EFED7272EFCD7282EFAD700D027
:101D48000001C04BC12BC1BFB3EF0EF0C15109E177
:101D58002E0EC05DD8A0B3EF0EF0B5EF0EF078EF01
:101D68000EF0080EB8EF0EF0120048502124276E2E
:101D780049502220286EFE0E2724D96EFF0E2820F7
:101D8800DA6EDE04D8A4CBEF0EF0CDEF0EF03CEF08
:101D98000FF023C01CF024C01DF025C01EF026C083
:101DA8001FF0C7EC17F0210E286E780E276E980EDC
:101DB800E82EFED7272EFCD7282EFAD700D023C02E
:101DC8001CF024C01DF025C01EF026C01FF06DECCD
:101DD8001BF0070E286E7F0E276E500EE82EFED7DA
:101DE800272EFCD7282EFAD7000E0001B36F000E5D
:101DF800B26F23C01CF024C01DF025C01EF026C001
:101E08001FF0CEEC19F0020E286EF30E276EB00EFE
:101E1800E82EFED7272EFCD7282EFAD700D023C0CD
:101E28001CF024C01DF025C01EF026C01FF06DEC6C
:101E38001BF0030E286E700E276E5C0EE82EFED780
:101E4800272EFCD7282EFAD700D00001B24BB32B8F
:101E5800B3BF38EF0FF0B35109E1180EB25DD8A047
:101E680038EF0FF03AEF0FF0FDEF0EF0B0EF11F092
:101E780048502124276E49502220286EFE0E272420
:101E8800D96EFF0E2820DA6E020EDE18D8A44FEFA6
:101E98000FF051EF0FF095EF0FF0000E0001B56F46
:101EA800000EB46F23C01CF024C01DF025C01EF026
:101EB80026C01FF095EC19F0030E286E700E276EE1
:101EC8005C0EE82EFED7272EFCD7282EFAD700D096
:101ED80023C01CF024C01DF025C01EF026C01FF032
:101EE8006DEC1BF0030E286E700E276E5C0EE82E4C
:101EF800FED7272EFCD7282EFAD700D00001B44BE6
:101F0800B52BB5BF91EF0FF0B55109E1100EB45DD7
:101F1800D8A091EF0FF093EF0FF056EF0FF0B0EF5E
:101F280011F048502124276E49502220286EFE0EB9
:101F38002724D96EFF0E2820DA6E030EDE18D8A4E7
:101F4800A8EF0FF0AAEF0FF019EF10F023C01CF064
:101F580024C01DF025C01EF026C01FF0C7EC17F0E6
:101F6800210E286E780E276E980EE82EFED7272EA3
:101F7800FCD7282EFAD700D023C01CF024C01DF0AF
:101F880025C01EF026C01FF06DEC1BF0070E286E52
:101F98007F0E276E500EE82EFED7272EFCD7282E50
:101FA800FAD7000E0001B76F000EB66F23C01CF001
:101FB80024C01DF025C01EF026C01FF0CEEC19F07D
:101FC800020E286EF30E276EB00EE82EFED7272ECF
:101FD800FCD7282EFAD700D023C01CF024C01DF04F
:101FE80025C01EF026C01FF06DEC1BF0030E286EF6
:101FF800700E276E5C0EE82EFED7272EFCD7282EF3
:10200800FAD700D00001B64BB72BB7BF15EF10F0C9
:10201800B75109E12E0EB65DD8A015EF10F017EFF5
:1020280010F0DAEF0FF0B0EF11F048502124D96E1C
:1020380049502220DA6E040EDE18D8A426EF10F0DC
:1020480028EF10F093EF10F023C01CF024C01DF00F
:1020580025C01EF026C01FF0C7EC17F0D00E276E63
:10206800CA0EE82EFED7272EFCD723C01CF024C0AA
:102078001DF025C01EF026C01FF06DEC1BF0090EE8
:10208800286E1E0E276EE40EE82EFED7272EFCD7EC
:10209800282EFAD700D0000E0001B96F000EB86FD5
:1020A80023C01CF024C01DF025C01EF026C01FF060
:1020B800CEEC19F0030E286E700E276E5C0EE82E1B
:1020C800FED7272EFCD7282EFAD700D023C01CF025
:1020D80024C01DF025C01EF026C01FF06DEC1BF0BB
:1020E800030E286E700E276E5C0EE82EFED7272E84
:1020F800FCD7282EFAD700D00001B84BB92BB9BFAE
:102108008FEF10F0B95109E1110EB85DD8A08FEF2B
:1021180010F091EF10F054EF10F0B0EF11F04850BC
:102128002124D96E49502220DA6E050EDE18D8A473
:10213800A0EF10F0A2EF10F00CEF11F023C01CF08C
:1021480024C01DF025C01EF026C01FF0C7EC17F0F4
:10215800D00E276ECA0EE82EFED7272EFCD723C036
:102168001CF024C01DF025C01EF026C01FF06DEC29
:102178001BF0190E286E5A0E276EB20EE82EFED7E7
:10218800272EFCD7282EFAD7000E0001BB6F000EB1
:10219800BA6F23C01CF024C01DF025C01EF026C055
:1021A8001FF095EC19F0030E286E700E276E5C0E6A
:1021B800E82EFED7272EFCD7282EFAD700D023C02A
:1021C8001CF024C01DF025C01EF026C01FF06DECC9
:1021D8001BF0030E286E700E276E5C0EE82EFED7DD
:1021E800272EFCD7282EFAD700D00001BA4BBB2BDC
:1021F800BBBF08EF11F0BB5109E10D0EBA5DD8A0C5
:1022080008EF11F00AEF11F0CDEF10F0B0EF11F078
:1022180048502124D96E49502220DA6E060EDE1865
:10222800D8A419EF11F01BEF11F05FEF11F0000EB9
:102238000001BD6F000EBC6F23C01CF024C01DF050
:1022480025C01EF026C01FF095EC19F0030E286E6D
:10225800700E276E5C0EE82EFED7272EFCD7282E90
:10226800FAD700D023C01CF024C01DF025C01EF0F2
:1022780026C01FF06DEC1BF0030E286E700E276E43
:102288005C0EE82EFED7272EFCD7282EFAD700D0D2
:102298000001BC4BBD2BBDBF5BEF11F0BD5109E187
:1022A800180EBC5DD8A05BEF11F05DEF11F020EFC8
:1022B80011F0B0EF11F048502124D96E4950222076
:1022C800DA6E070EDE18D8A46CEF11F06EEF11F07D
:1022D800B0EF11F0000E0001BF6F000EBE6F23C0FB
:1022E8001CF024C01DF025C01EF026C01FF095EC80
:1022F80019F0030E286E700E276E5C0EE82EFED7BE
:10230800272EFCD7282EFAD700D023C01CF024C0D3
:102318001DF025C01EF026C01FF06DEC1BF0030E4B
:10232800286E700E276E5C0EE82EFED7272EFCD77F
:10233800282EFAD700D00001BE4BBF2BBFBFAEEF8F
:1023480011F0BF5109E1150EBE5DD8A0AEEF11F036
:10235800B0EF11F073EF11F012000C50800B196EF2
:102368000C500C24206E0BAEBCEF11F0BEEF11F038
:10237800BFEF11F020802050D8B4C5EF11F0C7EF9F
:1023880011F0DCEF11F02028D8A4CDEF11F0CFEF39
:1023980011F0D7EF11F0000E096E000E0A6E000E54
:1023A8000B6E000E0C6E0B8E000E0C6EE4EF11F02F
:1023B800000E096E000E0A6E000E0B6E000E0C6EFB
:1023C8001050800B191A10501024216E0FAEEFEF29
:1023D80011F0F1EF11F0F2EF11F021802150D8B493
:1023E800F8EF11F0FAEF11F00FEF12F02128D8A44E
:1023F80000EF12F002EF12F00AEF12F0000E0D6E6D
:10240800000E0E6E000E0F6E000E106E0F8E000E78
:10241800106E17EF12F0000E0D6E000E0E6E000E0D
:102428000F6E000E106E0D500E100F101010D8A465
:1024380020EF12F022EF12F03AEF12F0000E096EC0
:10244800000E0A6E000E0B6E000E0C6E800E0B1244
:102458007F0E0C1219500C1209C009F00AC00AF0BC
:102468000BC00BF00CC00CF07DEF13F02050D8A47B
:1024780040EF12F042EF12F04CEF12F0000E096E2E
:10248800000E0A6E000E0B6E000E0C6E7DEF13F040
:10249800215020C011F0126A115E000E125A7F0EF0
:1024A80011241A6E000E12201B6E09C015F00AC006
:1024B80016F00BC017F00CC018F0000E096E000ED5
:1024C8000A6E000E0B6E000E0C6E000E1C6E000ED7
:1024D8001D6E000E1E6E000E1F6E000E216EADEFFB
:1024E80012F02150D8B47BEF12F07DEF12F094EF88
:1024F80012F0D8901536163617361836D890093691
:102508000A360B360C361FAE8CEF12F08EEF12F037
:102518008FEF12F00980D8901C361D361E361F36F4
:102528000D50155C0E5016580F501758105018586B
:10253800D8A0A1EF12F0A3EF12F0ACEF12F01F8CAD
:102548000D50155E0E50165A0F50175A1050185A43
:10255800212A190E2164B3EF12F0B5EF12F075EFCE
:1025680012F01550161017101810D8B4BEEF12F04C
:10257800C0EF12F0D8EF12F01C80D8EF12F0D8900C
:1025880009360A360B360C361FAECDEF12F0CFEFF8
:1025980012F0D0EF12F00980D8901C361D361E3686
:1025A8001F361A06D8A01B060BAEDDEF12F0DFEFC0
:1025B80012F0C3EF12F0000E216E1FAEE6EF12F01C
:1025C800E8EF12F00CEF13F0FF0E1C14116EFF0E63
:1025D8001D14126EFF0E1E14136E7F0E1F14146E40
:1025E8001150121013101410D8B4FDEF12F0FFEFB1
:1025F80012F003EF13F0010E216E0CEF13F009A097
:1026080008EF13F00AEF13F00CEF13F0FFEF12F0DE
:102618002150D8B412EF13F014EF13F038EF13F081
:10262800010E0926000E0A220B220C220CA01FEF15
:1026380013F021EF13F038EF13F009C011F00AC0BE
:1026480012F00BC013F00CC014F01434143213320F
:102658001232113211C009F012C00AF013C00BF087
:1026680014C00CF01A4A1B2A1BBE43EF13F01B5070
:1026780008E11A28D8A043EF13F045EF13F050EF04
:1026880013F0000E1B6E1A68000E096E000E0A6E1B
:10269800000E0B6E000E0C6E1BBE5DEF13F01B5090
:1026A80006E11A04D8B05BEF13F05DEF13F06BEF9F
:1026B80013F0000E1B6E000E1A6E000E096E000E4F
:1026C8000A6E000E0B6E000E0C6E000E196E1AC00C
:1026D80020F020A072EF13F074EF13F077EF13F0EF
:1026E8000B8E78EF13F00B9ED89020300C6E2EEFE7
:1026F80012F0120053EC1CF053EC1BF0000E496E64
:10270800000E486E000E00019F6F000E9E6F000EB7
:10271800C56F000EC46FA30EC425D96E000EC52167
:10272800DA6E000EDF6EC44BC52BC5BFA5EF13F0E4
:10273800C55109E10F0EC45DD8A0A5EF13F0A7EFAE
:1027480013F08FEF13F05EEC1CF039EC1CF0F8C0BE
:102758000DF0F9C00EF09CC00FF09DC010F0B4EC65
:102768001BF069EC1CF0000E0A6EC80E096E1BEC1B
:1027780019F0E60E096E000E0A6E3CEC1AF0EF0E28
:10278800096E000E0A6E07EC1AF085948598839EF0
:10279800879C849E7C9E8896809688908090869060
:1027A8007E9071EC1AF0E9EC1AF099EC1AF0C1EC91
:1027B8001AF0000E0001A26FE60E1C6E000E1D6ED0
:1027C800EF0E1E6E000E1F6E43EC18F04804491001
:1027D800D8A4F1EF13F0F3EF13F0F6EF13F07E80C7
:1027E800F7EF13F07E900001A005A111D8A4FFEF28
:1027F80013F001EF14F0E0EF13F09FBF0DEF14F0AA
:102808009F5109E1020E9E5DD8A00DEF14F00FEF65
:1028180014F0E0EF13F0E60E1C6E000E1D6EEF0EC6
:102828001E6E000E1F6E6DEC1BF0520E2B6E2B0EE3
:102838002A6E000EE82EFED72A2EFCD72B2EFAD7AA
:1028480000D07C9E0001A251D8A42DEF14F02FEFE8
:1028580014F068EF14F0C60E226E000E236EB8EC6A
:1028680018F0C60E226E000E236E9CEC16F080A6A1
:1028780040EF14F044EF14F02A6A2A2A45EF14F0C6
:102888002A6A2A462A462A4680502A18F70B2A1806
:10289800806EC60E216E000E226EE60E236E000EAE
:1028A800246EEF0E256E000E266E0CEC07F02A6ED5
:1028B800A30E4824D96E000E4920DA6E2AC0DFFF25
:1028C800484A492A02EF15F0A30E216E000E226E27
:1028D800E60E236E000E246EEF0E256E000E266E99
:1028E800B9EC0EF04806D8A04906FF0E48242A6E17
:1028F800FF0E49202B6E2A502B10D8A486EF14F017
:1029080088EF14F002EF15F0000E0001C36F000EFF
:10291800C26FC3BF99EF14F0C35109E1290EC25D1C
:10292800D8A099EF14F09BEF14F09DEF14F0DAEFB4
:1029380014F0E60E1C6E000E1D6EEF0E1E6E000EDD
:102948001F6ECEEC19F0030E2B6E700E2A6E5C0E05
:10295800E82EFED72A2EFCD72B2EFAD700D0E60E6B
:102968001C6E000E1D6EEF0E1E6E000E1F6E6DECBF
:102978001BF0030E2B6E700E2A6E5C0EE82EFED72F
:102988002A2EFCD72B2EFAD700D00001C24BC32B1E
:10299800C3BFD8EF14F0C35109E1290EC25DD8A016
:1029A800D8EF14F0DAEF14F09DEF14F080A0DFEF09
:1029B80014F0E3EF14F02A6A2A2AE4EF14F02A6AE2
:1029C80080502A18FE0B2A18806E000E0001A26F94
:1029D800E60E1C6E000E1D6EEF0E1E6E000E1F6EB4
:1029E8006DEC1BF0A30E2B6E570E2A6E020EE82E0E
:1029F800FED72A2EFCD72B2EFAD700D08096000EB1
:102A08000001A16F000EA06FE0EF13F01BEF00F0C4
:102A18001C6E1C50D8B413EF15F015EF15F037EFF6
:102A280015F017BE1CEF15F01AEF15F037EF15F07B
:102A380014C018F015C019F016C01AF017C01BF012
:102A4800181E191E1A1E1B1E182A000E19221A22D9
:102A58001B2218C01EF019C01FF01AC020F01BC09E
:102A680021F03FEF15F014C01EF015C01FF016C07E
:102A780020F017C021F01450151016101710D8A404
:102A880048EF15F04AEF15F054EF15F0000E146EEC
:102A9800000E156E000E166E000E176EE5EF15F09F
:102AA800960E1D6E5EEF15F01D2AD8902132203249
:102AB8001F321E32000E1E14186E000E1F14196EDF
:102AC800000E20141A6EFE0E21141B6E18501910D9
:102AD8001A101B10D8A473EF15F075EF15F058EF06
:102AE80015F083EF15F01D2A010E1E26000E1F2279
:102AF80020222122D890213220321F321E32000E8D
:102B08001E14186E000E1F14196E000E20141A6E73
:102B1800FF0E21141B6E185019101A101B10D8A480
:102B280098EF15F09AEF15F077EF15F0A2EF15F082
:102B38001D06D8901E361F362036213620BEA7EF38
:102B480015F0A9EF15F0B1EF15F0020E1D60AFEF0B
:102B580015F0B1EF15F09CEF15F01DB0B6EF15F0BC
:102B6800B8EF15F0B9EF15F0209ED8901D321DC0B2
:102B780018F0196A1A6A1B6A18C01BF01A6A196ACF
:102B8800186A18501E1219501F121A5020121B5082
:102B980021121C50D8B4D3EF15F0D5EF15F0DDEFA6
:102BA80015F017BEDCEF15F0DAEF15F0DDEF15F0D4
:102BB800218E1EC014F01FC015F020C016F021C0D1
:102BC80017F0120020EE02F01650D9261750DA221C
:102BD800DF50D8B4F2EF15F0F4EF15F028EF16F047
:102BE80016C0D9FF17C0DAFFDF50186E1850096EEB
:102BF8000A6A20EE03F01650D9261750DA22DECFE3
:102C08000BF0DDCF0CF006EC1CF009C00FF00AC089
:102C180010F0000E126E640E116E5BEC19F020EECF
:102C280003F01650D9261750DA22DF50196E0F50CC
:102C3800195C1A6E20EE03F01650D9261750DA22C6
:102C4800DF501B6E4BEF16F016C0D9FF17C0DAFF26
:102C5800DF50186E1850096E0A6A20EE03F01650FD
:102C6800D9261750DA22DECF0BF0DDCF0CF006ECB8
:102C78001CF009C00FF00AC010F0000E126E640EAE
:102C8800116E5BEC19F00F501A6E000E1B6E20EEE1
:102C980001F01650D9261750DA22DF50D8B457EF72
:102CA80016F059EF16F07BEF16F020EE05F01650EF
:102CB800D9261750DA22DECF18F0DDCF19F018C068
:102CC800D9FF19C0DAFF1AC0DFFF20EE07F016504F
:102CD800D9261750DA22DECF18F0DDCF19F018C048
:102CE800D9FF19C0DAFF1BC0DFFF9BEF16F020EEFB
:102CF80005F01650D9261750DA22DECF18F0DDCFAE
:102D080019F018C0D9FF19C0DAFF1BC0DFFF20EE89
:102D180007F01650D9261750DA22DECF18F0DDCF8B
:102D280019F018C0D9FF19C0DAFF1AC0DFFF120066
:102D380020EE0CF02250D9262350DA22DECF09F0FB
:102D4800DECF0AF0DECF0BF0DECF0CF022C0D9FFC9
:102D580023C0DAFFDECF0DF0DECF0EF0DECF0FF0AE
:102D6800DECF10F0B1EC11F020EE10F02250D92691
:102D78002350DA2209C0DEFF0AC0DEFF0BC0DEFFE7
:102D88000CC0DEFF20EE0CF02250D9262350DA22A8
:102D9800DECF09F0DECF0AF0DECF0BF0DECF0CF08D
:102DA80020EE04F02250D9262350DA22DECF0DF08F
:102DB800DECF0EF0DECF0FF0DECF10F0B1EC11F069
:102DC80020EE14F02250D9262350DA2209C0DEFF63
:102DD8000AC0DEFF0BC0DEFF0CC0DEFF20EE0CF0E9
:102DE8002250D9262350DA22DECF09F0DECF0AF0AE
:102DF800DECF0BF0DECF0CF020EE08F02250D92603
:102E08002350DA22DECF0DF0DECF0EF0DECF0FF04A
:102E1800DECF10F0B1EC11F020EE18F02250D926D8
:102E28002350DA2209C0DEFF0AC0DEFF0BC0DEFF36
:102E38000CC0DEFF20EE0CF02250D9262350DA22F7
:102E4800DECF09F0DECF0AF0DECF0BF0DECF0CF0DC
:102E5800000E0D6E000E0E6E000E0F6E000E106E40
:102E6800B1EC11F020EE1CF02250D9262350DA22C2
:102E780009C0DEFF0AC0DEFF0BC0DEFF0CC0DEFFAC
:102E88001200000E0914116E000E0A14126E800E44
:102E98000B14136E7F0E0C14146E115012101310B5
:102EA8001410D8A45AEF17F05CEF17F064EF17F07E
:102EB800000E096E000E0A6E000E0B6E000E0C6EF0
:102EC800000E0D14116E000E0E14126E800E0F14EB
:102ED800136E7F0E1014146E11501210131014106C
:102EE800D8A479EF17F07BEF17F083EF17F0000EF7
:102EF8000D6E000E0E6E000E0F6E000E106E0CAEF4
:102F080088EF17F08AEF17F093EF17F0096C0A1E95
:102F1800D8B00A2A0B1ED8B00B2A800E0C5610AE59
:102F280098EF17F09AEF17F0A3EF17F00D6C0E1E3D
:102F3800D8B00E2A0F1ED8B00F2A800E1056000ED9
:102F4800091A000E0A1A000E0B1A800E0C1A000E2F
:102F58000D1A000E0E1A000E0F1A800E101A0D50C0
:102F6800095C0E500A580F500B5810500C58D8B026
:102F7800C0EF17F0C2EF17F0C5EF17F0D890C6EF03
:102F880017F0D88012001CC0D9FF1DC0DAFF050E4B
:102F9800DF6E1EC0D9FF1FC0DAFF050EDF6E20EE00
:102FA80001F01E50D9261F50DA22000EDF6E20EEE7
:102FB80001F01C50D9261D50DA22000EDF6E20EEDB
:102FC80002F01C50D9261D50DA22010EDF6E20EEC9
:102FD80002F01E50D9261F50DA22010EDF6E12EFC2
:102FE80018F01CC0D9FF1DC0DAFFDF2A1EC0D9FFA8
:102FF8001FC0DAFFDF2AD00E206ECA0EE82EFED7D9
:10300800202EFCD71CC016F01DC017F0E6EC15F0FA
:103018001EC016F01FC017F0E6EC15F01CC0D9FF53
:103028001DC0DAFF150EDF601CEF18F01EEF18F058
:103038002AEF18F01EC0D9FF1FC0DAFF140EDF6494
:1030480028EF18F02AEF18F0F5EF17F01CC0D9FF99
:103058001DC0DAFF140EDF6E1EC0D9FF1FC0DAFFD5
:10306800140EDF6E1CC016F01DC017F0E6EC15F04C
:103078001EC016F01FC017F0E6EC15F012001CC0B9
:10308800D9FF1DC0DAFF050EDF6E1EC0D9FF1FC0B5
:10309800DAFF050EDF6E20EE01F01E50D9261F5014
:1030A800DA22010EDF6E20EE01F01C50D9261D50E9
:1030B800DA22010EDF6E20EE02F01C50D9261D50D8
:1030C800DA22010EDF6E20EE02F01E50D9261F50C4
:1030D800DA22010EDF6E87EF18F01CC0D9FF1DC081
:1030E800DAFFDF2A1EC0D9FF1FC0DAFFDF2A1CC0A3
:1030F80016F01DC017F0E6EC15F01EC016F01FC044
:1031080017F0E6EC15F01CC0D9FF1DC0DAFF2E0E33
:10311800DF6091EF18F093EF18F09FEF18F01EC0E2
:10312800D9FF1FC0DAFF2D0EDF649DEF18F09FEF67
:1031380018F071EF18F01CC0D9FF1DC0DAFF2D0E72
:10314800DF6E1EC0D9FF1FC0DAFF2D0EDF6E1CC058
:1031580016F01DC017F0E6EC15F01EC016F01FC0E3
:1031680017F0E6EC15F0120071EC1AF00DC014F02F
:103178000EC015F0166A176A000E0CEC15F022C086
:10318800D9FF23C0DAFF14C0DEFF15C0DEFF16C06A
:10319800DEFF17C0DEFFE9EC1AF00DC014F00EC018
:1031A80015F0166A176A000E0CEC15F020EE08F000
:1031B8002250D9262350DA2214C0DEFF15C0DEFFC4
:1031C80016C0DEFF17C0DEFF99EC1AF00DC014F030
:1031D8000EC015F0166A176A000E0CEC15F020EEFA
:1031E80004F02250D9262350DA2214C0DEFF15C07D
:1031F800DEFF16C0DEFF17C0DEFFC1EC1AF00DC0FF
:1032080014F00EC015F0166A176A000E0CEC15F0D3
:1032180020EE0CF02250D9262350DA2214C0DEFF0B
:1032280015C0DEFF16C0DEFF17C0DEFF1200050E58
:103238000E01746F060E766F070E696F080E886FA1
:10324800BD508F0B3009BD6EE00EBE16BF50F00B9F
:103258000109BF6EC80EBC6EBD8E000EAA6E000EB0
:10326800A66E000E0F01256F000E216FFC0EAD1625
:10327800F30EAD16CF0EAD163F0EAD16AB88AB50A4
:10328800F00B0C09AB6EAB8EA788A750F00B0C099E
:10329800A76EA78E26892651F00B0C09266F268F5C
:1032A80022892251F00B0C09226F228F1200000E86
:1032B800156E000E146E11501210D8B466EF19F086
:1032C80068EF19F090EF19F0010E136E70EF19F016
:1032D800D89011361236132A12AE75EF19F077EF1F
:1032E80019F06CEF19F0D8901436153611500F5CA0
:1032F80012501058D8A083EF19F085EF19F08AEF13
:1033080019F011500F5E1250105A1480D8901232D2
:103318001132132E77EF19F014C00FF015C010F00A
:1033280012001CC0D9FF1DC0DAFF3C0EDF6E1EC0A4
:10333800D9FF1FC0DAFF3C0EDF6E20EE02F01C50F2
:10334800D9261D50DA22010EDF6E20EE02F01E5043
:10335800D9261F50DA22010EDF6E20EE01F01E5032
:10336800D9261F50DA22000EDF6E20EE01F01C5025
:10337800D9261D50DA22010EDF6E1CC016F01DC0C2
:1033880017F0E6EC15F01EC016F01FC017F0E6ECBB
:1033980015F012001CC0D9FF1DC0DAFF3C0EDF6E0D
:1033A8001EC0D9FF1FC0DAFF3C0EDF6E20EE02F010
:1033B8001C50D9261D50DA22010EDF6E20EE02F0D5
:1033C8001E50D9261F50DA22010EDF6E20EE01F0C2
:1033D8001C50D9261D50DA22000EDF6E20EE01F0B7
:1033E8001E50D9261F50DA22010EDF6E1CC016F0BF
:1033F8001DC017F0E6EC15F01EC016F01FC017F040
:10340800E6EC15F0120009C0D9FF0AC0DAFF320E47
:10341800DF6E20EE01F00950D9260A50DA22010E9B
:10342800DF6E20EE02F00950D9260A50DA22010E8A
:10343800DF6E20EE05F00950D9260A50DA22250E53
:10344800DE6E0F0EDD6E20EE07F00950D9260A5009
:10345800DA22210EDE6E0F0EDD6E20EE03F009502B
:10346800D9260A50DA22C80EDE6E000EDD6E120072
:1034780009C0D9FF0AC0DAFF320EDF6E20EE01F074
:103488000950D9260A50DA22010EDF6E20EE02F02A
:103498000950D9260A50DA22010EDF6E20EE05F017
:1034A8000950D9260A50DA22AA0EDE6E0F0EDD6EFA
:1034B80020EE07F00950D9260A50DA22A60EDE6E51
:1034C8000F0EDD6E20EE03F00950D9260A50DA22DD
:1034D800C80EDE6E000EDD6E12008BEC1CF0520E74
:1034E8006FEC1CF0B60E6FEC1CF081EC1CF0530E68
:1034F8006FEC1CF0010E32EC1BF00F6E0F50126EC9
:10350800136A000E32EC1BF00F6E0F50116E106A2A
:1035180012501010126E13501110136E86EC1CF01E
:1035280012C00DF013C00EF012008BEC1CF0520EFE
:103538006FEC1CF0B80E6FEC1CF081EC1CF0530E15
:103548006FEC1CF0010E32EC1BF00F6E0F50126E78
:10355800136A000E32EC1BF00F6E0F50116E106ADA
:1035680012501010126E13501110136E86EC1CF0CE
:1035780012C00DF013C00EF012008BEC1CF0520EAE
:103588006FEC1CF0B40E6FEC1CF081EC1CF0530EC9
:103598006FEC1CF0010E32EC1BF00F6E0F50126E28
:1035A800136A000E32EC1BF00F6E0F50116E106A8A
:1035B80012501010126E13501110136E86EC1CF07E
:1035C80012C00DF013C00EF012008BEC1CF0520E5E
:1035D8006FEC1CF0BA0E6FEC1CF081EC1CF0530E73
:1035E8006FEC1CF0010E32EC1BF00F6E0F50126ED8
:1035F800136A000E32EC1BF00F6E0F50116E106A3A
:1036080012501010126E13501110136E86EC1CF02D
:1036180012C00DF013C00EF01200340EF66E390E03
:10362800F76E000EF86E0900F5CFF8F00900F5CF37
:10363800F9F000EE60F0520EEE6AE806FDE100EEE9
:103648002CF0220EEE6AE806FDE14E904E92000E36
:10365800F86E0E0EF76E00017EEF13F00B6EDEECC7
:103668001BF00E01DA87DEEC1BF0D5CE0CF0DEEC99
:103678001BF00B50D8B443EF1BF047EF1BF00A6A5E
:103688000A2A48EF1BF00A6A0A3A0A460E01DA517A
:103698000A18DF0B0A18DA6FDA890C5012009FEC4F
:1036A8001BF0010E0B6E000E19EC1CF03F0E0D6E98
:1036B800550EE82EFED70D2EFCD700F0030E0B6E2C
:1036C800000E19EC1CF0D50E0B6E010E19EC1CF057
:1036D80012001CC0D9FF1DC0DAFF000EDF6E1EC02D
:1036E800D9FF1FC0DAFF000EDF6E1CC016F01DC028
:1036F80017F0E6EC15F01EC016F01FC017F0E6EC48
:1037080015F0120095EC1CF0520E7BEC1CF0E60E46
:103718007BEC1CF090EC1CF046EC1CF075EC1CF0FB
:10372800F8C005F0F9C006F09CC007F09DC008F08D
:10373800C9EC1BF012000E01D951F00B0809D96F22
:10374800D98B9F0ED66F848A848CA79BA79D1D0E4C
:103758001D6F1E0E1C6F1C0E6F6F1B0E706F1200FC
:103768000FC00BF0040E19EC1CF010500B6E050E78
:1037780019EC1CF00DC00BF0060E19EC1CF00E50E5
:103788000B6E070E19EC1CF0120007C003F0040EB4
:1037980029EC1CF00850036E050E29EC1CF005C03E
:1037A80003F0060E29EC1CF00650036E070E29ECF8
:1037B8001CF012000E01D8B5E4EF1BF0E6EF1BF089
:1037C800DEEF1BF0DACE09F01F0E0916D8A4EFEFD2
:1037D8001BF0F1EF1BF0DEEF1BF012000E01D8B565
:1037E800F8EF1BF0FAEF1BF0F2EF1BF0DACE01F066
:1037F8001F0E0116D8A403EF1CF005EF1CF0F2EF22
:103808001BF0120009500B02F3CF0DF0F4CF0EF0AD
:1038180009500C02F3500E260A500B02F3500E26E4
:103828000DC009F00EC00AF012000C6E8BEC1CF0F3
:10383800520E6FEC1CF00C5080096FEC1CF00B5012
:103848006FEC1CF086EC1CF01200046E95EC1CF07A
:10385800520E7BEC1CF0045080097BEC1CF00350EA
:103868007BEC1CF090EC1CF01200130E0B6E000E9B
:1038780019EC1CF0D00E0D6ECA0EE82EFED70D2ED8
:10388800FCD71200130E036E000E29EC1CF0D00EAC
:10389800056ECA0EE82EFED7052EFCD712008790BB
:1038A8007F8081987988869E7E8E81967986859E8E
:1038B8007D8E120082800E019A91339129811F8199
:1038C800F290F28AF28CF28E1200020E0B6E0C0E3F
:1038D80019EC1CF012000A6EDEEC1BF00AC0D5FED3
:1038E8001200020E036E0C0E29EC1CF01200026E80
:1038F800F2EC1BF002C0D5FE1200DEEC1BF00E014C
:10390800DA831200DEEC1BF00E01DA851200DEEC21
:103918001BF00E01DA811200F2EC1BF00E01DA85C1
:0E3928001200F2EC1BF00E01DA811200B80B57
:020000040020DA
:10000000FF0FFF0FFF0FFF0FFF0FFF0FFF0FFF0F80
:020000040030CA
:0C000000AAFFFFFF9FFFFFFFFFFFFFFFB5
:00000001FF
