:0400000019EF00F004
:1000080053820E0133A10BEF00F00DEF00F017EF54
:1000180000F07C8E000E0001B06F010EAF6F47EC50
:0E00280011F00E01339153921100D2EF10F03F
:100E000000524742433A256920256920256920255B
:070E1000692025690A0000BA
:100E1800000E096E000E0A6E000E0B6E410E0C6E6F
:100E280020EE14F02050D9262150DA22DECF0DF022
:100E3800DECF0EF0DECF0FF0DECF10F082EC0DF03B
:100E4800D8B029EF07F02BEF07F06EEF07F0000E90
:100E5800296E000E286E22C01CF023C01DF024C08D
:100E68001EF025C01FF056EC0FF0030E276E700E13
:100E7800266E5C0EE82EFED7262EFCD7272EFAD734
:100E880000D022C01CF023C01DF024C01EF025C0D5
:100E98001FF02EEC11F0030E276E700E266E5C0EFE
:100EA800E82EFED7262EFCD7272EFAD700D0284AC0
:100EB800292A29BE69EF07F0295009E1100E285C9C
:100EC800D8A069EF07F06BEF07F02FEF07F0010EDE
:100ED800EAEF08F0000E096E000E0A6E900E0B6E17
:100EE800400E0C6E20EE18F02050D9262150DA2240
:100EF800DECF0DF0DECF0EF0DECF0FF0DECF10F03C
:100F080082EC0DF0D8B08BEF07F08DEF07F0EFEF24
:100F180007F020EE18F02050D9262150DA22DECF33
:100F280009F0DECF0AF0DECF0BF0DECF0CF0660E54
:100F38000D6E660E0E6EA60E0F6E400E106E82ECD3
:100F48000DF0D8B0AAEF07F0ACEF07F0EFEF07F01D
:100F5800000E2B6E000E2A6E22C01CF023C01DF05E
:100F680024C01EF025C01FF08FEC0FF0030E276E73
:100F7800700E266E5C0EE82EFED7262EFCD7272E86
:100F8800FAD700D022C01CF023C01DF024C01EF0E8
:100F980025C01FF02EEC11F0030E276E700E266E82
:100FA8005C0EE82EFED7262EFCD7272EFAD700D0C7
:100FB8002A4A2B2A2BBEEAEF07F02B5009E1100E24
:100FC8002A5CD8A0EAEF07F0ECEF07F0B0EF07F0E3
:100FD800020EEAEF08F0330E096E330E0A6E330E76
:100FE8000B6E400E0C6E20EE18F02050D9262150C2
:100FF800DA22DECF0DF0DECF0EF0DECF0FF0DECF3F
:1010080010F082EC0DF0D8B00CEF08F00EEF08F0FD
:10101800EAEF08F020EE18F02050D9262150DA2205
:10102800DECF09F0DECF0AF0DECF0BF0DECF0CF01A
:10103800CD0E0D6ECC0E0E6E4C0E0F6E400E106E59
:1010480082EC0DF0D8B02BEF08F02DEF08F0EAEFA6
:1010580008F0330E096E330E0A6E330E0B6E400E17
:101068000C6E20EE10F02050D9262150DA22DECF67
:101078000DF0DECF0EF0DECF0FF0DECF10F082ECF9
:101088000DF0D8B04AEF08F04CEF08F0EAEF08F09E
:1010980020EE10F02050D9262150DA22DECF09F0B8
:1010A800DECF0AF0DECF0BF0DECF0CF0CD0E0D6EEA
:1010B800CC0E0E6E4C0E0F6E400E106E82EC0DF0C4
:1010C800D8B069EF08F06BEF08F0EAEF08F0330EDC
:1010D800096E330E0A6E330E0B6E400E0C6E20EE48
:1010E80014F02050D9262150DA22DECF0DF0DECFC1
:1010F8000EF0DECF0FF0DECF10F082EC0DF0D8B09E
:1011080088EF08F08AEF08F0EAEF08F020EE14F014
:101118002050D9262150DA22DECF09F0DECF0AF09E
:10112800DECF0BF0DECF0CF0CD0E0D6ECC0E0E6EBA
:101138004C0E0F6E400E106E82EC0DF0D8B0A7EF7B
:1011480008F0A9EF08F0EAEF08F0000E2D6E000E87
:101158002C6E22C01CF023C01DF024C01EF025C038
:101168001FF08FEC0FF0030E276E700E266E5C0ECC
:10117800E82EFED7262EFCD7272EFAD700D022C07D
:101188001CF023C01DF024C01EF025C01FF02EEC5B
:1011980011F0030E276E700E266E5C0EE82EFED739
:1011A800262EFCD7272EFAD700D02C4A2D2A2DBE62
:1011B800E7EF08F02D5009E11E0E2C5CD8A0E7EFF0
:1011C80008F0E9EF08F0ADEF08F0030E12000C503C
:1011D800800B196E0C500C24206E0BAEF6EF08F045
:1011E800F8EF08F0F9EF08F020802050D8B4FFEFAE
:1011F80008F001EF09F016EF09F02028D8A407EF4E
:1012080009F009EF09F011EF09F0000E096E000E60
:101218000A6E000E0B6E000E0C6E0B8E000E0C6E1E
:101228001EEF09F0000E096E000E0A6E000E0B6E1E
:10123800000E0C6E1050800B191A10501024216EDD
:101248000FAE29EF09F02BEF09F02CEF09F0218000
:101258002150D8B432EF09F034EF09F049EF09F022
:101268002128D8A43AEF09F03CEF09F044EF09F03F
:10127800000E0D6E000E0E6E000E0F6E000E106E3C
:101288000F8E000E106E51EF09F0000E0D6E000E5D
:101298000E6E000E0F6E000E106E0D500E100F1019
:1012A8001010D8A45AEF09F05CEF09F074EF09F0B8
:1012B800000E096E000E0A6E000E0B6E000E0C6E0C
:1012C800800E0B127F0E0C1219500C1209C009F077
:1012D8000AC00AF00BC00BF00CC00CF0B7EF0AF014
:1012E8002050D8A47AEF09F07CEF09F086EF09F0D6
:1012F800000E096E000E0A6E000E0B6E000E0C6ECC
:10130800B7EF0AF0215020C011F0126A115E000EEA
:10131800125A7F0E11241A6E000E12201B6E09C07D
:1013280015F00AC016F00BC017F00CC018F0000E2C
:10133800096E000E0A6E000E0B6E000E0C6E000E8B
:101348001C6E000E1D6E000E1E6E000E1F6E000E2F
:10135800216EE7EF09F02150D8B4B5EF09F0B7EFE7
:1013680009F0CEEF09F0D89015361636173618362C
:10137800D89009360A360B360C361FAEC6EF09F080
:10138800C8EF09F0C9EF09F00980D8901C361D365E
:101398001E361F360D50155C0E5016580F50175834
:1013A80010501858D8A0DBEF09F0DDEF09F0E6EF90
:1013B80009F01F8C0D50155E0E50165A0F50175A13
:1013C8001050185A212A190E2164EDEF09F0EFEF99
:1013D80009F0AFEF09F01550161017101810D8B40F
:1013E800F8EF09F0FAEF09F012EF0AF01C8012EF9B
:1013F8000AF0D89009360A360B360C361FAE07EFBE
:101408000AF009EF0AF00AEF0AF00980D8901C36B2
:101418001D361E361F361A06D8A01B060BAE17EF50
:101428000AF019EF0AF0FDEF09F0000E216E1FAE69
:1014380020EF0AF022EF0AF046EF0AF0FF0E1C1424
:10144800116EFF0E1D14126EFF0E1E14136E7F0E0A
:101458001F14146E1150121013101410D8B437EF53
:101468000AF039EF0AF03DEF0AF0010E216E46EF5F
:101478000AF009A042EF0AF044EF0AF046EF0AF03A
:1014880039EF0AF02150D8B44CEF0AF04EEF0AF0C9
:1014980072EF0AF0010E0926000E0A220B220C2216
:1014A8000CA059EF0AF05BEF0AF072EF0AF009C0DE
:1014B80011F00AC012F00BC013F00CC014F0143471
:1014C800143213321232113211C009F012C00AF06C
:1014D80013C00BF014C00CF01A4A1B2A1BBE7DEF78
:1014E8000AF01B5008E11A28D8A07DEF0AF07FEF18
:1014F8000AF08AEF0AF0000E1B6E1A68000E096ED9
:10150800000E0A6E000E0B6E000E0C6E1BBE97EFDF
:101518000AF01B5006E11A04D8B095EF0AF097EFCD
:101528000AF0A5EF0AF0000E1B6E000E1A6E000EF0
:10153800096E000E0A6E000E0B6E000E0C6E000E89
:10154800196E1AC020F020A0ACEF0AF0AEEF0AF036
:10155800B1EF0AF00B8EB2EF0AF00B9ED890203054
:101568000C6E68EF09F012001C6E1C50D8B4BFEF67
:101578000AF0C1EF0AF0E3EF0AF017BEC8EF0AF06D
:10158800C6EF0AF0E3EF0AF014C018F015C019F01E
:1015980016C01AF017C01BF0181E191E1A1E1B1EA3
:1015A800182A000E19221A221B2218C01EF019C070
:1015B8001FF01AC020F01BC021F0EBEF0AF014C096
:1015C8001EF015C01FF016C020F017C021F01450EF
:1015D800151016101710D8A4F4EF0AF0F6EF0AF059
:1015E80000EF0BF0000E146E000E156E000E166E56
:1015F800000E176E91EF0BF0960E1D6E0AEF0BF0B2
:101608001D2AD890213220321F321E32000E1E149D
:10161800186E000E1F14196E000E20141A6EFE0E9E
:1016280021141B6E185019101A101B10D8A41FEF84
:101638000BF021EF0BF004EF0BF02FEF0BF01D2A4E
:10164800010E1E26000E1F2220222122D8902132B0
:1016580020321F321E32000E1E14186E000E1F1488
:10166800196E000E20141A6EFF0E21141B6E1850EE
:1016780019101A101B10D8A444EF0BF046EF0BF00A
:1016880023EF0BF04EEF0BF01D06D8901E361F36D9
:101698002036213620BE53EF0BF055EF0BF05DEFEF
:1016A8000BF0020E1D605BEF0BF05DEF0BF048EFE7
:1016B8000BF01DB062EF0BF064EF0BF065EF0BF071
:1016C800209ED8901D321DC018F0196A1A6A1B6A2C
:1016D80018C01BF01A6A196A186A18501E12195095
:1016E8001F121A5020121B5021121C50D8B47FEF21
:1016F8000BF081EF0BF089EF0BF017BE88EF0BF0C2
:1017080086EF0BF089EF0BF0218E1EC014F01FC07E
:1017180015F020C016F021C017F0120020EE02F0DC
:101728001650D9261750DA22DF50D8B49EEF0BF0A6
:10173800A0EF0BF0D4EF0BF016C0D9FF17C0DAFFFB
:10174800DF50186E1850096E0A6A20EE03F0165022
:10175800D9261750DA22DECF0BF0DDCF0CF0C7EC1C
:1017680011F009C00FF00AC010F0000E126E640EDE
:10177800116E1CEC0FF020EE03F01650D92617500E
:10178800DA22DF50196E0F50195C1A6E20EE03F042
:101798001650D9261750DA22DF501B6EF7EF0BF0E0
:1017A80016C0D9FF17C0DAFFDF50186E1850096E3F
:1017B8000A6A20EE03F01650D9261750DA22DECF37
:1017C8000BF0DDCF0CF0C7EC11F009C00FF00AC028
:1017D80010F0000E126E640E116E1CEC0FF00F501C
:1017E8001A6E000E1B6E20EE01F01650D926175007
:1017F800DA22DF50D8B403EF0CF005EF0CF027EF36
:101808000CF020EE05F01650D9261750DA22DECF5C
:1018180018F0DDCF19F018C0D9FF19C0DAFF1AC0C7
:10182800DFFF20EE07F01650D9261750DA22DECF58
:1018380018F0DDCF19F018C0D9FF19C0DAFF1BC0A6
:10184800DFFF47EF0CF020EE05F01650D9261750B1
:10185800DA22DECF18F0DDCF19F018C0D9FF19C091
:10186800DAFF1BC0DFFF20EE07F01650D92617500D
:10187800DA22DECF18F0DDCF19F018C0D9FF19C071
:10188800DAFF1AC0DFFF120020EE0CF02250D92632
:101898002350DA22DECF09F0DECF0AF0DECF0BF0DC
:1018A800DECF0CF022C0D9FF23C0DAFFDECF0DF067
:1018B800DECF0EF0DECF0FF0DECF10F0EBEC08F04D
:1018C80020EE10F02250D9262350DA2209C0DEFF7C
:1018D8000AC0DEFF0BC0DEFF0CC0DEFF20EE0CF0FE
:1018E8002250D9262350DA22DECF09F0DECF0AF0C3
:1018F800DECF0BF0DECF0CF020EE04F02250D9261C
:101908002350DA22DECF0DF0DECF0EF0DECF0FF05F
:10191800DECF10F0EBEC08F020EE14F02250D926C0
:101928002350DA2209C0DEFF0AC0DEFF0BC0DEFF4B
:101938000CC0DEFF20EE0CF02250D9262350DA220C
:10194800DECF09F0DECF0AF0DECF0BF0DECF0CF0F1
:1019580020EE08F02250D9262350DA22DECF0DF0EF
:10196800DECF0EF0DECF0FF0DECF10F0EBEC08F09C
:1019780020EE18F02250D9262350DA2209C0DEFFC3
:101988000AC0DEFF0BC0DEFF0CC0DEFF20EE0CF04D
:101998002250D9262350DA22DECF09F0DECF0AF012
:1019A800DECF0BF0DECF0CF0000E0D6E000E0E6ECB
:1019B800000E0F6E000E106EEBEC08F020EE1CF01F
:1019C8002250D9262350DA2209C0DEFF0AC0DEFFE2
:1019D8000BC0DEFF0CC0DEFF120014EC12F014EC9A
:1019E80011F01FEC12F0FAEC11F0E3C00DF0E4C0B6
:1019F8000EF0ABC00FF0ACC010F075EC11F02AEC93
:101A080012F0000E0A6EC80E096EDCEC0EF0D10E54
:101A1800096E000E0A6EFDEC0FF0DA0E096E000E6C
:101A28000A6EC8EC0FF085948598839E879C849EE7
:101A38007C9E8896809632EC10F0AAEC10F05AEC56
:101A480010F082EC10F0D10E1C6E000E1D6EDA0E36
:101A58001E6E000E1F6E04EC0EF080860001AF05AE
:101A6800B011D8A43AEF0DF03CEF0DF027EF0DF0D0
:101A7800D10E1C6E000E1D6EDA0E1E6E000E1F6E4D
:101A88002EEC11F0520E2F6E2B0E2E6E000EE82E3D
:101A9800FED72E2EFCD72F2EFAD700D07C9EB10E63
:101AA800226E000E236E79EC0EF0B10E226E000E3F
:101AB800236E48EC0CF0B10E206E000E216ED10E94
:101AC800226E000E236EDA0E246E000E256E0CECCC
:101AD80007F02E6E9C0E0001AD25D96E000EAE21CA
:101AE800DA6E2EC0DFFFAD4BAE2B8096000EB06FC6
:101AF800000EAF6F27EF0DF019EF00F0000E09147C
:101B0800116E000E0A14126E800E0B14136E7F0EE7
:101B18000C14146E1150121013101410D8A497EF4F
:101B28000DF099EF0DF0A1EF0DF0000E096E000E0B
:101B38000A6E000E0B6E000E0C6E000E0D14116E68
:101B4800000E0E14126E800E0F14136E7F0E1014FA
:101B5800146E1150121013101410D8A4B6EF0DF013
:101B6800B8EF0DF0C0EF0DF0000E0D6E000E0E6E0A
:101B7800000E0F6E000E106E0CAEC5EF0DF0C7EF25
:101B88000DF0D0EF0DF0096C0A1ED8B00A2A0B1E12
:101B9800D8B00B2A800E0C5610AED5EF0DF0D7EF4B
:101BA8000DF0E0EF0DF00D6C0E1ED8B00E2A0F1ED2
:101BB800D8B00F2A800E1056000E091A000E0A1A05
:101BC800000E0B1A800E0C1A000E0D1A000E0E1ABB
:101BD800000E0F1A800E101A0D50095C0E500A588C
:101BE8000F500B5810500C58D8B0FDEF0DF0FFEF08
:101BF8000DF002EF0EF0D89003EF0EF0D88012002F
:101C08001CC0D9FF1DC0DAFF050EDF6E1EC0D9FF4C
:101C18001FC0DAFF050EDF6E20EE01F01E50D92638
:101C28001F50DA22010EDF6E20EE01F01C50D9267B
:101C38001D50DA22010EDF6E20EE02F01C50D9266C
:101C48001D50DA22010EDF6E20EE02F01E50D9265A
:101C58001F50DA22010EDF6E48EF0EF01CC0D9FFCC
:101C68001DC0DAFFDF2A1EC0D9FF1FC0DAFFDF2A36
:101C78001CC016F01DC017F092EC0BF01EC016F039
:101C88001FC017F092EC0BF01CC0D9FF1DC0DAFF83
:101C9800150EDF6052EF0EF054EF0EF060EF0EF00D
:101CA8001EC0D9FF1FC0DAFF140EDF645EEF0EF00E
:101CB80060EF0EF032EF0EF01CC0D9FF1DC0DAFF46
:101CC800140EDF6E1EC0D9FF1FC0DAFF140EDF6EC0
:101CD8001CC016F01DC017F092EC0BF01EC016F0D9
:101CE8001FC017F092EC0BF0120032EC10F00DC090
:101CF80014F00EC015F0166A176A000EB8EC0AF058
:101D080022C0D9FF23C0DAFF14C0DEFF15C0DEFFF2
:101D180016C0DEFF17C0DEFFAAEC10F00DC014F0ED
:101D28000EC015F0166A176A000EB8EC0AF020EE1D
:101D380008F02250D9262350DA2214C0DEFF15C03D
:101D4800DEFF16C0DEFF17C0DEFF5AEC10F00DC034
:101D580014F00EC015F0166A176A000EB8EC0AF0F7
:101D680020EE04F02250D9262350DA2214C0DEFFD8
:101D780015C0DEFF16C0DEFF17C0DEFF82EC10F0D4
:101D88000DC014F00EC015F0166A176A000EB8ECF4
:101D98000AF020EE0CF02250D9262350DA2214C083
:101DA800DEFF15C0DEFF16C0DEFF17C0DEFF120023
:101DB800050E0E01746F060E766F070E696F080E1A
:101DC800886FBD508F0B3009BD6EE00EBE16BF5038
:101DD800F00B0109BF6EC80EBC6EBD8E000EAA6E58
:101DE800000EA66E000E0F01256F000E216FFC0E6F
:101DF800AD16F30EAD16CF0EAD163F0EAD16AB8871
:101E0800AB50F00B0C09AB6EAB8EA788A750F00B4C
:101E18000C09A76EA78E26892651F00B0C09266F90
:101E2800268F22892251F00B0C09226F228F120073
:101E3800000E146E000E136E11501210D8B427EF56
:101E48000FF029EF0FF051EF0FF0010E156E31EF83
:101E58000FF0D89011361236152A12AE36EF0FF061
:101E680038EF0FF02DEF0FF0D890133614361150CD
:101E78000F5C12501058D8A044EF0FF046EF0FF047
:101E88004BEF0FF011500F5E1250105A1380D8907C
:101E980012321132152E38EF0FF013C00FF014C0A4
:101EA80010F012001CC0D9FF1DC0DAFF320EDF6E21
:101EB8001EC0D9FF1FC0DAFF320EDF6E20EE02F01F
:101EC8001C50D9261D50DA22010EDF6E20EE02F0DA
:101ED8001E50D9261F50DA22010EDF6E20EE01F0C7
:101EE8001E50D9261F50DA22000EDF6E20EE01F0B8
:101EF8001C50D9261D50DA22010EDF6E1CC016F0C8
:101F08001DC017F092EC0BF01EC016F01FC017F0A2
:101F180092EC0BF012001CC0D9FF1DC0DAFF320E84
:101F2800DF6E1EC0D9FF1FC0DAFF320EDF6E20EE53
:101F380002F01C50D9261D50DA22010EDF6E20EE69
:101F480002F01E50D9261F50DA22010EDF6E20EE55
:101F580001F01C50D9261D50DA22000EDF6E20EE4B
:101F680001F01E50D9261F50DA22010EDF6E1CC068
:101F780016F01DC017F092EC0BF01EC016F01FC033
:101F880017F092EC0BF0120009C0D9FF0AC0DAFF73
:101F9800320EDF6E20EE01F00950D9260A50DA22FF
:101FA800010EDF6E20EE02F00950D9260A50DA221F
:101FB800010EDF6E20EE05F00950D9260A50DA220C
:101FC800250EDE6E0F0EDD6E20EE07F00950D926C5
:101FD8000A50DA22210EDE6E0F0EDD6E20EE03F0BF
:101FE8000950D9260A50DA22C80EDE6E000EDD6EC0
:101FF800120009C0D9FF0AC0DAFF320EDF6E20EEE8
:1020080001F00950D9260A50DA22010EDF6E20EEBF
:1020180002F00950D9260A50DA22010EDF6E20EEAE
:1020280005F00950D9260A50DA22AA0EDE6E0F0EE4
:10203800DD6E20EE07F00950D9260A50DA22A60EE6
:10204800DE6E0F0EDD6E20EE03F00950D9260A5021
:10205800DA22C80EDE6E000EDD6E12004CEC12F0B5
:10206800520E30EC12F0B60E30EC12F042EC12F0D8
:10207800530E30EC12F0010EF3EC10F00F6E0F500F
:10208800126E136A000EF3EC10F00F6E0F50116E03
:10209800106A12501010126E13501110136E47EC84
:1020A80012F012C00DF013C00EF012004CEC12F03A
:1020B800520E30EC12F0B80E30EC12F042EC12F086
:1020C800530E30EC12F0010EF3EC10F00F6E0F50BF
:1020D800126E136A000EF3EC10F00F6E0F50116EB3
:1020E800106A12501010126E13501110136E47EC34
:1020F80012F012C00DF013C00EF012004CEC12F0EA
:10210800520E30EC12F0B40E30EC12F042EC12F039
:10211800530E30EC12F0010EF3EC10F00F6E0F506E
:10212800126E136A000EF3EC10F00F6E0F50116E62
:10213800106A12501010126E13501110136E47ECE3
:1021480012F012C00DF013C00EF012004CEC12F099
:10215800520E30EC12F0BA0E30EC12F042EC12F0E3
:10216800530E30EC12F0010EF3EC10F00F6E0F501E
:10217800126E136A000EF3EC10F00F6E0F50116E12
:10218800106A12501010126E13501110136E47EC93
:1021980012F012C00DF013C00EF01200B60EF66E5B
:1021A800240EF76E000EF86E0900F5CFE3F0090073
:1021B800F5CFE4F000EE60F0510EEE6AE806FDE1BE
:1021C80000EE30F0230EEE6AE806FDE153905392DC
:1021D800000EF86E0E0EF76E0001F1EF0CF00B6EAC
:1021E8009FEC11F00E01DA879FEC11F0D5CE0CF0C0
:1021F8009FEC11F00B50D8B404EF11F008EF11F078
:102208000A6A0A2A09EF11F00A6A0A3A0A460E010E
:10221800DA510A18DF0B0A18DA6FDA890C50120043
:1022280060EC11F0010E0B6E000EDAEC11F03F0EAF
:102238000D6E550EE82EFED70D2EFCD700F0030EBE
:102248000B6E000EDAEC11F0D50E0B6E010EDAEC07
:1022580011F012001CC0D9FF1DC0DAFF000EDF6E9E
:102268001EC0D9FF1FC0DAFF000EDF6E1CC016F0BB
:102278001DC017F092EC0BF01EC016F01FC017F02F
:1022880092EC0BF0120056EC12F0520E3CEC12F0ED
:10229800E60E3CEC12F051EC12F007EC12F036ECC2
:1022A80012F0E3C005F0E4C006F0ABC007F0ACC024
:1022B80008F08AEC11F012000E01D951F00B080950
:1022C800D96FD98B9F0ED66F848A848CA79BA79DC4
:1022D8001D0E1D6F1E0E1C6F1C0E6F6F1B0E706F78
:1022E80012000FC00BF0040EDAEC11F010500B6E58
:1022F800050EDAEC11F00DC00BF0060EDAEC11F059
:102308000E500B6E070EDAEC11F0120007C003F046
:10231800040EEAEC11F00850036E050EEAEC11F019
:1023280005C003F0060EEAEC11F00650036E070E26
:10233800EAEC11F012000E01D8B5A5EF11F0A7EFE5
:1023480011F09FEF11F0DACE09F01F0E0916D8A48C
:10235800B0EF11F0B2EF11F09FEF11F012000E0183
:10236800D8B5B9EF11F0BBEF11F0B3EF11F0DACE39
:1023780001F01F0E0116D8A4C4EF11F0C6EF11F03A
:10238800B3EF11F0120009500B02F3CF0DF0F4CFA8
:102398000EF009500C02F3500E260A500B02F350AF
:1023A8000E260DC009F00EC00AF012000C6E4CEC9F
:1023B80012F0520E30EC12F00C50800930EC12F092
:1023C8000B5030EC12F047EC12F01200046E56EC91
:1023D80012F0520E3CEC12F0045080093CEC12F062
:1023E80003503CEC12F051EC12F01200130E0B6E7D
:1023F800000EDAEC11F0D00E0D6ECA0EE82EFED7E4
:102408000D2EFCD71200130E036E000EEAEC11F02D
:10241800D00E056ECA0EE82EFED7052EFCD7120088
:1024280087907F8081987988869E7E8E819679862E
:10243800859E7D8E120082800E019A9133912981AA
:102448001F81F290F28AF28CF28E1200020E0B6E4D
:102458000C0EDAEC11F012000A6E9FEC11F00AC0B3
:10246800D5FE1200020E036E0C0EEAEC11F01200FB
:10247800026EB3EC11F002C0D5FE12009FEC11F011
:102488000E01DA8312009FEC11F00E01DA851200BA
:102498009FEC11F00E01DA811200B3EC11F00E017D
:1024A800DA851200B3EC11F00E01DA811200C409CA
:020000040020DA
:10000000FF0FFF0FFF0FFF0FFF0FFF0FFF0FFF0F80
:020000040030CA
:0C000000AAFFFFFF9FFFFFFFFFFFFFFFB5
:00000001FF
